{
  "contractName": "NftMarket",
  "abi": [
    {
      "inputs": [],
      "stateMutability": "nonpayable",
      "type": "constructor"
    },
    {
      "anonymous": false,
      "inputs": [
        {
          "indexed": true,
          "internalType": "address",
          "name": "owner",
          "type": "address"
        },
        {
          "indexed": true,
          "internalType": "address",
          "name": "approved",
          "type": "address"
        },
        {
          "indexed": true,
          "internalType": "uint256",
          "name": "tokenId",
          "type": "uint256"
        }
      ],
      "name": "Approval",
      "type": "event"
    },
    {
      "anonymous": false,
      "inputs": [
        {
          "indexed": true,
          "internalType": "address",
          "name": "owner",
          "type": "address"
        },
        {
          "indexed": true,
          "internalType": "address",
          "name": "operator",
          "type": "address"
        },
        {
          "indexed": false,
          "internalType": "bool",
          "name": "approved",
          "type": "bool"
        }
      ],
      "name": "ApprovalForAll",
      "type": "event"
    },
    {
      "anonymous": false,
      "inputs": [
        {
          "indexed": false,
          "internalType": "uint256",
          "name": "tokenId",
          "type": "uint256"
        },
        {
          "indexed": false,
          "internalType": "uint256",
          "name": "price",
          "type": "uint256"
        },
        {
          "indexed": false,
          "internalType": "address",
          "name": "creator",
          "type": "address"
        },
        {
          "indexed": false,
          "internalType": "bool",
          "name": "isListed",
          "type": "bool"
        }
      ],
      "name": "NftItemCreated",
      "type": "event"
    },
    {
      "anonymous": false,
      "inputs": [
        {
          "indexed": true,
          "internalType": "address",
          "name": "previousOwner",
          "type": "address"
        },
        {
          "indexed": true,
          "internalType": "address",
          "name": "newOwner",
          "type": "address"
        }
      ],
      "name": "OwnershipTransferred",
      "type": "event"
    },
    {
      "anonymous": false,
      "inputs": [
        {
          "indexed": true,
          "internalType": "address",
          "name": "from",
          "type": "address"
        },
        {
          "indexed": true,
          "internalType": "address",
          "name": "to",
          "type": "address"
        },
        {
          "indexed": true,
          "internalType": "uint256",
          "name": "tokenId",
          "type": "uint256"
        }
      ],
      "name": "Transfer",
      "type": "event"
    },
    {
      "stateMutability": "payable",
      "type": "fallback",
      "payable": true
    },
    {
      "inputs": [
        {
          "internalType": "address",
          "name": "to",
          "type": "address"
        },
        {
          "internalType": "uint256",
          "name": "tokenId",
          "type": "uint256"
        }
      ],
      "name": "approve",
      "outputs": [],
      "stateMutability": "nonpayable",
      "type": "function"
    },
    {
      "inputs": [
        {
          "internalType": "address",
          "name": "owner",
          "type": "address"
        }
      ],
      "name": "balanceOf",
      "outputs": [
        {
          "internalType": "uint256",
          "name": "",
          "type": "uint256"
        }
      ],
      "stateMutability": "view",
      "type": "function",
      "constant": true
    },
    {
      "inputs": [
        {
          "internalType": "uint256",
          "name": "tokenId",
          "type": "uint256"
        }
      ],
      "name": "getApproved",
      "outputs": [
        {
          "internalType": "address",
          "name": "",
          "type": "address"
        }
      ],
      "stateMutability": "view",
      "type": "function",
      "constant": true
    },
    {
      "inputs": [
        {
          "internalType": "address",
          "name": "owner",
          "type": "address"
        },
        {
          "internalType": "address",
          "name": "operator",
          "type": "address"
        }
      ],
      "name": "isApprovedForAll",
      "outputs": [
        {
          "internalType": "bool",
          "name": "",
          "type": "bool"
        }
      ],
      "stateMutability": "view",
      "type": "function",
      "constant": true
    },
    {
      "inputs": [],
      "name": "listingPrice",
      "outputs": [
        {
          "internalType": "uint256",
          "name": "",
          "type": "uint256"
        }
      ],
      "stateMutability": "view",
      "type": "function",
      "constant": true
    },
    {
      "inputs": [],
      "name": "name",
      "outputs": [
        {
          "internalType": "string",
          "name": "",
          "type": "string"
        }
      ],
      "stateMutability": "view",
      "type": "function",
      "constant": true
    },
    {
      "inputs": [],
      "name": "owner",
      "outputs": [
        {
          "internalType": "address",
          "name": "",
          "type": "address"
        }
      ],
      "stateMutability": "view",
      "type": "function",
      "constant": true
    },
    {
      "inputs": [
        {
          "internalType": "uint256",
          "name": "tokenId",
          "type": "uint256"
        }
      ],
      "name": "ownerOf",
      "outputs": [
        {
          "internalType": "address",
          "name": "",
          "type": "address"
        }
      ],
      "stateMutability": "view",
      "type": "function",
      "constant": true
    },
    {
      "inputs": [],
      "name": "renounceOwnership",
      "outputs": [],
      "stateMutability": "nonpayable",
      "type": "function"
    },
    {
      "inputs": [
        {
          "internalType": "address",
          "name": "from",
          "type": "address"
        },
        {
          "internalType": "address",
          "name": "to",
          "type": "address"
        },
        {
          "internalType": "uint256",
          "name": "tokenId",
          "type": "uint256"
        }
      ],
      "name": "safeTransferFrom",
      "outputs": [],
      "stateMutability": "nonpayable",
      "type": "function"
    },
    {
      "inputs": [
        {
          "internalType": "address",
          "name": "from",
          "type": "address"
        },
        {
          "internalType": "address",
          "name": "to",
          "type": "address"
        },
        {
          "internalType": "uint256",
          "name": "tokenId",
          "type": "uint256"
        },
        {
          "internalType": "bytes",
          "name": "data",
          "type": "bytes"
        }
      ],
      "name": "safeTransferFrom",
      "outputs": [],
      "stateMutability": "nonpayable",
      "type": "function"
    },
    {
      "inputs": [
        {
          "internalType": "address",
          "name": "operator",
          "type": "address"
        },
        {
          "internalType": "bool",
          "name": "approved",
          "type": "bool"
        }
      ],
      "name": "setApprovalForAll",
      "outputs": [],
      "stateMutability": "nonpayable",
      "type": "function"
    },
    {
      "inputs": [
        {
          "internalType": "bytes4",
          "name": "interfaceId",
          "type": "bytes4"
        }
      ],
      "name": "supportsInterface",
      "outputs": [
        {
          "internalType": "bool",
          "name": "",
          "type": "bool"
        }
      ],
      "stateMutability": "view",
      "type": "function",
      "constant": true
    },
    {
      "inputs": [],
      "name": "symbol",
      "outputs": [
        {
          "internalType": "string",
          "name": "",
          "type": "string"
        }
      ],
      "stateMutability": "view",
      "type": "function",
      "constant": true
    },
    {
      "inputs": [
        {
          "internalType": "uint256",
          "name": "tokenId",
          "type": "uint256"
        }
      ],
      "name": "tokenURI",
      "outputs": [
        {
          "internalType": "string",
          "name": "",
          "type": "string"
        }
      ],
      "stateMutability": "view",
      "type": "function",
      "constant": true
    },
    {
      "inputs": [
        {
          "internalType": "address",
          "name": "from",
          "type": "address"
        },
        {
          "internalType": "address",
          "name": "to",
          "type": "address"
        },
        {
          "internalType": "uint256",
          "name": "tokenId",
          "type": "uint256"
        }
      ],
      "name": "transferFrom",
      "outputs": [],
      "stateMutability": "nonpayable",
      "type": "function"
    },
    {
      "inputs": [
        {
          "internalType": "address",
          "name": "newOwner",
          "type": "address"
        }
      ],
      "name": "transferOwnership",
      "outputs": [],
      "stateMutability": "nonpayable",
      "type": "function"
    },
    {
      "inputs": [
        {
          "internalType": "address",
          "name": "to",
          "type": "address"
        },
        {
          "internalType": "string",
          "name": "uri",
          "type": "string"
        }
      ],
      "name": "safeMint",
      "outputs": [],
      "stateMutability": "nonpayable",
      "type": "function"
    },
    {
      "inputs": [
        {
          "internalType": "uint256",
          "name": "newPrice",
          "type": "uint256"
        }
      ],
      "name": "setListingPrice",
      "outputs": [],
      "stateMutability": "nonpayable",
      "type": "function"
    },
    {
      "inputs": [
        {
          "internalType": "uint256",
          "name": "tokenId",
          "type": "uint256"
        }
      ],
      "name": "getNftItem",
      "outputs": [
        {
          "components": [
            {
              "internalType": "uint256",
              "name": "tokenId",
              "type": "uint256"
            },
            {
              "internalType": "uint256",
              "name": "price",
              "type": "uint256"
            },
            {
              "internalType": "address",
              "name": "creator",
              "type": "address"
            },
            {
              "internalType": "bool",
              "name": "isListed",
              "type": "bool"
            }
          ],
          "internalType": "struct NftMarket.NftItem",
          "name": "",
          "type": "tuple"
        }
      ],
      "stateMutability": "view",
      "type": "function",
      "constant": true
    },
    {
      "inputs": [],
      "name": "listedItemsCount",
      "outputs": [
        {
          "internalType": "uint256",
          "name": "",
          "type": "uint256"
        }
      ],
      "stateMutability": "view",
      "type": "function",
      "constant": true
    },
    {
      "inputs": [
        {
          "internalType": "string",
          "name": "tokenURI",
          "type": "string"
        }
      ],
      "name": "tokenURIExists",
      "outputs": [
        {
          "internalType": "bool",
          "name": "",
          "type": "bool"
        }
      ],
      "stateMutability": "view",
      "type": "function",
      "constant": true
    },
    {
      "inputs": [],
      "name": "totalSupply",
      "outputs": [
        {
          "internalType": "uint256",
          "name": "",
          "type": "uint256"
        }
      ],
      "stateMutability": "view",
      "type": "function",
      "constant": true
    },
    {
      "inputs": [
        {
          "internalType": "uint256",
          "name": "index",
          "type": "uint256"
        }
      ],
      "name": "tokenByIndex",
      "outputs": [
        {
          "internalType": "uint256",
          "name": "",
          "type": "uint256"
        }
      ],
      "stateMutability": "view",
      "type": "function",
      "constant": true
    },
    {
      "inputs": [
        {
          "internalType": "address",
          "name": "owner",
          "type": "address"
        },
        {
          "internalType": "uint256",
          "name": "index",
          "type": "uint256"
        }
      ],
      "name": "tokenOfOwnerByIndex",
      "outputs": [
        {
          "internalType": "uint256",
          "name": "",
          "type": "uint256"
        }
      ],
      "stateMutability": "view",
      "type": "function",
      "constant": true
    },
    {
      "inputs": [],
      "name": "getAllNftsOnSale",
      "outputs": [
        {
          "components": [
            {
              "internalType": "uint256",
              "name": "tokenId",
              "type": "uint256"
            },
            {
              "internalType": "uint256",
              "name": "price",
              "type": "uint256"
            },
            {
              "internalType": "address",
              "name": "creator",
              "type": "address"
            },
            {
              "internalType": "bool",
              "name": "isListed",
              "type": "bool"
            }
          ],
          "internalType": "struct NftMarket.NftItem[]",
          "name": "",
          "type": "tuple[]"
        }
      ],
      "stateMutability": "view",
      "type": "function",
      "constant": true
    },
    {
      "inputs": [
        {
          "internalType": "address",
          "name": "account",
          "type": "address"
        }
      ],
      "name": "getOwnedNfts",
      "outputs": [
        {
          "components": [
            {
              "internalType": "uint256",
              "name": "tokenId",
              "type": "uint256"
            },
            {
              "internalType": "uint256",
              "name": "price",
              "type": "uint256"
            },
            {
              "internalType": "address",
              "name": "creator",
              "type": "address"
            },
            {
              "internalType": "bool",
              "name": "isListed",
              "type": "bool"
            }
          ],
          "internalType": "struct NftMarket.NftItem[]",
          "name": "",
          "type": "tuple[]"
        }
      ],
      "stateMutability": "view",
      "type": "function",
      "constant": true
    },
    {
      "inputs": [
        {
          "internalType": "string",
          "name": "tokenURI",
          "type": "string"
        },
        {
          "internalType": "address",
          "name": "account",
          "type": "address"
        },
        {
          "internalType": "uint256",
          "name": "price",
          "type": "uint256"
        }
      ],
      "name": "mintToken",
      "outputs": [
        {
          "internalType": "uint256",
          "name": "",
          "type": "uint256"
        }
      ],
      "stateMutability": "payable",
      "type": "function",
      "payable": true
    },
    {
      "inputs": [
        {
          "internalType": "uint256",
          "name": "tokenId",
          "type": "uint256"
        },
        {
          "internalType": "address payable",
          "name": "_to",
          "type": "address"
        }
      ],
      "name": "buyNft",
      "outputs": [],
      "stateMutability": "payable",
      "type": "function",
      "payable": true
    },
    {
      "inputs": [
        {
          "internalType": "uint256",
          "name": "tokenId",
          "type": "uint256"
        },
        {
          "internalType": "address",
          "name": "account",
          "type": "address"
        },
        {
          "internalType": "uint256",
          "name": "price",
          "type": "uint256"
        }
      ],
      "name": "placeNftOnSale",
      "outputs": [],
      "stateMutability": "payable",
      "type": "function",
      "payable": true
    },
    {
      "inputs": [
        {
          "internalType": "string",
          "name": "uri",
          "type": "string"
        }
      ],
      "name": "isContentOwned",
      "outputs": [
        {
          "internalType": "bool",
          "name": "",
          "type": "bool"
        }
      ],
      "stateMutability": "view",
      "type": "function",
      "constant": true
    },
    {
      "inputs": [],
      "name": "count",
      "outputs": [
        {
          "internalType": "uint256",
          "name": "",
          "type": "uint256"
        }
      ],
      "stateMutability": "view",
      "type": "function",
      "constant": true
    }
  ],
  "bytecode": "0x60806040526658d15e17628000600a553480156200001c57600080fd5b506040518060400160405280600981526020017f416e63686f724e667400000000000000000000000000000000000000000000008152506040518060400160405280600681526020017f414e43484f5200000000000000000000000000000000000000000000000000008152508160009080519060200190620000a1929190620001b1565b508060019080519060200190620000ba929190620001b1565b505050620000dd620000d1620000e360201b60201c565b620000eb60201b60201c565b620002c6565b600033905090565b6000600760009054906101000a900473ffffffffffffffffffffffffffffffffffffffff16905081600760006101000a81548173ffffffffffffffffffffffffffffffffffffffff021916908373ffffffffffffffffffffffffffffffffffffffff1602179055508173ffffffffffffffffffffffffffffffffffffffff168173ffffffffffffffffffffffffffffffffffffffff167f8be0079c531659141344cd1fd0a4f28419497f9722a3daafe3b4186f6b6457e060405160405180910390a35050565b828054620001bf9062000290565b90600052602060002090601f016020900481019282620001e357600085556200022f565b82601f10620001fe57805160ff19168380011785556200022f565b828001600101855582156200022f579182015b828111156200022e57825182559160200191906001019062000211565b5b5090506200023e919062000242565b5090565b5b808211156200025d57600081600090555060010162000243565b5090565b7f4e487b7100000000000000000000000000000000000000000000000000000000600052602260045260246000fd5b60006002820490506001821680620002a957607f821691505b60208210811415620002c057620002bf62000261565b5b50919050565b614ae280620002d66000396000f3fe6080604052600436106101e75760003560e01c8063715018a611610102578063c78f19f911610095578063cf2a916911610064578063cf2a916914610726578063d204c45e14610756578063e985e9c51461077f578063f2fde38b146107bc576101e8565b8063c78f19f914610656578063c7adece014610681578063c87b56dd146106be578063ccb4918d146106fb576101e8565b80639f1cabc6116100d15780639f1cabc6146105ab578063a22cb465146105e8578063b88d4fde14610611578063bc3ad1451461063a576101e8565b8063715018a6146105155780637c726b691461052c5780638da5cb5b1461055557806395d89b4114610580576101e8565b806336b536be1161017a5780635356acf2116101495780635356acf2146104425780636352211e1461045e5780636f1a0af51461049b57806370a08231146104d8576101e8565b806336b536be1461037457806342842e0e1461039f57806343d32ae7146103c85780634f6ccce714610405576101e8565b8063095ea7b3116101b6578063095ea7b3146102ba57806318160ddd146102e357806323b872dd1461030e5780632f745c5914610337576101e8565b806301ffc9a7146101ea57806306661abd1461022757806306fdde0314610252578063081812fc1461027d576101e8565b5b005b3480156101f657600080fd5b50610211600480360381019061020c91906130ac565b6107e5565b60405161021e91906130f4565b60405180910390f35b34801561023357600080fd5b5061023c6108c7565b6040516102499190613128565b60405180910390f35b34801561025e57600080fd5b506102676108d8565b60405161027491906131dc565b60405180910390f35b34801561028957600080fd5b506102a4600480360381019061029f919061322a565b61096a565b6040516102b19190613298565b60405180910390f35b3480156102c657600080fd5b506102e160048036038101906102dc91906132df565b6109b0565b005b3480156102ef57600080fd5b506102f8610ac8565b6040516103059190613128565b60405180910390f35b34801561031a57600080fd5b506103356004803603810190610330919061331f565b610ad5565b005b34801561034357600080fd5b5061035e600480360381019061035991906132df565b610b35565b60405161036b9190613128565b60405180910390f35b34801561038057600080fd5b50610389610bda565b60405161039691906134a3565b60405180910390f35b3480156103ab57600080fd5b506103c660048036038101906103c1919061331f565b610d75565b005b3480156103d457600080fd5b506103ef60048036038101906103ea91906135fa565b610d95565b6040516103fc91906130f4565b60405180910390f35b34801561041157600080fd5b5061042c6004803603810190610427919061322a565b610dd1565b6040516104399190613128565b60405180910390f35b61045c60048036038101906104579190613643565b610e42565b005b34801561046a57600080fd5b506104856004803603810190610480919061322a565b611064565b6040516104929190613298565b60405180910390f35b3480156104a757600080fd5b506104c260048036038101906104bd919061322a565b611116565b6040516104cf91906136eb565b60405180910390f35b3480156104e457600080fd5b506104ff60048036038101906104fa9190613706565b6111c8565b60405161050c9190613128565b60405180910390f35b34801561052157600080fd5b5061052a611280565b005b34801561053857600080fd5b50610553600480360381019061054e919061322a565b611294565b005b34801561056157600080fd5b5061056a6112e9565b6040516105779190613298565b60405180910390f35b34801561058c57600080fd5b50610595611313565b6040516105a291906131dc565b60405180910390f35b3480156105b757600080fd5b506105d260048036038101906105cd91906135fa565b6113a5565b6040516105df91906130f4565b60405180910390f35b3480156105f457600080fd5b5061060f600480360381019061060a919061375f565b6113e0565b005b34801561061d57600080fd5b5061063860048036038101906106339190613840565b6113f6565b005b610654600480360381019061064f9190613901565b611458565b005b34801561066257600080fd5b5061066b61182b565b6040516106789190613128565b60405180910390f35b34801561068d57600080fd5b506106a860048036038101906106a39190613706565b611831565b6040516106b591906134a3565b60405180910390f35b3480156106ca57600080fd5b506106e560048036038101906106e0919061322a565b611a78565b6040516106f291906131dc565b60405180910390f35b34801561070757600080fd5b50610710611b8b565b60405161071d9190613128565b60405180910390f35b610740600480360381019061073b9190613941565b611b9c565b60405161074d9190613128565b60405180910390f35b34801561076257600080fd5b5061077d600480360381019061077891906139b0565b611dba565b005b34801561078b57600080fd5b506107a660048036038101906107a19190613a0c565b611df3565b6040516107b391906130f4565b60405180910390f35b3480156107c857600080fd5b506107e360048036038101906107de9190613706565b611e87565b005b60007f80ac58cd000000000000000000000000000000000000000000000000000000007bffffffffffffffffffffffffffffffffffffffffffffffffffffffff1916827bffffffffffffffffffffffffffffffffffffffffffffffffffffffff191614806108b057507f5b5e139f000000000000000000000000000000000000000000000000000000007bffffffffffffffffffffffffffffffffffffffffffffffffffffffff1916827bffffffffffffffffffffffffffffffffffffffffffffffffffffffff1916145b806108c057506108bf82611f0b565b5b9050919050565b60006108d36008611f75565b905090565b6060600080546108e790613a7b565b80601f016020809104026020016040519081016040528092919081815260200182805461091390613a7b565b80156109605780601f1061093557610100808354040283529160200191610960565b820191906000526020600020905b81548152906001019060200180831161094357829003601f168201915b5050505050905090565b600061097582611f83565b6004600083815260200190815260200160002060009054906101000a900473ffffffffffffffffffffffffffffffffffffffff169050919050565b60006109bb82611064565b90508073ffffffffffffffffffffffffffffffffffffffff168373ffffffffffffffffffffffffffffffffffffffff161415610a2c576040517f08c379a0000000000000000000000000000000000000000000000000000000008152600401610a2390613b1f565b60405180910390fd5b8073ffffffffffffffffffffffffffffffffffffffff16610a4b611fce565b73ffffffffffffffffffffffffffffffffffffffff161480610a7a5750610a7981610a74611fce565b611df3565b5b610ab9576040517f08c379a0000000000000000000000000000000000000000000000000000000008152600401610ab090613bb1565b60405180910390fd5b610ac38383611fd6565b505050565b6000601280549050905090565b610ae6610ae0611fce565b8261208f565b610b25576040517f08c379a0000000000000000000000000000000000000000000000000000000008152600401610b1c90613c43565b60405180910390fd5b610b30838383612124565b505050565b6000610b40836111c8565b8210610b81576040517f08c379a0000000000000000000000000000000000000000000000000000000008152600401610b7890613caf565b60405180910390fd5b601060008473ffffffffffffffffffffffffffffffffffffffff1673ffffffffffffffffffffffffffffffffffffffff168152602001908152602001600020600083815260200190815260200160002054905092915050565b60606000610be6610ac8565b9050600080610bf5600b611f75565b67ffffffffffffffff811115610c0e57610c0d6134cf565b5b604051908082528060200260200182016040528015610c4757816020015b610c34612f5d565b815260200190600190039081610c2c5790505b50905060005b83811015610d6b576000610c6082610dd1565b90506000600f60008381526020019081526020016000209050600115158160020160149054906101000a900460ff1615151415610d56578060405180608001604052908160008201548152602001600182015481526020016002820160009054906101000a900473ffffffffffffffffffffffffffffffffffffffff1673ffffffffffffffffffffffffffffffffffffffff1673ffffffffffffffffffffffffffffffffffffffff1681526020016002820160149054906101000a900460ff161515151581525050848681518110610d3b57610d3a613ccf565b5b6020026020010181905250600185610d539190613d2d565b94505b50508080610d6390613d83565b915050610c4d565b5080935050505090565b610d90838383604051806020016040528060008152506113f6565b505050565b600060011515600e83604051610dab9190613e08565b908152602001604051809103902060009054906101000a900460ff161515149050919050565b6000610ddb610ac8565b8210610e1c576040517f08c379a0000000000000000000000000000000000000000000000000000000008152600401610e1390613caf565b60405180910390fd5b60128281548110610e3057610e2f613ccf565b5b90600052602060002001549050919050565b600073ffffffffffffffffffffffffffffffffffffffff168273ffffffffffffffffffffffffffffffffffffffff161415610e7c57600080fd5b8173ffffffffffffffffffffffffffffffffffffffff16610e9c84611064565b73ffffffffffffffffffffffffffffffffffffffff1614610ef2576040517f08c379a0000000000000000000000000000000000000000000000000000000008152600401610ee990613e6b565b60405180910390fd5b60001515600f600085815260200190815260200160002060020160149054906101000a900460ff16151514610f5c576040517f08c379a0000000000000000000000000000000000000000000000000000000008152600401610f5390613ed7565b60405180910390fd5b60003073ffffffffffffffffffffffffffffffffffffffff16600a54604051610f8490613f28565b60006040518083038185875af1925050503d8060008114610fc1576040519150601f19603f3d011682016040523d82523d6000602084013e610fc6565b606091505b505090508061100a576040517f08c379a000000000000000000000000000000000000000000000000000000000815260040161100190613f89565b60405180910390fd5b6001600f600086815260200190815260200160002060020160146101000a81548160ff02191690831515021790555081600f60008681526020019081526020016000206001018190555061105e600b61238b565b50505050565b6000806002600084815260200190815260200160002060009054906101000a900473ffffffffffffffffffffffffffffffffffffffff169050600073ffffffffffffffffffffffffffffffffffffffff168173ffffffffffffffffffffffffffffffffffffffff16141561110d576040517f08c379a000000000000000000000000000000000000000000000000000000000815260040161110490613ff5565b60405180910390fd5b80915050919050565b61111e612f5d565b600f600083815260200190815260200160002060405180608001604052908160008201548152602001600182015481526020016002820160009054906101000a900473ffffffffffffffffffffffffffffffffffffffff1673ffffffffffffffffffffffffffffffffffffffff1673ffffffffffffffffffffffffffffffffffffffff1681526020016002820160149054906101000a900460ff1615151515815250509050919050565b60008073ffffffffffffffffffffffffffffffffffffffff168273ffffffffffffffffffffffffffffffffffffffff161415611239576040517f08c379a000000000000000000000000000000000000000000000000000000000815260040161123090614087565b60405180910390fd5b600360008373ffffffffffffffffffffffffffffffffffffffff1673ffffffffffffffffffffffffffffffffffffffff168152602001908152602001600020549050919050565b6112886123a1565b611292600061241f565b565b61129c6123a1565b600081116112df576040517f08c379a00000000000000000000000000000000000000000000000000000000081526004016112d6906140f3565b60405180910390fd5b80600a8190555050565b6000600760009054906101000a900473ffffffffffffffffffffffffffffffffffffffff16905090565b60606001805461132290613a7b565b80601f016020809104026020016040519081016040528092919081815260200182805461134e90613a7b565b801561139b5780601f106113705761010080835404028352916020019161139b565b820191906000526020600020905b81548152906001019060200180831161137e57829003601f168201915b5050505050905090565b600060016009836040516113b99190613e08565b908152602001604051809103902060009054906101000a900460ff1660ff16149050919050565b6113f26113eb611fce565b83836124e5565b5050565b611407611401611fce565b8361208f565b611446576040517f08c379a000000000000000000000000000000000000000000000000000000000815260040161143d90613c43565b60405180910390fd5b61145284848484612652565b50505050565b600073ffffffffffffffffffffffffffffffffffffffff168173ffffffffffffffffffffffffffffffffffffffff16141561149257600080fd5b600061149d83611064565b90508073ffffffffffffffffffffffffffffffffffffffff168273ffffffffffffffffffffffffffffffffffffffff16141561150e576040517f08c379a00000000000000000000000000000000000000000000000000000000081526004016115059061415f565b60405180910390fd5b600a54600f6000858152602001908152602001600020600101546115329190613d2d565b341015611574576040517f08c379a000000000000000000000000000000000000000000000000000000000815260040161156b906141f1565b60405180910390fd5b61157e600b6126ae565b600d60008273ffffffffffffffffffffffffffffffffffffffff1673ffffffffffffffffffffffffffffffffffffffff16815260200190815260200160002060008154809291906115ce90614211565b9190505550600d60008373ffffffffffffffffffffffffffffffffffffffff1673ffffffffffffffffffffffffffffffffffffffff168152602001908152602001600020600081548092919061162390613d83565b91905055506000600f600085815260200190815260200160002060020160146101000a81548160ff0219169083151502179055506000600a5434611667919061423b565b905060008273ffffffffffffffffffffffffffffffffffffffff168260405161168f90613f28565b60006040518083038185875af1925050503d80600081146116cc576040519150601f19603f3d011682016040523d82523d6000602084013e6116d1565b606091505b5050905080611715576040517f08c379a000000000000000000000000000000000000000000000000000000000815260040161170c906142bb565b60405180910390fd5b611720838587612124565b83600f600087815260200190815260200160002060020160006101000a81548173ffffffffffffffffffffffffffffffffffffffff021916908373ffffffffffffffffffffffffffffffffffffffff16021790555060003073ffffffffffffffffffffffffffffffffffffffff16600a5460405161179d90613f28565b60006040518083038185875af1925050503d80600081146117da576040519150601f19603f3d011682016040523d82523d6000602084013e6117df565b606091505b5050905080611823576040517f08c379a000000000000000000000000000000000000000000000000000000000815260040161181a90613f89565b60405180910390fd5b505050505050565b600a5481565b6060600073ffffffffffffffffffffffffffffffffffffffff168273ffffffffffffffffffffffffffffffffffffffff16141561186d57600080fd5b6000611877610ac8565b9050600080600d60008673ffffffffffffffffffffffffffffffffffffffff1673ffffffffffffffffffffffffffffffffffffffff1681526020019081526020016000205467ffffffffffffffff8111156118d5576118d46134cf565b5b60405190808252806020026020018201604052801561190e57816020015b6118fb612f5d565b8152602001906001900390816118f35790505b50905060005b83811015611a6c57600061192782610dd1565b90506000600f600083815260200190815260200160002090508773ffffffffffffffffffffffffffffffffffffffff168160020160009054906101000a900473ffffffffffffffffffffffffffffffffffffffff1673ffffffffffffffffffffffffffffffffffffffff161415611a57578060405180608001604052908160008201548152602001600182015481526020016002820160009054906101000a900473ffffffffffffffffffffffffffffffffffffffff1673ffffffffffffffffffffffffffffffffffffffff1673ffffffffffffffffffffffffffffffffffffffff1681526020016002820160149054906101000a900460ff161515151581525050848681518110611a3c57611a3b613ccf565b5b6020026020010181905250600185611a549190613d2d565b94505b50508080611a6490613d83565b915050611914565b50809350505050919050565b6060611a8382611f83565b6000600660008481526020019081526020016000208054611aa390613a7b565b80601f0160208091040260200160405190810160405280929190818152602001828054611acf90613a7b565b8015611b1c5780601f10611af157610100808354040283529160200191611b1c565b820191906000526020600020905b815481529060010190602001808311611aff57829003601f168201915b505050505090506000611b2d61270a565b9050600081511415611b43578192505050611b86565b600082511115611b78578082604051602001611b609291906142db565b60405160208183030381529060405292505050611b86565b611b8184612721565b925050505b919050565b6000611b97600b611f75565b905090565b60008073ffffffffffffffffffffffffffffffffffffffff168373ffffffffffffffffffffffffffffffffffffffff161415611bd757600080fd5b611be084610d95565b15611c20576040517f08c379a0000000000000000000000000000000000000000000000000000000008152600401611c179061434b565b60405180910390fd5b600a543414611c64576040517f08c379a0000000000000000000000000000000000000000000000000000000008152600401611c5b906143dd565b60405180910390fd5b611c6e600c61238b565b611c78600b61238b565b600d60008473ffffffffffffffffffffffffffffffffffffffff1673ffffffffffffffffffffffffffffffffffffffff1681526020019081526020016000206000815480929190611cc890613d83565b91905055506000611cd9600c611f75565b9050611ce58482612789565b83600f600083815260200190815260200160002060020160006101000a81548173ffffffffffffffffffffffffffffffffffffffff021916908373ffffffffffffffffffffffffffffffffffffffff160217905550611d4481866127a7565b611d4f81848661281b565b6001600e86604051611d619190613e08565b908152602001604051809103902060006101000a81548160ff0219169083151502179055506012819080600181540180825580915050600190039060005260206000200160009091909190915055809150509392505050565b611dc26123a1565b6000611dce6008611f75565b9050611dda600861238b565b611de48382612789565b611dee81836127a7565b505050565b6000600560008473ffffffffffffffffffffffffffffffffffffffff1673ffffffffffffffffffffffffffffffffffffffff16815260200190815260200160002060008373ffffffffffffffffffffffffffffffffffffffff1673ffffffffffffffffffffffffffffffffffffffff16815260200190815260200160002060009054906101000a900460ff16905092915050565b611e8f6123a1565b600073ffffffffffffffffffffffffffffffffffffffff168173ffffffffffffffffffffffffffffffffffffffff161415611eff576040517f08c379a0000000000000000000000000000000000000000000000000000000008152600401611ef69061446f565b60405180910390fd5b611f088161241f565b50565b60007f01ffc9a7000000000000000000000000000000000000000000000000000000007bffffffffffffffffffffffffffffffffffffffffffffffffffffffff1916827bffffffffffffffffffffffffffffffffffffffffffffffffffffffff1916149050919050565b600081600001549050919050565b611f8c816129a6565b611fcb576040517f08c379a0000000000000000000000000000000000000000000000000000000008152600401611fc290613ff5565b60405180910390fd5b50565b600033905090565b816004600083815260200190815260200160002060006101000a81548173ffffffffffffffffffffffffffffffffffffffff021916908373ffffffffffffffffffffffffffffffffffffffff160217905550808273ffffffffffffffffffffffffffffffffffffffff1661204983611064565b73ffffffffffffffffffffffffffffffffffffffff167f8c5be1e5ebec7d5bd14f71427d1e84f3dd0314c0f7b2291e5b200ac8c7c3b92560405160405180910390a45050565b60008061209b83611064565b90508073ffffffffffffffffffffffffffffffffffffffff168473ffffffffffffffffffffffffffffffffffffffff1614806120dd57506120dc8185611df3565b5b8061211b57508373ffffffffffffffffffffffffffffffffffffffff166121038461096a565b73ffffffffffffffffffffffffffffffffffffffff16145b91505092915050565b8273ffffffffffffffffffffffffffffffffffffffff1661214482611064565b73ffffffffffffffffffffffffffffffffffffffff161461219a576040517f08c379a000000000000000000000000000000000000000000000000000000000815260040161219190614501565b60405180910390fd5b600073ffffffffffffffffffffffffffffffffffffffff168273ffffffffffffffffffffffffffffffffffffffff16141561220a576040517f08c379a000000000000000000000000000000000000000000000000000000000815260040161220190614593565b60405180910390fd5b612215838383612a12565b612220600082611fd6565b6001600360008573ffffffffffffffffffffffffffffffffffffffff1673ffffffffffffffffffffffffffffffffffffffff1681526020019081526020016000206000828254612270919061423b565b925050819055506001600360008473ffffffffffffffffffffffffffffffffffffffff1673ffffffffffffffffffffffffffffffffffffffff16815260200190815260200160002060008282546122c79190613d2d565b92505081905550816002600083815260200190815260200160002060006101000a81548173ffffffffffffffffffffffffffffffffffffffff021916908373ffffffffffffffffffffffffffffffffffffffff160217905550808273ffffffffffffffffffffffffffffffffffffffff168473ffffffffffffffffffffffffffffffffffffffff167fddf252ad1be2c89b69c2b068fc378daa952ba7f163c4a11628f55a4df523b3ef60405160405180910390a4612386838383612a17565b505050565b6001816000016000828254019250508190555050565b6123a9611fce565b73ffffffffffffffffffffffffffffffffffffffff166123c76112e9565b73ffffffffffffffffffffffffffffffffffffffff161461241d576040517f08c379a0000000000000000000000000000000000000000000000000000000008152600401612414906145ff565b60405180910390fd5b565b6000600760009054906101000a900473ffffffffffffffffffffffffffffffffffffffff16905081600760006101000a81548173ffffffffffffffffffffffffffffffffffffffff021916908373ffffffffffffffffffffffffffffffffffffffff1602179055508173ffffffffffffffffffffffffffffffffffffffff168173ffffffffffffffffffffffffffffffffffffffff167f8be0079c531659141344cd1fd0a4f28419497f9722a3daafe3b4186f6b6457e060405160405180910390a35050565b8173ffffffffffffffffffffffffffffffffffffffff168373ffffffffffffffffffffffffffffffffffffffff161415612554576040517f08c379a000000000000000000000000000000000000000000000000000000000815260040161254b9061466b565b60405180910390fd5b80600560008573ffffffffffffffffffffffffffffffffffffffff1673ffffffffffffffffffffffffffffffffffffffff16815260200190815260200160002060008473ffffffffffffffffffffffffffffffffffffffff1673ffffffffffffffffffffffffffffffffffffffff16815260200190815260200160002060006101000a81548160ff0219169083151502179055508173ffffffffffffffffffffffffffffffffffffffff168373ffffffffffffffffffffffffffffffffffffffff167f17307eab39ab6107e8899845ad3d59bd9653f200f220920489ca2b5937696c318360405161264591906130f4565b60405180910390a3505050565b61265d848484612124565b61266984848484612a1c565b6126a8576040517f08c379a000000000000000000000000000000000000000000000000000000000815260040161269f906146fd565b60405180910390fd5b50505050565b600081600001549050600081116126fa576040517f08c379a00000000000000000000000000000000000000000000000000000000081526004016126f190614769565b60405180910390fd5b6001810382600001819055505050565b606060405180602001604052806000815250905090565b606061272c82611f83565b600061273661270a565b905060008151116127565760405180602001604052806000815250612781565b8061276084612ba4565b6040516020016127719291906142db565b6040516020818303038152906040525b915050919050565b6127a3828260405180602001604052806000815250612d05565b5050565b6127b0826129a6565b6127ef576040517f08c379a00000000000000000000000000000000000000000000000000000000081526004016127e6906147fb565b60405180910390fd5b80600660008481526020019081526020016000209080519060200190612816929190612f9d565b505050565b600073ffffffffffffffffffffffffffffffffffffffff168173ffffffffffffffffffffffffffffffffffffffff16141561285557600080fd5b60008211612898576040517f08c379a000000000000000000000000000000000000000000000000000000000815260040161288f906140f3565b60405180910390fd5b60405180608001604052808481526020018381526020018273ffffffffffffffffffffffffffffffffffffffff16815260200160011515815250600f6000858152602001908152602001600020600082015181600001556020820151816001015560408201518160020160006101000a81548173ffffffffffffffffffffffffffffffffffffffff021916908373ffffffffffffffffffffffffffffffffffffffff16021790555060608201518160020160146101000a81548160ff0219169083151502179055509050507f470031062672bc0246e132c723a729c4676710ec663a29e86c88678032daddea8383836001604051612999949392919061481b565b60405180910390a1505050565b60008073ffffffffffffffffffffffffffffffffffffffff166002600084815260200190815260200160002060009054906101000a900473ffffffffffffffffffffffffffffffffffffffff1673ffffffffffffffffffffffffffffffffffffffff1614159050919050565b505050565b505050565b6000612a3d8473ffffffffffffffffffffffffffffffffffffffff16612d60565b15612b97578373ffffffffffffffffffffffffffffffffffffffff1663150b7a02612a66611fce565b8786866040518563ffffffff1660e01b8152600401612a8894939291906148b5565b6020604051808303816000875af1925050508015612ac457506040513d601f19601f82011682018060405250810190612ac19190614916565b60015b612b47573d8060008114612af4576040519150601f19603f3d011682016040523d82523d6000602084013e612af9565b606091505b50600081511415612b3f576040517f08c379a0000000000000000000000000000000000000000000000000000000008152600401612b36906146fd565b60405180910390fd5b805181602001fd5b63150b7a0260e01b7bffffffffffffffffffffffffffffffffffffffffffffffffffffffff1916817bffffffffffffffffffffffffffffffffffffffffffffffffffffffff191614915050612b9c565b600190505b949350505050565b60606000821415612bec576040518060400160405280600181526020017f30000000000000000000000000000000000000000000000000000000000000008152509050612d00565b600082905060005b60008214612c1e578080612c0790613d83565b915050600a82612c179190614972565b9150612bf4565b60008167ffffffffffffffff811115612c3a57612c396134cf565b5b6040519080825280601f01601f191660200182016040528015612c6c5781602001600182028036833780820191505090505b5090505b60008514612cf957600182612c85919061423b565b9150600a85612c9491906149a3565b6030612ca09190613d2d565b60f81b818381518110612cb657612cb5613ccf565b5b60200101907effffffffffffffffffffffffffffffffffffffffffffffffffffffffffffff1916908160001a905350600a85612cf29190614972565b9450612c70565b8093505050505b919050565b612d0f8383612d83565b612d1c6000848484612a1c565b612d5b576040517f08c379a0000000000000000000000000000000000000000000000000000000008152600401612d52906146fd565b60405180910390fd5b505050565b6000808273ffffffffffffffffffffffffffffffffffffffff163b119050919050565b600073ffffffffffffffffffffffffffffffffffffffff168273ffffffffffffffffffffffffffffffffffffffff161415612df3576040517f08c379a0000000000000000000000000000000000000000000000000000000008152600401612dea90614a20565b60405180910390fd5b612dfc816129a6565b15612e3c576040517f08c379a0000000000000000000000000000000000000000000000000000000008152600401612e3390614a8c565b60405180910390fd5b612e4860008383612a12565b6001600360008473ffffffffffffffffffffffffffffffffffffffff1673ffffffffffffffffffffffffffffffffffffffff1681526020019081526020016000206000828254612e989190613d2d565b92505081905550816002600083815260200190815260200160002060006101000a81548173ffffffffffffffffffffffffffffffffffffffff021916908373ffffffffffffffffffffffffffffffffffffffff160217905550808273ffffffffffffffffffffffffffffffffffffffff16600073ffffffffffffffffffffffffffffffffffffffff167fddf252ad1be2c89b69c2b068fc378daa952ba7f163c4a11628f55a4df523b3ef60405160405180910390a4612f5960008383612a17565b5050565b60405180608001604052806000815260200160008152602001600073ffffffffffffffffffffffffffffffffffffffff1681526020016000151581525090565b828054612fa990613a7b565b90600052602060002090601f016020900481019282612fcb5760008555613012565b82601f10612fe457805160ff1916838001178555613012565b82800160010185558215613012579182015b82811115613011578251825591602001919060010190612ff6565b5b50905061301f9190613023565b5090565b5b8082111561303c576000816000905550600101613024565b5090565b6000604051905090565b600080fd5b600080fd5b60007fffffffff0000000000000000000000000000000000000000000000000000000082169050919050565b61308981613054565b811461309457600080fd5b50565b6000813590506130a681613080565b92915050565b6000602082840312156130c2576130c161304a565b5b60006130d084828501613097565b91505092915050565b60008115159050919050565b6130ee816130d9565b82525050565b600060208201905061310960008301846130e5565b92915050565b6000819050919050565b6131228161310f565b82525050565b600060208201905061313d6000830184613119565b92915050565b600081519050919050565b600082825260208201905092915050565b60005b8381101561317d578082015181840152602081019050613162565b8381111561318c576000848401525b50505050565b6000601f19601f8301169050919050565b60006131ae82613143565b6131b8818561314e565b93506131c881856020860161315f565b6131d181613192565b840191505092915050565b600060208201905081810360008301526131f681846131a3565b905092915050565b6132078161310f565b811461321257600080fd5b50565b600081359050613224816131fe565b92915050565b6000602082840312156132405761323f61304a565b5b600061324e84828501613215565b91505092915050565b600073ffffffffffffffffffffffffffffffffffffffff82169050919050565b600061328282613257565b9050919050565b61329281613277565b82525050565b60006020820190506132ad6000830184613289565b92915050565b6132bc81613277565b81146132c757600080fd5b50565b6000813590506132d9816132b3565b92915050565b600080604083850312156132f6576132f561304a565b5b6000613304858286016132ca565b925050602061331585828601613215565b9150509250929050565b6000806000606084860312156133385761333761304a565b5b6000613346868287016132ca565b9350506020613357868287016132ca565b925050604061336886828701613215565b9150509250925092565b600081519050919050565b600082825260208201905092915050565b6000819050602082019050919050565b6133a78161310f565b82525050565b6133b681613277565b82525050565b6133c5816130d9565b82525050565b6080820160008201516133e1600085018261339e565b5060208201516133f4602085018261339e565b50604082015161340760408501826133ad565b50606082015161341a60608501826133bc565b50505050565b600061342c83836133cb565b60808301905092915050565b6000602082019050919050565b600061345082613372565b61345a818561337d565b93506134658361338e565b8060005b8381101561349657815161347d8882613420565b975061348883613438565b925050600181019050613469565b5085935050505092915050565b600060208201905081810360008301526134bd8184613445565b905092915050565b600080fd5b600080fd5b7f4e487b7100000000000000000000000000000000000000000000000000000000600052604160045260246000fd5b61350782613192565b810181811067ffffffffffffffff82111715613526576135256134cf565b5b80604052505050565b6000613539613040565b905061354582826134fe565b919050565b600067ffffffffffffffff821115613565576135646134cf565b5b61356e82613192565b9050602081019050919050565b82818337600083830152505050565b600061359d6135988461354a565b61352f565b9050828152602081018484840111156135b9576135b86134ca565b5b6135c484828561357b565b509392505050565b600082601f8301126135e1576135e06134c5565b5b81356135f184826020860161358a565b91505092915050565b6000602082840312156136105761360f61304a565b5b600082013567ffffffffffffffff81111561362e5761362d61304f565b5b61363a848285016135cc565b91505092915050565b60008060006060848603121561365c5761365b61304a565b5b600061366a86828701613215565b935050602061367b868287016132ca565b925050604061368c86828701613215565b9150509250925092565b6080820160008201516136ac600085018261339e565b5060208201516136bf602085018261339e565b5060408201516136d260408501826133ad565b5060608201516136e560608501826133bc565b50505050565b60006080820190506137006000830184613696565b92915050565b60006020828403121561371c5761371b61304a565b5b600061372a848285016132ca565b91505092915050565b61373c816130d9565b811461374757600080fd5b50565b60008135905061375981613733565b92915050565b600080604083850312156137765761377561304a565b5b6000613784858286016132ca565b92505060206137958582860161374a565b9150509250929050565b600067ffffffffffffffff8211156137ba576137b96134cf565b5b6137c382613192565b9050602081019050919050565b60006137e36137de8461379f565b61352f565b9050828152602081018484840111156137ff576137fe6134ca565b5b61380a84828561357b565b509392505050565b600082601f830112613827576138266134c5565b5b81356138378482602086016137d0565b91505092915050565b6000806000806080858703121561385a5761385961304a565b5b6000613868878288016132ca565b9450506020613879878288016132ca565b935050604061388a87828801613215565b925050606085013567ffffffffffffffff8111156138ab576138aa61304f565b5b6138b787828801613812565b91505092959194509250565b60006138ce82613257565b9050919050565b6138de816138c3565b81146138e957600080fd5b50565b6000813590506138fb816138d5565b92915050565b600080604083850312156139185761391761304a565b5b600061392685828601613215565b9250506020613937858286016138ec565b9150509250929050565b60008060006060848603121561395a5761395961304a565b5b600084013567ffffffffffffffff8111156139785761397761304f565b5b613984868287016135cc565b9350506020613995868287016132ca565b92505060406139a686828701613215565b9150509250925092565b600080604083850312156139c7576139c661304a565b5b60006139d5858286016132ca565b925050602083013567ffffffffffffffff8111156139f6576139f561304f565b5b613a02858286016135cc565b9150509250929050565b60008060408385031215613a2357613a2261304a565b5b6000613a31858286016132ca565b9250506020613a42858286016132ca565b9150509250929050565b7f4e487b7100000000000000000000000000000000000000000000000000000000600052602260045260246000fd5b60006002820490506001821680613a9357607f821691505b60208210811415613aa757613aa6613a4c565b5b50919050565b7f4552433732313a20617070726f76616c20746f2063757272656e74206f776e6560008201527f7200000000000000000000000000000000000000000000000000000000000000602082015250565b6000613b0960218361314e565b9150613b1482613aad565b604082019050919050565b60006020820190508181036000830152613b3881613afc565b9050919050565b7f4552433732313a20617070726f76652063616c6c6572206973206e6f7420746f60008201527f6b656e206f776e6572206e6f7220617070726f76656420666f7220616c6c0000602082015250565b6000613b9b603e8361314e565b9150613ba682613b3f565b604082019050919050565b60006020820190508181036000830152613bca81613b8e565b9050919050565b7f4552433732313a2063616c6c6572206973206e6f7420746f6b656e206f776e6560008201527f72206e6f7220617070726f766564000000000000000000000000000000000000602082015250565b6000613c2d602e8361314e565b9150613c3882613bd1565b604082019050919050565b60006020820190508181036000830152613c5c81613c20565b9050919050565b7f496e646578206f7574206f6620626f756e647300000000000000000000000000600082015250565b6000613c9960138361314e565b9150613ca482613c63565b602082019050919050565b60006020820190508181036000830152613cc881613c8c565b9050919050565b7f4e487b7100000000000000000000000000000000000000000000000000000000600052603260045260246000fd5b7f4e487b7100000000000000000000000000000000000000000000000000000000600052601160045260246000fd5b6000613d388261310f565b9150613d438361310f565b9250827fffffffffffffffffffffffffffffffffffffffffffffffffffffffffffffffff03821115613d7857613d77613cfe565b5b828201905092915050565b6000613d8e8261310f565b91507fffffffffffffffffffffffffffffffffffffffffffffffffffffffffffffffff821415613dc157613dc0613cfe565b5b600182019050919050565b600081905092915050565b6000613de282613143565b613dec8185613dcc565b9350613dfc81856020860161315f565b80840191505092915050565b6000613e148284613dd7565b915081905092915050565b7f596f7520617265206e6f74206f776e6572206f662074686973206e6674000000600082015250565b6000613e55601d8361314e565b9150613e6082613e1f565b602082019050919050565b60006020820190508181036000830152613e8481613e48565b9050919050565b7f4974656d20697320616c7265616479206f6e2073616c65000000000000000000600082015250565b6000613ec160178361314e565b9150613ecc82613e8b565b602082019050919050565b60006020820190508181036000830152613ef081613eb4565b9050919050565b600081905092915050565b50565b6000613f12600083613ef7565b9150613f1d82613f02565b600082019050919050565b6000613f3382613f05565b9150819050919050565b7f4661696c656420746f2073656e64206c697374696e6720707269636500000000600082015250565b6000613f73601c8361314e565b9150613f7e82613f3d565b602082019050919050565b60006020820190508181036000830152613fa281613f66565b9050919050565b7f4552433732313a20696e76616c696420746f6b656e2049440000000000000000600082015250565b6000613fdf60188361314e565b9150613fea82613fa9565b602082019050919050565b6000602082019050818103600083015261400e81613fd2565b9050919050565b7f4552433732313a2061646472657373207a65726f206973206e6f74206120766160008201527f6c6964206f776e65720000000000000000000000000000000000000000000000602082015250565b600061407160298361314e565b915061407c82614015565b604082019050919050565b600060208201905081810360008301526140a081614064565b9050919050565b7f5072696365206d757374206265206174206c6561737420312077656900000000600082015250565b60006140dd601c8361314e565b91506140e8826140a7565b602082019050919050565b6000602082019050818103600083015261410c816140d0565b9050919050565b7f596f7520616c7265616479206f776e2074686973204e46540000000000000000600082015250565b600061414960188361314e565b915061415482614113565b602082019050919050565b600060208201905081810360008301526141788161413c565b9050919050565b7f506c65617365207375626d6974207468652061736b696e67207072696365207760008201527f69746820666565207072696365206f6620302e30323520657468000000000000602082015250565b60006141db603a8361314e565b91506141e68261417f565b604082019050919050565b6000602082019050818103600083015261420a816141ce565b9050919050565b600061421c8261310f565b915060008214156142305761422f613cfe565b5b600182039050919050565b60006142468261310f565b91506142518361310f565b92508282101561426457614263613cfe565b5b828203905092915050565b7f4661696c656420746f2073656e6420627579696e672070726963650000000000600082015250565b60006142a5601b8361314e565b91506142b08261426f565b602082019050919050565b600060208201905081810360008301526142d481614298565b9050919050565b60006142e78285613dd7565b91506142f38284613dd7565b91508190509392505050565b7f546f6b656e2055524920616c7265616479206578697374730000000000000000600082015250565b600061433560188361314e565b9150614340826142ff565b602082019050919050565b6000602082019050818103600083015261436481614328565b9050919050565b7f5072696365206d75737420626520657175616c20746f206c697374696e67207060008201527f7269636500000000000000000000000000000000000000000000000000000000602082015250565b60006143c760248361314e565b91506143d28261436b565b604082019050919050565b600060208201905081810360008301526143f6816143ba565b9050919050565b7f4f776e61626c653a206e6577206f776e657220697320746865207a65726f206160008201527f6464726573730000000000000000000000000000000000000000000000000000602082015250565b600061445960268361314e565b9150614464826143fd565b604082019050919050565b600060208201905081810360008301526144888161444c565b9050919050565b7f4552433732313a207472616e736665722066726f6d20696e636f72726563742060008201527f6f776e6572000000000000000000000000000000000000000000000000000000602082015250565b60006144eb60258361314e565b91506144f68261448f565b604082019050919050565b6000602082019050818103600083015261451a816144de565b9050919050565b7f4552433732313a207472616e7366657220746f20746865207a65726f2061646460008201527f7265737300000000000000000000000000000000000000000000000000000000602082015250565b600061457d60248361314e565b915061458882614521565b604082019050919050565b600060208201905081810360008301526145ac81614570565b9050919050565b7f4f776e61626c653a2063616c6c6572206973206e6f7420746865206f776e6572600082015250565b60006145e960208361314e565b91506145f4826145b3565b602082019050919050565b60006020820190508181036000830152614618816145dc565b9050919050565b7f4552433732313a20617070726f766520746f2063616c6c657200000000000000600082015250565b600061465560198361314e565b91506146608261461f565b602082019050919050565b6000602082019050818103600083015261468481614648565b9050919050565b7f4552433732313a207472616e7366657220746f206e6f6e20455243373231526560008201527f63656976657220696d706c656d656e7465720000000000000000000000000000602082015250565b60006146e760328361314e565b91506146f28261468b565b604082019050919050565b60006020820190508181036000830152614716816146da565b9050919050565b7f436f756e7465723a2064656372656d656e74206f766572666c6f770000000000600082015250565b6000614753601b8361314e565b915061475e8261471d565b602082019050919050565b6000602082019050818103600083015261478281614746565b9050919050565b7f45524337323155524953746f726167653a2055524920736574206f66206e6f6e60008201527f6578697374656e7420746f6b656e000000000000000000000000000000000000602082015250565b60006147e5602e8361314e565b91506147f082614789565b604082019050919050565b60006020820190508181036000830152614814816147d8565b9050919050565b60006080820190506148306000830187613119565b61483d6020830186613119565b61484a6040830185613289565b61485760608301846130e5565b95945050505050565b600081519050919050565b600082825260208201905092915050565b600061488782614860565b614891818561486b565b93506148a181856020860161315f565b6148aa81613192565b840191505092915050565b60006080820190506148ca6000830187613289565b6148d76020830186613289565b6148e46040830185613119565b81810360608301526148f6818461487c565b905095945050505050565b60008151905061491081613080565b92915050565b60006020828403121561492c5761492b61304a565b5b600061493a84828501614901565b91505092915050565b7f4e487b7100000000000000000000000000000000000000000000000000000000600052601260045260246000fd5b600061497d8261310f565b91506149888361310f565b92508261499857614997614943565b5b828204905092915050565b60006149ae8261310f565b91506149b98361310f565b9250826149c9576149c8614943565b5b828206905092915050565b7f4552433732313a206d696e7420746f20746865207a65726f2061646472657373600082015250565b6000614a0a60208361314e565b9150614a15826149d4565b602082019050919050565b60006020820190508181036000830152614a39816149fd565b9050919050565b7f4552433732313a20746f6b656e20616c7265616479206d696e74656400000000600082015250565b6000614a76601c8361314e565b9150614a8182614a40565b602082019050919050565b60006020820190508181036000830152614aa581614a69565b905091905056fea2646970667358221220b579c5ac727901ae49950056dd393d1b56a6a22c31f0f410a14e5b232d127d6664736f6c634300080b0033",
  "immutableReferences": {},
  "source": "// SPDX-License-Identifier: MIT\npragma solidity >=0.4.22 <0.9.0;\n\nimport \"../node_modules/@openzeppelin/contracts/token/ERC721/ERC721.sol\";\nimport \"../node_modules/@openzeppelin/contracts/token/ERC721/extensions/ERC721URIStorage.sol\";\nimport \"../node_modules/@openzeppelin/contracts/access/Ownable.sol\";\nimport \"../node_modules/@openzeppelin/contracts/utils/Counters.sol\";\n\n\ncontract NftMarket is ERC721URIStorage, Ownable {\n    using Counters for Counters.Counter;\n\n    Counters.Counter private _tokenIdCounter;\n\n    mapping(string => uint8) existingURIs;\n\n    struct NftItem {\n        uint256 tokenId;\n        uint256 price;\n        address creator;\n        bool isListed;\n    }\n\n    uint256 public listingPrice = 0.025 ether;\n\n    Counters.Counter private _listedItems;\n    Counters.Counter private _tokenIds;\n    mapping(address => uint256) private _owendNftsToken;\n\n    mapping(string => bool) private _usedTokenURIs;\n    mapping(uint256 => NftItem) private _idToNftItem;\n\n    mapping(address => mapping(uint256 => uint256)) private _ownedTokens;\n    mapping(uint256 => uint256) private _idToOwnedIndex;\n\n    uint256[] private _allNftsToken;\n    \n    mapping(uint256 => uint256) private _idToNftIndex;\n\n    event NftItemCreated(\n        uint256 tokenId,\n        uint256 price,\n        address creator,\n        bool isListed\n    );\n\n    constructor() ERC721(\"AnchorNft\", \"ANCHOR\") {}\n\n    // function _baseURI() internal pure override returns (string memory) {\n    //     return \"ipfs://\";\n    // }\n\n    // function returnLength() public returns(uint){\n    //     return _idToNftItem.length;\n    // }\n\n\n    function safeMint(address to, string memory uri) public onlyOwner {\n        uint256 tokenId = _tokenIdCounter.current();\n        _tokenIdCounter.increment();\n        _safeMint(to, tokenId);\n        _setTokenURI(tokenId, uri);\n    }\n\n    function setListingPrice(uint256 newPrice) external onlyOwner {\n        require(newPrice > 0, \"Price must be at least 1 wei\");\n        listingPrice = newPrice;\n    }\n\n    function getNftItem(uint256 tokenId) public view returns (NftItem memory) {\n        return _idToNftItem[tokenId];\n    }\n\n    function listedItemsCount() public view returns (uint256) {\n        return _listedItems.current();\n    }\n\n    function tokenURIExists(string memory tokenURI) public view returns (bool) {\n        return _usedTokenURIs[tokenURI] == true;\n    }\n\n    function totalSupply() public view returns (uint256) {\n        return _allNftsToken.length;\n    }\n\n    function tokenByIndex(uint256 index) public view returns (uint256) {\n        require(index < totalSupply(), \"Index out of bounds\");\n        return _allNftsToken[index];\n    }\n\n    function tokenOfOwnerByIndex(address owner, uint256 index)\n        public\n        view\n        returns (uint256)\n    {\n        require(index < ERC721.balanceOf(owner), \"Index out of bounds\");\n        return _ownedTokens[owner][index];\n    }\n\n    function getAllNftsOnSale() public view returns (NftItem[] memory) {\n        uint256 allItemsCounts = totalSupply();\n        uint256 currentIndex = 0;\n        NftItem[] memory items = new NftItem[](_listedItems.current());\n        for (uint256 i = 0; i < allItemsCounts; i++) {\n            uint256 tokenId = tokenByIndex(i);\n            NftItem storage item = _idToNftItem[tokenId];\n\n            if (item.isListed == true) {\n                items[currentIndex] = item;\n                currentIndex += 1;\n            }\n        }\n        \n        return items;\n    }\n    \n    function getOwnedNfts(address account)\n        public\n        view\n        returns (NftItem[] memory)\n    {\n        require(account != address(0));\n        uint256 allItemsCounts = totalSupply();\n        uint256 currentIndex = 0;\n        NftItem[] memory items = new NftItem[](_owendNftsToken[account]);\n        for (uint256 i = 0; i < allItemsCounts; i++) {\n            uint256 tokenId = tokenByIndex(i);\n            NftItem storage item = _idToNftItem[tokenId];\n\n            if (item.creator == account) {\n                items[currentIndex] = item;\n                currentIndex += 1;\n            }\n        }\n        \n        return items;\n    }\n\n    // function getOwnedNfts(address account)\n    //     public\n    //     view\n    //     returns (NftItem[] memory)\n    // {\n    //     uint256 ownedItemsCount = ERC721.balanceOf(account);\n    //     // uint256 ownedItemsCount = ERC721.balanceOf(msg.sender);\n    //     NftItem[] memory items = new NftItem[](ownedItemsCount);\n\n    //     for (uint256 i = 0; i < ownedItemsCount; i++) {\n    //         uint256 tokenId = tokenOfOwnerByIndex(account, i);\n    //         // uint256 tokenId = tokenOfOwnerByIndex(msg.sender, i);\n    //         NftItem storage item = _idToNftItem[tokenId];\n    //         items[i] = item;\n    //     }\n\n    //     return items;\n    // }\n\n    function mintToken(\n        string memory tokenURI,\n        address account,\n        uint256 price\n    ) public payable returns (uint256) {\n        \n        require(account != address(0));\n\n        require(!tokenURIExists(tokenURI), \"Token URI already exists\");\n        require(\n            msg.value == listingPrice,\n            \"Price must be equal to listing price\"\n        );\n\n        _tokenIds.increment();\n        _listedItems.increment();\n        _owendNftsToken[account]++;\n        uint256 newTokenId = _tokenIds.current();\n        \n        // _addTokenToOwnerEnumeration(account, newTokenId);\n\n        _safeMint(account, newTokenId);\n        // _safeMint(msg.sender, newTokenId);\n        _idToNftItem[newTokenId].creator = account;\n        _setTokenURI(newTokenId, tokenURI);\n        _createNftItem(newTokenId, price, account);\n        _usedTokenURIs[tokenURI] = true;\n        _allNftsToken.push(newTokenId);\n        return newTokenId;\n    }\n\n    function buyNft(uint256 tokenId, address payable _to) public payable {\n        require(_to != address(0));\n\n        address owner = ERC721.ownerOf(tokenId);\n        // uint256 price = _idToNftItem[tokenId].price;\n\n        require(_to != owner, \"You already own this NFT\");\n        // require(msg.sender != owner, \"You already own this NFT\");\n        require(\n            msg.value >= _idToNftItem[tokenId].price + listingPrice,\n            \"Please submit the asking price with fee price of 0.025 eth\"\n        );\n\n        _listedItems.decrement();\n        _owendNftsToken[owner]--;\n        _owendNftsToken[_to]++;\n        _idToNftItem[tokenId].isListed = false;\n        uint256 buyingPrice = msg.value - listingPrice;\n        (bool success, ) = owner.call{value: buyingPrice}(\"\");\n        require(success, \"Failed to send buying price\");\n\n        _transfer(owner, _to, tokenId);\n        _idToNftItem[tokenId].creator = payable(_to);\n\n        // payable(owner).transfer(listingPrice);\n        (bool successs, ) = address(this).call{value: listingPrice}(\"\");\n        require(successs, \"Failed to send listing price\");\n    }\n\n    fallback() external payable {}\n\n    // receive() external payable {}\n    function placeNftOnSale(\n        uint256 tokenId,\n        address account,\n        uint256 price\n    ) public payable {\n        require(account != address(0));\n        require(\n            ERC721.ownerOf(tokenId) == account,\n            \"You are not owner of this nft\"\n        );\n        // require(\n        //     ERC721.ownerOf(tokenId) == msg.sender,\n        //     \"You are not owner of this nft\"\n        // );\n        require(\n            _idToNftItem[tokenId].isListed == false,\n            \"Item is already on sale\"\n        );\n        // require(\n        //     msg.value == listingPrice,\n        //     \"Price must be equal to listing price\"\n        // );\n        // payable(owner).transfer(listingPrice);\n        (bool successs, ) = address(this).call{value: listingPrice}(\"\");\n        require(successs, \"Failed to send listing price\");\n        _idToNftItem[tokenId].isListed = true;\n        _idToNftItem[tokenId].price = price;\n        _listedItems.increment();\n    }\n\n    function _createNftItem(\n        uint256 tokenId,\n        uint256 price,\n        address account\n    ) private {\n        require(account != address(0));\n        require(price > 0, \"Price must be at least 1 wei\");\n\n        _idToNftItem[tokenId] = NftItem(tokenId, price, account, true);\n\n\n        emit NftItemCreated(tokenId, price, account, true);\n    }\n    \n\n    function isContentOwned(string memory uri) public view returns (bool) {\n        return existingURIs[uri] == 1;\n    }\n\n    function count() public view returns (uint256) {\n        return _tokenIdCounter.current();\n    }\n\n    //// Burn Functionalities \n    // function _beforeTokenTransfer(\n    //     address from,\n    //     address to,\n    //     uint256 tokenId\n    // ) internal virtual {\n    //     super._beforeTokenTransfer(from, to, tokenId);\n\n    //     if (from != address(0)) {\n    //         _addTokenToAllTokensEnumeration(tokenId);\n    //     } else if (from != to) {\n    //         _removeTokenFromOwnerEnumeration(from, tokenId);\n    //     }\n\n    //     if (from != to) {\n    //         _removeTokenFromOwnerEnumeration(from, tokenId);\n    //     }\n\n    //     if (to != address(0)) {\n    //         _removeTokenFromAllTokensEnumeration(tokenId);\n    //     } else if (to != from) {\n    //         _addTokenToOwnerEnumeration(to, tokenId);\n    //     }\n\n    //     if (to != from) {\n    //         _addTokenToOwnerEnumeration(to, tokenId);\n    //     }\n    // }\n\n    // function _addTokenToAllTokensEnumeration(uint256 tokenId) private {\n    //     _idToNftIndex[tokenId] = _allNfts.length;\n    //     _allNfts.push(tokenId);\n    // }\n\n    // function _addTokenToOwnerEnumeration(address to, uint256 tokenId) private {\n    //     uint256 length = ERC721.balanceOf(to);\n    //     _ownedTokens[to][length] = tokenId;\n    //     _idToOwnedIndex[tokenId] = length;\n    // }\n\n    // function _removeTokenFromOwnerEnumeration(address from, uint256 tokenId)\n    //     private\n    // {\n    //     uint256 lastTokenIndex = ERC721.balanceOf(from) - 1;\n    //     uint256 tokenIndex = _idToOwnedIndex[tokenId];\n\n    //     if (tokenIndex != lastTokenIndex) {\n    //         uint256 lastTokenId = _ownedTokens[from][lastTokenIndex];\n\n    //         _ownedTokens[from][tokenIndex] = lastTokenId;\n    //         _idToOwnedIndex[lastTokenId] = tokenIndex;\n    //     }\n\n    //     delete _idToOwnedIndex[tokenId];\n    //     delete _ownedTokens[from][lastTokenIndex];\n    // }\n\n    // function _removeTokenFromAllTokensEnumeration(uint256 tokenId) private {\n    //     uint256 lastTokenIndex = _allNfts.length - 1;\n    //     uint256 tokenIndex = _idToNftIndex[tokenId];\n    //     uint256 lastTokenId = _allNfts[lastTokenIndex];\n\n    //     _allNfts[tokenIndex] = lastTokenId;\n    //     _idToNftIndex[lastTokenId] = tokenIndex;\n\n    //     delete _idToNftIndex[tokenId];\n    //     _allNfts.pop();\n    // }\n\n    // The following functions are overrides required by Solidity.\n\n    // function _burn(uint256 tokenId)\n    //     internal\n    //     override(ERC721, ERC721URIStorage)\n    // {\n    //     super._burn(tokenId);\n    // }\n\n    // function tokenURI(uint256 tokenId)\n    //     public\n    //     view\n    //     override(ERC721, ERC721URIStorage)\n    //     returns (string memory)\n    // {\n    //     return super.tokenURI(tokenId);\n    // }\n}\n",
  "sourcePath": "/home/eraj/Documents/Office/Blockchain/Indicium/truffle/contracts/NftMarket.sol",
  "compiler": {
    "name": "solc",
    "version": "0.8.11+commit.d7f03943.Emscripten.clang"
  },
  "schemaVersion": "3.4.11",
  "updatedAt": "2022-12-14T11:19:28.417Z",
  "networkType": "ethereum",
  "devdoc": {
    "kind": "dev",
    "methods": {
      "approve(address,uint256)": {
        "details": "See {IERC721-approve}."
      },
      "balanceOf(address)": {
        "details": "See {IERC721-balanceOf}."
      },
      "getApproved(uint256)": {
        "details": "See {IERC721-getApproved}."
      },
      "isApprovedForAll(address,address)": {
        "details": "See {IERC721-isApprovedForAll}."
      },
      "name()": {
        "details": "See {IERC721Metadata-name}."
      },
      "owner()": {
        "details": "Returns the address of the current owner."
      },
      "ownerOf(uint256)": {
        "details": "See {IERC721-ownerOf}."
      },
      "renounceOwnership()": {
        "details": "Leaves the contract without owner. It will not be possible to call `onlyOwner` functions anymore. Can only be called by the current owner. NOTE: Renouncing ownership will leave the contract without an owner, thereby removing any functionality that is only available to the owner."
      },
      "safeTransferFrom(address,address,uint256)": {
        "details": "See {IERC721-safeTransferFrom}."
      },
      "safeTransferFrom(address,address,uint256,bytes)": {
        "details": "See {IERC721-safeTransferFrom}."
      },
      "setApprovalForAll(address,bool)": {
        "details": "See {IERC721-setApprovalForAll}."
      },
      "supportsInterface(bytes4)": {
        "details": "See {IERC165-supportsInterface}."
      },
      "symbol()": {
        "details": "See {IERC721Metadata-symbol}."
      },
      "tokenURI(uint256)": {
        "details": "See {IERC721Metadata-tokenURI}."
      },
      "transferFrom(address,address,uint256)": {
        "details": "See {IERC721-transferFrom}."
      },
      "transferOwnership(address)": {
        "details": "Transfers ownership of the contract to a new account (`newOwner`). Can only be called by the current owner."
      }
    },
    "version": 1
  },
  "userdoc": {
    "kind": "user",
    "methods": {},
    "version": 1
  }
}