{
  "contractName": "NftMarket",
  "abi": [
    {
      "inputs": [],
      "stateMutability": "nonpayable",
      "type": "constructor"
    },
    {
      "anonymous": false,
      "inputs": [
        {
          "indexed": true,
          "internalType": "address",
          "name": "owner",
          "type": "address"
        },
        {
          "indexed": true,
          "internalType": "address",
          "name": "approved",
          "type": "address"
        },
        {
          "indexed": true,
          "internalType": "uint256",
          "name": "tokenId",
          "type": "uint256"
        }
      ],
      "name": "Approval",
      "type": "event"
    },
    {
      "anonymous": false,
      "inputs": [
        {
          "indexed": true,
          "internalType": "address",
          "name": "owner",
          "type": "address"
        },
        {
          "indexed": true,
          "internalType": "address",
          "name": "operator",
          "type": "address"
        },
        {
          "indexed": false,
          "internalType": "bool",
          "name": "approved",
          "type": "bool"
        }
      ],
      "name": "ApprovalForAll",
      "type": "event"
    },
    {
      "anonymous": false,
      "inputs": [
        {
          "indexed": false,
          "internalType": "uint256",
          "name": "tokenId",
          "type": "uint256"
        },
        {
          "indexed": false,
          "internalType": "uint256",
          "name": "price",
          "type": "uint256"
        },
        {
          "indexed": false,
          "internalType": "address",
          "name": "creator",
          "type": "address"
        },
        {
          "indexed": false,
          "internalType": "bool",
          "name": "isListed",
          "type": "bool"
        }
      ],
      "name": "NftItemCreated",
      "type": "event"
    },
    {
      "anonymous": false,
      "inputs": [
        {
          "indexed": true,
          "internalType": "address",
          "name": "previousOwner",
          "type": "address"
        },
        {
          "indexed": true,
          "internalType": "address",
          "name": "newOwner",
          "type": "address"
        }
      ],
      "name": "OwnershipTransferred",
      "type": "event"
    },
    {
      "anonymous": false,
      "inputs": [
        {
          "indexed": true,
          "internalType": "address",
          "name": "from",
          "type": "address"
        },
        {
          "indexed": true,
          "internalType": "address",
          "name": "to",
          "type": "address"
        },
        {
          "indexed": true,
          "internalType": "uint256",
          "name": "tokenId",
          "type": "uint256"
        }
      ],
      "name": "Transfer",
      "type": "event"
    },
    {
      "inputs": [
        {
          "internalType": "address",
          "name": "to",
          "type": "address"
        },
        {
          "internalType": "uint256",
          "name": "tokenId",
          "type": "uint256"
        }
      ],
      "name": "approve",
      "outputs": [],
      "stateMutability": "nonpayable",
      "type": "function"
    },
    {
      "inputs": [
        {
          "internalType": "address",
          "name": "owner",
          "type": "address"
        }
      ],
      "name": "balanceOf",
      "outputs": [
        {
          "internalType": "uint256",
          "name": "",
          "type": "uint256"
        }
      ],
      "stateMutability": "view",
      "type": "function",
      "constant": true
    },
    {
      "inputs": [
        {
          "internalType": "uint256",
          "name": "tokenId",
          "type": "uint256"
        }
      ],
      "name": "getApproved",
      "outputs": [
        {
          "internalType": "address",
          "name": "",
          "type": "address"
        }
      ],
      "stateMutability": "view",
      "type": "function",
      "constant": true
    },
    {
      "inputs": [
        {
          "internalType": "address",
          "name": "owner",
          "type": "address"
        },
        {
          "internalType": "address",
          "name": "operator",
          "type": "address"
        }
      ],
      "name": "isApprovedForAll",
      "outputs": [
        {
          "internalType": "bool",
          "name": "",
          "type": "bool"
        }
      ],
      "stateMutability": "view",
      "type": "function",
      "constant": true
    },
    {
      "inputs": [],
      "name": "listingPrice",
      "outputs": [
        {
          "internalType": "uint256",
          "name": "",
          "type": "uint256"
        }
      ],
      "stateMutability": "view",
      "type": "function",
      "constant": true
    },
    {
      "inputs": [],
      "name": "name",
      "outputs": [
        {
          "internalType": "string",
          "name": "",
          "type": "string"
        }
      ],
      "stateMutability": "view",
      "type": "function",
      "constant": true
    },
    {
      "inputs": [],
      "name": "owner",
      "outputs": [
        {
          "internalType": "address",
          "name": "",
          "type": "address"
        }
      ],
      "stateMutability": "view",
      "type": "function",
      "constant": true
    },
    {
      "inputs": [
        {
          "internalType": "uint256",
          "name": "tokenId",
          "type": "uint256"
        }
      ],
      "name": "ownerOf",
      "outputs": [
        {
          "internalType": "address",
          "name": "",
          "type": "address"
        }
      ],
      "stateMutability": "view",
      "type": "function",
      "constant": true
    },
    {
      "inputs": [],
      "name": "renounceOwnership",
      "outputs": [],
      "stateMutability": "nonpayable",
      "type": "function"
    },
    {
      "inputs": [
        {
          "internalType": "address",
          "name": "from",
          "type": "address"
        },
        {
          "internalType": "address",
          "name": "to",
          "type": "address"
        },
        {
          "internalType": "uint256",
          "name": "tokenId",
          "type": "uint256"
        }
      ],
      "name": "safeTransferFrom",
      "outputs": [],
      "stateMutability": "nonpayable",
      "type": "function"
    },
    {
      "inputs": [
        {
          "internalType": "address",
          "name": "from",
          "type": "address"
        },
        {
          "internalType": "address",
          "name": "to",
          "type": "address"
        },
        {
          "internalType": "uint256",
          "name": "tokenId",
          "type": "uint256"
        },
        {
          "internalType": "bytes",
          "name": "data",
          "type": "bytes"
        }
      ],
      "name": "safeTransferFrom",
      "outputs": [],
      "stateMutability": "nonpayable",
      "type": "function"
    },
    {
      "inputs": [
        {
          "internalType": "address",
          "name": "operator",
          "type": "address"
        },
        {
          "internalType": "bool",
          "name": "approved",
          "type": "bool"
        }
      ],
      "name": "setApprovalForAll",
      "outputs": [],
      "stateMutability": "nonpayable",
      "type": "function"
    },
    {
      "inputs": [
        {
          "internalType": "bytes4",
          "name": "interfaceId",
          "type": "bytes4"
        }
      ],
      "name": "supportsInterface",
      "outputs": [
        {
          "internalType": "bool",
          "name": "",
          "type": "bool"
        }
      ],
      "stateMutability": "view",
      "type": "function",
      "constant": true
    },
    {
      "inputs": [],
      "name": "symbol",
      "outputs": [
        {
          "internalType": "string",
          "name": "",
          "type": "string"
        }
      ],
      "stateMutability": "view",
      "type": "function",
      "constant": true
    },
    {
      "inputs": [
        {
          "internalType": "uint256",
          "name": "tokenId",
          "type": "uint256"
        }
      ],
      "name": "tokenURI",
      "outputs": [
        {
          "internalType": "string",
          "name": "",
          "type": "string"
        }
      ],
      "stateMutability": "view",
      "type": "function",
      "constant": true
    },
    {
      "inputs": [
        {
          "internalType": "address",
          "name": "from",
          "type": "address"
        },
        {
          "internalType": "address",
          "name": "to",
          "type": "address"
        },
        {
          "internalType": "uint256",
          "name": "tokenId",
          "type": "uint256"
        }
      ],
      "name": "transferFrom",
      "outputs": [],
      "stateMutability": "nonpayable",
      "type": "function"
    },
    {
      "inputs": [
        {
          "internalType": "address",
          "name": "newOwner",
          "type": "address"
        }
      ],
      "name": "transferOwnership",
      "outputs": [],
      "stateMutability": "nonpayable",
      "type": "function"
    },
    {
      "inputs": [
        {
          "internalType": "address",
          "name": "to",
          "type": "address"
        },
        {
          "internalType": "string",
          "name": "uri",
          "type": "string"
        }
      ],
      "name": "safeMint",
      "outputs": [],
      "stateMutability": "nonpayable",
      "type": "function"
    },
    {
      "inputs": [
        {
          "internalType": "uint256",
          "name": "newPrice",
          "type": "uint256"
        }
      ],
      "name": "setListingPrice",
      "outputs": [],
      "stateMutability": "nonpayable",
      "type": "function"
    },
    {
      "inputs": [
        {
          "internalType": "uint256",
          "name": "tokenId",
          "type": "uint256"
        }
      ],
      "name": "getNftItem",
      "outputs": [
        {
          "components": [
            {
              "internalType": "uint256",
              "name": "tokenId",
              "type": "uint256"
            },
            {
              "internalType": "uint256",
              "name": "price",
              "type": "uint256"
            },
            {
              "internalType": "address",
              "name": "creator",
              "type": "address"
            },
            {
              "internalType": "bool",
              "name": "isListed",
              "type": "bool"
            }
          ],
          "internalType": "struct NftMarket.NftItem",
          "name": "",
          "type": "tuple"
        }
      ],
      "stateMutability": "view",
      "type": "function",
      "constant": true
    },
    {
      "inputs": [],
      "name": "listedItemsCount",
      "outputs": [
        {
          "internalType": "uint256",
          "name": "",
          "type": "uint256"
        }
      ],
      "stateMutability": "view",
      "type": "function",
      "constant": true
    },
    {
      "inputs": [
        {
          "internalType": "string",
          "name": "tokenURI",
          "type": "string"
        }
      ],
      "name": "tokenURIExists",
      "outputs": [
        {
          "internalType": "bool",
          "name": "",
          "type": "bool"
        }
      ],
      "stateMutability": "view",
      "type": "function",
      "constant": true
    },
    {
      "inputs": [],
      "name": "totalSupply",
      "outputs": [
        {
          "internalType": "uint256",
          "name": "",
          "type": "uint256"
        }
      ],
      "stateMutability": "view",
      "type": "function",
      "constant": true
    },
    {
      "inputs": [
        {
          "internalType": "uint256",
          "name": "index",
          "type": "uint256"
        }
      ],
      "name": "tokenByIndex",
      "outputs": [
        {
          "internalType": "uint256",
          "name": "",
          "type": "uint256"
        }
      ],
      "stateMutability": "view",
      "type": "function",
      "constant": true
    },
    {
      "inputs": [
        {
          "internalType": "address",
          "name": "owner",
          "type": "address"
        },
        {
          "internalType": "uint256",
          "name": "index",
          "type": "uint256"
        }
      ],
      "name": "tokenOfOwnerByIndex",
      "outputs": [
        {
          "internalType": "uint256",
          "name": "",
          "type": "uint256"
        }
      ],
      "stateMutability": "view",
      "type": "function",
      "constant": true
    },
    {
      "inputs": [],
      "name": "getAllNftsOnSale",
      "outputs": [
        {
          "components": [
            {
              "internalType": "uint256",
              "name": "tokenId",
              "type": "uint256"
            },
            {
              "internalType": "uint256",
              "name": "price",
              "type": "uint256"
            },
            {
              "internalType": "address",
              "name": "creator",
              "type": "address"
            },
            {
              "internalType": "bool",
              "name": "isListed",
              "type": "bool"
            }
          ],
          "internalType": "struct NftMarket.NftItem[]",
          "name": "",
          "type": "tuple[]"
        }
      ],
      "stateMutability": "view",
      "type": "function",
      "constant": true
    },
    {
      "inputs": [
        {
          "internalType": "address",
          "name": "account",
          "type": "address"
        }
      ],
      "name": "getOwnedNfts",
      "outputs": [
        {
          "components": [
            {
              "internalType": "uint256",
              "name": "tokenId",
              "type": "uint256"
            },
            {
              "internalType": "uint256",
              "name": "price",
              "type": "uint256"
            },
            {
              "internalType": "address",
              "name": "creator",
              "type": "address"
            },
            {
              "internalType": "bool",
              "name": "isListed",
              "type": "bool"
            }
          ],
          "internalType": "struct NftMarket.NftItem[]",
          "name": "",
          "type": "tuple[]"
        }
      ],
      "stateMutability": "view",
      "type": "function",
      "constant": true
    },
    {
      "inputs": [
        {
          "internalType": "string",
          "name": "tokenURI",
          "type": "string"
        },
        {
          "internalType": "address",
          "name": "account",
          "type": "address"
        },
        {
          "internalType": "uint256",
          "name": "price",
          "type": "uint256"
        }
      ],
      "name": "mintToken",
      "outputs": [
        {
          "internalType": "uint256",
          "name": "",
          "type": "uint256"
        }
      ],
      "stateMutability": "payable",
      "type": "function",
      "payable": true
    },
    {
      "inputs": [
        {
          "internalType": "uint256",
          "name": "tokenId",
          "type": "uint256"
        },
        {
          "internalType": "address",
          "name": "account",
          "type": "address"
        }
      ],
      "name": "buyNft",
      "outputs": [],
      "stateMutability": "payable",
      "type": "function",
      "payable": true
    },
    {
      "inputs": [
        {
          "internalType": "uint256",
          "name": "tokenId",
          "type": "uint256"
        },
        {
          "internalType": "uint256",
          "name": "newPrice",
          "type": "uint256"
        },
        {
          "internalType": "address",
          "name": "account",
          "type": "address"
        }
      ],
      "name": "placeNftOnSale",
      "outputs": [],
      "stateMutability": "payable",
      "type": "function",
      "payable": true
    },
    {
      "inputs": [
        {
          "internalType": "string",
          "name": "uri",
          "type": "string"
        }
      ],
      "name": "isContentOwned",
      "outputs": [
        {
          "internalType": "bool",
          "name": "",
          "type": "bool"
        }
      ],
      "stateMutability": "view",
      "type": "function",
      "constant": true
    },
    {
      "inputs": [],
      "name": "count",
      "outputs": [
        {
          "internalType": "uint256",
          "name": "",
          "type": "uint256"
        }
      ],
      "stateMutability": "view",
      "type": "function",
      "constant": true
    }
  ],
  "bytecode": "0x60806040526658d15e17628000600a553480156200001c57600080fd5b506040518060400160405280600981526020017f416e63686f724e667400000000000000000000000000000000000000000000008152506040518060400160405280600681526020017f414e43484f5200000000000000000000000000000000000000000000000000008152508160009080519060200190620000a1929190620001b1565b508060019080519060200190620000ba929190620001b1565b505050620000dd620000d1620000e360201b60201c565b620000eb60201b60201c565b620002c6565b600033905090565b6000600760009054906101000a900473ffffffffffffffffffffffffffffffffffffffff16905081600760006101000a81548173ffffffffffffffffffffffffffffffffffffffff021916908373ffffffffffffffffffffffffffffffffffffffff1602179055508173ffffffffffffffffffffffffffffffffffffffff168173ffffffffffffffffffffffffffffffffffffffff167f8be0079c531659141344cd1fd0a4f28419497f9722a3daafe3b4186f6b6457e060405160405180910390a35050565b828054620001bf9062000290565b90600052602060002090601f016020900481019282620001e357600085556200022f565b82601f10620001fe57805160ff19168380011785556200022f565b828001600101855582156200022f579182015b828111156200022e57825182559160200191906001019062000211565b5b5090506200023e919062000242565b5090565b5b808211156200025d57600081600090555060010162000243565b5090565b7f4e487b7100000000000000000000000000000000000000000000000000000000600052602260045260246000fd5b60006002820490506001821680620002a957607f821691505b60208210811415620002c057620002bf62000261565b5b50919050565b61475680620002d66000396000f3fe6080604052600436106101e35760003560e01c8063715018a611610102578063c78f19f911610095578063cf2a916911610064578063cf2a916914610724578063d204c45e14610754578063e985e9c51461077d578063f2fde38b146107ba576101e3565b8063c78f19f914610654578063c7adece01461067f578063c87b56dd146106bc578063ccb4918d146106f9576101e3565b80639f1cabc6116100d15780639f1cabc6146105a9578063a22cb465146105e6578063b88d4fde1461060f578063bc3ad14514610638576101e3565b8063715018a6146105135780637c726b691461052a5780638da5cb5b1461055357806395d89b411461057e576101e3565b806336b536be1161017a5780636352211e116101495780636352211e146104405780636f1a0af51461047d578063703c92a5146104ba57806370a08231146104d6576101e3565b806336b536be1461037257806342842e0e1461039d57806343d32ae7146103c65780634f6ccce714610403576101e3565b8063095ea7b3116101b6578063095ea7b3146102b857806318160ddd146102e157806323b872dd1461030c5780632f745c5914610335576101e3565b806301ffc9a7146101e857806306661abd1461022557806306fdde0314610250578063081812fc1461027b575b600080fd5b3480156101f457600080fd5b5061020f600480360381019061020a9190612f09565b6107e3565b60405161021c9190612f51565b60405180910390f35b34801561023157600080fd5b5061023a6108c5565b6040516102479190612f85565b60405180910390f35b34801561025c57600080fd5b506102656108d6565b6040516102729190613039565b60405180910390f35b34801561028757600080fd5b506102a2600480360381019061029d9190613087565b610968565b6040516102af91906130f5565b60405180910390f35b3480156102c457600080fd5b506102df60048036038101906102da919061313c565b6109ae565b005b3480156102ed57600080fd5b506102f6610ac6565b6040516103039190612f85565b60405180910390f35b34801561031857600080fd5b50610333600480360381019061032e919061317c565b610ad3565b005b34801561034157600080fd5b5061035c6004803603810190610357919061313c565b610b33565b6040516103699190612f85565b60405180910390f35b34801561037e57600080fd5b50610387610bd8565b6040516103949190613300565b60405180910390f35b3480156103a957600080fd5b506103c460048036038101906103bf919061317c565b610d73565b005b3480156103d257600080fd5b506103ed60048036038101906103e89190613457565b610d93565b6040516103fa9190612f51565b60405180910390f35b34801561040f57600080fd5b5061042a60048036038101906104259190613087565b610dcf565b6040516104379190612f85565b60405180910390f35b34801561044c57600080fd5b5061046760048036038101906104629190613087565b610e40565b60405161047491906130f5565b60405180910390f35b34801561048957600080fd5b506104a4600480360381019061049f9190613087565b610ef2565b6040516104b191906134f5565b60405180910390f35b6104d460048036038101906104cf9190613510565b610fa4565b005b3480156104e257600080fd5b506104fd60048036038101906104f89190613563565b6110dd565b60405161050a9190612f85565b60405180910390f35b34801561051f57600080fd5b50610528611195565b005b34801561053657600080fd5b50610551600480360381019061054c9190613087565b6111a9565b005b34801561055f57600080fd5b506105686111fe565b60405161057591906130f5565b60405180910390f35b34801561058a57600080fd5b50610593611228565b6040516105a09190613039565b60405180910390f35b3480156105b557600080fd5b506105d060048036038101906105cb9190613457565b6112ba565b6040516105dd9190612f51565b60405180910390f35b3480156105f257600080fd5b5061060d600480360381019061060891906135bc565b6112f5565b005b34801561061b57600080fd5b506106366004803603810190610631919061369d565b61130b565b005b610652600480360381019061064d9190613720565b61136d565b005b34801561066057600080fd5b50610669611495565b6040516106769190612f85565b60405180910390f35b34801561068b57600080fd5b506106a660048036038101906106a19190613563565b61149b565b6040516106b39190613300565b60405180910390f35b3480156106c857600080fd5b506106e360048036038101906106de9190613087565b611601565b6040516106f09190613039565b60405180910390f35b34801561070557600080fd5b5061070e611714565b60405161071b9190612f85565b60405180910390f35b61073e60048036038101906107399190613760565b611725565b60405161074b9190612f85565b60405180910390f35b34801561076057600080fd5b5061077b600480360381019061077691906137cf565b611837565b005b34801561078957600080fd5b506107a4600480360381019061079f919061382b565b611870565b6040516107b19190612f51565b60405180910390f35b3480156107c657600080fd5b506107e160048036038101906107dc9190613563565b611904565b005b60007f80ac58cd000000000000000000000000000000000000000000000000000000007bffffffffffffffffffffffffffffffffffffffffffffffffffffffff1916827bffffffffffffffffffffffffffffffffffffffffffffffffffffffff191614806108ae57507f5b5e139f000000000000000000000000000000000000000000000000000000007bffffffffffffffffffffffffffffffffffffffffffffffffffffffff1916827bffffffffffffffffffffffffffffffffffffffffffffffffffffffff1916145b806108be57506108bd82611988565b5b9050919050565b60006108d160086119f2565b905090565b6060600080546108e59061389a565b80601f01602080910402602001604051908101604052809291908181526020018280546109119061389a565b801561095e5780601f106109335761010080835404028352916020019161095e565b820191906000526020600020905b81548152906001019060200180831161094157829003601f168201915b5050505050905090565b600061097382611a00565b6004600083815260200190815260200160002060009054906101000a900473ffffffffffffffffffffffffffffffffffffffff169050919050565b60006109b982610e40565b90508073ffffffffffffffffffffffffffffffffffffffff168373ffffffffffffffffffffffffffffffffffffffff161415610a2a576040517f08c379a0000000000000000000000000000000000000000000000000000000008152600401610a219061393e565b60405180910390fd5b8073ffffffffffffffffffffffffffffffffffffffff16610a49611a4b565b73ffffffffffffffffffffffffffffffffffffffff161480610a785750610a7781610a72611a4b565b611870565b5b610ab7576040517f08c379a0000000000000000000000000000000000000000000000000000000008152600401610aae906139d0565b60405180910390fd5b610ac18383611a53565b505050565b6000601180549050905090565b610ae4610ade611a4b565b82611b0c565b610b23576040517f08c379a0000000000000000000000000000000000000000000000000000000008152600401610b1a90613a62565b60405180910390fd5b610b2e838383611ba1565b505050565b6000610b3e836110dd565b8210610b7f576040517f08c379a0000000000000000000000000000000000000000000000000000000008152600401610b7690613ace565b60405180910390fd5b600f60008473ffffffffffffffffffffffffffffffffffffffff1673ffffffffffffffffffffffffffffffffffffffff168152602001908152602001600020600083815260200190815260200160002054905092915050565b60606000610be4610ac6565b9050600080610bf3600b6119f2565b67ffffffffffffffff811115610c0c57610c0b61332c565b5b604051908082528060200260200182016040528015610c4557816020015b610c32612dba565b815260200190600190039081610c2a5790505b50905060005b83811015610d69576000610c5e82610dcf565b90506000600e60008381526020019081526020016000209050600115158160020160149054906101000a900460ff1615151415610d54578060405180608001604052908160008201548152602001600182015481526020016002820160009054906101000a900473ffffffffffffffffffffffffffffffffffffffff1673ffffffffffffffffffffffffffffffffffffffff1673ffffffffffffffffffffffffffffffffffffffff1681526020016002820160149054906101000a900460ff161515151581525050848681518110610d3957610d38613aee565b5b6020026020010181905250600185610d519190613b4c565b94505b50508080610d6190613ba2565b915050610c4b565b5080935050505090565b610d8e8383836040518060200160405280600081525061130b565b505050565b600060011515600d83604051610da99190613c27565b908152602001604051809103902060009054906101000a900460ff161515149050919050565b6000610dd9610ac6565b8210610e1a576040517f08c379a0000000000000000000000000000000000000000000000000000000008152600401610e1190613ace565b60405180910390fd5b60118281548110610e2e57610e2d613aee565b5b90600052602060002001549050919050565b6000806002600084815260200190815260200160002060009054906101000a900473ffffffffffffffffffffffffffffffffffffffff169050600073ffffffffffffffffffffffffffffffffffffffff168173ffffffffffffffffffffffffffffffffffffffff161415610ee9576040517f08c379a0000000000000000000000000000000000000000000000000000000008152600401610ee090613c8a565b60405180910390fd5b80915050919050565b610efa612dba565b600e600083815260200190815260200160002060405180608001604052908160008201548152602001600182015481526020016002820160009054906101000a900473ffffffffffffffffffffffffffffffffffffffff1673ffffffffffffffffffffffffffffffffffffffff1673ffffffffffffffffffffffffffffffffffffffff1681526020016002820160149054906101000a900460ff1615151515815250509050919050565b8073ffffffffffffffffffffffffffffffffffffffff16610fc484610e40565b73ffffffffffffffffffffffffffffffffffffffff161461101a576040517f08c379a000000000000000000000000000000000000000000000000000000000815260040161101190613cf6565b60405180910390fd5b60001515600e600085815260200190815260200160002060020160149054906101000a900460ff16151514611084576040517f08c379a000000000000000000000000000000000000000000000000000000000815260040161107b90613d62565b60405180910390fd5b6001600e600085815260200190815260200160002060020160146101000a81548160ff02191690831515021790555081600e6000858152602001908152602001600020600101819055506110d8600b611e08565b505050565b60008073ffffffffffffffffffffffffffffffffffffffff168273ffffffffffffffffffffffffffffffffffffffff16141561114e576040517f08c379a000000000000000000000000000000000000000000000000000000000815260040161114590613df4565b60405180910390fd5b600360008373ffffffffffffffffffffffffffffffffffffffff1673ffffffffffffffffffffffffffffffffffffffff168152602001908152602001600020549050919050565b61119d611e1e565b6111a76000611e9c565b565b6111b1611e1e565b600081116111f4576040517f08c379a00000000000000000000000000000000000000000000000000000000081526004016111eb90613e60565b60405180910390fd5b80600a8190555050565b6000600760009054906101000a900473ffffffffffffffffffffffffffffffffffffffff16905090565b6060600180546112379061389a565b80601f01602080910402602001604051908101604052809291908181526020018280546112639061389a565b80156112b05780601f10611285576101008083540402835291602001916112b0565b820191906000526020600020905b81548152906001019060200180831161129357829003601f168201915b5050505050905090565b600060016009836040516112ce9190613c27565b908152602001604051809103902060009054906101000a900460ff1660ff16149050919050565b611307611300611a4b565b8383611f62565b5050565b61131c611316611a4b565b83611b0c565b61135b576040517f08c379a000000000000000000000000000000000000000000000000000000000815260040161135290613a62565b60405180910390fd5b611367848484846120cf565b50505050565b6000600e6000848152602001908152602001600020600101549050600061139384610e40565b90508073ffffffffffffffffffffffffffffffffffffffff168373ffffffffffffffffffffffffffffffffffffffff161415611404576040517f08c379a00000000000000000000000000000000000000000000000000000000081526004016113fb90613ecc565b60405180910390fd5b6000600e600086815260200190815260200160002060020160146101000a81548160ff02191690831515021790555061143d600b61212b565b611448818486611ba1565b8073ffffffffffffffffffffffffffffffffffffffff166108fc349081150290604051600060405180830381858888f1935050505015801561148e573d6000803e3d6000fd5b5050505050565b600a5481565b606060006114a8836110dd565b905060008167ffffffffffffffff8111156114c6576114c561332c565b5b6040519080825280602002602001820160405280156114ff57816020015b6114ec612dba565b8152602001906001900390816114e45790505b50905060005b828110156115f65760006115198683610b33565b90506000600e600083815260200190815260200160002090508060405180608001604052908160008201548152602001600182015481526020016002820160009054906101000a900473ffffffffffffffffffffffffffffffffffffffff1673ffffffffffffffffffffffffffffffffffffffff1673ffffffffffffffffffffffffffffffffffffffff1681526020016002820160149054906101000a900460ff1615151515815250508484815181106115d6576115d5613aee565b5b6020026020010181905250505080806115ee90613ba2565b915050611505565b508092505050919050565b606061160c82611a00565b600060066000848152602001908152602001600020805461162c9061389a565b80601f01602080910402602001604051908101604052809291908181526020018280546116589061389a565b80156116a55780601f1061167a576101008083540402835291602001916116a5565b820191906000526020600020905b81548152906001019060200180831161168857829003601f168201915b5050505050905060006116b6612187565b90506000815114156116cc57819250505061170f565b6000825111156117015780826040516020016116e9929190613eec565b6040516020818303038152906040529250505061170f565b61170a8461219e565b925050505b919050565b6000611720600b6119f2565b905090565b600061173084610d93565b15611770576040517f08c379a000000000000000000000000000000000000000000000000000000000815260040161176790613f5c565b60405180910390fd5b600a5434146117b4576040517f08c379a00000000000000000000000000000000000000000000000000000000081526004016117ab90613fee565b60405180910390fd5b6117be600c611e08565b6117c8600b611e08565b60006117d4600c6119f2565b90506117e08482612206565b6117ea8186612224565b6117f5818486612298565b6001600d866040516118079190613c27565b908152602001604051809103902060006101000a81548160ff021916908315150217905550809150509392505050565b61183f611e1e565b600061184b60086119f2565b90506118576008611e08565b6118618382612206565b61186b8183612224565b505050565b6000600560008473ffffffffffffffffffffffffffffffffffffffff1673ffffffffffffffffffffffffffffffffffffffff16815260200190815260200160002060008373ffffffffffffffffffffffffffffffffffffffff1673ffffffffffffffffffffffffffffffffffffffff16815260200190815260200160002060009054906101000a900460ff16905092915050565b61190c611e1e565b600073ffffffffffffffffffffffffffffffffffffffff168173ffffffffffffffffffffffffffffffffffffffff16141561197c576040517f08c379a000000000000000000000000000000000000000000000000000000000815260040161197390614080565b60405180910390fd5b61198581611e9c565b50565b60007f01ffc9a7000000000000000000000000000000000000000000000000000000007bffffffffffffffffffffffffffffffffffffffffffffffffffffffff1916827bffffffffffffffffffffffffffffffffffffffffffffffffffffffff1916149050919050565b600081600001549050919050565b611a09816123e9565b611a48576040517f08c379a0000000000000000000000000000000000000000000000000000000008152600401611a3f90613c8a565b60405180910390fd5b50565b600033905090565b816004600083815260200190815260200160002060006101000a81548173ffffffffffffffffffffffffffffffffffffffff021916908373ffffffffffffffffffffffffffffffffffffffff160217905550808273ffffffffffffffffffffffffffffffffffffffff16611ac683610e40565b73ffffffffffffffffffffffffffffffffffffffff167f8c5be1e5ebec7d5bd14f71427d1e84f3dd0314c0f7b2291e5b200ac8c7c3b92560405160405180910390a45050565b600080611b1883610e40565b90508073ffffffffffffffffffffffffffffffffffffffff168473ffffffffffffffffffffffffffffffffffffffff161480611b5a5750611b598185611870565b5b80611b9857508373ffffffffffffffffffffffffffffffffffffffff16611b8084610968565b73ffffffffffffffffffffffffffffffffffffffff16145b91505092915050565b8273ffffffffffffffffffffffffffffffffffffffff16611bc182610e40565b73ffffffffffffffffffffffffffffffffffffffff1614611c17576040517f08c379a0000000000000000000000000000000000000000000000000000000008152600401611c0e90614112565b60405180910390fd5b600073ffffffffffffffffffffffffffffffffffffffff168273ffffffffffffffffffffffffffffffffffffffff161415611c87576040517f08c379a0000000000000000000000000000000000000000000000000000000008152600401611c7e906141a4565b60405180910390fd5b611c92838383612455565b611c9d600082611a53565b6001600360008573ffffffffffffffffffffffffffffffffffffffff1673ffffffffffffffffffffffffffffffffffffffff1681526020019081526020016000206000828254611ced91906141c4565b925050819055506001600360008473ffffffffffffffffffffffffffffffffffffffff1673ffffffffffffffffffffffffffffffffffffffff1681526020019081526020016000206000828254611d449190613b4c565b92505081905550816002600083815260200190815260200160002060006101000a81548173ffffffffffffffffffffffffffffffffffffffff021916908373ffffffffffffffffffffffffffffffffffffffff160217905550808273ffffffffffffffffffffffffffffffffffffffff168473ffffffffffffffffffffffffffffffffffffffff167fddf252ad1be2c89b69c2b068fc378daa952ba7f163c4a11628f55a4df523b3ef60405160405180910390a4611e03838383612569565b505050565b6001816000016000828254019250508190555050565b611e26611a4b565b73ffffffffffffffffffffffffffffffffffffffff16611e446111fe565b73ffffffffffffffffffffffffffffffffffffffff1614611e9a576040517f08c379a0000000000000000000000000000000000000000000000000000000008152600401611e9190614244565b60405180910390fd5b565b6000600760009054906101000a900473ffffffffffffffffffffffffffffffffffffffff16905081600760006101000a81548173ffffffffffffffffffffffffffffffffffffffff021916908373ffffffffffffffffffffffffffffffffffffffff1602179055508173ffffffffffffffffffffffffffffffffffffffff168173ffffffffffffffffffffffffffffffffffffffff167f8be0079c531659141344cd1fd0a4f28419497f9722a3daafe3b4186f6b6457e060405160405180910390a35050565b8173ffffffffffffffffffffffffffffffffffffffff168373ffffffffffffffffffffffffffffffffffffffff161415611fd1576040517f08c379a0000000000000000000000000000000000000000000000000000000008152600401611fc8906142b0565b60405180910390fd5b80600560008573ffffffffffffffffffffffffffffffffffffffff1673ffffffffffffffffffffffffffffffffffffffff16815260200190815260200160002060008473ffffffffffffffffffffffffffffffffffffffff1673ffffffffffffffffffffffffffffffffffffffff16815260200190815260200160002060006101000a81548160ff0219169083151502179055508173ffffffffffffffffffffffffffffffffffffffff168373ffffffffffffffffffffffffffffffffffffffff167f17307eab39ab6107e8899845ad3d59bd9653f200f220920489ca2b5937696c31836040516120c29190612f51565b60405180910390a3505050565b6120da848484611ba1565b6120e68484848461256e565b612125576040517f08c379a000000000000000000000000000000000000000000000000000000000815260040161211c90614342565b60405180910390fd5b50505050565b60008160000154905060008111612177576040517f08c379a000000000000000000000000000000000000000000000000000000000815260040161216e906143ae565b60405180910390fd5b6001810382600001819055505050565b606060405180602001604052806000815250905090565b60606121a982611a00565b60006121b3612187565b905060008151116121d357604051806020016040528060008152506121fe565b806121dd846126f6565b6040516020016121ee929190613eec565b6040516020818303038152906040525b915050919050565b612220828260405180602001604052806000815250612857565b5050565b61222d826123e9565b61226c576040517f08c379a000000000000000000000000000000000000000000000000000000000815260040161226390614440565b60405180910390fd5b80600660008481526020019081526020016000209080519060200190612293929190612dfa565b505050565b600082116122db576040517f08c379a00000000000000000000000000000000000000000000000000000000081526004016122d290613e60565b60405180910390fd5b60405180608001604052808481526020018381526020018273ffffffffffffffffffffffffffffffffffffffff16815260200160011515815250600e6000858152602001908152602001600020600082015181600001556020820151816001015560408201518160020160006101000a81548173ffffffffffffffffffffffffffffffffffffffff021916908373ffffffffffffffffffffffffffffffffffffffff16021790555060608201518160020160146101000a81548160ff0219169083151502179055509050507f470031062672bc0246e132c723a729c4676710ec663a29e86c88678032daddea83838360016040516123dc9493929190614460565b60405180910390a1505050565b60008073ffffffffffffffffffffffffffffffffffffffff166002600084815260200190815260200160002060009054906101000a900473ffffffffffffffffffffffffffffffffffffffff1673ffffffffffffffffffffffffffffffffffffffff1614159050919050565b6124608383836128b2565b600073ffffffffffffffffffffffffffffffffffffffff168373ffffffffffffffffffffffffffffffffffffffff1614156124a35761249e816128b7565b6124e2565b8173ffffffffffffffffffffffffffffffffffffffff168373ffffffffffffffffffffffffffffffffffffffff16146124e1576124e08382612900565b5b5b600073ffffffffffffffffffffffffffffffffffffffff168273ffffffffffffffffffffffffffffffffffffffff1614156125255761252081612a6d565b612564565b8273ffffffffffffffffffffffffffffffffffffffff168273ffffffffffffffffffffffffffffffffffffffff1614612563576125628282612b3e565b5b5b505050565b505050565b600061258f8473ffffffffffffffffffffffffffffffffffffffff16612bbd565b156126e9578373ffffffffffffffffffffffffffffffffffffffff1663150b7a026125b8611a4b565b8786866040518563ffffffff1660e01b81526004016125da94939291906144fa565b6020604051808303816000875af192505050801561261657506040513d601f19601f82011682018060405250810190612613919061455b565b60015b612699573d8060008114612646576040519150601f19603f3d011682016040523d82523d6000602084013e61264b565b606091505b50600081511415612691576040517f08c379a000000000000000000000000000000000000000000000000000000000815260040161268890614342565b60405180910390fd5b805181602001fd5b63150b7a0260e01b7bffffffffffffffffffffffffffffffffffffffffffffffffffffffff1916817bffffffffffffffffffffffffffffffffffffffffffffffffffffffff1916149150506126ee565b600190505b949350505050565b6060600082141561273e576040518060400160405280600181526020017f30000000000000000000000000000000000000000000000000000000000000008152509050612852565b600082905060005b6000821461277057808061275990613ba2565b915050600a8261276991906145b7565b9150612746565b60008167ffffffffffffffff81111561278c5761278b61332c565b5b6040519080825280601f01601f1916602001820160405280156127be5781602001600182028036833780820191505090505b5090505b6000851461284b576001826127d791906141c4565b9150600a856127e691906145e8565b60306127f29190613b4c565b60f81b81838151811061280857612807613aee565b5b60200101907effffffffffffffffffffffffffffffffffffffffffffffffffffffffffffff1916908160001a905350600a8561284491906145b7565b94506127c2565b8093505050505b919050565b6128618383612be0565b61286e600084848461256e565b6128ad576040517f08c379a00000000000000000000000000000000000000000000000000000000081526004016128a490614342565b60405180910390fd5b505050565b505050565b6011805490506012600083815260200190815260200160002081905550601181908060018154018082558091505060019003906000526020600020016000909190919091505550565b6000600161290d846110dd565b61291791906141c4565b90506000601060008481526020019081526020016000205490508181146129fc576000600f60008673ffffffffffffffffffffffffffffffffffffffff1673ffffffffffffffffffffffffffffffffffffffff168152602001908152602001600020600084815260200190815260200160002054905080600f60008773ffffffffffffffffffffffffffffffffffffffff1673ffffffffffffffffffffffffffffffffffffffff168152602001908152602001600020600084815260200190815260200160002081905550816010600083815260200190815260200160002081905550505b6010600084815260200190815260200160002060009055600f60008573ffffffffffffffffffffffffffffffffffffffff1673ffffffffffffffffffffffffffffffffffffffff16815260200190815260200160002060008381526020019081526020016000206000905550505050565b60006001601180549050612a8191906141c4565b9050600060126000848152602001908152602001600020549050600060118381548110612ab157612ab0613aee565b5b906000526020600020015490508060118381548110612ad357612ad2613aee565b5b906000526020600020018190555081601260008381526020019081526020016000208190555060126000858152602001908152602001600020600090556011805480612b2257612b21614619565b5b6001900381819060005260206000200160009055905550505050565b6000612b49836110dd565b905081600f60008573ffffffffffffffffffffffffffffffffffffffff1673ffffffffffffffffffffffffffffffffffffffff168152602001908152602001600020600083815260200190815260200160002081905550806010600084815260200190815260200160002081905550505050565b6000808273ffffffffffffffffffffffffffffffffffffffff163b119050919050565b600073ffffffffffffffffffffffffffffffffffffffff168273ffffffffffffffffffffffffffffffffffffffff161415612c50576040517f08c379a0000000000000000000000000000000000000000000000000000000008152600401612c4790614694565b60405180910390fd5b612c59816123e9565b15612c99576040517f08c379a0000000000000000000000000000000000000000000000000000000008152600401612c9090614700565b60405180910390fd5b612ca560008383612455565b6001600360008473ffffffffffffffffffffffffffffffffffffffff1673ffffffffffffffffffffffffffffffffffffffff1681526020019081526020016000206000828254612cf59190613b4c565b92505081905550816002600083815260200190815260200160002060006101000a81548173ffffffffffffffffffffffffffffffffffffffff021916908373ffffffffffffffffffffffffffffffffffffffff160217905550808273ffffffffffffffffffffffffffffffffffffffff16600073ffffffffffffffffffffffffffffffffffffffff167fddf252ad1be2c89b69c2b068fc378daa952ba7f163c4a11628f55a4df523b3ef60405160405180910390a4612db660008383612569565b5050565b60405180608001604052806000815260200160008152602001600073ffffffffffffffffffffffffffffffffffffffff1681526020016000151581525090565b828054612e069061389a565b90600052602060002090601f016020900481019282612e285760008555612e6f565b82601f10612e4157805160ff1916838001178555612e6f565b82800160010185558215612e6f579182015b82811115612e6e578251825591602001919060010190612e53565b5b509050612e7c9190612e80565b5090565b5b80821115612e99576000816000905550600101612e81565b5090565b6000604051905090565b600080fd5b600080fd5b60007fffffffff0000000000000000000000000000000000000000000000000000000082169050919050565b612ee681612eb1565b8114612ef157600080fd5b50565b600081359050612f0381612edd565b92915050565b600060208284031215612f1f57612f1e612ea7565b5b6000612f2d84828501612ef4565b91505092915050565b60008115159050919050565b612f4b81612f36565b82525050565b6000602082019050612f666000830184612f42565b92915050565b6000819050919050565b612f7f81612f6c565b82525050565b6000602082019050612f9a6000830184612f76565b92915050565b600081519050919050565b600082825260208201905092915050565b60005b83811015612fda578082015181840152602081019050612fbf565b83811115612fe9576000848401525b50505050565b6000601f19601f8301169050919050565b600061300b82612fa0565b6130158185612fab565b9350613025818560208601612fbc565b61302e81612fef565b840191505092915050565b600060208201905081810360008301526130538184613000565b905092915050565b61306481612f6c565b811461306f57600080fd5b50565b6000813590506130818161305b565b92915050565b60006020828403121561309d5761309c612ea7565b5b60006130ab84828501613072565b91505092915050565b600073ffffffffffffffffffffffffffffffffffffffff82169050919050565b60006130df826130b4565b9050919050565b6130ef816130d4565b82525050565b600060208201905061310a60008301846130e6565b92915050565b613119816130d4565b811461312457600080fd5b50565b60008135905061313681613110565b92915050565b6000806040838503121561315357613152612ea7565b5b600061316185828601613127565b925050602061317285828601613072565b9150509250929050565b60008060006060848603121561319557613194612ea7565b5b60006131a386828701613127565b93505060206131b486828701613127565b92505060406131c586828701613072565b9150509250925092565b600081519050919050565b600082825260208201905092915050565b6000819050602082019050919050565b61320481612f6c565b82525050565b613213816130d4565b82525050565b61322281612f36565b82525050565b60808201600082015161323e60008501826131fb565b50602082015161325160208501826131fb565b506040820151613264604085018261320a565b5060608201516132776060850182613219565b50505050565b60006132898383613228565b60808301905092915050565b6000602082019050919050565b60006132ad826131cf565b6132b781856131da565b93506132c2836131eb565b8060005b838110156132f35781516132da888261327d565b97506132e583613295565b9250506001810190506132c6565b5085935050505092915050565b6000602082019050818103600083015261331a81846132a2565b905092915050565b600080fd5b600080fd5b7f4e487b7100000000000000000000000000000000000000000000000000000000600052604160045260246000fd5b61336482612fef565b810181811067ffffffffffffffff821117156133835761338261332c565b5b80604052505050565b6000613396612e9d565b90506133a2828261335b565b919050565b600067ffffffffffffffff8211156133c2576133c161332c565b5b6133cb82612fef565b9050602081019050919050565b82818337600083830152505050565b60006133fa6133f5846133a7565b61338c565b90508281526020810184848401111561341657613415613327565b5b6134218482856133d8565b509392505050565b600082601f83011261343e5761343d613322565b5b813561344e8482602086016133e7565b91505092915050565b60006020828403121561346d5761346c612ea7565b5b600082013567ffffffffffffffff81111561348b5761348a612eac565b5b61349784828501613429565b91505092915050565b6080820160008201516134b660008501826131fb565b5060208201516134c960208501826131fb565b5060408201516134dc604085018261320a565b5060608201516134ef6060850182613219565b50505050565b600060808201905061350a60008301846134a0565b92915050565b60008060006060848603121561352957613528612ea7565b5b600061353786828701613072565b935050602061354886828701613072565b925050604061355986828701613127565b9150509250925092565b60006020828403121561357957613578612ea7565b5b600061358784828501613127565b91505092915050565b61359981612f36565b81146135a457600080fd5b50565b6000813590506135b681613590565b92915050565b600080604083850312156135d3576135d2612ea7565b5b60006135e185828601613127565b92505060206135f2858286016135a7565b9150509250929050565b600067ffffffffffffffff8211156136175761361661332c565b5b61362082612fef565b9050602081019050919050565b600061364061363b846135fc565b61338c565b90508281526020810184848401111561365c5761365b613327565b5b6136678482856133d8565b509392505050565b600082601f83011261368457613683613322565b5b813561369484826020860161362d565b91505092915050565b600080600080608085870312156136b7576136b6612ea7565b5b60006136c587828801613127565b94505060206136d687828801613127565b93505060406136e787828801613072565b925050606085013567ffffffffffffffff81111561370857613707612eac565b5b6137148782880161366f565b91505092959194509250565b6000806040838503121561373757613736612ea7565b5b600061374585828601613072565b925050602061375685828601613127565b9150509250929050565b60008060006060848603121561377957613778612ea7565b5b600084013567ffffffffffffffff81111561379757613796612eac565b5b6137a386828701613429565b93505060206137b486828701613127565b92505060406137c586828701613072565b9150509250925092565b600080604083850312156137e6576137e5612ea7565b5b60006137f485828601613127565b925050602083013567ffffffffffffffff81111561381557613814612eac565b5b61382185828601613429565b9150509250929050565b6000806040838503121561384257613841612ea7565b5b600061385085828601613127565b925050602061386185828601613127565b9150509250929050565b7f4e487b7100000000000000000000000000000000000000000000000000000000600052602260045260246000fd5b600060028204905060018216806138b257607f821691505b602082108114156138c6576138c561386b565b5b50919050565b7f4552433732313a20617070726f76616c20746f2063757272656e74206f776e6560008201527f7200000000000000000000000000000000000000000000000000000000000000602082015250565b6000613928602183612fab565b9150613933826138cc565b604082019050919050565b600060208201905081810360008301526139578161391b565b9050919050565b7f4552433732313a20617070726f76652063616c6c6572206973206e6f7420746f60008201527f6b656e206f776e6572206e6f7220617070726f76656420666f7220616c6c0000602082015250565b60006139ba603e83612fab565b91506139c58261395e565b604082019050919050565b600060208201905081810360008301526139e9816139ad565b9050919050565b7f4552433732313a2063616c6c6572206973206e6f7420746f6b656e206f776e6560008201527f72206e6f7220617070726f766564000000000000000000000000000000000000602082015250565b6000613a4c602e83612fab565b9150613a57826139f0565b604082019050919050565b60006020820190508181036000830152613a7b81613a3f565b9050919050565b7f496e646578206f7574206f6620626f756e647300000000000000000000000000600082015250565b6000613ab8601383612fab565b9150613ac382613a82565b602082019050919050565b60006020820190508181036000830152613ae781613aab565b9050919050565b7f4e487b7100000000000000000000000000000000000000000000000000000000600052603260045260246000fd5b7f4e487b7100000000000000000000000000000000000000000000000000000000600052601160045260246000fd5b6000613b5782612f6c565b9150613b6283612f6c565b9250827fffffffffffffffffffffffffffffffffffffffffffffffffffffffffffffffff03821115613b9757613b96613b1d565b5b828201905092915050565b6000613bad82612f6c565b91507fffffffffffffffffffffffffffffffffffffffffffffffffffffffffffffffff821415613be057613bdf613b1d565b5b600182019050919050565b600081905092915050565b6000613c0182612fa0565b613c0b8185613beb565b9350613c1b818560208601612fbc565b80840191505092915050565b6000613c338284613bf6565b915081905092915050565b7f4552433732313a20696e76616c696420746f6b656e2049440000000000000000600082015250565b6000613c74601883612fab565b9150613c7f82613c3e565b602082019050919050565b60006020820190508181036000830152613ca381613c67565b9050919050565b7f596f7520617265206e6f74206f776e6572206f662074686973206e6674000000600082015250565b6000613ce0601d83612fab565b9150613ceb82613caa565b602082019050919050565b60006020820190508181036000830152613d0f81613cd3565b9050919050565b7f4974656d20697320616c7265616479206f6e2073616c65000000000000000000600082015250565b6000613d4c601783612fab565b9150613d5782613d16565b602082019050919050565b60006020820190508181036000830152613d7b81613d3f565b9050919050565b7f4552433732313a2061646472657373207a65726f206973206e6f74206120766160008201527f6c6964206f776e65720000000000000000000000000000000000000000000000602082015250565b6000613dde602983612fab565b9150613de982613d82565b604082019050919050565b60006020820190508181036000830152613e0d81613dd1565b9050919050565b7f5072696365206d757374206265206174206c6561737420312077656900000000600082015250565b6000613e4a601c83612fab565b9150613e5582613e14565b602082019050919050565b60006020820190508181036000830152613e7981613e3d565b9050919050565b7f596f7520616c7265616479206f776e2074686973204e46540000000000000000600082015250565b6000613eb6601883612fab565b9150613ec182613e80565b602082019050919050565b60006020820190508181036000830152613ee581613ea9565b9050919050565b6000613ef88285613bf6565b9150613f048284613bf6565b91508190509392505050565b7f546f6b656e2055524920616c7265616479206578697374730000000000000000600082015250565b6000613f46601883612fab565b9150613f5182613f10565b602082019050919050565b60006020820190508181036000830152613f7581613f39565b9050919050565b7f5072696365206d75737420626520657175616c20746f206c697374696e67207060008201527f7269636500000000000000000000000000000000000000000000000000000000602082015250565b6000613fd8602483612fab565b9150613fe382613f7c565b604082019050919050565b6000602082019050818103600083015261400781613fcb565b9050919050565b7f4f776e61626c653a206e6577206f776e657220697320746865207a65726f206160008201527f6464726573730000000000000000000000000000000000000000000000000000602082015250565b600061406a602683612fab565b91506140758261400e565b604082019050919050565b600060208201905081810360008301526140998161405d565b9050919050565b7f4552433732313a207472616e736665722066726f6d20696e636f72726563742060008201527f6f776e6572000000000000000000000000000000000000000000000000000000602082015250565b60006140fc602583612fab565b9150614107826140a0565b604082019050919050565b6000602082019050818103600083015261412b816140ef565b9050919050565b7f4552433732313a207472616e7366657220746f20746865207a65726f2061646460008201527f7265737300000000000000000000000000000000000000000000000000000000602082015250565b600061418e602483612fab565b915061419982614132565b604082019050919050565b600060208201905081810360008301526141bd81614181565b9050919050565b60006141cf82612f6c565b91506141da83612f6c565b9250828210156141ed576141ec613b1d565b5b828203905092915050565b7f4f776e61626c653a2063616c6c6572206973206e6f7420746865206f776e6572600082015250565b600061422e602083612fab565b9150614239826141f8565b602082019050919050565b6000602082019050818103600083015261425d81614221565b9050919050565b7f4552433732313a20617070726f766520746f2063616c6c657200000000000000600082015250565b600061429a601983612fab565b91506142a582614264565b602082019050919050565b600060208201905081810360008301526142c98161428d565b9050919050565b7f4552433732313a207472616e7366657220746f206e6f6e20455243373231526560008201527f63656976657220696d706c656d656e7465720000000000000000000000000000602082015250565b600061432c603283612fab565b9150614337826142d0565b604082019050919050565b6000602082019050818103600083015261435b8161431f565b9050919050565b7f436f756e7465723a2064656372656d656e74206f766572666c6f770000000000600082015250565b6000614398601b83612fab565b91506143a382614362565b602082019050919050565b600060208201905081810360008301526143c78161438b565b9050919050565b7f45524337323155524953746f726167653a2055524920736574206f66206e6f6e60008201527f6578697374656e7420746f6b656e000000000000000000000000000000000000602082015250565b600061442a602e83612fab565b9150614435826143ce565b604082019050919050565b600060208201905081810360008301526144598161441d565b9050919050565b60006080820190506144756000830187612f76565b6144826020830186612f76565b61448f60408301856130e6565b61449c6060830184612f42565b95945050505050565b600081519050919050565b600082825260208201905092915050565b60006144cc826144a5565b6144d681856144b0565b93506144e6818560208601612fbc565b6144ef81612fef565b840191505092915050565b600060808201905061450f60008301876130e6565b61451c60208301866130e6565b6145296040830185612f76565b818103606083015261453b81846144c1565b905095945050505050565b60008151905061455581612edd565b92915050565b60006020828403121561457157614570612ea7565b5b600061457f84828501614546565b91505092915050565b7f4e487b7100000000000000000000000000000000000000000000000000000000600052601260045260246000fd5b60006145c282612f6c565b91506145cd83612f6c565b9250826145dd576145dc614588565b5b828204905092915050565b60006145f382612f6c565b91506145fe83612f6c565b92508261460e5761460d614588565b5b828206905092915050565b7f4e487b7100000000000000000000000000000000000000000000000000000000600052603160045260246000fd5b7f4552433732313a206d696e7420746f20746865207a65726f2061646472657373600082015250565b600061467e602083612fab565b915061468982614648565b602082019050919050565b600060208201905081810360008301526146ad81614671565b9050919050565b7f4552433732313a20746f6b656e20616c7265616479206d696e74656400000000600082015250565b60006146ea601c83612fab565b91506146f5826146b4565b602082019050919050565b60006020820190508181036000830152614719816146dd565b905091905056fea2646970667358221220c3936d62bebb4db919df3abf57d193339060ac5783ee5ceeea34ad31c3d2cdab64736f6c634300080b0033",
  "immutableReferences": {},
  "source": "// SPDX-License-Identifier: MIT\npragma solidity >=0.4.22 <0.9.0;\n\nimport \"../node_modules/@openzeppelin/contracts/token/ERC721/ERC721.sol\";\nimport \"../node_modules/@openzeppelin/contracts/token/ERC721/extensions/ERC721URIStorage.sol\";\nimport \"../node_modules/@openzeppelin/contracts/access/Ownable.sol\";\nimport \"../node_modules/@openzeppelin/contracts/utils/Counters.sol\";\n\ncontract NftMarket is ERC721URIStorage, Ownable {\n    using Counters for Counters.Counter;\n\n    Counters.Counter private _tokenIdCounter;\n\n    mapping(string => uint8) existingURIs;\n\n    struct NftItem {\n        uint256 tokenId;\n        uint256 price;\n        address creator;\n        bool isListed;\n    }\n\n    uint256 public listingPrice = 0.025 ether;\n\n    Counters.Counter private _listedItems;\n    Counters.Counter private _tokenIds;\n\n    mapping(string => bool) private _usedTokenURIs;\n    mapping(uint256 => NftItem) private _idToNftItem;\n\n    mapping(address => mapping(uint256 => uint256)) private _ownedTokens;\n    mapping(uint256 => uint256) private _idToOwnedIndex;\n\n    uint256[] private _allNfts;\n    mapping(uint256 => uint256) private _idToNftIndex;\n\n    event NftItemCreated(\n        uint256 tokenId,\n        uint256 price,\n        address creator,\n        bool isListed\n    );\n\n    constructor() ERC721(\"AnchorNft\", \"ANCHOR\") {}\n\n    // function _baseURI() internal pure override returns (string memory) {\n    //     return \"ipfs://\";\n    // }\n\n    function safeMint(address to, string memory uri) public onlyOwner {\n        uint256 tokenId = _tokenIdCounter.current();\n        _tokenIdCounter.increment();\n        _safeMint(to, tokenId);\n        _setTokenURI(tokenId, uri);\n    }\n\n    function setListingPrice(uint256 newPrice) external onlyOwner {\n        require(newPrice > 0, \"Price must be at least 1 wei\");\n        listingPrice = newPrice;\n    }\n\n    function getNftItem(uint256 tokenId) public view returns (NftItem memory) {\n        return _idToNftItem[tokenId];\n    }\n\n    function listedItemsCount() public view returns (uint256) {\n        return _listedItems.current();\n    }\n\n    function tokenURIExists(string memory tokenURI) public view returns (bool) {\n        return _usedTokenURIs[tokenURI] == true;\n    }\n\n    function totalSupply() public view returns (uint256) {\n        return _allNfts.length;\n    }\n\n    function tokenByIndex(uint256 index) public view returns (uint256) {\n        require(index < totalSupply(), \"Index out of bounds\");\n        return _allNfts[index];\n    }\n\n    function tokenOfOwnerByIndex(address owner, uint256 index)\n        public\n        view\n        returns (uint256)\n    {\n        require(index < ERC721.balanceOf(owner), \"Index out of bounds\");\n        return _ownedTokens[owner][index];\n    }\n\n    function getAllNftsOnSale() public view returns (NftItem[] memory) {\n        uint256 allItemsCounts = totalSupply();\n        uint256 currentIndex = 0;\n        NftItem[] memory items = new NftItem[](_listedItems.current());\n\n        for (uint256 i = 0; i < allItemsCounts; i++) {\n            uint256 tokenId = tokenByIndex(i);\n            NftItem storage item = _idToNftItem[tokenId];\n\n            if (item.isListed == true) {\n                items[currentIndex] = item;\n                currentIndex += 1;\n            }\n        }\n\n        return items;\n    }\n\n    function getOwnedNfts(address account)\n        public\n        view\n        returns (NftItem[] memory)\n    {\n        uint256 ownedItemsCount = ERC721.balanceOf(account);\n        // uint256 ownedItemsCount = ERC721.balanceOf(msg.sender);\n        NftItem[] memory items = new NftItem[](ownedItemsCount);\n\n        for (uint256 i = 0; i < ownedItemsCount; i++) {\n            uint256 tokenId = tokenOfOwnerByIndex(account, i);\n            // uint256 tokenId = tokenOfOwnerByIndex(msg.sender, i);\n            NftItem storage item = _idToNftItem[tokenId];\n            items[i] = item;\n        }\n\n        return items;\n    }\n\n    function mintToken(\n        string memory tokenURI,\n        address account,\n        uint256 price\n    ) public payable returns (uint256) {\n        require(!tokenURIExists(tokenURI), \"Token URI already exists\");\n        require(\n            msg.value == listingPrice,\n            \"Price must be equal to listing price\"\n        );\n\n        _tokenIds.increment();\n        _listedItems.increment();\n\n        uint256 newTokenId = _tokenIds.current();\n\n        _safeMint(account, newTokenId);\n        // _safeMint(msg.sender, newTokenId);\n        _setTokenURI(newTokenId, tokenURI);\n        _createNftItem(newTokenId, price, account);\n        _usedTokenURIs[tokenURI] = true;\n\n        return newTokenId;\n    }\n\n    function buyNft(uint256 tokenId, address account) public payable {\n        uint256 price = _idToNftItem[tokenId].price;\n        address owner = ERC721.ownerOf(tokenId);\n\n        require(account != owner, \"You already own this NFT\");\n        // require(msg.sender != owner, \"You already own this NFT\");\n        // require(msg.value == price, \"Please submit the asking price\");\n\n        _idToNftItem[tokenId].isListed = false;\n        _listedItems.decrement();\n\n        _transfer(owner, account, tokenId);\n        // _transfer(owner, msg.sender, tokenId);\n        // payable(owner).transfer(price);\n        payable(owner).transfer(msg.value);\n    }\n\n    function placeNftOnSale(\n        uint256 tokenId,\n        uint256 newPrice,\n        address account\n    ) public payable {\n        require(\n            ERC721.ownerOf(tokenId) == account,\n            \"You are not owner of this nft\"\n        );\n        // require(\n        //     ERC721.ownerOf(tokenId) == msg.sender,\n        //     \"You are not owner of this nft\"\n        // );\n        require(\n            _idToNftItem[tokenId].isListed == false,\n            \"Item is already on sale\"\n        );\n        // require(\n        //     msg.value == listingPrice,\n        //     \"Price must be equal to listing price\"\n        // );\n\n        _idToNftItem[tokenId].isListed = true;\n        _idToNftItem[tokenId].price = newPrice;\n        _listedItems.increment();\n    }\n\n    function _createNftItem(\n        uint256 tokenId,\n        uint256 price,\n        address account\n    ) private {\n        require(price > 0, \"Price must be at least 1 wei\");\n\n        _idToNftItem[tokenId] = NftItem(tokenId, price, account, true);\n\n        emit NftItemCreated(tokenId, price, account, true);\n    }\n\n    function _beforeTokenTransfer(\n        address from,\n        address to,\n        uint256 tokenId\n    ) internal virtual override {\n        super._beforeTokenTransfer(from, to, tokenId);\n\n        if (from == address(0)) {\n            _addTokenToAllTokensEnumeration(tokenId);\n        } else if (from != to) {\n            _removeTokenFromOwnerEnumeration(from, tokenId);\n        }\n\n        if (to == address(0)) {\n            _removeTokenFromAllTokensEnumeration(tokenId);\n        } else if (to != from) {\n            _addTokenToOwnerEnumeration(to, tokenId);\n        }\n    }\n\n    function _addTokenToAllTokensEnumeration(uint256 tokenId) private {\n        _idToNftIndex[tokenId] = _allNfts.length;\n        _allNfts.push(tokenId);\n    }\n\n    function _addTokenToOwnerEnumeration(address to, uint256 tokenId) private {\n        uint256 length = ERC721.balanceOf(to);\n        _ownedTokens[to][length] = tokenId;\n        _idToOwnedIndex[tokenId] = length;\n    }\n\n    function _removeTokenFromOwnerEnumeration(address from, uint256 tokenId)\n        private\n    {\n        uint256 lastTokenIndex = ERC721.balanceOf(from) - 1;\n        uint256 tokenIndex = _idToOwnedIndex[tokenId];\n\n        if (tokenIndex != lastTokenIndex) {\n            uint256 lastTokenId = _ownedTokens[from][lastTokenIndex];\n\n            _ownedTokens[from][tokenIndex] = lastTokenId;\n            _idToOwnedIndex[lastTokenId] = tokenIndex;\n        }\n\n        delete _idToOwnedIndex[tokenId];\n        delete _ownedTokens[from][lastTokenIndex];\n    }\n\n    function _removeTokenFromAllTokensEnumeration(uint256 tokenId) private {\n        uint256 lastTokenIndex = _allNfts.length - 1;\n        uint256 tokenIndex = _idToNftIndex[tokenId];\n        uint256 lastTokenId = _allNfts[lastTokenIndex];\n\n        _allNfts[tokenIndex] = lastTokenId;\n        _idToNftIndex[lastTokenId] = tokenIndex;\n\n        delete _idToNftIndex[tokenId];\n        _allNfts.pop();\n    }\n\n    // The following functions are overrides required by Solidity.\n\n    // function _burn(uint256 tokenId)\n    //     internal\n    //     override(ERC721, ERC721URIStorage)\n    // {\n    //     super._burn(tokenId);\n    // }\n\n    // function tokenURI(uint256 tokenId)\n    //     public\n    //     view\n    //     override(ERC721, ERC721URIStorage)\n    //     returns (string memory)\n    // {\n    //     return super.tokenURI(tokenId);\n    // }\n\n    function isContentOwned(string memory uri) public view returns (bool) {\n        return existingURIs[uri] == 1;\n    }\n\n    // function payToMint(address recepient, string memory metadataURI)\n    //     public\n    //     payable\n    //     returns (uint256)\n    // {\n    //     require(existingURIs[metadataURI] != 0, \"NFT already minted!\");\n    //     require(msg.value >= 0.025 ether, \"Need to pay up!\");\n    //     uint256 newItemId = _tokenIdCounter.current();\n    //     _tokenIdCounter.increment();\n    //     existingURIs[metadataURI] = 1;\n\n    //     _mint(recepient, newItemId);\n    //     _setTokenURI(newItemId, metadataURI);\n\n    //     return newItemId;\n    // }\n\n    function count() public view returns (uint256) {\n        return _tokenIdCounter.current();\n    }\n}\n",
  "sourcePath": "/home/mohaiminuleraj/Documents/Project/NFT Project/indicium/truffle/contracts/NftMarket.sol",
  "compiler": {
    "name": "solc",
    "version": "0.8.11+commit.d7f03943.Emscripten.clang"
  },
  "schemaVersion": "3.4.5",
  "updatedAt": "2022-08-01T10:59:14.038Z",
  "networkType": "ethereum",
  "devdoc": {
    "kind": "dev",
    "methods": {
      "approve(address,uint256)": {
        "details": "See {IERC721-approve}."
      },
      "balanceOf(address)": {
        "details": "See {IERC721-balanceOf}."
      },
      "getApproved(uint256)": {
        "details": "See {IERC721-getApproved}."
      },
      "isApprovedForAll(address,address)": {
        "details": "See {IERC721-isApprovedForAll}."
      },
      "name()": {
        "details": "See {IERC721Metadata-name}."
      },
      "owner()": {
        "details": "Returns the address of the current owner."
      },
      "ownerOf(uint256)": {
        "details": "See {IERC721-ownerOf}."
      },
      "renounceOwnership()": {
        "details": "Leaves the contract without owner. It will not be possible to call `onlyOwner` functions anymore. Can only be called by the current owner. NOTE: Renouncing ownership will leave the contract without an owner, thereby removing any functionality that is only available to the owner."
      },
      "safeTransferFrom(address,address,uint256)": {
        "details": "See {IERC721-safeTransferFrom}."
      },
      "safeTransferFrom(address,address,uint256,bytes)": {
        "details": "See {IERC721-safeTransferFrom}."
      },
      "setApprovalForAll(address,bool)": {
        "details": "See {IERC721-setApprovalForAll}."
      },
      "supportsInterface(bytes4)": {
        "details": "See {IERC165-supportsInterface}."
      },
      "symbol()": {
        "details": "See {IERC721Metadata-symbol}."
      },
      "tokenURI(uint256)": {
        "details": "See {IERC721Metadata-tokenURI}."
      },
      "transferFrom(address,address,uint256)": {
        "details": "See {IERC721-transferFrom}."
      },
      "transferOwnership(address)": {
        "details": "Transfers ownership of the contract to a new account (`newOwner`). Can only be called by the current owner."
      }
    },
    "version": 1
  },
  "userdoc": {
    "kind": "user",
    "methods": {},
    "version": 1
  }
}