{
  "contractName": "NftMarket",
  "abi": [
    {
      "inputs": [],
      "stateMutability": "nonpayable",
      "type": "constructor"
    },
    {
      "anonymous": false,
      "inputs": [
        {
          "indexed": true,
          "internalType": "address",
          "name": "owner",
          "type": "address"
        },
        {
          "indexed": true,
          "internalType": "address",
          "name": "approved",
          "type": "address"
        },
        {
          "indexed": true,
          "internalType": "uint256",
          "name": "tokenId",
          "type": "uint256"
        }
      ],
      "name": "Approval",
      "type": "event"
    },
    {
      "anonymous": false,
      "inputs": [
        {
          "indexed": true,
          "internalType": "address",
          "name": "owner",
          "type": "address"
        },
        {
          "indexed": true,
          "internalType": "address",
          "name": "operator",
          "type": "address"
        },
        {
          "indexed": false,
          "internalType": "bool",
          "name": "approved",
          "type": "bool"
        }
      ],
      "name": "ApprovalForAll",
      "type": "event"
    },
    {
      "anonymous": false,
      "inputs": [
        {
          "indexed": false,
          "internalType": "uint256",
          "name": "tokenId",
          "type": "uint256"
        },
        {
          "indexed": false,
          "internalType": "uint256",
          "name": "price",
          "type": "uint256"
        },
        {
          "indexed": false,
          "internalType": "address",
          "name": "creator",
          "type": "address"
        },
        {
          "indexed": false,
          "internalType": "bool",
          "name": "isListed",
          "type": "bool"
        }
      ],
      "name": "NftItemCreated",
      "type": "event"
    },
    {
      "anonymous": false,
      "inputs": [
        {
          "indexed": true,
          "internalType": "address",
          "name": "previousOwner",
          "type": "address"
        },
        {
          "indexed": true,
          "internalType": "address",
          "name": "newOwner",
          "type": "address"
        }
      ],
      "name": "OwnershipTransferred",
      "type": "event"
    },
    {
      "anonymous": false,
      "inputs": [
        {
          "indexed": true,
          "internalType": "address",
          "name": "from",
          "type": "address"
        },
        {
          "indexed": true,
          "internalType": "address",
          "name": "to",
          "type": "address"
        },
        {
          "indexed": true,
          "internalType": "uint256",
          "name": "tokenId",
          "type": "uint256"
        }
      ],
      "name": "Transfer",
      "type": "event"
    },
    {
      "stateMutability": "payable",
      "type": "fallback"
    },
    {
      "inputs": [
        {
          "internalType": "address",
          "name": "to",
          "type": "address"
        },
        {
          "internalType": "uint256",
          "name": "tokenId",
          "type": "uint256"
        }
      ],
      "name": "approve",
      "outputs": [],
      "stateMutability": "nonpayable",
      "type": "function"
    },
    {
      "inputs": [
        {
          "internalType": "address",
          "name": "owner",
          "type": "address"
        }
      ],
      "name": "balanceOf",
      "outputs": [
        {
          "internalType": "uint256",
          "name": "",
          "type": "uint256"
        }
      ],
      "stateMutability": "view",
      "type": "function"
    },
    {
      "inputs": [
        {
          "internalType": "uint256",
          "name": "tokenId",
          "type": "uint256"
        },
        {
          "internalType": "address payable",
          "name": "_to",
          "type": "address"
        }
      ],
      "name": "buyNft",
      "outputs": [],
      "stateMutability": "payable",
      "type": "function"
    },
    {
      "inputs": [],
      "name": "count",
      "outputs": [
        {
          "internalType": "uint256",
          "name": "",
          "type": "uint256"
        }
      ],
      "stateMutability": "view",
      "type": "function"
    },
    {
      "inputs": [],
      "name": "getAllNftsOnSale",
      "outputs": [
        {
          "components": [
            {
              "internalType": "uint256",
              "name": "tokenId",
              "type": "uint256"
            },
            {
              "internalType": "uint256",
              "name": "price",
              "type": "uint256"
            },
            {
              "internalType": "address",
              "name": "creator",
              "type": "address"
            },
            {
              "internalType": "bool",
              "name": "isListed",
              "type": "bool"
            }
          ],
          "internalType": "struct NftMarket.NftItem[]",
          "name": "",
          "type": "tuple[]"
        }
      ],
      "stateMutability": "view",
      "type": "function"
    },
    {
      "inputs": [
        {
          "internalType": "uint256",
          "name": "tokenId",
          "type": "uint256"
        }
      ],
      "name": "getApproved",
      "outputs": [
        {
          "internalType": "address",
          "name": "",
          "type": "address"
        }
      ],
      "stateMutability": "view",
      "type": "function"
    },
    {
      "inputs": [
        {
          "internalType": "uint256",
          "name": "tokenId",
          "type": "uint256"
        }
      ],
      "name": "getNftItem",
      "outputs": [
        {
          "components": [
            {
              "internalType": "uint256",
              "name": "tokenId",
              "type": "uint256"
            },
            {
              "internalType": "uint256",
              "name": "price",
              "type": "uint256"
            },
            {
              "internalType": "address",
              "name": "creator",
              "type": "address"
            },
            {
              "internalType": "bool",
              "name": "isListed",
              "type": "bool"
            }
          ],
          "internalType": "struct NftMarket.NftItem",
          "name": "",
          "type": "tuple"
        }
      ],
      "stateMutability": "view",
      "type": "function"
    },
    {
      "inputs": [
        {
          "internalType": "address",
          "name": "account",
          "type": "address"
        }
      ],
      "name": "getOwnedNfts",
      "outputs": [
        {
          "components": [
            {
              "internalType": "uint256",
              "name": "tokenId",
              "type": "uint256"
            },
            {
              "internalType": "uint256",
              "name": "price",
              "type": "uint256"
            },
            {
              "internalType": "address",
              "name": "creator",
              "type": "address"
            },
            {
              "internalType": "bool",
              "name": "isListed",
              "type": "bool"
            }
          ],
          "internalType": "struct NftMarket.NftItem[]",
          "name": "",
          "type": "tuple[]"
        }
      ],
      "stateMutability": "view",
      "type": "function"
    },
    {
      "inputs": [
        {
          "internalType": "address",
          "name": "owner",
          "type": "address"
        },
        {
          "internalType": "address",
          "name": "operator",
          "type": "address"
        }
      ],
      "name": "isApprovedForAll",
      "outputs": [
        {
          "internalType": "bool",
          "name": "",
          "type": "bool"
        }
      ],
      "stateMutability": "view",
      "type": "function"
    },
    {
      "inputs": [
        {
          "internalType": "string",
          "name": "uri",
          "type": "string"
        }
      ],
      "name": "isContentOwned",
      "outputs": [
        {
          "internalType": "bool",
          "name": "",
          "type": "bool"
        }
      ],
      "stateMutability": "view",
      "type": "function"
    },
    {
      "inputs": [],
      "name": "listedItemsCount",
      "outputs": [
        {
          "internalType": "uint256",
          "name": "",
          "type": "uint256"
        }
      ],
      "stateMutability": "view",
      "type": "function"
    },
    {
      "inputs": [],
      "name": "listingPrice",
      "outputs": [
        {
          "internalType": "uint256",
          "name": "",
          "type": "uint256"
        }
      ],
      "stateMutability": "view",
      "type": "function"
    },
    {
      "inputs": [
        {
          "internalType": "string",
          "name": "tokenURI",
          "type": "string"
        },
        {
          "internalType": "address",
          "name": "account",
          "type": "address"
        },
        {
          "internalType": "uint256",
          "name": "price",
          "type": "uint256"
        }
      ],
      "name": "mintToken",
      "outputs": [
        {
          "internalType": "uint256",
          "name": "",
          "type": "uint256"
        }
      ],
      "stateMutability": "payable",
      "type": "function"
    },
    {
      "inputs": [],
      "name": "name",
      "outputs": [
        {
          "internalType": "string",
          "name": "",
          "type": "string"
        }
      ],
      "stateMutability": "view",
      "type": "function"
    },
    {
      "inputs": [],
      "name": "owner",
      "outputs": [
        {
          "internalType": "address",
          "name": "",
          "type": "address"
        }
      ],
      "stateMutability": "view",
      "type": "function"
    },
    {
      "inputs": [
        {
          "internalType": "uint256",
          "name": "tokenId",
          "type": "uint256"
        }
      ],
      "name": "ownerOf",
      "outputs": [
        {
          "internalType": "address",
          "name": "",
          "type": "address"
        }
      ],
      "stateMutability": "view",
      "type": "function"
    },
    {
      "inputs": [
        {
          "internalType": "uint256",
          "name": "tokenId",
          "type": "uint256"
        },
        {
          "internalType": "address",
          "name": "account",
          "type": "address"
        },
        {
          "internalType": "uint256",
          "name": "price",
          "type": "uint256"
        }
      ],
      "name": "placeNftOnSale",
      "outputs": [],
      "stateMutability": "payable",
      "type": "function"
    },
    {
      "inputs": [],
      "name": "renounceOwnership",
      "outputs": [],
      "stateMutability": "nonpayable",
      "type": "function"
    },
    {
      "inputs": [
        {
          "internalType": "address",
          "name": "to",
          "type": "address"
        },
        {
          "internalType": "string",
          "name": "uri",
          "type": "string"
        }
      ],
      "name": "safeMint",
      "outputs": [],
      "stateMutability": "nonpayable",
      "type": "function"
    },
    {
      "inputs": [
        {
          "internalType": "address",
          "name": "from",
          "type": "address"
        },
        {
          "internalType": "address",
          "name": "to",
          "type": "address"
        },
        {
          "internalType": "uint256",
          "name": "tokenId",
          "type": "uint256"
        }
      ],
      "name": "safeTransferFrom",
      "outputs": [],
      "stateMutability": "nonpayable",
      "type": "function"
    },
    {
      "inputs": [
        {
          "internalType": "address",
          "name": "from",
          "type": "address"
        },
        {
          "internalType": "address",
          "name": "to",
          "type": "address"
        },
        {
          "internalType": "uint256",
          "name": "tokenId",
          "type": "uint256"
        },
        {
          "internalType": "bytes",
          "name": "data",
          "type": "bytes"
        }
      ],
      "name": "safeTransferFrom",
      "outputs": [],
      "stateMutability": "nonpayable",
      "type": "function"
    },
    {
      "inputs": [
        {
          "internalType": "address",
          "name": "operator",
          "type": "address"
        },
        {
          "internalType": "bool",
          "name": "approved",
          "type": "bool"
        }
      ],
      "name": "setApprovalForAll",
      "outputs": [],
      "stateMutability": "nonpayable",
      "type": "function"
    },
    {
      "inputs": [
        {
          "internalType": "uint256",
          "name": "newPrice",
          "type": "uint256"
        }
      ],
      "name": "setListingPrice",
      "outputs": [],
      "stateMutability": "nonpayable",
      "type": "function"
    },
    {
      "inputs": [
        {
          "internalType": "bytes4",
          "name": "interfaceId",
          "type": "bytes4"
        }
      ],
      "name": "supportsInterface",
      "outputs": [
        {
          "internalType": "bool",
          "name": "",
          "type": "bool"
        }
      ],
      "stateMutability": "view",
      "type": "function"
    },
    {
      "inputs": [],
      "name": "symbol",
      "outputs": [
        {
          "internalType": "string",
          "name": "",
          "type": "string"
        }
      ],
      "stateMutability": "view",
      "type": "function"
    },
    {
      "inputs": [
        {
          "internalType": "uint256",
          "name": "index",
          "type": "uint256"
        }
      ],
      "name": "tokenByIndex",
      "outputs": [
        {
          "internalType": "uint256",
          "name": "",
          "type": "uint256"
        }
      ],
      "stateMutability": "view",
      "type": "function"
    },
    {
      "inputs": [
        {
          "internalType": "address",
          "name": "owner",
          "type": "address"
        },
        {
          "internalType": "uint256",
          "name": "index",
          "type": "uint256"
        }
      ],
      "name": "tokenOfOwnerByIndex",
      "outputs": [
        {
          "internalType": "uint256",
          "name": "",
          "type": "uint256"
        }
      ],
      "stateMutability": "view",
      "type": "function"
    },
    {
      "inputs": [
        {
          "internalType": "uint256",
          "name": "tokenId",
          "type": "uint256"
        }
      ],
      "name": "tokenURI",
      "outputs": [
        {
          "internalType": "string",
          "name": "",
          "type": "string"
        }
      ],
      "stateMutability": "view",
      "type": "function"
    },
    {
      "inputs": [
        {
          "internalType": "string",
          "name": "tokenURI",
          "type": "string"
        }
      ],
      "name": "tokenURIExists",
      "outputs": [
        {
          "internalType": "bool",
          "name": "",
          "type": "bool"
        }
      ],
      "stateMutability": "view",
      "type": "function"
    },
    {
      "inputs": [],
      "name": "totalSupply",
      "outputs": [
        {
          "internalType": "uint256",
          "name": "",
          "type": "uint256"
        }
      ],
      "stateMutability": "view",
      "type": "function"
    },
    {
      "inputs": [
        {
          "internalType": "address",
          "name": "from",
          "type": "address"
        },
        {
          "internalType": "address",
          "name": "to",
          "type": "address"
        },
        {
          "internalType": "uint256",
          "name": "tokenId",
          "type": "uint256"
        }
      ],
      "name": "transferFrom",
      "outputs": [],
      "stateMutability": "nonpayable",
      "type": "function"
    },
    {
      "inputs": [
        {
          "internalType": "address",
          "name": "newOwner",
          "type": "address"
        }
      ],
      "name": "transferOwnership",
      "outputs": [],
      "stateMutability": "nonpayable",
      "type": "function"
    }
  ],
  "bytecode": "0x60806040526658d15e17628000600a553480156200001c57600080fd5b506040518060400160405280600981526020017f416e63686f724e667400000000000000000000000000000000000000000000008152506040518060400160405280600681526020017f414e43484f5200000000000000000000000000000000000000000000000000008152508160009080519060200190620000a1929190620001b1565b508060019080519060200190620000ba929190620001b1565b505050620000dd620000d1620000e360201b60201c565b620000eb60201b60201c565b620002c6565b600033905090565b6000600760009054906101000a900473ffffffffffffffffffffffffffffffffffffffff16905081600760006101000a81548173ffffffffffffffffffffffffffffffffffffffff021916908373ffffffffffffffffffffffffffffffffffffffff1602179055508173ffffffffffffffffffffffffffffffffffffffff168173ffffffffffffffffffffffffffffffffffffffff167f8be0079c531659141344cd1fd0a4f28419497f9722a3daafe3b4186f6b6457e060405160405180910390a35050565b828054620001bf9062000290565b90600052602060002090601f016020900481019282620001e357600085556200022f565b82601f10620001fe57805160ff19168380011785556200022f565b828001600101855582156200022f579182015b828111156200022e57825182559160200191906001019062000211565b5b5090506200023e919062000242565b5090565b5b808211156200025d57600081600090555060010162000243565b5090565b7f4e487b7100000000000000000000000000000000000000000000000000000000600052602260045260246000fd5b60006002820490506001821680620002a957607f821691505b60208210811415620002c057620002bf62000261565b5b50919050565b614b1980620002d66000396000f3fe6080604052600436106101e75760003560e01c8063715018a611610102578063c78f19f911610095578063cf2a916911610064578063cf2a916914610726578063d204c45e14610756578063e985e9c51461077f578063f2fde38b146107bc576101e8565b8063c78f19f914610656578063c7adece014610681578063c87b56dd146106be578063ccb4918d146106fb576101e8565b80639f1cabc6116100d15780639f1cabc6146105ab578063a22cb465146105e8578063b88d4fde14610611578063bc3ad1451461063a576101e8565b8063715018a6146105155780637c726b691461052c5780638da5cb5b1461055557806395d89b4114610580576101e8565b806336b536be1161017a5780635356acf2116101495780635356acf2146104425780636352211e1461045e5780636f1a0af51461049b57806370a08231146104d8576101e8565b806336b536be1461037457806342842e0e1461039f57806343d32ae7146103c85780634f6ccce714610405576101e8565b8063095ea7b3116101b6578063095ea7b3146102ba57806318160ddd146102e357806323b872dd1461030e5780632f745c5914610337576101e8565b806301ffc9a7146101ea57806306661abd1461022757806306fdde0314610252578063081812fc1461027d576101e8565b5b005b3480156101f657600080fd5b50610211600480360381019061020c9190613170565b6107e5565b60405161021e91906131b8565b60405180910390f35b34801561023357600080fd5b5061023c6108c7565b60405161024991906131ec565b60405180910390f35b34801561025e57600080fd5b506102676108d8565b60405161027491906132a0565b60405180910390f35b34801561028957600080fd5b506102a4600480360381019061029f91906132ee565b61096a565b6040516102b1919061335c565b60405180910390f35b3480156102c657600080fd5b506102e160048036038101906102dc91906133a3565b6109b0565b005b3480156102ef57600080fd5b506102f8610ac8565b60405161030591906131ec565b60405180910390f35b34801561031a57600080fd5b50610335600480360381019061033091906133e3565b610ad5565b005b34801561034357600080fd5b5061035e600480360381019061035991906133a3565b610b35565b60405161036b91906131ec565b60405180910390f35b34801561038057600080fd5b50610389610bda565b6040516103969190613567565b60405180910390f35b3480156103ab57600080fd5b506103c660048036038101906103c191906133e3565b610d75565b005b3480156103d457600080fd5b506103ef60048036038101906103ea91906136be565b610d95565b6040516103fc91906131b8565b60405180910390f35b34801561041157600080fd5b5061042c600480360381019061042791906132ee565b610dd1565b60405161043991906131ec565b60405180910390f35b61045c60048036038101906104579190613707565b610e42565b005b34801561046a57600080fd5b50610485600480360381019061048091906132ee565b61102a565b604051610492919061335c565b60405180910390f35b3480156104a757600080fd5b506104c260048036038101906104bd91906132ee565b6110dc565b6040516104cf91906137af565b60405180910390f35b3480156104e457600080fd5b506104ff60048036038101906104fa91906137ca565b61118e565b60405161050c91906131ec565b60405180910390f35b34801561052157600080fd5b5061052a611246565b005b34801561053857600080fd5b50610553600480360381019061054e91906132ee565b61125a565b005b34801561056157600080fd5b5061056a6112af565b604051610577919061335c565b60405180910390f35b34801561058c57600080fd5b506105956112d9565b6040516105a291906132a0565b60405180910390f35b3480156105b757600080fd5b506105d260048036038101906105cd91906136be565b61136b565b6040516105df91906131b8565b60405180910390f35b3480156105f457600080fd5b5061060f600480360381019061060a9190613823565b6113a6565b005b34801561061d57600080fd5b5061063860048036038101906106339190613904565b6113bc565b005b610654600480360381019061064f91906139c5565b61141e565b005b34801561066257600080fd5b5061066b611703565b60405161067891906131ec565b60405180910390f35b34801561068d57600080fd5b506106a860048036038101906106a391906137ca565b611709565b6040516106b59190613567565b60405180910390f35b3480156106ca57600080fd5b506106e560048036038101906106e091906132ee565b61186f565b6040516106f291906132a0565b60405180910390f35b34801561070757600080fd5b50610710611982565b60405161071d91906131ec565b60405180910390f35b610740600480360381019061073b9190613a05565b611993565b60405161074d91906131ec565b60405180910390f35b34801561076257600080fd5b5061077d60048036038101906107789190613a74565b611afa565b005b34801561078b57600080fd5b506107a660048036038101906107a19190613ad0565b611b33565b6040516107b391906131b8565b60405180910390f35b3480156107c857600080fd5b506107e360048036038101906107de91906137ca565b611bc7565b005b60007f80ac58cd000000000000000000000000000000000000000000000000000000007bffffffffffffffffffffffffffffffffffffffffffffffffffffffff1916827bffffffffffffffffffffffffffffffffffffffffffffffffffffffff191614806108b057507f5b5e139f000000000000000000000000000000000000000000000000000000007bffffffffffffffffffffffffffffffffffffffffffffffffffffffff1916827bffffffffffffffffffffffffffffffffffffffffffffffffffffffff1916145b806108c057506108bf82611c4b565b5b9050919050565b60006108d36008611cb5565b905090565b6060600080546108e790613b3f565b80601f016020809104026020016040519081016040528092919081815260200182805461091390613b3f565b80156109605780601f1061093557610100808354040283529160200191610960565b820191906000526020600020905b81548152906001019060200180831161094357829003601f168201915b5050505050905090565b600061097582611cc3565b6004600083815260200190815260200160002060009054906101000a900473ffffffffffffffffffffffffffffffffffffffff169050919050565b60006109bb8261102a565b90508073ffffffffffffffffffffffffffffffffffffffff168373ffffffffffffffffffffffffffffffffffffffff161415610a2c576040517f08c379a0000000000000000000000000000000000000000000000000000000008152600401610a2390613be3565b60405180910390fd5b8073ffffffffffffffffffffffffffffffffffffffff16610a4b611d0e565b73ffffffffffffffffffffffffffffffffffffffff161480610a7a5750610a7981610a74611d0e565b611b33565b5b610ab9576040517f08c379a0000000000000000000000000000000000000000000000000000000008152600401610ab090613c75565b60405180910390fd5b610ac38383611d16565b505050565b6000601180549050905090565b610ae6610ae0611d0e565b82611dcf565b610b25576040517f08c379a0000000000000000000000000000000000000000000000000000000008152600401610b1c90613d07565b60405180910390fd5b610b30838383611e64565b505050565b6000610b408361118e565b8210610b81576040517f08c379a0000000000000000000000000000000000000000000000000000000008152600401610b7890613d73565b60405180910390fd5b600f60008473ffffffffffffffffffffffffffffffffffffffff1673ffffffffffffffffffffffffffffffffffffffff168152602001908152602001600020600083815260200190815260200160002054905092915050565b60606000610be6610ac8565b9050600080610bf5600b611cb5565b67ffffffffffffffff811115610c0e57610c0d613593565b5b604051908082528060200260200182016040528015610c4757816020015b610c34613021565b815260200190600190039081610c2c5790505b50905060005b83811015610d6b576000610c6082610dd1565b90506000600e60008381526020019081526020016000209050600115158160020160149054906101000a900460ff1615151415610d56578060405180608001604052908160008201548152602001600182015481526020016002820160009054906101000a900473ffffffffffffffffffffffffffffffffffffffff1673ffffffffffffffffffffffffffffffffffffffff1673ffffffffffffffffffffffffffffffffffffffff1681526020016002820160149054906101000a900460ff161515151581525050848681518110610d3b57610d3a613d93565b5b6020026020010181905250600185610d539190613df1565b94505b50508080610d6390613e47565b915050610c4d565b5080935050505090565b610d90838383604051806020016040528060008152506113bc565b505050565b600060011515600d83604051610dab9190613ecc565b908152602001604051809103902060009054906101000a900460ff161515149050919050565b6000610ddb610ac8565b8210610e1c576040517f08c379a0000000000000000000000000000000000000000000000000000000008152600401610e1390613d73565b60405180910390fd5b60118281548110610e3057610e2f613d93565b5b90600052602060002001549050919050565b8173ffffffffffffffffffffffffffffffffffffffff16610e628461102a565b73ffffffffffffffffffffffffffffffffffffffff1614610eb8576040517f08c379a0000000000000000000000000000000000000000000000000000000008152600401610eaf90613f2f565b60405180910390fd5b60001515600e600085815260200190815260200160002060020160149054906101000a900460ff16151514610f22576040517f08c379a0000000000000000000000000000000000000000000000000000000008152600401610f1990613f9b565b60405180910390fd5b60003073ffffffffffffffffffffffffffffffffffffffff16600a54604051610f4a90613fec565b60006040518083038185875af1925050503d8060008114610f87576040519150601f19603f3d011682016040523d82523d6000602084013e610f8c565b606091505b5050905080610fd0576040517f08c379a0000000000000000000000000000000000000000000000000000000008152600401610fc79061404d565b60405180910390fd5b6001600e600086815260200190815260200160002060020160146101000a81548160ff02191690831515021790555081600e600086815260200190815260200160002060010181905550611024600b6120cb565b50505050565b6000806002600084815260200190815260200160002060009054906101000a900473ffffffffffffffffffffffffffffffffffffffff169050600073ffffffffffffffffffffffffffffffffffffffff168173ffffffffffffffffffffffffffffffffffffffff1614156110d3576040517f08c379a00000000000000000000000000000000000000000000000000000000081526004016110ca906140b9565b60405180910390fd5b80915050919050565b6110e4613021565b600e600083815260200190815260200160002060405180608001604052908160008201548152602001600182015481526020016002820160009054906101000a900473ffffffffffffffffffffffffffffffffffffffff1673ffffffffffffffffffffffffffffffffffffffff1673ffffffffffffffffffffffffffffffffffffffff1681526020016002820160149054906101000a900460ff1615151515815250509050919050565b60008073ffffffffffffffffffffffffffffffffffffffff168273ffffffffffffffffffffffffffffffffffffffff1614156111ff576040517f08c379a00000000000000000000000000000000000000000000000000000000081526004016111f69061414b565b60405180910390fd5b600360008373ffffffffffffffffffffffffffffffffffffffff1673ffffffffffffffffffffffffffffffffffffffff168152602001908152602001600020549050919050565b61124e6120e1565b611258600061215f565b565b6112626120e1565b600081116112a5576040517f08c379a000000000000000000000000000000000000000000000000000000000815260040161129c906141b7565b60405180910390fd5b80600a8190555050565b6000600760009054906101000a900473ffffffffffffffffffffffffffffffffffffffff16905090565b6060600180546112e890613b3f565b80601f016020809104026020016040519081016040528092919081815260200182805461131490613b3f565b80156113615780601f1061133657610100808354040283529160200191611361565b820191906000526020600020905b81548152906001019060200180831161134457829003601f168201915b5050505050905090565b6000600160098360405161137f9190613ecc565b908152602001604051809103902060009054906101000a900460ff1660ff16149050919050565b6113b86113b1611d0e565b8383612225565b5050565b6113cd6113c7611d0e565b83611dcf565b61140c576040517f08c379a000000000000000000000000000000000000000000000000000000000815260040161140390613d07565b60405180910390fd5b61141884848484612392565b50505050565b60006114298361102a565b90508073ffffffffffffffffffffffffffffffffffffffff168273ffffffffffffffffffffffffffffffffffffffff16141561149a576040517f08c379a000000000000000000000000000000000000000000000000000000000815260040161149190614223565b60405180910390fd5b600a54600e6000858152602001908152602001600020600101546114be9190613df1565b341015611500576040517f08c379a00000000000000000000000000000000000000000000000000000000081526004016114f79061428f565b60405180910390fd5b6000600e600085815260200190815260200160002060020160146101000a81548160ff0219169083151502179055506000600a543461153f91906142af565b905060008273ffffffffffffffffffffffffffffffffffffffff168260405161156790613fec565b60006040518083038185875af1925050503d80600081146115a4576040519150601f19603f3d011682016040523d82523d6000602084013e6115a9565b606091505b50509050806115ed576040517f08c379a00000000000000000000000000000000000000000000000000000000081526004016115e49061432f565b60405180910390fd5b6115f8838587611e64565b83600e600087815260200190815260200160002060020160006101000a81548173ffffffffffffffffffffffffffffffffffffffff021916908373ffffffffffffffffffffffffffffffffffffffff16021790555060003073ffffffffffffffffffffffffffffffffffffffff16600a5460405161167590613fec565b60006040518083038185875af1925050503d80600081146116b2576040519150601f19603f3d011682016040523d82523d6000602084013e6116b7565b606091505b50509050806116fb576040517f08c379a00000000000000000000000000000000000000000000000000000000081526004016116f29061404d565b60405180910390fd5b505050505050565b600a5481565b606060006117168361118e565b905060008167ffffffffffffffff81111561173457611733613593565b5b60405190808252806020026020018201604052801561176d57816020015b61175a613021565b8152602001906001900390816117525790505b50905060005b828110156118645760006117878683610b35565b90506000600e600083815260200190815260200160002090508060405180608001604052908160008201548152602001600182015481526020016002820160009054906101000a900473ffffffffffffffffffffffffffffffffffffffff1673ffffffffffffffffffffffffffffffffffffffff1673ffffffffffffffffffffffffffffffffffffffff1681526020016002820160149054906101000a900460ff16151515158152505084848151811061184457611843613d93565b5b60200260200101819052505050808061185c90613e47565b915050611773565b508092505050919050565b606061187a82611cc3565b600060066000848152602001908152602001600020805461189a90613b3f565b80601f01602080910402602001604051908101604052809291908181526020018280546118c690613b3f565b80156119135780601f106118e857610100808354040283529160200191611913565b820191906000526020600020905b8154815290600101906020018083116118f657829003601f168201915b5050505050905060006119246123ee565b905060008151141561193a57819250505061197d565b60008251111561196f57808260405160200161195792919061434f565b6040516020818303038152906040529250505061197d565b61197884612405565b925050505b919050565b600061198e600b611cb5565b905090565b600061199e84610d95565b156119de576040517f08c379a00000000000000000000000000000000000000000000000000000000081526004016119d5906143bf565b60405180910390fd5b600a543414611a22576040517f08c379a0000000000000000000000000000000000000000000000000000000008152600401611a1990614451565b60405180910390fd5b611a2c600c6120cb565b611a36600b6120cb565b6000611a42600c611cb5565b9050611a4e848261246d565b83600e600083815260200190815260200160002060020160006101000a81548173ffffffffffffffffffffffffffffffffffffffff021916908373ffffffffffffffffffffffffffffffffffffffff160217905550611aad818661248b565b611ab88184866124ff565b6001600d86604051611aca9190613ecc565b908152602001604051809103902060006101000a81548160ff021916908315150217905550809150509392505050565b611b026120e1565b6000611b0e6008611cb5565b9050611b1a60086120cb565b611b24838261246d565b611b2e818361248b565b505050565b6000600560008473ffffffffffffffffffffffffffffffffffffffff1673ffffffffffffffffffffffffffffffffffffffff16815260200190815260200160002060008373ffffffffffffffffffffffffffffffffffffffff1673ffffffffffffffffffffffffffffffffffffffff16815260200190815260200160002060009054906101000a900460ff16905092915050565b611bcf6120e1565b600073ffffffffffffffffffffffffffffffffffffffff168173ffffffffffffffffffffffffffffffffffffffff161415611c3f576040517f08c379a0000000000000000000000000000000000000000000000000000000008152600401611c36906144e3565b60405180910390fd5b611c488161215f565b50565b60007f01ffc9a7000000000000000000000000000000000000000000000000000000007bffffffffffffffffffffffffffffffffffffffffffffffffffffffff1916827bffffffffffffffffffffffffffffffffffffffffffffffffffffffff1916149050919050565b600081600001549050919050565b611ccc81612650565b611d0b576040517f08c379a0000000000000000000000000000000000000000000000000000000008152600401611d02906140b9565b60405180910390fd5b50565b600033905090565b816004600083815260200190815260200160002060006101000a81548173ffffffffffffffffffffffffffffffffffffffff021916908373ffffffffffffffffffffffffffffffffffffffff160217905550808273ffffffffffffffffffffffffffffffffffffffff16611d898361102a565b73ffffffffffffffffffffffffffffffffffffffff167f8c5be1e5ebec7d5bd14f71427d1e84f3dd0314c0f7b2291e5b200ac8c7c3b92560405160405180910390a45050565b600080611ddb8361102a565b90508073ffffffffffffffffffffffffffffffffffffffff168473ffffffffffffffffffffffffffffffffffffffff161480611e1d5750611e1c8185611b33565b5b80611e5b57508373ffffffffffffffffffffffffffffffffffffffff16611e438461096a565b73ffffffffffffffffffffffffffffffffffffffff16145b91505092915050565b8273ffffffffffffffffffffffffffffffffffffffff16611e848261102a565b73ffffffffffffffffffffffffffffffffffffffff1614611eda576040517f08c379a0000000000000000000000000000000000000000000000000000000008152600401611ed190614575565b60405180910390fd5b600073ffffffffffffffffffffffffffffffffffffffff168273ffffffffffffffffffffffffffffffffffffffff161415611f4a576040517f08c379a0000000000000000000000000000000000000000000000000000000008152600401611f4190614607565b60405180910390fd5b611f558383836126bc565b611f60600082611d16565b6001600360008573ffffffffffffffffffffffffffffffffffffffff1673ffffffffffffffffffffffffffffffffffffffff1681526020019081526020016000206000828254611fb091906142af565b925050819055506001600360008473ffffffffffffffffffffffffffffffffffffffff1673ffffffffffffffffffffffffffffffffffffffff16815260200190815260200160002060008282546120079190613df1565b92505081905550816002600083815260200190815260200160002060006101000a81548173ffffffffffffffffffffffffffffffffffffffff021916908373ffffffffffffffffffffffffffffffffffffffff160217905550808273ffffffffffffffffffffffffffffffffffffffff168473ffffffffffffffffffffffffffffffffffffffff167fddf252ad1be2c89b69c2b068fc378daa952ba7f163c4a11628f55a4df523b3ef60405160405180910390a46120c68383836127d0565b505050565b6001816000016000828254019250508190555050565b6120e9611d0e565b73ffffffffffffffffffffffffffffffffffffffff166121076112af565b73ffffffffffffffffffffffffffffffffffffffff161461215d576040517f08c379a000000000000000000000000000000000000000000000000000000000815260040161215490614673565b60405180910390fd5b565b6000600760009054906101000a900473ffffffffffffffffffffffffffffffffffffffff16905081600760006101000a81548173ffffffffffffffffffffffffffffffffffffffff021916908373ffffffffffffffffffffffffffffffffffffffff1602179055508173ffffffffffffffffffffffffffffffffffffffff168173ffffffffffffffffffffffffffffffffffffffff167f8be0079c531659141344cd1fd0a4f28419497f9722a3daafe3b4186f6b6457e060405160405180910390a35050565b8173ffffffffffffffffffffffffffffffffffffffff168373ffffffffffffffffffffffffffffffffffffffff161415612294576040517f08c379a000000000000000000000000000000000000000000000000000000000815260040161228b906146df565b60405180910390fd5b80600560008573ffffffffffffffffffffffffffffffffffffffff1673ffffffffffffffffffffffffffffffffffffffff16815260200190815260200160002060008473ffffffffffffffffffffffffffffffffffffffff1673ffffffffffffffffffffffffffffffffffffffff16815260200190815260200160002060006101000a81548160ff0219169083151502179055508173ffffffffffffffffffffffffffffffffffffffff168373ffffffffffffffffffffffffffffffffffffffff167f17307eab39ab6107e8899845ad3d59bd9653f200f220920489ca2b5937696c318360405161238591906131b8565b60405180910390a3505050565b61239d848484611e64565b6123a9848484846127d5565b6123e8576040517f08c379a00000000000000000000000000000000000000000000000000000000081526004016123df90614771565b60405180910390fd5b50505050565b606060405180602001604052806000815250905090565b606061241082611cc3565b600061241a6123ee565b9050600081511161243a5760405180602001604052806000815250612465565b806124448461295d565b60405160200161245592919061434f565b6040516020818303038152906040525b915050919050565b612487828260405180602001604052806000815250612abe565b5050565b61249482612650565b6124d3576040517f08c379a00000000000000000000000000000000000000000000000000000000081526004016124ca90614803565b60405180910390fd5b806006600084815260200190815260200160002090805190602001906124fa929190613061565b505050565b60008211612542576040517f08c379a0000000000000000000000000000000000000000000000000000000008152600401612539906141b7565b60405180910390fd5b60405180608001604052808481526020018381526020018273ffffffffffffffffffffffffffffffffffffffff16815260200160011515815250600e6000858152602001908152602001600020600082015181600001556020820151816001015560408201518160020160006101000a81548173ffffffffffffffffffffffffffffffffffffffff021916908373ffffffffffffffffffffffffffffffffffffffff16021790555060608201518160020160146101000a81548160ff0219169083151502179055509050507f470031062672bc0246e132c723a729c4676710ec663a29e86c88678032daddea83838360016040516126439493929190614823565b60405180910390a1505050565b60008073ffffffffffffffffffffffffffffffffffffffff166002600084815260200190815260200160002060009054906101000a900473ffffffffffffffffffffffffffffffffffffffff1673ffffffffffffffffffffffffffffffffffffffff1614159050919050565b6126c7838383612b19565b600073ffffffffffffffffffffffffffffffffffffffff168373ffffffffffffffffffffffffffffffffffffffff16141561270a5761270581612b1e565b612749565b8173ffffffffffffffffffffffffffffffffffffffff168373ffffffffffffffffffffffffffffffffffffffff1614612748576127478382612b67565b5b5b600073ffffffffffffffffffffffffffffffffffffffff168273ffffffffffffffffffffffffffffffffffffffff16141561278c5761278781612cd4565b6127cb565b8273ffffffffffffffffffffffffffffffffffffffff168273ffffffffffffffffffffffffffffffffffffffff16146127ca576127c98282612da5565b5b5b505050565b505050565b60006127f68473ffffffffffffffffffffffffffffffffffffffff16612e24565b15612950578373ffffffffffffffffffffffffffffffffffffffff1663150b7a0261281f611d0e565b8786866040518563ffffffff1660e01b815260040161284194939291906148bd565b6020604051808303816000875af192505050801561287d57506040513d601f19601f8201168201806040525081019061287a919061491e565b60015b612900573d80600081146128ad576040519150601f19603f3d011682016040523d82523d6000602084013e6128b2565b606091505b506000815114156128f8576040517f08c379a00000000000000000000000000000000000000000000000000000000081526004016128ef90614771565b60405180910390fd5b805181602001fd5b63150b7a0260e01b7bffffffffffffffffffffffffffffffffffffffffffffffffffffffff1916817bffffffffffffffffffffffffffffffffffffffffffffffffffffffff191614915050612955565b600190505b949350505050565b606060008214156129a5576040518060400160405280600181526020017f30000000000000000000000000000000000000000000000000000000000000008152509050612ab9565b600082905060005b600082146129d75780806129c090613e47565b915050600a826129d0919061497a565b91506129ad565b60008167ffffffffffffffff8111156129f3576129f2613593565b5b6040519080825280601f01601f191660200182016040528015612a255781602001600182028036833780820191505090505b5090505b60008514612ab257600182612a3e91906142af565b9150600a85612a4d91906149ab565b6030612a599190613df1565b60f81b818381518110612a6f57612a6e613d93565b5b60200101907effffffffffffffffffffffffffffffffffffffffffffffffffffffffffffff1916908160001a905350600a85612aab919061497a565b9450612a29565b8093505050505b919050565b612ac88383612e47565b612ad560008484846127d5565b612b14576040517f08c379a0000000000000000000000000000000000000000000000000000000008152600401612b0b90614771565b60405180910390fd5b505050565b505050565b6011805490506012600083815260200190815260200160002081905550601181908060018154018082558091505060019003906000526020600020016000909190919091505550565b60006001612b748461118e565b612b7e91906142af565b9050600060106000848152602001908152602001600020549050818114612c63576000600f60008673ffffffffffffffffffffffffffffffffffffffff1673ffffffffffffffffffffffffffffffffffffffff168152602001908152602001600020600084815260200190815260200160002054905080600f60008773ffffffffffffffffffffffffffffffffffffffff1673ffffffffffffffffffffffffffffffffffffffff168152602001908152602001600020600084815260200190815260200160002081905550816010600083815260200190815260200160002081905550505b6010600084815260200190815260200160002060009055600f60008573ffffffffffffffffffffffffffffffffffffffff1673ffffffffffffffffffffffffffffffffffffffff16815260200190815260200160002060008381526020019081526020016000206000905550505050565b60006001601180549050612ce891906142af565b9050600060126000848152602001908152602001600020549050600060118381548110612d1857612d17613d93565b5b906000526020600020015490508060118381548110612d3a57612d39613d93565b5b906000526020600020018190555081601260008381526020019081526020016000208190555060126000858152602001908152602001600020600090556011805480612d8957612d886149dc565b5b6001900381819060005260206000200160009055905550505050565b6000612db08361118e565b905081600f60008573ffffffffffffffffffffffffffffffffffffffff1673ffffffffffffffffffffffffffffffffffffffff168152602001908152602001600020600083815260200190815260200160002081905550806010600084815260200190815260200160002081905550505050565b6000808273ffffffffffffffffffffffffffffffffffffffff163b119050919050565b600073ffffffffffffffffffffffffffffffffffffffff168273ffffffffffffffffffffffffffffffffffffffff161415612eb7576040517f08c379a0000000000000000000000000000000000000000000000000000000008152600401612eae90614a57565b60405180910390fd5b612ec081612650565b15612f00576040517f08c379a0000000000000000000000000000000000000000000000000000000008152600401612ef790614ac3565b60405180910390fd5b612f0c600083836126bc565b6001600360008473ffffffffffffffffffffffffffffffffffffffff1673ffffffffffffffffffffffffffffffffffffffff1681526020019081526020016000206000828254612f5c9190613df1565b92505081905550816002600083815260200190815260200160002060006101000a81548173ffffffffffffffffffffffffffffffffffffffff021916908373ffffffffffffffffffffffffffffffffffffffff160217905550808273ffffffffffffffffffffffffffffffffffffffff16600073ffffffffffffffffffffffffffffffffffffffff167fddf252ad1be2c89b69c2b068fc378daa952ba7f163c4a11628f55a4df523b3ef60405160405180910390a461301d600083836127d0565b5050565b60405180608001604052806000815260200160008152602001600073ffffffffffffffffffffffffffffffffffffffff1681526020016000151581525090565b82805461306d90613b3f565b90600052602060002090601f01602090048101928261308f57600085556130d6565b82601f106130a857805160ff19168380011785556130d6565b828001600101855582156130d6579182015b828111156130d55782518255916020019190600101906130ba565b5b5090506130e391906130e7565b5090565b5b808211156131005760008160009055506001016130e8565b5090565b6000604051905090565b600080fd5b600080fd5b60007fffffffff0000000000000000000000000000000000000000000000000000000082169050919050565b61314d81613118565b811461315857600080fd5b50565b60008135905061316a81613144565b92915050565b6000602082840312156131865761318561310e565b5b60006131948482850161315b565b91505092915050565b60008115159050919050565b6131b28161319d565b82525050565b60006020820190506131cd60008301846131a9565b92915050565b6000819050919050565b6131e6816131d3565b82525050565b600060208201905061320160008301846131dd565b92915050565b600081519050919050565b600082825260208201905092915050565b60005b83811015613241578082015181840152602081019050613226565b83811115613250576000848401525b50505050565b6000601f19601f8301169050919050565b600061327282613207565b61327c8185613212565b935061328c818560208601613223565b61329581613256565b840191505092915050565b600060208201905081810360008301526132ba8184613267565b905092915050565b6132cb816131d3565b81146132d657600080fd5b50565b6000813590506132e8816132c2565b92915050565b6000602082840312156133045761330361310e565b5b6000613312848285016132d9565b91505092915050565b600073ffffffffffffffffffffffffffffffffffffffff82169050919050565b60006133468261331b565b9050919050565b6133568161333b565b82525050565b6000602082019050613371600083018461334d565b92915050565b6133808161333b565b811461338b57600080fd5b50565b60008135905061339d81613377565b92915050565b600080604083850312156133ba576133b961310e565b5b60006133c88582860161338e565b92505060206133d9858286016132d9565b9150509250929050565b6000806000606084860312156133fc576133fb61310e565b5b600061340a8682870161338e565b935050602061341b8682870161338e565b925050604061342c868287016132d9565b9150509250925092565b600081519050919050565b600082825260208201905092915050565b6000819050602082019050919050565b61346b816131d3565b82525050565b61347a8161333b565b82525050565b6134898161319d565b82525050565b6080820160008201516134a56000850182613462565b5060208201516134b86020850182613462565b5060408201516134cb6040850182613471565b5060608201516134de6060850182613480565b50505050565b60006134f0838361348f565b60808301905092915050565b6000602082019050919050565b600061351482613436565b61351e8185613441565b935061352983613452565b8060005b8381101561355a57815161354188826134e4565b975061354c836134fc565b92505060018101905061352d565b5085935050505092915050565b600060208201905081810360008301526135818184613509565b905092915050565b600080fd5b600080fd5b7f4e487b7100000000000000000000000000000000000000000000000000000000600052604160045260246000fd5b6135cb82613256565b810181811067ffffffffffffffff821117156135ea576135e9613593565b5b80604052505050565b60006135fd613104565b905061360982826135c2565b919050565b600067ffffffffffffffff82111561362957613628613593565b5b61363282613256565b9050602081019050919050565b82818337600083830152505050565b600061366161365c8461360e565b6135f3565b90508281526020810184848401111561367d5761367c61358e565b5b61368884828561363f565b509392505050565b600082601f8301126136a5576136a4613589565b5b81356136b584826020860161364e565b91505092915050565b6000602082840312156136d4576136d361310e565b5b600082013567ffffffffffffffff8111156136f2576136f1613113565b5b6136fe84828501613690565b91505092915050565b6000806000606084860312156137205761371f61310e565b5b600061372e868287016132d9565b935050602061373f8682870161338e565b9250506040613750868287016132d9565b9150509250925092565b6080820160008201516137706000850182613462565b5060208201516137836020850182613462565b5060408201516137966040850182613471565b5060608201516137a96060850182613480565b50505050565b60006080820190506137c4600083018461375a565b92915050565b6000602082840312156137e0576137df61310e565b5b60006137ee8482850161338e565b91505092915050565b6138008161319d565b811461380b57600080fd5b50565b60008135905061381d816137f7565b92915050565b6000806040838503121561383a5761383961310e565b5b60006138488582860161338e565b92505060206138598582860161380e565b9150509250929050565b600067ffffffffffffffff82111561387e5761387d613593565b5b61388782613256565b9050602081019050919050565b60006138a76138a284613863565b6135f3565b9050828152602081018484840111156138c3576138c261358e565b5b6138ce84828561363f565b509392505050565b600082601f8301126138eb576138ea613589565b5b81356138fb848260208601613894565b91505092915050565b6000806000806080858703121561391e5761391d61310e565b5b600061392c8782880161338e565b945050602061393d8782880161338e565b935050604061394e878288016132d9565b925050606085013567ffffffffffffffff81111561396f5761396e613113565b5b61397b878288016138d6565b91505092959194509250565b60006139928261331b565b9050919050565b6139a281613987565b81146139ad57600080fd5b50565b6000813590506139bf81613999565b92915050565b600080604083850312156139dc576139db61310e565b5b60006139ea858286016132d9565b92505060206139fb858286016139b0565b9150509250929050565b600080600060608486031215613a1e57613a1d61310e565b5b600084013567ffffffffffffffff811115613a3c57613a3b613113565b5b613a4886828701613690565b9350506020613a598682870161338e565b9250506040613a6a868287016132d9565b9150509250925092565b60008060408385031215613a8b57613a8a61310e565b5b6000613a998582860161338e565b925050602083013567ffffffffffffffff811115613aba57613ab9613113565b5b613ac685828601613690565b9150509250929050565b60008060408385031215613ae757613ae661310e565b5b6000613af58582860161338e565b9250506020613b068582860161338e565b9150509250929050565b7f4e487b7100000000000000000000000000000000000000000000000000000000600052602260045260246000fd5b60006002820490506001821680613b5757607f821691505b60208210811415613b6b57613b6a613b10565b5b50919050565b7f4552433732313a20617070726f76616c20746f2063757272656e74206f776e6560008201527f7200000000000000000000000000000000000000000000000000000000000000602082015250565b6000613bcd602183613212565b9150613bd882613b71565b604082019050919050565b60006020820190508181036000830152613bfc81613bc0565b9050919050565b7f4552433732313a20617070726f76652063616c6c6572206973206e6f7420746f60008201527f6b656e206f776e6572206e6f7220617070726f76656420666f7220616c6c0000602082015250565b6000613c5f603e83613212565b9150613c6a82613c03565b604082019050919050565b60006020820190508181036000830152613c8e81613c52565b9050919050565b7f4552433732313a2063616c6c6572206973206e6f7420746f6b656e206f776e6560008201527f72206e6f7220617070726f766564000000000000000000000000000000000000602082015250565b6000613cf1602e83613212565b9150613cfc82613c95565b604082019050919050565b60006020820190508181036000830152613d2081613ce4565b9050919050565b7f496e646578206f7574206f6620626f756e647300000000000000000000000000600082015250565b6000613d5d601383613212565b9150613d6882613d27565b602082019050919050565b60006020820190508181036000830152613d8c81613d50565b9050919050565b7f4e487b7100000000000000000000000000000000000000000000000000000000600052603260045260246000fd5b7f4e487b7100000000000000000000000000000000000000000000000000000000600052601160045260246000fd5b6000613dfc826131d3565b9150613e07836131d3565b9250827fffffffffffffffffffffffffffffffffffffffffffffffffffffffffffffffff03821115613e3c57613e3b613dc2565b5b828201905092915050565b6000613e52826131d3565b91507fffffffffffffffffffffffffffffffffffffffffffffffffffffffffffffffff821415613e8557613e84613dc2565b5b600182019050919050565b600081905092915050565b6000613ea682613207565b613eb08185613e90565b9350613ec0818560208601613223565b80840191505092915050565b6000613ed88284613e9b565b915081905092915050565b7f596f7520617265206e6f74206f776e6572206f662074686973206e6674000000600082015250565b6000613f19601d83613212565b9150613f2482613ee3565b602082019050919050565b60006020820190508181036000830152613f4881613f0c565b9050919050565b7f4974656d20697320616c7265616479206f6e2073616c65000000000000000000600082015250565b6000613f85601783613212565b9150613f9082613f4f565b602082019050919050565b60006020820190508181036000830152613fb481613f78565b9050919050565b600081905092915050565b50565b6000613fd6600083613fbb565b9150613fe182613fc6565b600082019050919050565b6000613ff782613fc9565b9150819050919050565b7f4661696c656420746f2073656e64206c697374696e6720707269636500000000600082015250565b6000614037601c83613212565b915061404282614001565b602082019050919050565b600060208201905081810360008301526140668161402a565b9050919050565b7f4552433732313a20696e76616c696420746f6b656e2049440000000000000000600082015250565b60006140a3601883613212565b91506140ae8261406d565b602082019050919050565b600060208201905081810360008301526140d281614096565b9050919050565b7f4552433732313a2061646472657373207a65726f206973206e6f74206120766160008201527f6c6964206f776e65720000000000000000000000000000000000000000000000602082015250565b6000614135602983613212565b9150614140826140d9565b604082019050919050565b6000602082019050818103600083015261416481614128565b9050919050565b7f5072696365206d757374206265206174206c6561737420312077656900000000600082015250565b60006141a1601c83613212565b91506141ac8261416b565b602082019050919050565b600060208201905081810360008301526141d081614194565b9050919050565b7f596f7520616c7265616479206f776e2074686973204e46540000000000000000600082015250565b600061420d601883613212565b9150614218826141d7565b602082019050919050565b6000602082019050818103600083015261423c81614200565b9050919050565b7f506c65617365207375626d6974207468652061736b696e672070726963650000600082015250565b6000614279601e83613212565b915061428482614243565b602082019050919050565b600060208201905081810360008301526142a88161426c565b9050919050565b60006142ba826131d3565b91506142c5836131d3565b9250828210156142d8576142d7613dc2565b5b828203905092915050565b7f4661696c656420746f2073656e6420627579696e672070726963650000000000600082015250565b6000614319601b83613212565b9150614324826142e3565b602082019050919050565b600060208201905081810360008301526143488161430c565b9050919050565b600061435b8285613e9b565b91506143678284613e9b565b91508190509392505050565b7f546f6b656e2055524920616c7265616479206578697374730000000000000000600082015250565b60006143a9601883613212565b91506143b482614373565b602082019050919050565b600060208201905081810360008301526143d88161439c565b9050919050565b7f5072696365206d75737420626520657175616c20746f206c697374696e67207060008201527f7269636500000000000000000000000000000000000000000000000000000000602082015250565b600061443b602483613212565b9150614446826143df565b604082019050919050565b6000602082019050818103600083015261446a8161442e565b9050919050565b7f4f776e61626c653a206e6577206f776e657220697320746865207a65726f206160008201527f6464726573730000000000000000000000000000000000000000000000000000602082015250565b60006144cd602683613212565b91506144d882614471565b604082019050919050565b600060208201905081810360008301526144fc816144c0565b9050919050565b7f4552433732313a207472616e736665722066726f6d20696e636f72726563742060008201527f6f776e6572000000000000000000000000000000000000000000000000000000602082015250565b600061455f602583613212565b915061456a82614503565b604082019050919050565b6000602082019050818103600083015261458e81614552565b9050919050565b7f4552433732313a207472616e7366657220746f20746865207a65726f2061646460008201527f7265737300000000000000000000000000000000000000000000000000000000602082015250565b60006145f1602483613212565b91506145fc82614595565b604082019050919050565b60006020820190508181036000830152614620816145e4565b9050919050565b7f4f776e61626c653a2063616c6c6572206973206e6f7420746865206f776e6572600082015250565b600061465d602083613212565b915061466882614627565b602082019050919050565b6000602082019050818103600083015261468c81614650565b9050919050565b7f4552433732313a20617070726f766520746f2063616c6c657200000000000000600082015250565b60006146c9601983613212565b91506146d482614693565b602082019050919050565b600060208201905081810360008301526146f8816146bc565b9050919050565b7f4552433732313a207472616e7366657220746f206e6f6e20455243373231526560008201527f63656976657220696d706c656d656e7465720000000000000000000000000000602082015250565b600061475b603283613212565b9150614766826146ff565b604082019050919050565b6000602082019050818103600083015261478a8161474e565b9050919050565b7f45524337323155524953746f726167653a2055524920736574206f66206e6f6e60008201527f6578697374656e7420746f6b656e000000000000000000000000000000000000602082015250565b60006147ed602e83613212565b91506147f882614791565b604082019050919050565b6000602082019050818103600083015261481c816147e0565b9050919050565b600060808201905061483860008301876131dd565b61484560208301866131dd565b614852604083018561334d565b61485f60608301846131a9565b95945050505050565b600081519050919050565b600082825260208201905092915050565b600061488f82614868565b6148998185614873565b93506148a9818560208601613223565b6148b281613256565b840191505092915050565b60006080820190506148d2600083018761334d565b6148df602083018661334d565b6148ec60408301856131dd565b81810360608301526148fe8184614884565b905095945050505050565b60008151905061491881613144565b92915050565b6000602082840312156149345761493361310e565b5b600061494284828501614909565b91505092915050565b7f4e487b7100000000000000000000000000000000000000000000000000000000600052601260045260246000fd5b6000614985826131d3565b9150614990836131d3565b9250826149a05761499f61494b565b5b828204905092915050565b60006149b6826131d3565b91506149c1836131d3565b9250826149d1576149d061494b565b5b828206905092915050565b7f4e487b7100000000000000000000000000000000000000000000000000000000600052603160045260246000fd5b7f4552433732313a206d696e7420746f20746865207a65726f2061646472657373600082015250565b6000614a41602083613212565b9150614a4c82614a0b565b602082019050919050565b60006020820190508181036000830152614a7081614a34565b9050919050565b7f4552433732313a20746f6b656e20616c7265616479206d696e74656400000000600082015250565b6000614aad601c83613212565b9150614ab882614a77565b602082019050919050565b60006020820190508181036000830152614adc81614aa0565b905091905056fea26469706673582212201026321c85a2551985f36258778ad1febc894431850429de945ac3440713d96064736f6c634300080b0033",
  "immutableReferences": {},
  "source": "// SPDX-License-Identifier: MIT\npragma solidity >=0.4.22 <0.9.0;\n\nimport \"../node_modules/@openzeppelin/contracts/token/ERC20/IERC20.sol\";\nimport \"../node_modules/@openzeppelin/contracts/token/ERC721/ERC721.sol\";\nimport \"../node_modules/@openzeppelin/contracts/token/ERC721/extensions/ERC721URIStorage.sol\";\nimport \"../node_modules/@openzeppelin/contracts/access/Ownable.sol\";\nimport \"../node_modules/@openzeppelin/contracts/utils/Counters.sol\";\n\ncontract NftMarket is ERC721URIStorage, Ownable {\n    using Counters for Counters.Counter;\n\n    Counters.Counter private _tokenIdCounter;\n\n    mapping(string => uint8) existingURIs;\n\n    struct NftItem {\n        uint256 tokenId;\n        uint256 price;\n        address creator;\n        bool isListed;\n    }\n\n    uint256 public listingPrice = 0.025 ether;\n\n    Counters.Counter private _listedItems;\n    Counters.Counter private _tokenIds;\n\n    mapping(string => bool) private _usedTokenURIs;\n    mapping(uint256 => NftItem) private _idToNftItem;\n\n    mapping(address => mapping(uint256 => uint256)) private _ownedTokens;\n    mapping(uint256 => uint256) private _idToOwnedIndex;\n\n    uint256[] private _allNfts;\n    mapping(uint256 => uint256) private _idToNftIndex;\n\n    event NftItemCreated(\n        uint256 tokenId,\n        uint256 price,\n        address creator,\n        bool isListed\n    );\n\n    constructor() ERC721(\"AnchorNft\", \"ANCHOR\") {}\n\n    // function _baseURI() internal pure override returns (string memory) {\n    //     return \"ipfs://\";\n    // }\n\n    function safeMint(address to, string memory uri) public onlyOwner {\n        uint256 tokenId = _tokenIdCounter.current();\n        _tokenIdCounter.increment();\n        _safeMint(to, tokenId);\n        _setTokenURI(tokenId, uri);\n    }\n\n    function setListingPrice(uint256 newPrice) external onlyOwner {\n        require(newPrice > 0, \"Price must be at least 1 wei\");\n        listingPrice = newPrice;\n    }\n\n    function getNftItem(uint256 tokenId) public view returns (NftItem memory) {\n        return _idToNftItem[tokenId];\n    }\n\n    function listedItemsCount() public view returns (uint256) {\n        return _listedItems.current();\n    }\n\n    function tokenURIExists(string memory tokenURI) public view returns (bool) {\n        return _usedTokenURIs[tokenURI] == true;\n    }\n\n    function totalSupply() public view returns (uint256) {\n        return _allNfts.length;\n    }\n\n    function tokenByIndex(uint256 index) public view returns (uint256) {\n        require(index < totalSupply(), \"Index out of bounds\");\n        return _allNfts[index];\n    }\n\n    function tokenOfOwnerByIndex(address owner, uint256 index)\n        public\n        view\n        returns (uint256)\n    {\n        require(index < ERC721.balanceOf(owner), \"Index out of bounds\");\n        return _ownedTokens[owner][index];\n    }\n\n    function getAllNftsOnSale() public view returns (NftItem[] memory) {\n        uint256 allItemsCounts = totalSupply();\n        uint256 currentIndex = 0;\n        NftItem[] memory items = new NftItem[](_listedItems.current());\n\n        for (uint256 i = 0; i < allItemsCounts; i++) {\n            uint256 tokenId = tokenByIndex(i);\n            NftItem storage item = _idToNftItem[tokenId];\n\n            if (item.isListed == true) {\n                items[currentIndex] = item;\n                currentIndex += 1;\n            }\n        }\n\n        return items;\n    }\n\n    function getOwnedNfts(address account)\n        public\n        view\n        returns (NftItem[] memory)\n    {\n        uint256 ownedItemsCount = ERC721.balanceOf(account);\n        // uint256 ownedItemsCount = ERC721.balanceOf(msg.sender);\n        NftItem[] memory items = new NftItem[](ownedItemsCount);\n\n        for (uint256 i = 0; i < ownedItemsCount; i++) {\n            uint256 tokenId = tokenOfOwnerByIndex(account, i);\n            // uint256 tokenId = tokenOfOwnerByIndex(msg.sender, i);\n            NftItem storage item = _idToNftItem[tokenId];\n            items[i] = item;\n        }\n\n        return items;\n    }\n\n    function mintToken(\n        string memory tokenURI,\n        address account,\n        uint256 price\n    ) public payable returns (uint256) {\n        require(!tokenURIExists(tokenURI), \"Token URI already exists\");\n        require(\n            msg.value == listingPrice,\n            \"Price must be equal to listing price\"\n        );\n\n        _tokenIds.increment();\n        _listedItems.increment();\n\n        uint256 newTokenId = _tokenIds.current();\n\n        _safeMint(account, newTokenId);\n        // _safeMint(msg.sender, newTokenId);\n        _idToNftItem[newTokenId].creator = account;\n        _setTokenURI(newTokenId, tokenURI);\n        _createNftItem(newTokenId, price, account);\n        _usedTokenURIs[tokenURI] = true;\n\n        return newTokenId;\n    }\n\n    function buyNft(uint256 tokenId, address payable _to) public payable {\n        address owner = ERC721.ownerOf(tokenId);\n        // uint256 price = _idToNftItem[tokenId].price;\n\n        require(_to != owner, \"You already own this NFT\");\n        // require(msg.sender != owner, \"You already own this NFT\");\n        require(\n            msg.value >= _idToNftItem[tokenId].price + listingPrice,\n            \"Please submit the asking price\"\n        );\n\n        _idToNftItem[tokenId].isListed = false;\n\n        // payable(_idToNftItem[tokenId].creator).transfer(msg.value);\n        // payable(owner).transfer(msg.value);\n        // (IERC20).transferFrom(_to, owner, msg.value);\n        uint256 buyingPrice = msg.value - listingPrice;\n        (bool success, ) = owner.call{value: buyingPrice}(\"\");\n        require(success, \"Failed to send buying price\");\n\n        _transfer(owner, _to, tokenId);\n        _idToNftItem[tokenId].creator = payable(_to);\n\n        // payable(owner).transfer(listingPrice);\n        (bool successs, ) = address(this).call{value: listingPrice}(\"\");\n        require(successs, \"Failed to send listing price\");\n    }\n\n    fallback() external payable {}\n\n    function placeNftOnSale(\n        uint256 tokenId,\n        address account,\n        uint256 price\n    ) public payable {\n        require(\n            ERC721.ownerOf(tokenId) == account,\n            \"You are not owner of this nft\"\n        );\n        // require(\n        //     ERC721.ownerOf(tokenId) == msg.sender,\n        //     \"You are not owner of this nft\"\n        // );\n        require(\n            _idToNftItem[tokenId].isListed == false,\n            \"Item is already on sale\"\n        );\n        // require(\n        //     msg.value == listingPrice,\n        //     \"Price must be equal to listing price\"\n        // );\n        // payable(owner).transfer(listingPrice);\n        (bool successs, ) = address(this).call{value: listingPrice}(\"\");\n        require(successs, \"Failed to send listing price\");\n\n        _idToNftItem[tokenId].isListed = true;\n        _idToNftItem[tokenId].price = price;\n        _listedItems.increment();\n    }\n\n    function _createNftItem(\n        uint256 tokenId,\n        uint256 price,\n        address account\n    ) private {\n        require(price > 0, \"Price must be at least 1 wei\");\n\n        _idToNftItem[tokenId] = NftItem(tokenId, price, account, true);\n\n        emit NftItemCreated(tokenId, price, account, true);\n    }\n\n    function _beforeTokenTransfer(\n        address from,\n        address to,\n        uint256 tokenId\n    ) internal virtual override {\n        super._beforeTokenTransfer(from, to, tokenId);\n\n        if (from == address(0)) {\n            _addTokenToAllTokensEnumeration(tokenId);\n        } else if (from != to) {\n            _removeTokenFromOwnerEnumeration(from, tokenId);\n        }\n\n        if (to == address(0)) {\n            _removeTokenFromAllTokensEnumeration(tokenId);\n        } else if (to != from) {\n            _addTokenToOwnerEnumeration(to, tokenId);\n        }\n    }\n\n    function _addTokenToAllTokensEnumeration(uint256 tokenId) private {\n        _idToNftIndex[tokenId] = _allNfts.length;\n        _allNfts.push(tokenId);\n    }\n\n    function _addTokenToOwnerEnumeration(address to, uint256 tokenId) private {\n        uint256 length = ERC721.balanceOf(to);\n        _ownedTokens[to][length] = tokenId;\n        _idToOwnedIndex[tokenId] = length;\n    }\n\n    function _removeTokenFromOwnerEnumeration(address from, uint256 tokenId)\n        private\n    {\n        uint256 lastTokenIndex = ERC721.balanceOf(from) - 1;\n        uint256 tokenIndex = _idToOwnedIndex[tokenId];\n\n        if (tokenIndex != lastTokenIndex) {\n            uint256 lastTokenId = _ownedTokens[from][lastTokenIndex];\n\n            _ownedTokens[from][tokenIndex] = lastTokenId;\n            _idToOwnedIndex[lastTokenId] = tokenIndex;\n        }\n\n        delete _idToOwnedIndex[tokenId];\n        delete _ownedTokens[from][lastTokenIndex];\n    }\n\n    function _removeTokenFromAllTokensEnumeration(uint256 tokenId) private {\n        uint256 lastTokenIndex = _allNfts.length - 1;\n        uint256 tokenIndex = _idToNftIndex[tokenId];\n        uint256 lastTokenId = _allNfts[lastTokenIndex];\n\n        _allNfts[tokenIndex] = lastTokenId;\n        _idToNftIndex[lastTokenId] = tokenIndex;\n\n        delete _idToNftIndex[tokenId];\n        _allNfts.pop();\n    }\n\n    // The following functions are overrides required by Solidity.\n\n    // function _burn(uint256 tokenId)\n    //     internal\n    //     override(ERC721, ERC721URIStorage)\n    // {\n    //     super._burn(tokenId);\n    // }\n\n    // function tokenURI(uint256 tokenId)\n    //     public\n    //     view\n    //     override(ERC721, ERC721URIStorage)\n    //     returns (string memory)\n    // {\n    //     return super.tokenURI(tokenId);\n    // }\n\n    function isContentOwned(string memory uri) public view returns (bool) {\n        return existingURIs[uri] == 1;\n    }\n\n    // function payToMint(address recepient, string memory metadataURI)\n    //     public\n    //     payable\n    //     returns (uint256)\n    // {\n    //     require(existingURIs[metadataURI] != 0, \"NFT already minted!\");\n    //     require(msg.value >= 0.025 ether, \"Need to pay up!\");\n    //     uint256 newItemId = _tokenIdCounter.current();\n    //     _tokenIdCounter.increment();\n    //     existingURIs[metadataURI] = 1;\n\n    //     _mint(recepient, newItemId);\n    //     _setTokenURI(newItemId, metadataURI);\n\n    //     return newItemId;\n    // }\n\n    function count() public view returns (uint256) {\n        return _tokenIdCounter.current();\n    }\n}\n",
  "sourcePath": "/home/eraj/Documents/OFFICE/Blockchain Project/NFT/Indicium/truffle/contracts/NftMarket.sol",
  "compiler": {
    "name": "solc",
    "version": "0.8.11+commit.d7f03943.Emscripten.clang"
  },
  "schemaVersion": "3.4.8",
  "updatedAt": "2022-08-29T09:51:51.218Z",
  "networkType": "ethereum",
  "devdoc": {
    "kind": "dev",
    "methods": {
      "approve(address,uint256)": {
        "details": "See {IERC721-approve}."
      },
      "balanceOf(address)": {
        "details": "See {IERC721-balanceOf}."
      },
      "getApproved(uint256)": {
        "details": "See {IERC721-getApproved}."
      },
      "isApprovedForAll(address,address)": {
        "details": "See {IERC721-isApprovedForAll}."
      },
      "name()": {
        "details": "See {IERC721Metadata-name}."
      },
      "owner()": {
        "details": "Returns the address of the current owner."
      },
      "ownerOf(uint256)": {
        "details": "See {IERC721-ownerOf}."
      },
      "renounceOwnership()": {
        "details": "Leaves the contract without owner. It will not be possible to call `onlyOwner` functions anymore. Can only be called by the current owner. NOTE: Renouncing ownership will leave the contract without an owner, thereby removing any functionality that is only available to the owner."
      },
      "safeTransferFrom(address,address,uint256)": {
        "details": "See {IERC721-safeTransferFrom}."
      },
      "safeTransferFrom(address,address,uint256,bytes)": {
        "details": "See {IERC721-safeTransferFrom}."
      },
      "setApprovalForAll(address,bool)": {
        "details": "See {IERC721-setApprovalForAll}."
      },
      "supportsInterface(bytes4)": {
        "details": "See {IERC165-supportsInterface}."
      },
      "symbol()": {
        "details": "See {IERC721Metadata-symbol}."
      },
      "tokenURI(uint256)": {
        "details": "See {IERC721Metadata-tokenURI}."
      },
      "transferFrom(address,address,uint256)": {
        "details": "See {IERC721-transferFrom}."
      },
      "transferOwnership(address)": {
        "details": "Transfers ownership of the contract to a new account (`newOwner`). Can only be called by the current owner."
      }
    },
    "version": 1
  },
  "userdoc": {
    "kind": "user",
    "methods": {},
    "version": 1
  }
}