{
  "contractName": "NftMarket",
  "abi": [
    {
      "inputs": [],
      "stateMutability": "nonpayable",
      "type": "constructor"
    },
    {
      "anonymous": false,
      "inputs": [
        {
          "indexed": true,
          "internalType": "address",
          "name": "owner",
          "type": "address"
        },
        {
          "indexed": true,
          "internalType": "address",
          "name": "approved",
          "type": "address"
        },
        {
          "indexed": true,
          "internalType": "uint256",
          "name": "tokenId",
          "type": "uint256"
        }
      ],
      "name": "Approval",
      "type": "event"
    },
    {
      "anonymous": false,
      "inputs": [
        {
          "indexed": true,
          "internalType": "address",
          "name": "owner",
          "type": "address"
        },
        {
          "indexed": true,
          "internalType": "address",
          "name": "operator",
          "type": "address"
        },
        {
          "indexed": false,
          "internalType": "bool",
          "name": "approved",
          "type": "bool"
        }
      ],
      "name": "ApprovalForAll",
      "type": "event"
    },
    {
      "anonymous": false,
      "inputs": [
        {
          "indexed": false,
          "internalType": "uint256",
          "name": "tokenId",
          "type": "uint256"
        },
        {
          "indexed": false,
          "internalType": "uint256",
          "name": "price",
          "type": "uint256"
        },
        {
          "indexed": false,
          "internalType": "address",
          "name": "creator",
          "type": "address"
        },
        {
          "indexed": false,
          "internalType": "bool",
          "name": "isListed",
          "type": "bool"
        }
      ],
      "name": "NftItemCreated",
      "type": "event"
    },
    {
      "anonymous": false,
      "inputs": [
        {
          "indexed": true,
          "internalType": "address",
          "name": "previousOwner",
          "type": "address"
        },
        {
          "indexed": true,
          "internalType": "address",
          "name": "newOwner",
          "type": "address"
        }
      ],
      "name": "OwnershipTransferred",
      "type": "event"
    },
    {
      "anonymous": false,
      "inputs": [
        {
          "indexed": true,
          "internalType": "address",
          "name": "from",
          "type": "address"
        },
        {
          "indexed": true,
          "internalType": "address",
          "name": "to",
          "type": "address"
        },
        {
          "indexed": true,
          "internalType": "uint256",
          "name": "tokenId",
          "type": "uint256"
        }
      ],
      "name": "Transfer",
      "type": "event"
    },
    {
      "inputs": [
        {
          "internalType": "address",
          "name": "to",
          "type": "address"
        },
        {
          "internalType": "uint256",
          "name": "tokenId",
          "type": "uint256"
        }
      ],
      "name": "approve",
      "outputs": [],
      "stateMutability": "nonpayable",
      "type": "function"
    },
    {
      "inputs": [
        {
          "internalType": "address",
          "name": "owner",
          "type": "address"
        }
      ],
      "name": "balanceOf",
      "outputs": [
        {
          "internalType": "uint256",
          "name": "",
          "type": "uint256"
        }
      ],
      "stateMutability": "view",
      "type": "function",
      "constant": true
    },
    {
      "inputs": [
        {
          "internalType": "uint256",
          "name": "tokenId",
          "type": "uint256"
        }
      ],
      "name": "getApproved",
      "outputs": [
        {
          "internalType": "address",
          "name": "",
          "type": "address"
        }
      ],
      "stateMutability": "view",
      "type": "function",
      "constant": true
    },
    {
      "inputs": [
        {
          "internalType": "address",
          "name": "owner",
          "type": "address"
        },
        {
          "internalType": "address",
          "name": "operator",
          "type": "address"
        }
      ],
      "name": "isApprovedForAll",
      "outputs": [
        {
          "internalType": "bool",
          "name": "",
          "type": "bool"
        }
      ],
      "stateMutability": "view",
      "type": "function",
      "constant": true
    },
    {
      "inputs": [],
      "name": "listingPrice",
      "outputs": [
        {
          "internalType": "uint256",
          "name": "",
          "type": "uint256"
        }
      ],
      "stateMutability": "view",
      "type": "function",
      "constant": true
    },
    {
      "inputs": [],
      "name": "name",
      "outputs": [
        {
          "internalType": "string",
          "name": "",
          "type": "string"
        }
      ],
      "stateMutability": "view",
      "type": "function",
      "constant": true
    },
    {
      "inputs": [],
      "name": "owner",
      "outputs": [
        {
          "internalType": "address",
          "name": "",
          "type": "address"
        }
      ],
      "stateMutability": "view",
      "type": "function",
      "constant": true
    },
    {
      "inputs": [
        {
          "internalType": "uint256",
          "name": "tokenId",
          "type": "uint256"
        }
      ],
      "name": "ownerOf",
      "outputs": [
        {
          "internalType": "address",
          "name": "",
          "type": "address"
        }
      ],
      "stateMutability": "view",
      "type": "function",
      "constant": true
    },
    {
      "inputs": [],
      "name": "renounceOwnership",
      "outputs": [],
      "stateMutability": "nonpayable",
      "type": "function"
    },
    {
      "inputs": [
        {
          "internalType": "address",
          "name": "from",
          "type": "address"
        },
        {
          "internalType": "address",
          "name": "to",
          "type": "address"
        },
        {
          "internalType": "uint256",
          "name": "tokenId",
          "type": "uint256"
        }
      ],
      "name": "safeTransferFrom",
      "outputs": [],
      "stateMutability": "nonpayable",
      "type": "function"
    },
    {
      "inputs": [
        {
          "internalType": "address",
          "name": "from",
          "type": "address"
        },
        {
          "internalType": "address",
          "name": "to",
          "type": "address"
        },
        {
          "internalType": "uint256",
          "name": "tokenId",
          "type": "uint256"
        },
        {
          "internalType": "bytes",
          "name": "data",
          "type": "bytes"
        }
      ],
      "name": "safeTransferFrom",
      "outputs": [],
      "stateMutability": "nonpayable",
      "type": "function"
    },
    {
      "inputs": [
        {
          "internalType": "address",
          "name": "operator",
          "type": "address"
        },
        {
          "internalType": "bool",
          "name": "approved",
          "type": "bool"
        }
      ],
      "name": "setApprovalForAll",
      "outputs": [],
      "stateMutability": "nonpayable",
      "type": "function"
    },
    {
      "inputs": [
        {
          "internalType": "bytes4",
          "name": "interfaceId",
          "type": "bytes4"
        }
      ],
      "name": "supportsInterface",
      "outputs": [
        {
          "internalType": "bool",
          "name": "",
          "type": "bool"
        }
      ],
      "stateMutability": "view",
      "type": "function",
      "constant": true
    },
    {
      "inputs": [],
      "name": "symbol",
      "outputs": [
        {
          "internalType": "string",
          "name": "",
          "type": "string"
        }
      ],
      "stateMutability": "view",
      "type": "function",
      "constant": true
    },
    {
      "inputs": [
        {
          "internalType": "uint256",
          "name": "tokenId",
          "type": "uint256"
        }
      ],
      "name": "tokenURI",
      "outputs": [
        {
          "internalType": "string",
          "name": "",
          "type": "string"
        }
      ],
      "stateMutability": "view",
      "type": "function",
      "constant": true
    },
    {
      "inputs": [
        {
          "internalType": "address",
          "name": "from",
          "type": "address"
        },
        {
          "internalType": "address",
          "name": "to",
          "type": "address"
        },
        {
          "internalType": "uint256",
          "name": "tokenId",
          "type": "uint256"
        }
      ],
      "name": "transferFrom",
      "outputs": [],
      "stateMutability": "nonpayable",
      "type": "function"
    },
    {
      "inputs": [
        {
          "internalType": "address",
          "name": "newOwner",
          "type": "address"
        }
      ],
      "name": "transferOwnership",
      "outputs": [],
      "stateMutability": "nonpayable",
      "type": "function"
    },
    {
      "inputs": [
        {
          "internalType": "address",
          "name": "to",
          "type": "address"
        },
        {
          "internalType": "string",
          "name": "uri",
          "type": "string"
        }
      ],
      "name": "safeMint",
      "outputs": [],
      "stateMutability": "nonpayable",
      "type": "function"
    },
    {
      "inputs": [
        {
          "internalType": "uint256",
          "name": "newPrice",
          "type": "uint256"
        }
      ],
      "name": "setListingPrice",
      "outputs": [],
      "stateMutability": "nonpayable",
      "type": "function"
    },
    {
      "inputs": [
        {
          "internalType": "uint256",
          "name": "tokenId",
          "type": "uint256"
        }
      ],
      "name": "getNftItem",
      "outputs": [
        {
          "components": [
            {
              "internalType": "uint256",
              "name": "tokenId",
              "type": "uint256"
            },
            {
              "internalType": "uint256",
              "name": "price",
              "type": "uint256"
            },
            {
              "internalType": "address",
              "name": "creator",
              "type": "address"
            },
            {
              "internalType": "bool",
              "name": "isListed",
              "type": "bool"
            }
          ],
          "internalType": "struct NftMarket.NftItem",
          "name": "",
          "type": "tuple"
        }
      ],
      "stateMutability": "view",
      "type": "function",
      "constant": true
    },
    {
      "inputs": [],
      "name": "listedItemsCount",
      "outputs": [
        {
          "internalType": "uint256",
          "name": "",
          "type": "uint256"
        }
      ],
      "stateMutability": "view",
      "type": "function",
      "constant": true
    },
    {
      "inputs": [
        {
          "internalType": "string",
          "name": "tokenURI",
          "type": "string"
        }
      ],
      "name": "tokenURIExists",
      "outputs": [
        {
          "internalType": "bool",
          "name": "",
          "type": "bool"
        }
      ],
      "stateMutability": "view",
      "type": "function",
      "constant": true
    },
    {
      "inputs": [],
      "name": "totalSupply",
      "outputs": [
        {
          "internalType": "uint256",
          "name": "",
          "type": "uint256"
        }
      ],
      "stateMutability": "view",
      "type": "function",
      "constant": true
    },
    {
      "inputs": [
        {
          "internalType": "uint256",
          "name": "index",
          "type": "uint256"
        }
      ],
      "name": "tokenByIndex",
      "outputs": [
        {
          "internalType": "uint256",
          "name": "",
          "type": "uint256"
        }
      ],
      "stateMutability": "view",
      "type": "function",
      "constant": true
    },
    {
      "inputs": [
        {
          "internalType": "address",
          "name": "owner",
          "type": "address"
        },
        {
          "internalType": "uint256",
          "name": "index",
          "type": "uint256"
        }
      ],
      "name": "tokenOfOwnerByIndex",
      "outputs": [
        {
          "internalType": "uint256",
          "name": "",
          "type": "uint256"
        }
      ],
      "stateMutability": "view",
      "type": "function",
      "constant": true
    },
    {
      "inputs": [],
      "name": "getAllNftsOnSale",
      "outputs": [
        {
          "components": [
            {
              "internalType": "uint256",
              "name": "tokenId",
              "type": "uint256"
            },
            {
              "internalType": "uint256",
              "name": "price",
              "type": "uint256"
            },
            {
              "internalType": "address",
              "name": "creator",
              "type": "address"
            },
            {
              "internalType": "bool",
              "name": "isListed",
              "type": "bool"
            }
          ],
          "internalType": "struct NftMarket.NftItem[]",
          "name": "",
          "type": "tuple[]"
        }
      ],
      "stateMutability": "view",
      "type": "function",
      "constant": true
    },
    {
      "inputs": [],
      "name": "getOwnedNfts",
      "outputs": [
        {
          "components": [
            {
              "internalType": "uint256",
              "name": "tokenId",
              "type": "uint256"
            },
            {
              "internalType": "uint256",
              "name": "price",
              "type": "uint256"
            },
            {
              "internalType": "address",
              "name": "creator",
              "type": "address"
            },
            {
              "internalType": "bool",
              "name": "isListed",
              "type": "bool"
            }
          ],
          "internalType": "struct NftMarket.NftItem[]",
          "name": "",
          "type": "tuple[]"
        }
      ],
      "stateMutability": "view",
      "type": "function",
      "constant": true
    },
    {
      "inputs": [
        {
          "internalType": "string",
          "name": "tokenURI",
          "type": "string"
        },
        {
          "internalType": "uint256",
          "name": "price",
          "type": "uint256"
        }
      ],
      "name": "mintToken",
      "outputs": [
        {
          "internalType": "uint256",
          "name": "",
          "type": "uint256"
        }
      ],
      "stateMutability": "payable",
      "type": "function",
      "payable": true
    },
    {
      "inputs": [
        {
          "internalType": "uint256",
          "name": "tokenId",
          "type": "uint256"
        }
      ],
      "name": "buyNft",
      "outputs": [],
      "stateMutability": "payable",
      "type": "function",
      "payable": true
    },
    {
      "inputs": [
        {
          "internalType": "uint256",
          "name": "tokenId",
          "type": "uint256"
        },
        {
          "internalType": "uint256",
          "name": "newPrice",
          "type": "uint256"
        }
      ],
      "name": "placeNftOnSale",
      "outputs": [],
      "stateMutability": "payable",
      "type": "function",
      "payable": true
    },
    {
      "inputs": [
        {
          "internalType": "string",
          "name": "uri",
          "type": "string"
        }
      ],
      "name": "isContentOwned",
      "outputs": [
        {
          "internalType": "bool",
          "name": "",
          "type": "bool"
        }
      ],
      "stateMutability": "view",
      "type": "function",
      "constant": true
    },
    {
      "inputs": [],
      "name": "count",
      "outputs": [
        {
          "internalType": "uint256",
          "name": "",
          "type": "uint256"
        }
      ],
      "stateMutability": "view",
      "type": "function",
      "constant": true
    }
  ],
  "bytecode": "0x60806040526658d15e17628000600a553480156200001c57600080fd5b506040518060400160405280600581526020017f4164656c610000000000000000000000000000000000000000000000000000008152506040518060400160405280600481526020017f4144454c000000000000000000000000000000000000000000000000000000008152508160009080519060200190620000a1929190620001b1565b508060019080519060200190620000ba929190620001b1565b505050620000dd620000d1620000e360201b60201c565b620000eb60201b60201c565b620002c6565b600033905090565b6000600760009054906101000a900473ffffffffffffffffffffffffffffffffffffffff16905081600760006101000a81548173ffffffffffffffffffffffffffffffffffffffff021916908373ffffffffffffffffffffffffffffffffffffffff1602179055508173ffffffffffffffffffffffffffffffffffffffff168173ffffffffffffffffffffffffffffffffffffffff167f8be0079c531659141344cd1fd0a4f28419497f9722a3daafe3b4186f6b6457e060405160405180910390a35050565b828054620001bf9062000290565b90600052602060002090601f016020900481019282620001e357600085556200022f565b82601f10620001fe57805160ff19168380011785556200022f565b828001600101855582156200022f579182015b828111156200022e57825182559160200191906001019062000211565b5b5090506200023e919062000242565b5090565b5b808211156200025d57600081600090555060010162000243565b5090565b7f4e487b7100000000000000000000000000000000000000000000000000000000600052602260045260246000fd5b60006002820490506001821680620002a957607f821691505b60208210811415620002c057620002bf62000261565b5b50919050565b6147c980620002d66000396000f3fe6080604052600436106101e35760003560e01c806370a0823111610102578063b88d4fde11610095578063ccb4918d11610064578063ccb4918d14610717578063d204c45e14610742578063e985e9c51461076b578063f2fde38b146107a8576101e3565b8063b88d4fde14610656578063c046372c1461067f578063c78f19f9146106af578063c87b56dd146106da576101e3565b80638da5cb5b116100d15780638da5cb5b1461059a57806395d89b41146105c55780639f1cabc6146105f0578063a22cb4651461062d576101e3565b806370a08231146104f257806370cbcb431461052f578063715018a61461055a5780637c726b6914610571576101e3565b8063243adbdd1161017a57806343d32ae71161014957806343d32ae7146103fe5780634f6ccce71461043b5780636352211e146104785780636f1a0af5146104b5576101e3565b8063243adbdd146103515780632f745c591461036d57806336b536be146103aa57806342842e0e146103d5576101e3565b8063095ea7b3116101b6578063095ea7b3146102b857806318160ddd146102e157806321f422e51461030c57806323b872dd14610328576101e3565b806301ffc9a7146101e857806306661abd1461022557806306fdde0314610250578063081812fc1461027b575b600080fd5b3480156101f457600080fd5b5061020f600480360381019061020a9190612f76565b6107d1565b60405161021c9190612fbe565b60405180910390f35b34801561023157600080fd5b5061023a6108b3565b6040516102479190612ff2565b60405180910390f35b34801561025c57600080fd5b506102656108c4565b60405161027291906130a6565b60405180910390f35b34801561028757600080fd5b506102a2600480360381019061029d91906130f4565b610956565b6040516102af9190613162565b60405180910390f35b3480156102c457600080fd5b506102df60048036038101906102da91906131a9565b61099c565b005b3480156102ed57600080fd5b506102f6610ab4565b6040516103039190612ff2565b60405180910390f35b610326600480360381019061032191906131e9565b610ac1565b005b34801561033457600080fd5b5061034f600480360381019061034a9190613229565b610c3d565b005b61036b600480360381019061036691906130f4565b610c9d565b005b34801561037957600080fd5b50610394600480360381019061038f91906131a9565b610e06565b6040516103a19190612ff2565b60405180910390f35b3480156103b657600080fd5b506103bf610eab565b6040516103cc91906133ad565b60405180910390f35b3480156103e157600080fd5b506103fc60048036038101906103f79190613229565b611046565b005b34801561040a57600080fd5b5061042560048036038101906104209190613504565b611066565b6040516104329190612fbe565b60405180910390f35b34801561044757600080fd5b50610462600480360381019061045d91906130f4565b6110a2565b60405161046f9190612ff2565b60405180910390f35b34801561048457600080fd5b5061049f600480360381019061049a91906130f4565b611113565b6040516104ac9190613162565b60405180910390f35b3480156104c157600080fd5b506104dc60048036038101906104d791906130f4565b6111c5565b6040516104e991906135a2565b60405180910390f35b3480156104fe57600080fd5b50610519600480360381019061051491906135bd565b611277565b6040516105269190612ff2565b60405180910390f35b34801561053b57600080fd5b5061054461132f565b60405161055191906133ad565b60405180910390f35b34801561056657600080fd5b5061056f611493565b005b34801561057d57600080fd5b50610598600480360381019061059391906130f4565b6114a7565b005b3480156105a657600080fd5b506105af6114fc565b6040516105bc9190613162565b60405180910390f35b3480156105d157600080fd5b506105da611526565b6040516105e791906130a6565b60405180910390f35b3480156105fc57600080fd5b5061061760048036038101906106129190613504565b6115b8565b6040516106249190612fbe565b60405180910390f35b34801561063957600080fd5b50610654600480360381019061064f9190613616565b6115f3565b005b34801561066257600080fd5b5061067d600480360381019061067891906136f7565b611609565b005b6106996004803603810190610694919061377a565b61166b565b6040516106a69190612ff2565b60405180910390f35b3480156106bb57600080fd5b506106c461177b565b6040516106d19190612ff2565b60405180910390f35b3480156106e657600080fd5b5061070160048036038101906106fc91906130f4565b611781565b60405161070e91906130a6565b60405180910390f35b34801561072357600080fd5b5061072c611894565b6040516107399190612ff2565b60405180910390f35b34801561074e57600080fd5b50610769600480360381019061076491906137d6565b6118a5565b005b34801561077757600080fd5b50610792600480360381019061078d9190613832565b6118de565b60405161079f9190612fbe565b60405180910390f35b3480156107b457600080fd5b506107cf60048036038101906107ca91906135bd565b611972565b005b60007f80ac58cd000000000000000000000000000000000000000000000000000000007bffffffffffffffffffffffffffffffffffffffffffffffffffffffff1916827bffffffffffffffffffffffffffffffffffffffffffffffffffffffff1916148061089c57507f5b5e139f000000000000000000000000000000000000000000000000000000007bffffffffffffffffffffffffffffffffffffffffffffffffffffffff1916827bffffffffffffffffffffffffffffffffffffffffffffffffffffffff1916145b806108ac57506108ab826119f6565b5b9050919050565b60006108bf6008611a60565b905090565b6060600080546108d3906138a1565b80601f01602080910402602001604051908101604052809291908181526020018280546108ff906138a1565b801561094c5780601f106109215761010080835404028352916020019161094c565b820191906000526020600020905b81548152906001019060200180831161092f57829003601f168201915b5050505050905090565b600061096182611a6e565b6004600083815260200190815260200160002060009054906101000a900473ffffffffffffffffffffffffffffffffffffffff169050919050565b60006109a782611113565b90508073ffffffffffffffffffffffffffffffffffffffff168373ffffffffffffffffffffffffffffffffffffffff161415610a18576040517f08c379a0000000000000000000000000000000000000000000000000000000008152600401610a0f90613945565b60405180910390fd5b8073ffffffffffffffffffffffffffffffffffffffff16610a37611ab9565b73ffffffffffffffffffffffffffffffffffffffff161480610a665750610a6581610a60611ab9565b6118de565b5b610aa5576040517f08c379a0000000000000000000000000000000000000000000000000000000008152600401610a9c906139d7565b60405180910390fd5b610aaf8383611ac1565b505050565b6000601180549050905090565b3373ffffffffffffffffffffffffffffffffffffffff16610ae183611113565b73ffffffffffffffffffffffffffffffffffffffff1614610b37576040517f08c379a0000000000000000000000000000000000000000000000000000000008152600401610b2e90613a43565b60405180910390fd5b60001515600e600084815260200190815260200160002060020160149054906101000a900460ff16151514610ba1576040517f08c379a0000000000000000000000000000000000000000000000000000000008152600401610b9890613aaf565b60405180910390fd5b600a543414610be5576040517f08c379a0000000000000000000000000000000000000000000000000000000008152600401610bdc90613b41565b60405180910390fd5b6001600e600084815260200190815260200160002060020160146101000a81548160ff02191690831515021790555080600e600084815260200190815260200160002060010181905550610c39600b611b7a565b5050565b610c4e610c48611ab9565b82611b90565b610c8d576040517f08c379a0000000000000000000000000000000000000000000000000000000008152600401610c8490613bd3565b60405180910390fd5b610c98838383611c25565b505050565b6000600e60008381526020019081526020016000206001015490506000610cc383611113565b90508073ffffffffffffffffffffffffffffffffffffffff163373ffffffffffffffffffffffffffffffffffffffff161415610d34576040517f08c379a0000000000000000000000000000000000000000000000000000000008152600401610d2b90613c3f565b60405180910390fd5b813414610d76576040517f08c379a0000000000000000000000000000000000000000000000000000000008152600401610d6d90613cab565b60405180910390fd5b6000600e600085815260200190815260200160002060020160146101000a81548160ff021916908315150217905550610daf600b611e8c565b610dba813385611c25565b8073ffffffffffffffffffffffffffffffffffffffff166108fc349081150290604051600060405180830381858888f19350505050158015610e00573d6000803e3d6000fd5b50505050565b6000610e1183611277565b8210610e52576040517f08c379a0000000000000000000000000000000000000000000000000000000008152600401610e4990613d17565b60405180910390fd5b600f60008473ffffffffffffffffffffffffffffffffffffffff1673ffffffffffffffffffffffffffffffffffffffff168152602001908152602001600020600083815260200190815260200160002054905092915050565b60606000610eb7610ab4565b9050600080610ec6600b611a60565b67ffffffffffffffff811115610edf57610ede6133d9565b5b604051908082528060200260200182016040528015610f1857816020015b610f05612e27565b815260200190600190039081610efd5790505b50905060005b8381101561103c576000610f31826110a2565b90506000600e60008381526020019081526020016000209050600115158160020160149054906101000a900460ff1615151415611027578060405180608001604052908160008201548152602001600182015481526020016002820160009054906101000a900473ffffffffffffffffffffffffffffffffffffffff1673ffffffffffffffffffffffffffffffffffffffff1673ffffffffffffffffffffffffffffffffffffffff1681526020016002820160149054906101000a900460ff16151515158152505084868151811061100c5761100b613d37565b5b60200260200101819052506001856110249190613d95565b94505b5050808061103490613deb565b915050610f1e565b5080935050505090565b61106183838360405180602001604052806000815250611609565b505050565b600060011515600d8360405161107c9190613e70565b908152602001604051809103902060009054906101000a900460ff161515149050919050565b60006110ac610ab4565b82106110ed576040517f08c379a00000000000000000000000000000000000000000000000000000000081526004016110e490613d17565b60405180910390fd5b6011828154811061110157611100613d37565b5b90600052602060002001549050919050565b6000806002600084815260200190815260200160002060009054906101000a900473ffffffffffffffffffffffffffffffffffffffff169050600073ffffffffffffffffffffffffffffffffffffffff168173ffffffffffffffffffffffffffffffffffffffff1614156111bc576040517f08c379a00000000000000000000000000000000000000000000000000000000081526004016111b390613ed3565b60405180910390fd5b80915050919050565b6111cd612e27565b600e600083815260200190815260200160002060405180608001604052908160008201548152602001600182015481526020016002820160009054906101000a900473ffffffffffffffffffffffffffffffffffffffff1673ffffffffffffffffffffffffffffffffffffffff1673ffffffffffffffffffffffffffffffffffffffff1681526020016002820160149054906101000a900460ff1615151515815250509050919050565b60008073ffffffffffffffffffffffffffffffffffffffff168273ffffffffffffffffffffffffffffffffffffffff1614156112e8576040517f08c379a00000000000000000000000000000000000000000000000000000000081526004016112df90613f65565b60405180910390fd5b600360008373ffffffffffffffffffffffffffffffffffffffff1673ffffffffffffffffffffffffffffffffffffffff168152602001908152602001600020549050919050565b6060600061133c33611277565b905060008167ffffffffffffffff81111561135a576113596133d9565b5b60405190808252806020026020018201604052801561139357816020015b611380612e27565b8152602001906001900390816113785790505b50905060005b8281101561148a5760006113ad3383610e06565b90506000600e600083815260200190815260200160002090508060405180608001604052908160008201548152602001600182015481526020016002820160009054906101000a900473ffffffffffffffffffffffffffffffffffffffff1673ffffffffffffffffffffffffffffffffffffffff1673ffffffffffffffffffffffffffffffffffffffff1681526020016002820160149054906101000a900460ff16151515158152505084848151811061146a57611469613d37565b5b60200260200101819052505050808061148290613deb565b915050611399565b50809250505090565b61149b611ee8565b6114a56000611f66565b565b6114af611ee8565b600081116114f2576040517f08c379a00000000000000000000000000000000000000000000000000000000081526004016114e990613fd1565b60405180910390fd5b80600a8190555050565b6000600760009054906101000a900473ffffffffffffffffffffffffffffffffffffffff16905090565b606060018054611535906138a1565b80601f0160208091040260200160405190810160405280929190818152602001828054611561906138a1565b80156115ae5780601f10611583576101008083540402835291602001916115ae565b820191906000526020600020905b81548152906001019060200180831161159157829003601f168201915b5050505050905090565b600060016009836040516115cc9190613e70565b908152602001604051809103902060009054906101000a900460ff1660ff16149050919050565b6116056115fe611ab9565b838361202c565b5050565b61161a611614611ab9565b83611b90565b611659576040517f08c379a000000000000000000000000000000000000000000000000000000000815260040161165090613bd3565b60405180910390fd5b61166584848484612199565b50505050565b600061167683611066565b156116b6576040517f08c379a00000000000000000000000000000000000000000000000000000000081526004016116ad9061403d565b60405180910390fd5b600a5434146116fa576040517f08c379a00000000000000000000000000000000000000000000000000000000081526004016116f190613b41565b60405180910390fd5b611704600c611b7a565b61170e600b611b7a565b600061171a600c611a60565b905061172633826121f5565b6117308185612213565b61173a8184612287565b6001600d8560405161174c9190613e70565b908152602001604051809103902060006101000a81548160ff0219169083151502179055508091505092915050565b600a5481565b606061178c82611a6e565b60006006600084815260200190815260200160002080546117ac906138a1565b80601f01602080910402602001604051908101604052809291908181526020018280546117d8906138a1565b80156118255780601f106117fa57610100808354040283529160200191611825565b820191906000526020600020905b81548152906001019060200180831161180857829003601f168201915b5050505050905060006118366123d7565b905060008151141561184c57819250505061188f565b60008251111561188157808260405160200161186992919061405d565b6040516020818303038152906040529250505061188f565b61188a846123ee565b925050505b919050565b60006118a0600b611a60565b905090565b6118ad611ee8565b60006118b96008611a60565b90506118c56008611b7a565b6118cf83826121f5565b6118d98183612213565b505050565b6000600560008473ffffffffffffffffffffffffffffffffffffffff1673ffffffffffffffffffffffffffffffffffffffff16815260200190815260200160002060008373ffffffffffffffffffffffffffffffffffffffff1673ffffffffffffffffffffffffffffffffffffffff16815260200190815260200160002060009054906101000a900460ff16905092915050565b61197a611ee8565b600073ffffffffffffffffffffffffffffffffffffffff168173ffffffffffffffffffffffffffffffffffffffff1614156119ea576040517f08c379a00000000000000000000000000000000000000000000000000000000081526004016119e1906140f3565b60405180910390fd5b6119f381611f66565b50565b60007f01ffc9a7000000000000000000000000000000000000000000000000000000007bffffffffffffffffffffffffffffffffffffffffffffffffffffffff1916827bffffffffffffffffffffffffffffffffffffffffffffffffffffffff1916149050919050565b600081600001549050919050565b611a7781612456565b611ab6576040517f08c379a0000000000000000000000000000000000000000000000000000000008152600401611aad90613ed3565b60405180910390fd5b50565b600033905090565b816004600083815260200190815260200160002060006101000a81548173ffffffffffffffffffffffffffffffffffffffff021916908373ffffffffffffffffffffffffffffffffffffffff160217905550808273ffffffffffffffffffffffffffffffffffffffff16611b3483611113565b73ffffffffffffffffffffffffffffffffffffffff167f8c5be1e5ebec7d5bd14f71427d1e84f3dd0314c0f7b2291e5b200ac8c7c3b92560405160405180910390a45050565b6001816000016000828254019250508190555050565b600080611b9c83611113565b90508073ffffffffffffffffffffffffffffffffffffffff168473ffffffffffffffffffffffffffffffffffffffff161480611bde5750611bdd81856118de565b5b80611c1c57508373ffffffffffffffffffffffffffffffffffffffff16611c0484610956565b73ffffffffffffffffffffffffffffffffffffffff16145b91505092915050565b8273ffffffffffffffffffffffffffffffffffffffff16611c4582611113565b73ffffffffffffffffffffffffffffffffffffffff1614611c9b576040517f08c379a0000000000000000000000000000000000000000000000000000000008152600401611c9290614185565b60405180910390fd5b600073ffffffffffffffffffffffffffffffffffffffff168273ffffffffffffffffffffffffffffffffffffffff161415611d0b576040517f08c379a0000000000000000000000000000000000000000000000000000000008152600401611d0290614217565b60405180910390fd5b611d168383836124c2565b611d21600082611ac1565b6001600360008573ffffffffffffffffffffffffffffffffffffffff1673ffffffffffffffffffffffffffffffffffffffff1681526020019081526020016000206000828254611d719190614237565b925050819055506001600360008473ffffffffffffffffffffffffffffffffffffffff1673ffffffffffffffffffffffffffffffffffffffff1681526020019081526020016000206000828254611dc89190613d95565b92505081905550816002600083815260200190815260200160002060006101000a81548173ffffffffffffffffffffffffffffffffffffffff021916908373ffffffffffffffffffffffffffffffffffffffff160217905550808273ffffffffffffffffffffffffffffffffffffffff168473ffffffffffffffffffffffffffffffffffffffff167fddf252ad1be2c89b69c2b068fc378daa952ba7f163c4a11628f55a4df523b3ef60405160405180910390a4611e878383836125d6565b505050565b60008160000154905060008111611ed8576040517f08c379a0000000000000000000000000000000000000000000000000000000008152600401611ecf906142b7565b60405180910390fd5b6001810382600001819055505050565b611ef0611ab9565b73ffffffffffffffffffffffffffffffffffffffff16611f0e6114fc565b73ffffffffffffffffffffffffffffffffffffffff1614611f64576040517f08c379a0000000000000000000000000000000000000000000000000000000008152600401611f5b90614323565b60405180910390fd5b565b6000600760009054906101000a900473ffffffffffffffffffffffffffffffffffffffff16905081600760006101000a81548173ffffffffffffffffffffffffffffffffffffffff021916908373ffffffffffffffffffffffffffffffffffffffff1602179055508173ffffffffffffffffffffffffffffffffffffffff168173ffffffffffffffffffffffffffffffffffffffff167f8be0079c531659141344cd1fd0a4f28419497f9722a3daafe3b4186f6b6457e060405160405180910390a35050565b8173ffffffffffffffffffffffffffffffffffffffff168373ffffffffffffffffffffffffffffffffffffffff16141561209b576040517f08c379a00000000000000000000000000000000000000000000000000000000081526004016120929061438f565b60405180910390fd5b80600560008573ffffffffffffffffffffffffffffffffffffffff1673ffffffffffffffffffffffffffffffffffffffff16815260200190815260200160002060008473ffffffffffffffffffffffffffffffffffffffff1673ffffffffffffffffffffffffffffffffffffffff16815260200190815260200160002060006101000a81548160ff0219169083151502179055508173ffffffffffffffffffffffffffffffffffffffff168373ffffffffffffffffffffffffffffffffffffffff167f17307eab39ab6107e8899845ad3d59bd9653f200f220920489ca2b5937696c318360405161218c9190612fbe565b60405180910390a3505050565b6121a4848484611c25565b6121b0848484846125db565b6121ef576040517f08c379a00000000000000000000000000000000000000000000000000000000081526004016121e690614421565b60405180910390fd5b50505050565b61220f828260405180602001604052806000815250612763565b5050565b61221c82612456565b61225b576040517f08c379a0000000000000000000000000000000000000000000000000000000008152600401612252906144b3565b60405180910390fd5b80600660008481526020019081526020016000209080519060200190612282929190612e67565b505050565b600081116122ca576040517f08c379a00000000000000000000000000000000000000000000000000000000081526004016122c190613fd1565b60405180910390fd5b60405180608001604052808381526020018281526020013373ffffffffffffffffffffffffffffffffffffffff16815260200160011515815250600e6000848152602001908152602001600020600082015181600001556020820151816001015560408201518160020160006101000a81548173ffffffffffffffffffffffffffffffffffffffff021916908373ffffffffffffffffffffffffffffffffffffffff16021790555060608201518160020160146101000a81548160ff0219169083151502179055509050507f470031062672bc0246e132c723a729c4676710ec663a29e86c88678032daddea82823360016040516123cb94939291906144d3565b60405180910390a15050565b606060405180602001604052806000815250905090565b60606123f982611a6e565b60006124036123d7565b90506000815111612423576040518060200160405280600081525061244e565b8061242d846127be565b60405160200161243e92919061405d565b6040516020818303038152906040525b915050919050565b60008073ffffffffffffffffffffffffffffffffffffffff166002600084815260200190815260200160002060009054906101000a900473ffffffffffffffffffffffffffffffffffffffff1673ffffffffffffffffffffffffffffffffffffffff1614159050919050565b6124cd83838361291f565b600073ffffffffffffffffffffffffffffffffffffffff168373ffffffffffffffffffffffffffffffffffffffff1614156125105761250b81612924565b61254f565b8173ffffffffffffffffffffffffffffffffffffffff168373ffffffffffffffffffffffffffffffffffffffff161461254e5761254d838261296d565b5b5b600073ffffffffffffffffffffffffffffffffffffffff168273ffffffffffffffffffffffffffffffffffffffff1614156125925761258d81612ada565b6125d1565b8273ffffffffffffffffffffffffffffffffffffffff168273ffffffffffffffffffffffffffffffffffffffff16146125d0576125cf8282612bab565b5b5b505050565b505050565b60006125fc8473ffffffffffffffffffffffffffffffffffffffff16612c2a565b15612756578373ffffffffffffffffffffffffffffffffffffffff1663150b7a02612625611ab9565b8786866040518563ffffffff1660e01b8152600401612647949392919061456d565b6020604051808303816000875af192505050801561268357506040513d601f19601f8201168201806040525081019061268091906145ce565b60015b612706573d80600081146126b3576040519150601f19603f3d011682016040523d82523d6000602084013e6126b8565b606091505b506000815114156126fe576040517f08c379a00000000000000000000000000000000000000000000000000000000081526004016126f590614421565b60405180910390fd5b805181602001fd5b63150b7a0260e01b7bffffffffffffffffffffffffffffffffffffffffffffffffffffffff1916817bffffffffffffffffffffffffffffffffffffffffffffffffffffffff19161491505061275b565b600190505b949350505050565b61276d8383612c4d565b61277a60008484846125db565b6127b9576040517f08c379a00000000000000000000000000000000000000000000000000000000081526004016127b090614421565b60405180910390fd5b505050565b60606000821415612806576040518060400160405280600181526020017f3000000000000000000000000000000000000000000000000000000000000000815250905061291a565b600082905060005b6000821461283857808061282190613deb565b915050600a82612831919061462a565b915061280e565b60008167ffffffffffffffff811115612854576128536133d9565b5b6040519080825280601f01601f1916602001820160405280156128865781602001600182028036833780820191505090505b5090505b600085146129135760018261289f9190614237565b9150600a856128ae919061465b565b60306128ba9190613d95565b60f81b8183815181106128d0576128cf613d37565b5b60200101907effffffffffffffffffffffffffffffffffffffffffffffffffffffffffffff1916908160001a905350600a8561290c919061462a565b945061288a565b8093505050505b919050565b505050565b6011805490506012600083815260200190815260200160002081905550601181908060018154018082558091505060019003906000526020600020016000909190919091505550565b6000600161297a84611277565b6129849190614237565b9050600060106000848152602001908152602001600020549050818114612a69576000600f60008673ffffffffffffffffffffffffffffffffffffffff1673ffffffffffffffffffffffffffffffffffffffff168152602001908152602001600020600084815260200190815260200160002054905080600f60008773ffffffffffffffffffffffffffffffffffffffff1673ffffffffffffffffffffffffffffffffffffffff168152602001908152602001600020600084815260200190815260200160002081905550816010600083815260200190815260200160002081905550505b6010600084815260200190815260200160002060009055600f60008573ffffffffffffffffffffffffffffffffffffffff1673ffffffffffffffffffffffffffffffffffffffff16815260200190815260200160002060008381526020019081526020016000206000905550505050565b60006001601180549050612aee9190614237565b9050600060126000848152602001908152602001600020549050600060118381548110612b1e57612b1d613d37565b5b906000526020600020015490508060118381548110612b4057612b3f613d37565b5b906000526020600020018190555081601260008381526020019081526020016000208190555060126000858152602001908152602001600020600090556011805480612b8f57612b8e61468c565b5b6001900381819060005260206000200160009055905550505050565b6000612bb683611277565b905081600f60008573ffffffffffffffffffffffffffffffffffffffff1673ffffffffffffffffffffffffffffffffffffffff168152602001908152602001600020600083815260200190815260200160002081905550806010600084815260200190815260200160002081905550505050565b6000808273ffffffffffffffffffffffffffffffffffffffff163b119050919050565b600073ffffffffffffffffffffffffffffffffffffffff168273ffffffffffffffffffffffffffffffffffffffff161415612cbd576040517f08c379a0000000000000000000000000000000000000000000000000000000008152600401612cb490614707565b60405180910390fd5b612cc681612456565b15612d06576040517f08c379a0000000000000000000000000000000000000000000000000000000008152600401612cfd90614773565b60405180910390fd5b612d12600083836124c2565b6001600360008473ffffffffffffffffffffffffffffffffffffffff1673ffffffffffffffffffffffffffffffffffffffff1681526020019081526020016000206000828254612d629190613d95565b92505081905550816002600083815260200190815260200160002060006101000a81548173ffffffffffffffffffffffffffffffffffffffff021916908373ffffffffffffffffffffffffffffffffffffffff160217905550808273ffffffffffffffffffffffffffffffffffffffff16600073ffffffffffffffffffffffffffffffffffffffff167fddf252ad1be2c89b69c2b068fc378daa952ba7f163c4a11628f55a4df523b3ef60405160405180910390a4612e23600083836125d6565b5050565b60405180608001604052806000815260200160008152602001600073ffffffffffffffffffffffffffffffffffffffff1681526020016000151581525090565b828054612e73906138a1565b90600052602060002090601f016020900481019282612e955760008555612edc565b82601f10612eae57805160ff1916838001178555612edc565b82800160010185558215612edc579182015b82811115612edb578251825591602001919060010190612ec0565b5b509050612ee99190612eed565b5090565b5b80821115612f06576000816000905550600101612eee565b5090565b6000604051905090565b600080fd5b600080fd5b60007fffffffff0000000000000000000000000000000000000000000000000000000082169050919050565b612f5381612f1e565b8114612f5e57600080fd5b50565b600081359050612f7081612f4a565b92915050565b600060208284031215612f8c57612f8b612f14565b5b6000612f9a84828501612f61565b91505092915050565b60008115159050919050565b612fb881612fa3565b82525050565b6000602082019050612fd36000830184612faf565b92915050565b6000819050919050565b612fec81612fd9565b82525050565b60006020820190506130076000830184612fe3565b92915050565b600081519050919050565b600082825260208201905092915050565b60005b8381101561304757808201518184015260208101905061302c565b83811115613056576000848401525b50505050565b6000601f19601f8301169050919050565b60006130788261300d565b6130828185613018565b9350613092818560208601613029565b61309b8161305c565b840191505092915050565b600060208201905081810360008301526130c0818461306d565b905092915050565b6130d181612fd9565b81146130dc57600080fd5b50565b6000813590506130ee816130c8565b92915050565b60006020828403121561310a57613109612f14565b5b6000613118848285016130df565b91505092915050565b600073ffffffffffffffffffffffffffffffffffffffff82169050919050565b600061314c82613121565b9050919050565b61315c81613141565b82525050565b60006020820190506131776000830184613153565b92915050565b61318681613141565b811461319157600080fd5b50565b6000813590506131a38161317d565b92915050565b600080604083850312156131c0576131bf612f14565b5b60006131ce85828601613194565b92505060206131df858286016130df565b9150509250929050565b60008060408385031215613200576131ff612f14565b5b600061320e858286016130df565b925050602061321f858286016130df565b9150509250929050565b60008060006060848603121561324257613241612f14565b5b600061325086828701613194565b935050602061326186828701613194565b9250506040613272868287016130df565b9150509250925092565b600081519050919050565b600082825260208201905092915050565b6000819050602082019050919050565b6132b181612fd9565b82525050565b6132c081613141565b82525050565b6132cf81612fa3565b82525050565b6080820160008201516132eb60008501826132a8565b5060208201516132fe60208501826132a8565b50604082015161331160408501826132b7565b50606082015161332460608501826132c6565b50505050565b600061333683836132d5565b60808301905092915050565b6000602082019050919050565b600061335a8261327c565b6133648185613287565b935061336f83613298565b8060005b838110156133a0578151613387888261332a565b975061339283613342565b925050600181019050613373565b5085935050505092915050565b600060208201905081810360008301526133c7818461334f565b905092915050565b600080fd5b600080fd5b7f4e487b7100000000000000000000000000000000000000000000000000000000600052604160045260246000fd5b6134118261305c565b810181811067ffffffffffffffff821117156134305761342f6133d9565b5b80604052505050565b6000613443612f0a565b905061344f8282613408565b919050565b600067ffffffffffffffff82111561346f5761346e6133d9565b5b6134788261305c565b9050602081019050919050565b82818337600083830152505050565b60006134a76134a284613454565b613439565b9050828152602081018484840111156134c3576134c26133d4565b5b6134ce848285613485565b509392505050565b600082601f8301126134eb576134ea6133cf565b5b81356134fb848260208601613494565b91505092915050565b60006020828403121561351a57613519612f14565b5b600082013567ffffffffffffffff81111561353857613537612f19565b5b613544848285016134d6565b91505092915050565b60808201600082015161356360008501826132a8565b50602082015161357660208501826132a8565b50604082015161358960408501826132b7565b50606082015161359c60608501826132c6565b50505050565b60006080820190506135b7600083018461354d565b92915050565b6000602082840312156135d3576135d2612f14565b5b60006135e184828501613194565b91505092915050565b6135f381612fa3565b81146135fe57600080fd5b50565b600081359050613610816135ea565b92915050565b6000806040838503121561362d5761362c612f14565b5b600061363b85828601613194565b925050602061364c85828601613601565b9150509250929050565b600067ffffffffffffffff821115613671576136706133d9565b5b61367a8261305c565b9050602081019050919050565b600061369a61369584613656565b613439565b9050828152602081018484840111156136b6576136b56133d4565b5b6136c1848285613485565b509392505050565b600082601f8301126136de576136dd6133cf565b5b81356136ee848260208601613687565b91505092915050565b6000806000806080858703121561371157613710612f14565b5b600061371f87828801613194565b945050602061373087828801613194565b9350506040613741878288016130df565b925050606085013567ffffffffffffffff81111561376257613761612f19565b5b61376e878288016136c9565b91505092959194509250565b6000806040838503121561379157613790612f14565b5b600083013567ffffffffffffffff8111156137af576137ae612f19565b5b6137bb858286016134d6565b92505060206137cc858286016130df565b9150509250929050565b600080604083850312156137ed576137ec612f14565b5b60006137fb85828601613194565b925050602083013567ffffffffffffffff81111561381c5761381b612f19565b5b613828858286016134d6565b9150509250929050565b6000806040838503121561384957613848612f14565b5b600061385785828601613194565b925050602061386885828601613194565b9150509250929050565b7f4e487b7100000000000000000000000000000000000000000000000000000000600052602260045260246000fd5b600060028204905060018216806138b957607f821691505b602082108114156138cd576138cc613872565b5b50919050565b7f4552433732313a20617070726f76616c20746f2063757272656e74206f776e6560008201527f7200000000000000000000000000000000000000000000000000000000000000602082015250565b600061392f602183613018565b915061393a826138d3565b604082019050919050565b6000602082019050818103600083015261395e81613922565b9050919050565b7f4552433732313a20617070726f76652063616c6c6572206973206e6f7420746f60008201527f6b656e206f776e6572206e6f7220617070726f76656420666f7220616c6c0000602082015250565b60006139c1603e83613018565b91506139cc82613965565b604082019050919050565b600060208201905081810360008301526139f0816139b4565b9050919050565b7f596f7520617265206e6f74206f776e6572206f662074686973206e6674000000600082015250565b6000613a2d601d83613018565b9150613a38826139f7565b602082019050919050565b60006020820190508181036000830152613a5c81613a20565b9050919050565b7f4974656d20697320616c7265616479206f6e2073616c65000000000000000000600082015250565b6000613a99601783613018565b9150613aa482613a63565b602082019050919050565b60006020820190508181036000830152613ac881613a8c565b9050919050565b7f5072696365206d75737420626520657175616c20746f206c697374696e67207060008201527f7269636500000000000000000000000000000000000000000000000000000000602082015250565b6000613b2b602483613018565b9150613b3682613acf565b604082019050919050565b60006020820190508181036000830152613b5a81613b1e565b9050919050565b7f4552433732313a2063616c6c6572206973206e6f7420746f6b656e206f776e6560008201527f72206e6f7220617070726f766564000000000000000000000000000000000000602082015250565b6000613bbd602e83613018565b9150613bc882613b61565b604082019050919050565b60006020820190508181036000830152613bec81613bb0565b9050919050565b7f596f7520616c7265616479206f776e2074686973204e46540000000000000000600082015250565b6000613c29601883613018565b9150613c3482613bf3565b602082019050919050565b60006020820190508181036000830152613c5881613c1c565b9050919050565b7f506c65617365207375626d6974207468652061736b696e672070726963650000600082015250565b6000613c95601e83613018565b9150613ca082613c5f565b602082019050919050565b60006020820190508181036000830152613cc481613c88565b9050919050565b7f496e646578206f7574206f6620626f756e647300000000000000000000000000600082015250565b6000613d01601383613018565b9150613d0c82613ccb565b602082019050919050565b60006020820190508181036000830152613d3081613cf4565b9050919050565b7f4e487b7100000000000000000000000000000000000000000000000000000000600052603260045260246000fd5b7f4e487b7100000000000000000000000000000000000000000000000000000000600052601160045260246000fd5b6000613da082612fd9565b9150613dab83612fd9565b9250827fffffffffffffffffffffffffffffffffffffffffffffffffffffffffffffffff03821115613de057613ddf613d66565b5b828201905092915050565b6000613df682612fd9565b91507fffffffffffffffffffffffffffffffffffffffffffffffffffffffffffffffff821415613e2957613e28613d66565b5b600182019050919050565b600081905092915050565b6000613e4a8261300d565b613e548185613e34565b9350613e64818560208601613029565b80840191505092915050565b6000613e7c8284613e3f565b915081905092915050565b7f4552433732313a20696e76616c696420746f6b656e2049440000000000000000600082015250565b6000613ebd601883613018565b9150613ec882613e87565b602082019050919050565b60006020820190508181036000830152613eec81613eb0565b9050919050565b7f4552433732313a2061646472657373207a65726f206973206e6f74206120766160008201527f6c6964206f776e65720000000000000000000000000000000000000000000000602082015250565b6000613f4f602983613018565b9150613f5a82613ef3565b604082019050919050565b60006020820190508181036000830152613f7e81613f42565b9050919050565b7f5072696365206d757374206265206174206c6561737420312077656900000000600082015250565b6000613fbb601c83613018565b9150613fc682613f85565b602082019050919050565b60006020820190508181036000830152613fea81613fae565b9050919050565b7f546f6b656e2055524920616c7265616479206578697374730000000000000000600082015250565b6000614027601883613018565b915061403282613ff1565b602082019050919050565b600060208201905081810360008301526140568161401a565b9050919050565b60006140698285613e3f565b91506140758284613e3f565b91508190509392505050565b7f4f776e61626c653a206e6577206f776e657220697320746865207a65726f206160008201527f6464726573730000000000000000000000000000000000000000000000000000602082015250565b60006140dd602683613018565b91506140e882614081565b604082019050919050565b6000602082019050818103600083015261410c816140d0565b9050919050565b7f4552433732313a207472616e736665722066726f6d20696e636f72726563742060008201527f6f776e6572000000000000000000000000000000000000000000000000000000602082015250565b600061416f602583613018565b915061417a82614113565b604082019050919050565b6000602082019050818103600083015261419e81614162565b9050919050565b7f4552433732313a207472616e7366657220746f20746865207a65726f2061646460008201527f7265737300000000000000000000000000000000000000000000000000000000602082015250565b6000614201602483613018565b915061420c826141a5565b604082019050919050565b60006020820190508181036000830152614230816141f4565b9050919050565b600061424282612fd9565b915061424d83612fd9565b9250828210156142605761425f613d66565b5b828203905092915050565b7f436f756e7465723a2064656372656d656e74206f766572666c6f770000000000600082015250565b60006142a1601b83613018565b91506142ac8261426b565b602082019050919050565b600060208201905081810360008301526142d081614294565b9050919050565b7f4f776e61626c653a2063616c6c6572206973206e6f7420746865206f776e6572600082015250565b600061430d602083613018565b9150614318826142d7565b602082019050919050565b6000602082019050818103600083015261433c81614300565b9050919050565b7f4552433732313a20617070726f766520746f2063616c6c657200000000000000600082015250565b6000614379601983613018565b915061438482614343565b602082019050919050565b600060208201905081810360008301526143a88161436c565b9050919050565b7f4552433732313a207472616e7366657220746f206e6f6e20455243373231526560008201527f63656976657220696d706c656d656e7465720000000000000000000000000000602082015250565b600061440b603283613018565b9150614416826143af565b604082019050919050565b6000602082019050818103600083015261443a816143fe565b9050919050565b7f45524337323155524953746f726167653a2055524920736574206f66206e6f6e60008201527f6578697374656e7420746f6b656e000000000000000000000000000000000000602082015250565b600061449d602e83613018565b91506144a882614441565b604082019050919050565b600060208201905081810360008301526144cc81614490565b9050919050565b60006080820190506144e86000830187612fe3565b6144f56020830186612fe3565b6145026040830185613153565b61450f6060830184612faf565b95945050505050565b600081519050919050565b600082825260208201905092915050565b600061453f82614518565b6145498185614523565b9350614559818560208601613029565b6145628161305c565b840191505092915050565b60006080820190506145826000830187613153565b61458f6020830186613153565b61459c6040830185612fe3565b81810360608301526145ae8184614534565b905095945050505050565b6000815190506145c881612f4a565b92915050565b6000602082840312156145e4576145e3612f14565b5b60006145f2848285016145b9565b91505092915050565b7f4e487b7100000000000000000000000000000000000000000000000000000000600052601260045260246000fd5b600061463582612fd9565b915061464083612fd9565b9250826146505761464f6145fb565b5b828204905092915050565b600061466682612fd9565b915061467183612fd9565b925082614681576146806145fb565b5b828206905092915050565b7f4e487b7100000000000000000000000000000000000000000000000000000000600052603160045260246000fd5b7f4552433732313a206d696e7420746f20746865207a65726f2061646472657373600082015250565b60006146f1602083613018565b91506146fc826146bb565b602082019050919050565b60006020820190508181036000830152614720816146e4565b9050919050565b7f4552433732313a20746f6b656e20616c7265616479206d696e74656400000000600082015250565b600061475d601c83613018565b915061476882614727565b602082019050919050565b6000602082019050818103600083015261478c81614750565b905091905056fea26469706673582212208f9c6b1806fba0894fb01f6e98ad0ca8b9dd2eff00ee6ff0409fd069d7477a3e64736f6c634300080b0033",
  "immutableReferences": {},
  "source": "// SPDX-License-Identifier: MIT\npragma solidity >=0.4.22 <0.9.0;\n\nimport \"../node_modules/@openzeppelin/contracts/token/ERC721/ERC721.sol\";\nimport \"../node_modules/@openzeppelin/contracts/token/ERC721/extensions/ERC721URIStorage.sol\";\nimport \"../node_modules/@openzeppelin/contracts/access/Ownable.sol\";\nimport \"../node_modules/@openzeppelin/contracts/utils/Counters.sol\";\n\ncontract NftMarket is ERC721URIStorage, Ownable {\n    using Counters for Counters.Counter;\n\n    Counters.Counter private _tokenIdCounter;\n\n    mapping(string => uint8) existingURIs;\n\n    struct NftItem {\n        uint256 tokenId;\n        uint256 price;\n        address creator;\n        bool isListed;\n    }\n\n    uint256 public listingPrice = 0.025 ether;\n\n    Counters.Counter private _listedItems;\n    Counters.Counter private _tokenIds;\n\n    mapping(string => bool) private _usedTokenURIs;\n    mapping(uint256 => NftItem) private _idToNftItem;\n\n    mapping(address => mapping(uint256 => uint256)) private _ownedTokens;\n    mapping(uint256 => uint256) private _idToOwnedIndex;\n\n    uint256[] private _allNfts;\n    mapping(uint256 => uint256) private _idToNftIndex;\n\n    event NftItemCreated(\n        uint256 tokenId,\n        uint256 price,\n        address creator,\n        bool isListed\n    );\n\n    constructor() ERC721(\"Adela\", \"ADEL\") {}\n\n    // function _baseURI() internal pure override returns (string memory) {\n    //     return \"ipfs://\";\n    // }\n\n    function safeMint(address to, string memory uri) public onlyOwner {\n        uint256 tokenId = _tokenIdCounter.current();\n        _tokenIdCounter.increment();\n        _safeMint(to, tokenId);\n        _setTokenURI(tokenId, uri);\n    }\n\n    function setListingPrice(uint256 newPrice) external onlyOwner {\n        require(newPrice > 0, \"Price must be at least 1 wei\");\n        listingPrice = newPrice;\n    }\n\n    function getNftItem(uint256 tokenId) public view returns (NftItem memory) {\n        return _idToNftItem[tokenId];\n    }\n\n    function listedItemsCount() public view returns (uint256) {\n        return _listedItems.current();\n    }\n\n    function tokenURIExists(string memory tokenURI) public view returns (bool) {\n        return _usedTokenURIs[tokenURI] == true;\n    }\n\n    function totalSupply() public view returns (uint256) {\n        return _allNfts.length;\n    }\n\n    function tokenByIndex(uint256 index) public view returns (uint256) {\n        require(index < totalSupply(), \"Index out of bounds\");\n        return _allNfts[index];\n    }\n\n    function tokenOfOwnerByIndex(address owner, uint256 index)\n        public\n        view\n        returns (uint256)\n    {\n        require(index < ERC721.balanceOf(owner), \"Index out of bounds\");\n        return _ownedTokens[owner][index];\n    }\n\n    function getAllNftsOnSale() public view returns (NftItem[] memory) {\n        uint256 allItemsCounts = totalSupply();\n        uint256 currentIndex = 0;\n        NftItem[] memory items = new NftItem[](_listedItems.current());\n\n        for (uint256 i = 0; i < allItemsCounts; i++) {\n            uint256 tokenId = tokenByIndex(i);\n            NftItem storage item = _idToNftItem[tokenId];\n\n            if (item.isListed == true) {\n                items[currentIndex] = item;\n                currentIndex += 1;\n            }\n        }\n\n        return items;\n    }\n\n    function getOwnedNfts() public view returns (NftItem[] memory) {\n        uint256 ownedItemsCount = ERC721.balanceOf(msg.sender);\n        NftItem[] memory items = new NftItem[](ownedItemsCount);\n\n        for (uint256 i = 0; i < ownedItemsCount; i++) {\n            uint256 tokenId = tokenOfOwnerByIndex(msg.sender, i);\n            NftItem storage item = _idToNftItem[tokenId];\n            items[i] = item;\n        }\n\n        return items;\n    }\n\n    function mintToken(string memory tokenURI, uint256 price)\n        public\n        payable\n        returns (uint256)\n    {\n        require(!tokenURIExists(tokenURI), \"Token URI already exists\");\n        require(\n            msg.value == listingPrice,\n            \"Price must be equal to listing price\"\n        );\n\n        _tokenIds.increment();\n        _listedItems.increment();\n\n        uint256 newTokenId = _tokenIds.current();\n\n        _safeMint(msg.sender, newTokenId);\n        _setTokenURI(newTokenId, tokenURI);\n        _createNftItem(newTokenId, price);\n        _usedTokenURIs[tokenURI] = true;\n\n        return newTokenId;\n    }\n\n    function buyNft(uint256 tokenId) public payable {\n        uint256 price = _idToNftItem[tokenId].price;\n        address owner = ERC721.ownerOf(tokenId);\n\n        require(msg.sender != owner, \"You already own this NFT\");\n        require(msg.value == price, \"Please submit the asking price\");\n\n        _idToNftItem[tokenId].isListed = false;\n        _listedItems.decrement();\n\n        _transfer(owner, msg.sender, tokenId);\n        payable(owner).transfer(msg.value);\n    }\n\n    function placeNftOnSale(uint256 tokenId, uint256 newPrice) public payable {\n        require(\n            ERC721.ownerOf(tokenId) == msg.sender,\n            \"You are not owner of this nft\"\n        );\n        require(\n            _idToNftItem[tokenId].isListed == false,\n            \"Item is already on sale\"\n        );\n        require(\n            msg.value == listingPrice,\n            \"Price must be equal to listing price\"\n        );\n\n        _idToNftItem[tokenId].isListed = true;\n        _idToNftItem[tokenId].price = newPrice;\n        _listedItems.increment();\n    }\n\n    function _createNftItem(uint256 tokenId, uint256 price) private {\n        require(price > 0, \"Price must be at least 1 wei\");\n\n        _idToNftItem[tokenId] = NftItem(tokenId, price, msg.sender, true);\n\n        emit NftItemCreated(tokenId, price, msg.sender, true);\n    }\n\n    function _beforeTokenTransfer(\n        address from,\n        address to,\n        uint256 tokenId\n    ) internal virtual override {\n        super._beforeTokenTransfer(from, to, tokenId);\n\n        if (from == address(0)) {\n            _addTokenToAllTokensEnumeration(tokenId);\n        } else if (from != to) {\n            _removeTokenFromOwnerEnumeration(from, tokenId);\n        }\n\n        if (to == address(0)) {\n            _removeTokenFromAllTokensEnumeration(tokenId);\n        } else if (to != from) {\n            _addTokenToOwnerEnumeration(to, tokenId);\n        }\n    }\n\n    function _addTokenToAllTokensEnumeration(uint256 tokenId) private {\n        _idToNftIndex[tokenId] = _allNfts.length;\n        _allNfts.push(tokenId);\n    }\n\n    function _addTokenToOwnerEnumeration(address to, uint256 tokenId) private {\n        uint256 length = ERC721.balanceOf(to);\n        _ownedTokens[to][length] = tokenId;\n        _idToOwnedIndex[tokenId] = length;\n    }\n\n    function _removeTokenFromOwnerEnumeration(address from, uint256 tokenId)\n        private\n    {\n        uint256 lastTokenIndex = ERC721.balanceOf(from) - 1;\n        uint256 tokenIndex = _idToOwnedIndex[tokenId];\n\n        if (tokenIndex != lastTokenIndex) {\n            uint256 lastTokenId = _ownedTokens[from][lastTokenIndex];\n\n            _ownedTokens[from][tokenIndex] = lastTokenId;\n            _idToOwnedIndex[lastTokenId] = tokenIndex;\n        }\n\n        delete _idToOwnedIndex[tokenId];\n        delete _ownedTokens[from][lastTokenIndex];\n    }\n\n    function _removeTokenFromAllTokensEnumeration(uint256 tokenId) private {\n        uint256 lastTokenIndex = _allNfts.length - 1;\n        uint256 tokenIndex = _idToNftIndex[tokenId];\n        uint256 lastTokenId = _allNfts[lastTokenIndex];\n\n        _allNfts[tokenIndex] = lastTokenId;\n        _idToNftIndex[lastTokenId] = tokenIndex;\n\n        delete _idToNftIndex[tokenId];\n        _allNfts.pop();\n    }\n\n    // The following functions are overrides required by Solidity.\n\n    // function _burn(uint256 tokenId)\n    //     internal\n    //     override(ERC721, ERC721URIStorage)\n    // {\n    //     super._burn(tokenId);\n    // }\n\n    // function tokenURI(uint256 tokenId)\n    //     public\n    //     view\n    //     override(ERC721, ERC721URIStorage)\n    //     returns (string memory)\n    // {\n    //     return super.tokenURI(tokenId);\n    // }\n\n    function isContentOwned(string memory uri) public view returns (bool) {\n        return existingURIs[uri] == 1;\n    }\n\n    // function payToMint(address recepient, string memory metadataURI)\n    //     public\n    //     payable\n    //     returns (uint256)\n    // {\n    //     require(existingURIs[metadataURI] != 0, \"NFT already minted!\");\n    //     require(msg.value >= 0.025 ether, \"Need to pay up!\");\n    //     uint256 newItemId = _tokenIdCounter.current();\n    //     _tokenIdCounter.increment();\n    //     existingURIs[metadataURI] = 1;\n\n    //     _mint(recepient, newItemId);\n    //     _setTokenURI(newItemId, metadataURI);\n\n    //     return newItemId;\n    // }\n\n    function count() public view returns (uint256) {\n        return _tokenIdCounter.current();\n    }\n}\n",
  "sourcePath": "/home/mohaiminuleraj/Documents/Project/NFT Project/indicium/truffle/contracts/NftMarket.sol",
  "compiler": {
    "name": "solc",
    "version": "0.8.11+commit.d7f03943.Emscripten.clang"
  },
  "schemaVersion": "3.4.5",
  "updatedAt": "2022-07-27T05:57:02.091Z",
  "networkType": "ethereum",
  "devdoc": {
    "kind": "dev",
    "methods": {
      "approve(address,uint256)": {
        "details": "See {IERC721-approve}."
      },
      "balanceOf(address)": {
        "details": "See {IERC721-balanceOf}."
      },
      "getApproved(uint256)": {
        "details": "See {IERC721-getApproved}."
      },
      "isApprovedForAll(address,address)": {
        "details": "See {IERC721-isApprovedForAll}."
      },
      "name()": {
        "details": "See {IERC721Metadata-name}."
      },
      "owner()": {
        "details": "Returns the address of the current owner."
      },
      "ownerOf(uint256)": {
        "details": "See {IERC721-ownerOf}."
      },
      "renounceOwnership()": {
        "details": "Leaves the contract without owner. It will not be possible to call `onlyOwner` functions anymore. Can only be called by the current owner. NOTE: Renouncing ownership will leave the contract without an owner, thereby removing any functionality that is only available to the owner."
      },
      "safeTransferFrom(address,address,uint256)": {
        "details": "See {IERC721-safeTransferFrom}."
      },
      "safeTransferFrom(address,address,uint256,bytes)": {
        "details": "See {IERC721-safeTransferFrom}."
      },
      "setApprovalForAll(address,bool)": {
        "details": "See {IERC721-setApprovalForAll}."
      },
      "supportsInterface(bytes4)": {
        "details": "See {IERC165-supportsInterface}."
      },
      "symbol()": {
        "details": "See {IERC721Metadata-symbol}."
      },
      "tokenURI(uint256)": {
        "details": "See {IERC721Metadata-tokenURI}."
      },
      "transferFrom(address,address,uint256)": {
        "details": "See {IERC721-transferFrom}."
      },
      "transferOwnership(address)": {
        "details": "Transfers ownership of the contract to a new account (`newOwner`). Can only be called by the current owner."
      }
    },
    "version": 1
  },
  "userdoc": {
    "kind": "user",
    "methods": {},
    "version": 1
  }
}