{
  "contractName": "NftMarket",
  "abi": [
    {
      "inputs": [],
      "stateMutability": "nonpayable",
      "type": "constructor"
    },
    {
      "anonymous": false,
      "inputs": [
        {
          "indexed": true,
          "internalType": "address",
          "name": "owner",
          "type": "address"
        },
        {
          "indexed": true,
          "internalType": "address",
          "name": "approved",
          "type": "address"
        },
        {
          "indexed": true,
          "internalType": "uint256",
          "name": "tokenId",
          "type": "uint256"
        }
      ],
      "name": "Approval",
      "type": "event"
    },
    {
      "anonymous": false,
      "inputs": [
        {
          "indexed": true,
          "internalType": "address",
          "name": "owner",
          "type": "address"
        },
        {
          "indexed": true,
          "internalType": "address",
          "name": "operator",
          "type": "address"
        },
        {
          "indexed": false,
          "internalType": "bool",
          "name": "approved",
          "type": "bool"
        }
      ],
      "name": "ApprovalForAll",
      "type": "event"
    },
    {
      "anonymous": false,
      "inputs": [
        {
          "indexed": false,
          "internalType": "uint256",
          "name": "tokenId",
          "type": "uint256"
        },
        {
          "indexed": false,
          "internalType": "uint256",
          "name": "price",
          "type": "uint256"
        },
        {
          "indexed": false,
          "internalType": "address",
          "name": "creator",
          "type": "address"
        },
        {
          "indexed": false,
          "internalType": "bool",
          "name": "isListed",
          "type": "bool"
        }
      ],
      "name": "NftItemCreated",
      "type": "event"
    },
    {
      "anonymous": false,
      "inputs": [
        {
          "indexed": true,
          "internalType": "address",
          "name": "previousOwner",
          "type": "address"
        },
        {
          "indexed": true,
          "internalType": "address",
          "name": "newOwner",
          "type": "address"
        }
      ],
      "name": "OwnershipTransferred",
      "type": "event"
    },
    {
      "anonymous": false,
      "inputs": [
        {
          "indexed": true,
          "internalType": "address",
          "name": "from",
          "type": "address"
        },
        {
          "indexed": true,
          "internalType": "address",
          "name": "to",
          "type": "address"
        },
        {
          "indexed": true,
          "internalType": "uint256",
          "name": "tokenId",
          "type": "uint256"
        }
      ],
      "name": "Transfer",
      "type": "event"
    },
    {
      "inputs": [
        {
          "internalType": "address",
          "name": "to",
          "type": "address"
        },
        {
          "internalType": "uint256",
          "name": "tokenId",
          "type": "uint256"
        }
      ],
      "name": "approve",
      "outputs": [],
      "stateMutability": "nonpayable",
      "type": "function"
    },
    {
      "inputs": [
        {
          "internalType": "address",
          "name": "owner",
          "type": "address"
        }
      ],
      "name": "balanceOf",
      "outputs": [
        {
          "internalType": "uint256",
          "name": "",
          "type": "uint256"
        }
      ],
      "stateMutability": "view",
      "type": "function",
      "constant": true
    },
    {
      "inputs": [
        {
          "internalType": "uint256",
          "name": "tokenId",
          "type": "uint256"
        }
      ],
      "name": "getApproved",
      "outputs": [
        {
          "internalType": "address",
          "name": "",
          "type": "address"
        }
      ],
      "stateMutability": "view",
      "type": "function",
      "constant": true
    },
    {
      "inputs": [
        {
          "internalType": "address",
          "name": "owner",
          "type": "address"
        },
        {
          "internalType": "address",
          "name": "operator",
          "type": "address"
        }
      ],
      "name": "isApprovedForAll",
      "outputs": [
        {
          "internalType": "bool",
          "name": "",
          "type": "bool"
        }
      ],
      "stateMutability": "view",
      "type": "function",
      "constant": true
    },
    {
      "inputs": [],
      "name": "listingPrice",
      "outputs": [
        {
          "internalType": "uint256",
          "name": "",
          "type": "uint256"
        }
      ],
      "stateMutability": "view",
      "type": "function",
      "constant": true
    },
    {
      "inputs": [],
      "name": "name",
      "outputs": [
        {
          "internalType": "string",
          "name": "",
          "type": "string"
        }
      ],
      "stateMutability": "view",
      "type": "function",
      "constant": true
    },
    {
      "inputs": [],
      "name": "owner",
      "outputs": [
        {
          "internalType": "address",
          "name": "",
          "type": "address"
        }
      ],
      "stateMutability": "view",
      "type": "function",
      "constant": true
    },
    {
      "inputs": [
        {
          "internalType": "uint256",
          "name": "tokenId",
          "type": "uint256"
        }
      ],
      "name": "ownerOf",
      "outputs": [
        {
          "internalType": "address",
          "name": "",
          "type": "address"
        }
      ],
      "stateMutability": "view",
      "type": "function",
      "constant": true
    },
    {
      "inputs": [],
      "name": "renounceOwnership",
      "outputs": [],
      "stateMutability": "nonpayable",
      "type": "function"
    },
    {
      "inputs": [
        {
          "internalType": "address",
          "name": "from",
          "type": "address"
        },
        {
          "internalType": "address",
          "name": "to",
          "type": "address"
        },
        {
          "internalType": "uint256",
          "name": "tokenId",
          "type": "uint256"
        }
      ],
      "name": "safeTransferFrom",
      "outputs": [],
      "stateMutability": "nonpayable",
      "type": "function"
    },
    {
      "inputs": [
        {
          "internalType": "address",
          "name": "from",
          "type": "address"
        },
        {
          "internalType": "address",
          "name": "to",
          "type": "address"
        },
        {
          "internalType": "uint256",
          "name": "tokenId",
          "type": "uint256"
        },
        {
          "internalType": "bytes",
          "name": "data",
          "type": "bytes"
        }
      ],
      "name": "safeTransferFrom",
      "outputs": [],
      "stateMutability": "nonpayable",
      "type": "function"
    },
    {
      "inputs": [
        {
          "internalType": "address",
          "name": "operator",
          "type": "address"
        },
        {
          "internalType": "bool",
          "name": "approved",
          "type": "bool"
        }
      ],
      "name": "setApprovalForAll",
      "outputs": [],
      "stateMutability": "nonpayable",
      "type": "function"
    },
    {
      "inputs": [
        {
          "internalType": "bytes4",
          "name": "interfaceId",
          "type": "bytes4"
        }
      ],
      "name": "supportsInterface",
      "outputs": [
        {
          "internalType": "bool",
          "name": "",
          "type": "bool"
        }
      ],
      "stateMutability": "view",
      "type": "function",
      "constant": true
    },
    {
      "inputs": [],
      "name": "symbol",
      "outputs": [
        {
          "internalType": "string",
          "name": "",
          "type": "string"
        }
      ],
      "stateMutability": "view",
      "type": "function",
      "constant": true
    },
    {
      "inputs": [
        {
          "internalType": "uint256",
          "name": "tokenId",
          "type": "uint256"
        }
      ],
      "name": "tokenURI",
      "outputs": [
        {
          "internalType": "string",
          "name": "",
          "type": "string"
        }
      ],
      "stateMutability": "view",
      "type": "function",
      "constant": true
    },
    {
      "inputs": [
        {
          "internalType": "address",
          "name": "from",
          "type": "address"
        },
        {
          "internalType": "address",
          "name": "to",
          "type": "address"
        },
        {
          "internalType": "uint256",
          "name": "tokenId",
          "type": "uint256"
        }
      ],
      "name": "transferFrom",
      "outputs": [],
      "stateMutability": "nonpayable",
      "type": "function"
    },
    {
      "inputs": [
        {
          "internalType": "address",
          "name": "newOwner",
          "type": "address"
        }
      ],
      "name": "transferOwnership",
      "outputs": [],
      "stateMutability": "nonpayable",
      "type": "function"
    },
    {
      "inputs": [
        {
          "internalType": "address",
          "name": "to",
          "type": "address"
        },
        {
          "internalType": "string",
          "name": "uri",
          "type": "string"
        }
      ],
      "name": "safeMint",
      "outputs": [],
      "stateMutability": "nonpayable",
      "type": "function"
    },
    {
      "inputs": [
        {
          "internalType": "uint256",
          "name": "newPrice",
          "type": "uint256"
        }
      ],
      "name": "setListingPrice",
      "outputs": [],
      "stateMutability": "nonpayable",
      "type": "function"
    },
    {
      "inputs": [
        {
          "internalType": "uint256",
          "name": "tokenId",
          "type": "uint256"
        }
      ],
      "name": "getNftItem",
      "outputs": [
        {
          "components": [
            {
              "internalType": "uint256",
              "name": "tokenId",
              "type": "uint256"
            },
            {
              "internalType": "uint256",
              "name": "price",
              "type": "uint256"
            },
            {
              "internalType": "address",
              "name": "creator",
              "type": "address"
            },
            {
              "internalType": "bool",
              "name": "isListed",
              "type": "bool"
            }
          ],
          "internalType": "struct NftMarket.NftItem",
          "name": "",
          "type": "tuple"
        }
      ],
      "stateMutability": "view",
      "type": "function",
      "constant": true
    },
    {
      "inputs": [],
      "name": "listedItemsCount",
      "outputs": [
        {
          "internalType": "uint256",
          "name": "",
          "type": "uint256"
        }
      ],
      "stateMutability": "view",
      "type": "function",
      "constant": true
    },
    {
      "inputs": [
        {
          "internalType": "string",
          "name": "tokenURI",
          "type": "string"
        }
      ],
      "name": "tokenURIExists",
      "outputs": [
        {
          "internalType": "bool",
          "name": "",
          "type": "bool"
        }
      ],
      "stateMutability": "view",
      "type": "function",
      "constant": true
    },
    {
      "inputs": [],
      "name": "totalSupply",
      "outputs": [
        {
          "internalType": "uint256",
          "name": "",
          "type": "uint256"
        }
      ],
      "stateMutability": "view",
      "type": "function",
      "constant": true
    },
    {
      "inputs": [
        {
          "internalType": "uint256",
          "name": "index",
          "type": "uint256"
        }
      ],
      "name": "tokenByIndex",
      "outputs": [
        {
          "internalType": "uint256",
          "name": "",
          "type": "uint256"
        }
      ],
      "stateMutability": "view",
      "type": "function",
      "constant": true
    },
    {
      "inputs": [
        {
          "internalType": "address",
          "name": "owner",
          "type": "address"
        },
        {
          "internalType": "uint256",
          "name": "index",
          "type": "uint256"
        }
      ],
      "name": "tokenOfOwnerByIndex",
      "outputs": [
        {
          "internalType": "uint256",
          "name": "",
          "type": "uint256"
        }
      ],
      "stateMutability": "view",
      "type": "function",
      "constant": true
    },
    {
      "inputs": [],
      "name": "getAllNftsOnSale",
      "outputs": [
        {
          "components": [
            {
              "internalType": "uint256",
              "name": "tokenId",
              "type": "uint256"
            },
            {
              "internalType": "uint256",
              "name": "price",
              "type": "uint256"
            },
            {
              "internalType": "address",
              "name": "creator",
              "type": "address"
            },
            {
              "internalType": "bool",
              "name": "isListed",
              "type": "bool"
            }
          ],
          "internalType": "struct NftMarket.NftItem[]",
          "name": "",
          "type": "tuple[]"
        }
      ],
      "stateMutability": "view",
      "type": "function",
      "constant": true
    },
    {
      "inputs": [
        {
          "internalType": "address",
          "name": "account",
          "type": "address"
        }
      ],
      "name": "getOwnedNfts",
      "outputs": [
        {
          "components": [
            {
              "internalType": "uint256",
              "name": "tokenId",
              "type": "uint256"
            },
            {
              "internalType": "uint256",
              "name": "price",
              "type": "uint256"
            },
            {
              "internalType": "address",
              "name": "creator",
              "type": "address"
            },
            {
              "internalType": "bool",
              "name": "isListed",
              "type": "bool"
            }
          ],
          "internalType": "struct NftMarket.NftItem[]",
          "name": "",
          "type": "tuple[]"
        }
      ],
      "stateMutability": "view",
      "type": "function",
      "constant": true
    },
    {
      "inputs": [
        {
          "internalType": "string",
          "name": "tokenURI",
          "type": "string"
        },
        {
          "internalType": "address",
          "name": "account",
          "type": "address"
        },
        {
          "internalType": "uint256",
          "name": "price",
          "type": "uint256"
        }
      ],
      "name": "mintToken",
      "outputs": [
        {
          "internalType": "uint256",
          "name": "",
          "type": "uint256"
        }
      ],
      "stateMutability": "payable",
      "type": "function",
      "payable": true
    },
    {
      "inputs": [
        {
          "internalType": "uint256",
          "name": "tokenId",
          "type": "uint256"
        },
        {
          "internalType": "address payable",
          "name": "_to",
          "type": "address"
        }
      ],
      "name": "buyNft",
      "outputs": [],
      "stateMutability": "payable",
      "type": "function",
      "payable": true
    },
    {
      "inputs": [
        {
          "internalType": "uint256",
          "name": "tokenId",
          "type": "uint256"
        },
        {
          "internalType": "address",
          "name": "account",
          "type": "address"
        }
      ],
      "name": "placeNftOnSale",
      "outputs": [],
      "stateMutability": "payable",
      "type": "function",
      "payable": true
    },
    {
      "inputs": [
        {
          "internalType": "string",
          "name": "uri",
          "type": "string"
        }
      ],
      "name": "isContentOwned",
      "outputs": [
        {
          "internalType": "bool",
          "name": "",
          "type": "bool"
        }
      ],
      "stateMutability": "view",
      "type": "function",
      "constant": true
    },
    {
      "inputs": [],
      "name": "count",
      "outputs": [
        {
          "internalType": "uint256",
          "name": "",
          "type": "uint256"
        }
      ],
      "stateMutability": "view",
      "type": "function",
      "constant": true
    }
  ],
  "bytecode": "0x60806040526658d15e17628000600a553480156200001c57600080fd5b506040518060400160405280600981526020017f416e63686f724e667400000000000000000000000000000000000000000000008152506040518060400160405280600681526020017f414e43484f5200000000000000000000000000000000000000000000000000008152508160009080519060200190620000a1929190620001b1565b508060019080519060200190620000ba929190620001b1565b505050620000dd620000d1620000e360201b60201c565b620000eb60201b60201c565b620002c6565b600033905090565b6000600760009054906101000a900473ffffffffffffffffffffffffffffffffffffffff16905081600760006101000a81548173ffffffffffffffffffffffffffffffffffffffff021916908373ffffffffffffffffffffffffffffffffffffffff1602179055508173ffffffffffffffffffffffffffffffffffffffff168173ffffffffffffffffffffffffffffffffffffffff167f8be0079c531659141344cd1fd0a4f28419497f9722a3daafe3b4186f6b6457e060405160405180910390a35050565b828054620001bf9062000290565b90600052602060002090601f016020900481019282620001e357600085556200022f565b82601f10620001fe57805160ff19168380011785556200022f565b828001600101855582156200022f579182015b828111156200022e57825182559160200191906001019062000211565b5b5090506200023e919062000242565b5090565b5b808211156200025d57600081600090555060010162000243565b5090565b7f4e487b7100000000000000000000000000000000000000000000000000000000600052602260045260246000fd5b60006002820490506001821680620002a957607f821691505b60208210811415620002c057620002bf62000261565b5b50919050565b61476680620002d66000396000f3fe6080604052600436106101e35760003560e01c8063715018a611610102578063c78f19f911610095578063cf2a916911610064578063cf2a916914610724578063d204c45e14610754578063e985e9c51461077d578063f2fde38b146107ba576101e3565b8063c78f19f914610654578063c7adece01461067f578063c87b56dd146106bc578063ccb4918d146106f9576101e3565b80639f1cabc6116100d15780639f1cabc6146105a9578063a22cb465146105e6578063b88d4fde1461060f578063bc3ad14514610638576101e3565b8063715018a6146105135780637c726b691461052a5780638da5cb5b1461055357806395d89b411461057e576101e3565b806336b536be1161017a5780635c6ba391116101495780635c6ba391146104405780636352211e1461045c5780636f1a0af51461049957806370a08231146104d6576101e3565b806336b536be1461037257806342842e0e1461039d57806343d32ae7146103c65780634f6ccce714610403576101e3565b8063095ea7b3116101b6578063095ea7b3146102b857806318160ddd146102e157806323b872dd1461030c5780632f745c5914610335576101e3565b806301ffc9a7146101e857806306661abd1461022557806306fdde0314610250578063081812fc1461027b575b600080fd5b3480156101f457600080fd5b5061020f600480360381019061020a9190612f5a565b6107e3565b60405161021c9190612fa2565b60405180910390f35b34801561023157600080fd5b5061023a6108c5565b6040516102479190612fd6565b60405180910390f35b34801561025c57600080fd5b506102656108d6565b604051610272919061308a565b60405180910390f35b34801561028757600080fd5b506102a2600480360381019061029d91906130d8565b610968565b6040516102af9190613146565b60405180910390f35b3480156102c457600080fd5b506102df60048036038101906102da919061318d565b6109ae565b005b3480156102ed57600080fd5b506102f6610ac6565b6040516103039190612fd6565b60405180910390f35b34801561031857600080fd5b50610333600480360381019061032e91906131cd565b610ad3565b005b34801561034157600080fd5b5061035c6004803603810190610357919061318d565b610b33565b6040516103699190612fd6565b60405180910390f35b34801561037e57600080fd5b50610387610bd8565b6040516103949190613351565b60405180910390f35b3480156103a957600080fd5b506103c460048036038101906103bf91906131cd565b610d73565b005b3480156103d257600080fd5b506103ed60048036038101906103e891906134a8565b610d93565b6040516103fa9190612fa2565b60405180910390f35b34801561040f57600080fd5b5061042a600480360381019061042591906130d8565b610dcf565b6040516104379190612fd6565b60405180910390f35b61045a600480360381019061045591906134f1565b610e40565b005b34801561046857600080fd5b50610483600480360381019061047e91906130d8565b610f78565b6040516104909190613146565b60405180910390f35b3480156104a557600080fd5b506104c060048036038101906104bb91906130d8565b61102a565b6040516104cd9190613586565b60405180910390f35b3480156104e257600080fd5b506104fd60048036038101906104f891906135a1565b6110dc565b60405161050a9190612fd6565b60405180910390f35b34801561051f57600080fd5b50610528611194565b005b34801561053657600080fd5b50610551600480360381019061054c91906130d8565b6111a8565b005b34801561055f57600080fd5b506105686111fd565b6040516105759190613146565b60405180910390f35b34801561058a57600080fd5b50610593611227565b6040516105a0919061308a565b60405180910390f35b3480156105b557600080fd5b506105d060048036038101906105cb91906134a8565b6112b9565b6040516105dd9190612fa2565b60405180910390f35b3480156105f257600080fd5b5061060d600480360381019061060891906135fa565b6112f4565b005b34801561061b57600080fd5b50610636600480360381019061063191906136db565b61130a565b005b610652600480360381019061064d919061379c565b61136c565b005b34801561066057600080fd5b50610669611542565b6040516106769190612fd6565b60405180910390f35b34801561068b57600080fd5b506106a660048036038101906106a191906135a1565b611548565b6040516106b39190613351565b60405180910390f35b3480156106c857600080fd5b506106e360048036038101906106de91906130d8565b6116ae565b6040516106f0919061308a565b60405180910390f35b34801561070557600080fd5b5061070e6117c1565b60405161071b9190612fd6565b60405180910390f35b61073e600480360381019061073991906137dc565b6117d2565b60405161074b9190612fd6565b60405180910390f35b34801561076057600080fd5b5061077b6004803603810190610776919061384b565b6118e4565b005b34801561078957600080fd5b506107a4600480360381019061079f91906138a7565b61191d565b6040516107b19190612fa2565b60405180910390f35b3480156107c657600080fd5b506107e160048036038101906107dc91906135a1565b6119b1565b005b60007f80ac58cd000000000000000000000000000000000000000000000000000000007bffffffffffffffffffffffffffffffffffffffffffffffffffffffff1916827bffffffffffffffffffffffffffffffffffffffffffffffffffffffff191614806108ae57507f5b5e139f000000000000000000000000000000000000000000000000000000007bffffffffffffffffffffffffffffffffffffffffffffffffffffffff1916827bffffffffffffffffffffffffffffffffffffffffffffffffffffffff1916145b806108be57506108bd82611a35565b5b9050919050565b60006108d16008611a9f565b905090565b6060600080546108e590613916565b80601f016020809104026020016040519081016040528092919081815260200182805461091190613916565b801561095e5780601f106109335761010080835404028352916020019161095e565b820191906000526020600020905b81548152906001019060200180831161094157829003601f168201915b5050505050905090565b600061097382611aad565b6004600083815260200190815260200160002060009054906101000a900473ffffffffffffffffffffffffffffffffffffffff169050919050565b60006109b982610f78565b90508073ffffffffffffffffffffffffffffffffffffffff168373ffffffffffffffffffffffffffffffffffffffff161415610a2a576040517f08c379a0000000000000000000000000000000000000000000000000000000008152600401610a21906139ba565b60405180910390fd5b8073ffffffffffffffffffffffffffffffffffffffff16610a49611af8565b73ffffffffffffffffffffffffffffffffffffffff161480610a785750610a7781610a72611af8565b61191d565b5b610ab7576040517f08c379a0000000000000000000000000000000000000000000000000000000008152600401610aae90613a4c565b60405180910390fd5b610ac18383611b00565b505050565b6000601180549050905090565b610ae4610ade611af8565b82611bb9565b610b23576040517f08c379a0000000000000000000000000000000000000000000000000000000008152600401610b1a90613ade565b60405180910390fd5b610b2e838383611c4e565b505050565b6000610b3e836110dc565b8210610b7f576040517f08c379a0000000000000000000000000000000000000000000000000000000008152600401610b7690613b4a565b60405180910390fd5b600f60008473ffffffffffffffffffffffffffffffffffffffff1673ffffffffffffffffffffffffffffffffffffffff168152602001908152602001600020600083815260200190815260200160002054905092915050565b60606000610be4610ac6565b9050600080610bf3600b611a9f565b67ffffffffffffffff811115610c0c57610c0b61337d565b5b604051908082528060200260200182016040528015610c4557816020015b610c32612e0b565b815260200190600190039081610c2a5790505b50905060005b83811015610d69576000610c5e82610dcf565b90506000600e60008381526020019081526020016000209050600115158160020160149054906101000a900460ff1615151415610d54578060405180608001604052908160008201548152602001600182015481526020016002820160009054906101000a900473ffffffffffffffffffffffffffffffffffffffff1673ffffffffffffffffffffffffffffffffffffffff1673ffffffffffffffffffffffffffffffffffffffff1681526020016002820160149054906101000a900460ff161515151581525050848681518110610d3957610d38613b6a565b5b6020026020010181905250600185610d519190613bc8565b94505b50508080610d6190613c1e565b915050610c4b565b5080935050505090565b610d8e8383836040518060200160405280600081525061130a565b505050565b600060011515600d83604051610da99190613ca3565b908152602001604051809103902060009054906101000a900460ff161515149050919050565b6000610dd9610ac6565b8210610e1a576040517f08c379a0000000000000000000000000000000000000000000000000000000008152600401610e1190613b4a565b60405180910390fd5b60118281548110610e2e57610e2d613b6a565b5b90600052602060002001549050919050565b8073ffffffffffffffffffffffffffffffffffffffff16610e6083610f78565b73ffffffffffffffffffffffffffffffffffffffff1614610eb6576040517f08c379a0000000000000000000000000000000000000000000000000000000008152600401610ead90613d06565b60405180910390fd5b60001515600e600084815260200190815260200160002060020160149054906101000a900460ff16151514610f20576040517f08c379a0000000000000000000000000000000000000000000000000000000008152600401610f1790613d72565b60405180910390fd5b6001600e600084815260200190815260200160002060020160146101000a81548160ff02191690831515021790555034600e600084815260200190815260200160002060010181905550610f74600b611eb5565b5050565b6000806002600084815260200190815260200160002060009054906101000a900473ffffffffffffffffffffffffffffffffffffffff169050600073ffffffffffffffffffffffffffffffffffffffff168173ffffffffffffffffffffffffffffffffffffffff161415611021576040517f08c379a000000000000000000000000000000000000000000000000000000000815260040161101890613dde565b60405180910390fd5b80915050919050565b611032612e0b565b600e600083815260200190815260200160002060405180608001604052908160008201548152602001600182015481526020016002820160009054906101000a900473ffffffffffffffffffffffffffffffffffffffff1673ffffffffffffffffffffffffffffffffffffffff1673ffffffffffffffffffffffffffffffffffffffff1681526020016002820160149054906101000a900460ff1615151515815250509050919050565b60008073ffffffffffffffffffffffffffffffffffffffff168273ffffffffffffffffffffffffffffffffffffffff16141561114d576040517f08c379a000000000000000000000000000000000000000000000000000000000815260040161114490613e70565b60405180910390fd5b600360008373ffffffffffffffffffffffffffffffffffffffff1673ffffffffffffffffffffffffffffffffffffffff168152602001908152602001600020549050919050565b61119c611ecb565b6111a66000611f49565b565b6111b0611ecb565b600081116111f3576040517f08c379a00000000000000000000000000000000000000000000000000000000081526004016111ea90613edc565b60405180910390fd5b80600a8190555050565b6000600760009054906101000a900473ffffffffffffffffffffffffffffffffffffffff16905090565b60606001805461123690613916565b80601f016020809104026020016040519081016040528092919081815260200182805461126290613916565b80156112af5780601f10611284576101008083540402835291602001916112af565b820191906000526020600020905b81548152906001019060200180831161129257829003601f168201915b5050505050905090565b600060016009836040516112cd9190613ca3565b908152602001604051809103902060009054906101000a900460ff1660ff16149050919050565b6113066112ff611af8565b838361200f565b5050565b61131b611315611af8565b83611bb9565b61135a576040517f08c379a000000000000000000000000000000000000000000000000000000000815260040161135190613ade565b60405180910390fd5b6113668484848461217c565b50505050565b600061137783610f78565b90508073ffffffffffffffffffffffffffffffffffffffff168273ffffffffffffffffffffffffffffffffffffffff1614156113e8576040517f08c379a00000000000000000000000000000000000000000000000000000000081526004016113df90613f48565b60405180910390fd5b6000600e600085815260200190815260200160002060020160146101000a81548160ff021916908315150217905550600e600084815260200190815260200160002060020160009054906101000a900473ffffffffffffffffffffffffffffffffffffffff1673ffffffffffffffffffffffffffffffffffffffff166108fc349081150290604051600060405180830381858888f19350505050158015611493573d6000803e3d6000fd5b5061149f818385611c4e565b81600e600085815260200190815260200160002060020160006101000a81548173ffffffffffffffffffffffffffffffffffffffff021916908373ffffffffffffffffffffffffffffffffffffffff1602179055508073ffffffffffffffffffffffffffffffffffffffff166108fc600a549081150290604051600060405180830381858888f1935050505015801561153c573d6000803e3d6000fd5b50505050565b600a5481565b60606000611555836110dc565b905060008167ffffffffffffffff8111156115735761157261337d565b5b6040519080825280602002602001820160405280156115ac57816020015b611599612e0b565b8152602001906001900390816115915790505b50905060005b828110156116a35760006115c68683610b33565b90506000600e600083815260200190815260200160002090508060405180608001604052908160008201548152602001600182015481526020016002820160009054906101000a900473ffffffffffffffffffffffffffffffffffffffff1673ffffffffffffffffffffffffffffffffffffffff1673ffffffffffffffffffffffffffffffffffffffff1681526020016002820160149054906101000a900460ff16151515158152505084848151811061168357611682613b6a565b5b60200260200101819052505050808061169b90613c1e565b9150506115b2565b508092505050919050565b60606116b982611aad565b60006006600084815260200190815260200160002080546116d990613916565b80601f016020809104026020016040519081016040528092919081815260200182805461170590613916565b80156117525780601f1061172757610100808354040283529160200191611752565b820191906000526020600020905b81548152906001019060200180831161173557829003601f168201915b5050505050905060006117636121d8565b90506000815114156117795781925050506117bc565b6000825111156117ae578082604051602001611796929190613f68565b604051602081830303815290604052925050506117bc565b6117b7846121ef565b925050505b919050565b60006117cd600b611a9f565b905090565b60006117dd84610d93565b1561181d576040517f08c379a000000000000000000000000000000000000000000000000000000000815260040161181490613fd8565b60405180910390fd5b600a543414611861576040517f08c379a00000000000000000000000000000000000000000000000000000000081526004016118589061406a565b60405180910390fd5b61186b600c611eb5565b611875600b611eb5565b6000611881600c611a9f565b905061188d8482612257565b6118978186612275565b6118a28184866122e9565b6001600d866040516118b49190613ca3565b908152602001604051809103902060006101000a81548160ff021916908315150217905550809150509392505050565b6118ec611ecb565b60006118f86008611a9f565b90506119046008611eb5565b61190e8382612257565b6119188183612275565b505050565b6000600560008473ffffffffffffffffffffffffffffffffffffffff1673ffffffffffffffffffffffffffffffffffffffff16815260200190815260200160002060008373ffffffffffffffffffffffffffffffffffffffff1673ffffffffffffffffffffffffffffffffffffffff16815260200190815260200160002060009054906101000a900460ff16905092915050565b6119b9611ecb565b600073ffffffffffffffffffffffffffffffffffffffff168173ffffffffffffffffffffffffffffffffffffffff161415611a29576040517f08c379a0000000000000000000000000000000000000000000000000000000008152600401611a20906140fc565b60405180910390fd5b611a3281611f49565b50565b60007f01ffc9a7000000000000000000000000000000000000000000000000000000007bffffffffffffffffffffffffffffffffffffffffffffffffffffffff1916827bffffffffffffffffffffffffffffffffffffffffffffffffffffffff1916149050919050565b600081600001549050919050565b611ab68161243a565b611af5576040517f08c379a0000000000000000000000000000000000000000000000000000000008152600401611aec90613dde565b60405180910390fd5b50565b600033905090565b816004600083815260200190815260200160002060006101000a81548173ffffffffffffffffffffffffffffffffffffffff021916908373ffffffffffffffffffffffffffffffffffffffff160217905550808273ffffffffffffffffffffffffffffffffffffffff16611b7383610f78565b73ffffffffffffffffffffffffffffffffffffffff167f8c5be1e5ebec7d5bd14f71427d1e84f3dd0314c0f7b2291e5b200ac8c7c3b92560405160405180910390a45050565b600080611bc583610f78565b90508073ffffffffffffffffffffffffffffffffffffffff168473ffffffffffffffffffffffffffffffffffffffff161480611c075750611c06818561191d565b5b80611c4557508373ffffffffffffffffffffffffffffffffffffffff16611c2d84610968565b73ffffffffffffffffffffffffffffffffffffffff16145b91505092915050565b8273ffffffffffffffffffffffffffffffffffffffff16611c6e82610f78565b73ffffffffffffffffffffffffffffffffffffffff1614611cc4576040517f08c379a0000000000000000000000000000000000000000000000000000000008152600401611cbb9061418e565b60405180910390fd5b600073ffffffffffffffffffffffffffffffffffffffff168273ffffffffffffffffffffffffffffffffffffffff161415611d34576040517f08c379a0000000000000000000000000000000000000000000000000000000008152600401611d2b90614220565b60405180910390fd5b611d3f8383836124a6565b611d4a600082611b00565b6001600360008573ffffffffffffffffffffffffffffffffffffffff1673ffffffffffffffffffffffffffffffffffffffff1681526020019081526020016000206000828254611d9a9190614240565b925050819055506001600360008473ffffffffffffffffffffffffffffffffffffffff1673ffffffffffffffffffffffffffffffffffffffff1681526020019081526020016000206000828254611df19190613bc8565b92505081905550816002600083815260200190815260200160002060006101000a81548173ffffffffffffffffffffffffffffffffffffffff021916908373ffffffffffffffffffffffffffffffffffffffff160217905550808273ffffffffffffffffffffffffffffffffffffffff168473ffffffffffffffffffffffffffffffffffffffff167fddf252ad1be2c89b69c2b068fc378daa952ba7f163c4a11628f55a4df523b3ef60405160405180910390a4611eb08383836125ba565b505050565b6001816000016000828254019250508190555050565b611ed3611af8565b73ffffffffffffffffffffffffffffffffffffffff16611ef16111fd565b73ffffffffffffffffffffffffffffffffffffffff1614611f47576040517f08c379a0000000000000000000000000000000000000000000000000000000008152600401611f3e906142c0565b60405180910390fd5b565b6000600760009054906101000a900473ffffffffffffffffffffffffffffffffffffffff16905081600760006101000a81548173ffffffffffffffffffffffffffffffffffffffff021916908373ffffffffffffffffffffffffffffffffffffffff1602179055508173ffffffffffffffffffffffffffffffffffffffff168173ffffffffffffffffffffffffffffffffffffffff167f8be0079c531659141344cd1fd0a4f28419497f9722a3daafe3b4186f6b6457e060405160405180910390a35050565b8173ffffffffffffffffffffffffffffffffffffffff168373ffffffffffffffffffffffffffffffffffffffff16141561207e576040517f08c379a00000000000000000000000000000000000000000000000000000000081526004016120759061432c565b60405180910390fd5b80600560008573ffffffffffffffffffffffffffffffffffffffff1673ffffffffffffffffffffffffffffffffffffffff16815260200190815260200160002060008473ffffffffffffffffffffffffffffffffffffffff1673ffffffffffffffffffffffffffffffffffffffff16815260200190815260200160002060006101000a81548160ff0219169083151502179055508173ffffffffffffffffffffffffffffffffffffffff168373ffffffffffffffffffffffffffffffffffffffff167f17307eab39ab6107e8899845ad3d59bd9653f200f220920489ca2b5937696c318360405161216f9190612fa2565b60405180910390a3505050565b612187848484611c4e565b612193848484846125bf565b6121d2576040517f08c379a00000000000000000000000000000000000000000000000000000000081526004016121c9906143be565b60405180910390fd5b50505050565b606060405180602001604052806000815250905090565b60606121fa82611aad565b60006122046121d8565b90506000815111612224576040518060200160405280600081525061224f565b8061222e84612747565b60405160200161223f929190613f68565b6040516020818303038152906040525b915050919050565b6122718282604051806020016040528060008152506128a8565b5050565b61227e8261243a565b6122bd576040517f08c379a00000000000000000000000000000000000000000000000000000000081526004016122b490614450565b60405180910390fd5b806006600084815260200190815260200160002090805190602001906122e4929190612e4b565b505050565b6000821161232c576040517f08c379a000000000000000000000000000000000000000000000000000000000815260040161232390613edc565b60405180910390fd5b60405180608001604052808481526020018381526020018273ffffffffffffffffffffffffffffffffffffffff16815260200160011515815250600e6000858152602001908152602001600020600082015181600001556020820151816001015560408201518160020160006101000a81548173ffffffffffffffffffffffffffffffffffffffff021916908373ffffffffffffffffffffffffffffffffffffffff16021790555060608201518160020160146101000a81548160ff0219169083151502179055509050507f470031062672bc0246e132c723a729c4676710ec663a29e86c88678032daddea838383600160405161242d9493929190614470565b60405180910390a1505050565b60008073ffffffffffffffffffffffffffffffffffffffff166002600084815260200190815260200160002060009054906101000a900473ffffffffffffffffffffffffffffffffffffffff1673ffffffffffffffffffffffffffffffffffffffff1614159050919050565b6124b1838383612903565b600073ffffffffffffffffffffffffffffffffffffffff168373ffffffffffffffffffffffffffffffffffffffff1614156124f4576124ef81612908565b612533565b8173ffffffffffffffffffffffffffffffffffffffff168373ffffffffffffffffffffffffffffffffffffffff1614612532576125318382612951565b5b5b600073ffffffffffffffffffffffffffffffffffffffff168273ffffffffffffffffffffffffffffffffffffffff1614156125765761257181612abe565b6125b5565b8273ffffffffffffffffffffffffffffffffffffffff168273ffffffffffffffffffffffffffffffffffffffff16146125b4576125b38282612b8f565b5b5b505050565b505050565b60006125e08473ffffffffffffffffffffffffffffffffffffffff16612c0e565b1561273a578373ffffffffffffffffffffffffffffffffffffffff1663150b7a02612609611af8565b8786866040518563ffffffff1660e01b815260040161262b949392919061450a565b6020604051808303816000875af192505050801561266757506040513d601f19601f82011682018060405250810190612664919061456b565b60015b6126ea573d8060008114612697576040519150601f19603f3d011682016040523d82523d6000602084013e61269c565b606091505b506000815114156126e2576040517f08c379a00000000000000000000000000000000000000000000000000000000081526004016126d9906143be565b60405180910390fd5b805181602001fd5b63150b7a0260e01b7bffffffffffffffffffffffffffffffffffffffffffffffffffffffff1916817bffffffffffffffffffffffffffffffffffffffffffffffffffffffff19161491505061273f565b600190505b949350505050565b6060600082141561278f576040518060400160405280600181526020017f300000000000000000000000000000000000000000000000000000000000000081525090506128a3565b600082905060005b600082146127c15780806127aa90613c1e565b915050600a826127ba91906145c7565b9150612797565b60008167ffffffffffffffff8111156127dd576127dc61337d565b5b6040519080825280601f01601f19166020018201604052801561280f5781602001600182028036833780820191505090505b5090505b6000851461289c576001826128289190614240565b9150600a8561283791906145f8565b60306128439190613bc8565b60f81b81838151811061285957612858613b6a565b5b60200101907effffffffffffffffffffffffffffffffffffffffffffffffffffffffffffff1916908160001a905350600a8561289591906145c7565b9450612813565b8093505050505b919050565b6128b28383612c31565b6128bf60008484846125bf565b6128fe576040517f08c379a00000000000000000000000000000000000000000000000000000000081526004016128f5906143be565b60405180910390fd5b505050565b505050565b6011805490506012600083815260200190815260200160002081905550601181908060018154018082558091505060019003906000526020600020016000909190919091505550565b6000600161295e846110dc565b6129689190614240565b9050600060106000848152602001908152602001600020549050818114612a4d576000600f60008673ffffffffffffffffffffffffffffffffffffffff1673ffffffffffffffffffffffffffffffffffffffff168152602001908152602001600020600084815260200190815260200160002054905080600f60008773ffffffffffffffffffffffffffffffffffffffff1673ffffffffffffffffffffffffffffffffffffffff168152602001908152602001600020600084815260200190815260200160002081905550816010600083815260200190815260200160002081905550505b6010600084815260200190815260200160002060009055600f60008573ffffffffffffffffffffffffffffffffffffffff1673ffffffffffffffffffffffffffffffffffffffff16815260200190815260200160002060008381526020019081526020016000206000905550505050565b60006001601180549050612ad29190614240565b9050600060126000848152602001908152602001600020549050600060118381548110612b0257612b01613b6a565b5b906000526020600020015490508060118381548110612b2457612b23613b6a565b5b906000526020600020018190555081601260008381526020019081526020016000208190555060126000858152602001908152602001600020600090556011805480612b7357612b72614629565b5b6001900381819060005260206000200160009055905550505050565b6000612b9a836110dc565b905081600f60008573ffffffffffffffffffffffffffffffffffffffff1673ffffffffffffffffffffffffffffffffffffffff168152602001908152602001600020600083815260200190815260200160002081905550806010600084815260200190815260200160002081905550505050565b6000808273ffffffffffffffffffffffffffffffffffffffff163b119050919050565b600073ffffffffffffffffffffffffffffffffffffffff168273ffffffffffffffffffffffffffffffffffffffff161415612ca1576040517f08c379a0000000000000000000000000000000000000000000000000000000008152600401612c98906146a4565b60405180910390fd5b612caa8161243a565b15612cea576040517f08c379a0000000000000000000000000000000000000000000000000000000008152600401612ce190614710565b60405180910390fd5b612cf6600083836124a6565b6001600360008473ffffffffffffffffffffffffffffffffffffffff1673ffffffffffffffffffffffffffffffffffffffff1681526020019081526020016000206000828254612d469190613bc8565b92505081905550816002600083815260200190815260200160002060006101000a81548173ffffffffffffffffffffffffffffffffffffffff021916908373ffffffffffffffffffffffffffffffffffffffff160217905550808273ffffffffffffffffffffffffffffffffffffffff16600073ffffffffffffffffffffffffffffffffffffffff167fddf252ad1be2c89b69c2b068fc378daa952ba7f163c4a11628f55a4df523b3ef60405160405180910390a4612e07600083836125ba565b5050565b60405180608001604052806000815260200160008152602001600073ffffffffffffffffffffffffffffffffffffffff1681526020016000151581525090565b828054612e5790613916565b90600052602060002090601f016020900481019282612e795760008555612ec0565b82601f10612e9257805160ff1916838001178555612ec0565b82800160010185558215612ec0579182015b82811115612ebf578251825591602001919060010190612ea4565b5b509050612ecd9190612ed1565b5090565b5b80821115612eea576000816000905550600101612ed2565b5090565b6000604051905090565b600080fd5b600080fd5b60007fffffffff0000000000000000000000000000000000000000000000000000000082169050919050565b612f3781612f02565b8114612f4257600080fd5b50565b600081359050612f5481612f2e565b92915050565b600060208284031215612f7057612f6f612ef8565b5b6000612f7e84828501612f45565b91505092915050565b60008115159050919050565b612f9c81612f87565b82525050565b6000602082019050612fb76000830184612f93565b92915050565b6000819050919050565b612fd081612fbd565b82525050565b6000602082019050612feb6000830184612fc7565b92915050565b600081519050919050565b600082825260208201905092915050565b60005b8381101561302b578082015181840152602081019050613010565b8381111561303a576000848401525b50505050565b6000601f19601f8301169050919050565b600061305c82612ff1565b6130668185612ffc565b935061307681856020860161300d565b61307f81613040565b840191505092915050565b600060208201905081810360008301526130a48184613051565b905092915050565b6130b581612fbd565b81146130c057600080fd5b50565b6000813590506130d2816130ac565b92915050565b6000602082840312156130ee576130ed612ef8565b5b60006130fc848285016130c3565b91505092915050565b600073ffffffffffffffffffffffffffffffffffffffff82169050919050565b600061313082613105565b9050919050565b61314081613125565b82525050565b600060208201905061315b6000830184613137565b92915050565b61316a81613125565b811461317557600080fd5b50565b60008135905061318781613161565b92915050565b600080604083850312156131a4576131a3612ef8565b5b60006131b285828601613178565b92505060206131c3858286016130c3565b9150509250929050565b6000806000606084860312156131e6576131e5612ef8565b5b60006131f486828701613178565b935050602061320586828701613178565b9250506040613216868287016130c3565b9150509250925092565b600081519050919050565b600082825260208201905092915050565b6000819050602082019050919050565b61325581612fbd565b82525050565b61326481613125565b82525050565b61327381612f87565b82525050565b60808201600082015161328f600085018261324c565b5060208201516132a2602085018261324c565b5060408201516132b5604085018261325b565b5060608201516132c8606085018261326a565b50505050565b60006132da8383613279565b60808301905092915050565b6000602082019050919050565b60006132fe82613220565b613308818561322b565b93506133138361323c565b8060005b8381101561334457815161332b88826132ce565b9750613336836132e6565b925050600181019050613317565b5085935050505092915050565b6000602082019050818103600083015261336b81846132f3565b905092915050565b600080fd5b600080fd5b7f4e487b7100000000000000000000000000000000000000000000000000000000600052604160045260246000fd5b6133b582613040565b810181811067ffffffffffffffff821117156133d4576133d361337d565b5b80604052505050565b60006133e7612eee565b90506133f382826133ac565b919050565b600067ffffffffffffffff8211156134135761341261337d565b5b61341c82613040565b9050602081019050919050565b82818337600083830152505050565b600061344b613446846133f8565b6133dd565b90508281526020810184848401111561346757613466613378565b5b613472848285613429565b509392505050565b600082601f83011261348f5761348e613373565b5b813561349f848260208601613438565b91505092915050565b6000602082840312156134be576134bd612ef8565b5b600082013567ffffffffffffffff8111156134dc576134db612efd565b5b6134e88482850161347a565b91505092915050565b6000806040838503121561350857613507612ef8565b5b6000613516858286016130c3565b925050602061352785828601613178565b9150509250929050565b608082016000820151613547600085018261324c565b50602082015161355a602085018261324c565b50604082015161356d604085018261325b565b506060820151613580606085018261326a565b50505050565b600060808201905061359b6000830184613531565b92915050565b6000602082840312156135b7576135b6612ef8565b5b60006135c584828501613178565b91505092915050565b6135d781612f87565b81146135e257600080fd5b50565b6000813590506135f4816135ce565b92915050565b6000806040838503121561361157613610612ef8565b5b600061361f85828601613178565b9250506020613630858286016135e5565b9150509250929050565b600067ffffffffffffffff8211156136555761365461337d565b5b61365e82613040565b9050602081019050919050565b600061367e6136798461363a565b6133dd565b90508281526020810184848401111561369a57613699613378565b5b6136a5848285613429565b509392505050565b600082601f8301126136c2576136c1613373565b5b81356136d284826020860161366b565b91505092915050565b600080600080608085870312156136f5576136f4612ef8565b5b600061370387828801613178565b945050602061371487828801613178565b9350506040613725878288016130c3565b925050606085013567ffffffffffffffff81111561374657613745612efd565b5b613752878288016136ad565b91505092959194509250565b600061376982613105565b9050919050565b6137798161375e565b811461378457600080fd5b50565b60008135905061379681613770565b92915050565b600080604083850312156137b3576137b2612ef8565b5b60006137c1858286016130c3565b92505060206137d285828601613787565b9150509250929050565b6000806000606084860312156137f5576137f4612ef8565b5b600084013567ffffffffffffffff81111561381357613812612efd565b5b61381f8682870161347a565b935050602061383086828701613178565b9250506040613841868287016130c3565b9150509250925092565b6000806040838503121561386257613861612ef8565b5b600061387085828601613178565b925050602083013567ffffffffffffffff81111561389157613890612efd565b5b61389d8582860161347a565b9150509250929050565b600080604083850312156138be576138bd612ef8565b5b60006138cc85828601613178565b92505060206138dd85828601613178565b9150509250929050565b7f4e487b7100000000000000000000000000000000000000000000000000000000600052602260045260246000fd5b6000600282049050600182168061392e57607f821691505b60208210811415613942576139416138e7565b5b50919050565b7f4552433732313a20617070726f76616c20746f2063757272656e74206f776e6560008201527f7200000000000000000000000000000000000000000000000000000000000000602082015250565b60006139a4602183612ffc565b91506139af82613948565b604082019050919050565b600060208201905081810360008301526139d381613997565b9050919050565b7f4552433732313a20617070726f76652063616c6c6572206973206e6f7420746f60008201527f6b656e206f776e6572206e6f7220617070726f76656420666f7220616c6c0000602082015250565b6000613a36603e83612ffc565b9150613a41826139da565b604082019050919050565b60006020820190508181036000830152613a6581613a29565b9050919050565b7f4552433732313a2063616c6c6572206973206e6f7420746f6b656e206f776e6560008201527f72206e6f7220617070726f766564000000000000000000000000000000000000602082015250565b6000613ac8602e83612ffc565b9150613ad382613a6c565b604082019050919050565b60006020820190508181036000830152613af781613abb565b9050919050565b7f496e646578206f7574206f6620626f756e647300000000000000000000000000600082015250565b6000613b34601383612ffc565b9150613b3f82613afe565b602082019050919050565b60006020820190508181036000830152613b6381613b27565b9050919050565b7f4e487b7100000000000000000000000000000000000000000000000000000000600052603260045260246000fd5b7f4e487b7100000000000000000000000000000000000000000000000000000000600052601160045260246000fd5b6000613bd382612fbd565b9150613bde83612fbd565b9250827fffffffffffffffffffffffffffffffffffffffffffffffffffffffffffffffff03821115613c1357613c12613b99565b5b828201905092915050565b6000613c2982612fbd565b91507fffffffffffffffffffffffffffffffffffffffffffffffffffffffffffffffff821415613c5c57613c5b613b99565b5b600182019050919050565b600081905092915050565b6000613c7d82612ff1565b613c878185613c67565b9350613c9781856020860161300d565b80840191505092915050565b6000613caf8284613c72565b915081905092915050565b7f596f7520617265206e6f74206f776e6572206f662074686973206e6674000000600082015250565b6000613cf0601d83612ffc565b9150613cfb82613cba565b602082019050919050565b60006020820190508181036000830152613d1f81613ce3565b9050919050565b7f4974656d20697320616c7265616479206f6e2073616c65000000000000000000600082015250565b6000613d5c601783612ffc565b9150613d6782613d26565b602082019050919050565b60006020820190508181036000830152613d8b81613d4f565b9050919050565b7f4552433732313a20696e76616c696420746f6b656e2049440000000000000000600082015250565b6000613dc8601883612ffc565b9150613dd382613d92565b602082019050919050565b60006020820190508181036000830152613df781613dbb565b9050919050565b7f4552433732313a2061646472657373207a65726f206973206e6f74206120766160008201527f6c6964206f776e65720000000000000000000000000000000000000000000000602082015250565b6000613e5a602983612ffc565b9150613e6582613dfe565b604082019050919050565b60006020820190508181036000830152613e8981613e4d565b9050919050565b7f5072696365206d757374206265206174206c6561737420312077656900000000600082015250565b6000613ec6601c83612ffc565b9150613ed182613e90565b602082019050919050565b60006020820190508181036000830152613ef581613eb9565b9050919050565b7f596f7520616c7265616479206f776e2074686973204e46540000000000000000600082015250565b6000613f32601883612ffc565b9150613f3d82613efc565b602082019050919050565b60006020820190508181036000830152613f6181613f25565b9050919050565b6000613f748285613c72565b9150613f808284613c72565b91508190509392505050565b7f546f6b656e2055524920616c7265616479206578697374730000000000000000600082015250565b6000613fc2601883612ffc565b9150613fcd82613f8c565b602082019050919050565b60006020820190508181036000830152613ff181613fb5565b9050919050565b7f5072696365206d75737420626520657175616c20746f206c697374696e67207060008201527f7269636500000000000000000000000000000000000000000000000000000000602082015250565b6000614054602483612ffc565b915061405f82613ff8565b604082019050919050565b6000602082019050818103600083015261408381614047565b9050919050565b7f4f776e61626c653a206e6577206f776e657220697320746865207a65726f206160008201527f6464726573730000000000000000000000000000000000000000000000000000602082015250565b60006140e6602683612ffc565b91506140f18261408a565b604082019050919050565b60006020820190508181036000830152614115816140d9565b9050919050565b7f4552433732313a207472616e736665722066726f6d20696e636f72726563742060008201527f6f776e6572000000000000000000000000000000000000000000000000000000602082015250565b6000614178602583612ffc565b91506141838261411c565b604082019050919050565b600060208201905081810360008301526141a78161416b565b9050919050565b7f4552433732313a207472616e7366657220746f20746865207a65726f2061646460008201527f7265737300000000000000000000000000000000000000000000000000000000602082015250565b600061420a602483612ffc565b9150614215826141ae565b604082019050919050565b60006020820190508181036000830152614239816141fd565b9050919050565b600061424b82612fbd565b915061425683612fbd565b92508282101561426957614268613b99565b5b828203905092915050565b7f4f776e61626c653a2063616c6c6572206973206e6f7420746865206f776e6572600082015250565b60006142aa602083612ffc565b91506142b582614274565b602082019050919050565b600060208201905081810360008301526142d98161429d565b9050919050565b7f4552433732313a20617070726f766520746f2063616c6c657200000000000000600082015250565b6000614316601983612ffc565b9150614321826142e0565b602082019050919050565b6000602082019050818103600083015261434581614309565b9050919050565b7f4552433732313a207472616e7366657220746f206e6f6e20455243373231526560008201527f63656976657220696d706c656d656e7465720000000000000000000000000000602082015250565b60006143a8603283612ffc565b91506143b38261434c565b604082019050919050565b600060208201905081810360008301526143d78161439b565b9050919050565b7f45524337323155524953746f726167653a2055524920736574206f66206e6f6e60008201527f6578697374656e7420746f6b656e000000000000000000000000000000000000602082015250565b600061443a602e83612ffc565b9150614445826143de565b604082019050919050565b600060208201905081810360008301526144698161442d565b9050919050565b60006080820190506144856000830187612fc7565b6144926020830186612fc7565b61449f6040830185613137565b6144ac6060830184612f93565b95945050505050565b600081519050919050565b600082825260208201905092915050565b60006144dc826144b5565b6144e681856144c0565b93506144f681856020860161300d565b6144ff81613040565b840191505092915050565b600060808201905061451f6000830187613137565b61452c6020830186613137565b6145396040830185612fc7565b818103606083015261454b81846144d1565b905095945050505050565b60008151905061456581612f2e565b92915050565b60006020828403121561458157614580612ef8565b5b600061458f84828501614556565b91505092915050565b7f4e487b7100000000000000000000000000000000000000000000000000000000600052601260045260246000fd5b60006145d282612fbd565b91506145dd83612fbd565b9250826145ed576145ec614598565b5b828204905092915050565b600061460382612fbd565b915061460e83612fbd565b92508261461e5761461d614598565b5b828206905092915050565b7f4e487b7100000000000000000000000000000000000000000000000000000000600052603160045260246000fd5b7f4552433732313a206d696e7420746f20746865207a65726f2061646472657373600082015250565b600061468e602083612ffc565b915061469982614658565b602082019050919050565b600060208201905081810360008301526146bd81614681565b9050919050565b7f4552433732313a20746f6b656e20616c7265616479206d696e74656400000000600082015250565b60006146fa601c83612ffc565b9150614705826146c4565b602082019050919050565b60006020820190508181036000830152614729816146ed565b905091905056fea26469706673582212204a34beeb6e9fceecf38ed2323283af8f484c0cb14b482b0f5040fd489f6a04f064736f6c634300080b0033",
  "immutableReferences": {},
  "source": "// SPDX-License-Identifier: MIT\npragma solidity >=0.4.22 <0.9.0;\n\nimport \"../node_modules/@openzeppelin/contracts/token/ERC721/ERC721.sol\";\nimport \"../node_modules/@openzeppelin/contracts/token/ERC721/extensions/ERC721URIStorage.sol\";\nimport \"../node_modules/@openzeppelin/contracts/access/Ownable.sol\";\nimport \"../node_modules/@openzeppelin/contracts/utils/Counters.sol\";\n\ncontract NftMarket is ERC721URIStorage, Ownable {\n    using Counters for Counters.Counter;\n\n    Counters.Counter private _tokenIdCounter;\n\n    mapping(string => uint8) existingURIs;\n\n    struct NftItem {\n        uint256 tokenId;\n        uint256 price;\n        address creator;\n        bool isListed;\n    }\n\n    uint256 public listingPrice = 0.025 ether;\n\n    Counters.Counter private _listedItems;\n    Counters.Counter private _tokenIds;\n\n    mapping(string => bool) private _usedTokenURIs;\n    mapping(uint256 => NftItem) private _idToNftItem;\n\n    mapping(address => mapping(uint256 => uint256)) private _ownedTokens;\n    mapping(uint256 => uint256) private _idToOwnedIndex;\n\n    uint256[] private _allNfts;\n    mapping(uint256 => uint256) private _idToNftIndex;\n\n    event NftItemCreated(\n        uint256 tokenId,\n        uint256 price,\n        address creator,\n        bool isListed\n    );\n\n    constructor() ERC721(\"AnchorNft\", \"ANCHOR\") {}\n\n    // function _baseURI() internal pure override returns (string memory) {\n    //     return \"ipfs://\";\n    // }\n\n    function safeMint(address to, string memory uri) public onlyOwner {\n        uint256 tokenId = _tokenIdCounter.current();\n        _tokenIdCounter.increment();\n        _safeMint(to, tokenId);\n        _setTokenURI(tokenId, uri);\n    }\n\n    function setListingPrice(uint256 newPrice) external onlyOwner {\n        require(newPrice > 0, \"Price must be at least 1 wei\");\n        listingPrice = newPrice;\n    }\n\n    function getNftItem(uint256 tokenId) public view returns (NftItem memory) {\n        return _idToNftItem[tokenId];\n    }\n\n    function listedItemsCount() public view returns (uint256) {\n        return _listedItems.current();\n    }\n\n    function tokenURIExists(string memory tokenURI) public view returns (bool) {\n        return _usedTokenURIs[tokenURI] == true;\n    }\n\n    function totalSupply() public view returns (uint256) {\n        return _allNfts.length;\n    }\n\n    function tokenByIndex(uint256 index) public view returns (uint256) {\n        require(index < totalSupply(), \"Index out of bounds\");\n        return _allNfts[index];\n    }\n\n    function tokenOfOwnerByIndex(address owner, uint256 index)\n        public\n        view\n        returns (uint256)\n    {\n        require(index < ERC721.balanceOf(owner), \"Index out of bounds\");\n        return _ownedTokens[owner][index];\n    }\n\n    function getAllNftsOnSale() public view returns (NftItem[] memory) {\n        uint256 allItemsCounts = totalSupply();\n        uint256 currentIndex = 0;\n        NftItem[] memory items = new NftItem[](_listedItems.current());\n\n        for (uint256 i = 0; i < allItemsCounts; i++) {\n            uint256 tokenId = tokenByIndex(i);\n            NftItem storage item = _idToNftItem[tokenId];\n\n            if (item.isListed == true) {\n                items[currentIndex] = item;\n                currentIndex += 1;\n            }\n        }\n\n        return items;\n    }\n\n    function getOwnedNfts(address account)\n        public\n        view\n        returns (NftItem[] memory)\n    {\n        uint256 ownedItemsCount = ERC721.balanceOf(account);\n        // uint256 ownedItemsCount = ERC721.balanceOf(msg.sender);\n        NftItem[] memory items = new NftItem[](ownedItemsCount);\n\n        for (uint256 i = 0; i < ownedItemsCount; i++) {\n            uint256 tokenId = tokenOfOwnerByIndex(account, i);\n            // uint256 tokenId = tokenOfOwnerByIndex(msg.sender, i);\n            NftItem storage item = _idToNftItem[tokenId];\n            items[i] = item;\n        }\n\n        return items;\n    }\n\n    function mintToken(\n        string memory tokenURI,\n        address account,\n        uint256 price\n    ) public payable returns (uint256) {\n        require(!tokenURIExists(tokenURI), \"Token URI already exists\");\n        require(\n            msg.value == listingPrice,\n            \"Price must be equal to listing price\"\n        );\n\n        _tokenIds.increment();\n        _listedItems.increment();\n\n        uint256 newTokenId = _tokenIds.current();\n\n        _safeMint(account, newTokenId);\n        // _safeMint(msg.sender, newTokenId);\n        _setTokenURI(newTokenId, tokenURI);\n        _createNftItem(newTokenId, price, account);\n        _usedTokenURIs[tokenURI] = true;\n\n        return newTokenId;\n    }\n\n    function buyNft(uint256 tokenId, address payable _to) public payable {\n        address owner = ERC721.ownerOf(tokenId);\n        // uint256 price = _idToNftItem[tokenId].price;\n\n        require(_to != owner, \"You already own this NFT\");\n        // require(msg.sender != owner, \"You already own this NFT\");\n        // require(msg.value == price, \"Please submit the asking price\");\n\n        _idToNftItem[tokenId].isListed = false;\n        // _listedItems.decrement();\n        payable(_idToNftItem[tokenId].creator).transfer(msg.value);\n\n        _transfer(owner, _to, tokenId);\n        _idToNftItem[tokenId].creator = payable(_to);\n        // _transfer(owner, msg.sender, tokenId);\n        // payable(owner).transfer(_idToNftItem[tokenId].price);\n\n        // payable(owner).transfer(msg.value);\n        payable(owner).transfer(listingPrice);\n    }\n\n    function placeNftOnSale(uint256 tokenId, address account) public payable {\n        require(\n            ERC721.ownerOf(tokenId) == account,\n            \"You are not owner of this nft\"\n        );\n        // require(\n        //     ERC721.ownerOf(tokenId) == msg.sender,\n        //     \"You are not owner of this nft\"\n        // );\n        require(\n            _idToNftItem[tokenId].isListed == false,\n            \"Item is already on sale\"\n        );\n        // require(\n        //     msg.value == listingPrice,\n        //     \"Price must be equal to listing price\"\n        // );\n\n        _idToNftItem[tokenId].isListed = true;\n        _idToNftItem[tokenId].price = msg.value;\n        _listedItems.increment();\n    }\n\n    function _createNftItem(\n        uint256 tokenId,\n        uint256 price,\n        address account\n    ) private {\n        require(price > 0, \"Price must be at least 1 wei\");\n\n        _idToNftItem[tokenId] = NftItem(tokenId, price, account, true);\n\n        emit NftItemCreated(tokenId, price, account, true);\n    }\n\n    function _beforeTokenTransfer(\n        address from,\n        address to,\n        uint256 tokenId\n    ) internal virtual override {\n        super._beforeTokenTransfer(from, to, tokenId);\n\n        if (from == address(0)) {\n            _addTokenToAllTokensEnumeration(tokenId);\n        } else if (from != to) {\n            _removeTokenFromOwnerEnumeration(from, tokenId);\n        }\n\n        if (to == address(0)) {\n            _removeTokenFromAllTokensEnumeration(tokenId);\n        } else if (to != from) {\n            _addTokenToOwnerEnumeration(to, tokenId);\n        }\n    }\n\n    function _addTokenToAllTokensEnumeration(uint256 tokenId) private {\n        _idToNftIndex[tokenId] = _allNfts.length;\n        _allNfts.push(tokenId);\n    }\n\n    function _addTokenToOwnerEnumeration(address to, uint256 tokenId) private {\n        uint256 length = ERC721.balanceOf(to);\n        _ownedTokens[to][length] = tokenId;\n        _idToOwnedIndex[tokenId] = length;\n    }\n\n    function _removeTokenFromOwnerEnumeration(address from, uint256 tokenId)\n        private\n    {\n        uint256 lastTokenIndex = ERC721.balanceOf(from) - 1;\n        uint256 tokenIndex = _idToOwnedIndex[tokenId];\n\n        if (tokenIndex != lastTokenIndex) {\n            uint256 lastTokenId = _ownedTokens[from][lastTokenIndex];\n\n            _ownedTokens[from][tokenIndex] = lastTokenId;\n            _idToOwnedIndex[lastTokenId] = tokenIndex;\n        }\n\n        delete _idToOwnedIndex[tokenId];\n        delete _ownedTokens[from][lastTokenIndex];\n    }\n\n    function _removeTokenFromAllTokensEnumeration(uint256 tokenId) private {\n        uint256 lastTokenIndex = _allNfts.length - 1;\n        uint256 tokenIndex = _idToNftIndex[tokenId];\n        uint256 lastTokenId = _allNfts[lastTokenIndex];\n\n        _allNfts[tokenIndex] = lastTokenId;\n        _idToNftIndex[lastTokenId] = tokenIndex;\n\n        delete _idToNftIndex[tokenId];\n        _allNfts.pop();\n    }\n\n    // The following functions are overrides required by Solidity.\n\n    // function _burn(uint256 tokenId)\n    //     internal\n    //     override(ERC721, ERC721URIStorage)\n    // {\n    //     super._burn(tokenId);\n    // }\n\n    // function tokenURI(uint256 tokenId)\n    //     public\n    //     view\n    //     override(ERC721, ERC721URIStorage)\n    //     returns (string memory)\n    // {\n    //     return super.tokenURI(tokenId);\n    // }\n\n    function isContentOwned(string memory uri) public view returns (bool) {\n        return existingURIs[uri] == 1;\n    }\n\n    // function payToMint(address recepient, string memory metadataURI)\n    //     public\n    //     payable\n    //     returns (uint256)\n    // {\n    //     require(existingURIs[metadataURI] != 0, \"NFT already minted!\");\n    //     require(msg.value >= 0.025 ether, \"Need to pay up!\");\n    //     uint256 newItemId = _tokenIdCounter.current();\n    //     _tokenIdCounter.increment();\n    //     existingURIs[metadataURI] = 1;\n\n    //     _mint(recepient, newItemId);\n    //     _setTokenURI(newItemId, metadataURI);\n\n    //     return newItemId;\n    // }\n\n    function count() public view returns (uint256) {\n        return _tokenIdCounter.current();\n    }\n}\n",
  "sourcePath": "/home/eraj/Documents/OFFICE/Blockchain Project/NFT/Indicium/truffle/contracts/NftMarket.sol",
  "compiler": {
    "name": "solc",
    "version": "0.8.11+commit.d7f03943.Emscripten.clang"
  },
  "schemaVersion": "3.4.8",
  "updatedAt": "2022-08-28T05:00:22.103Z",
  "networkType": "ethereum",
  "devdoc": {
    "kind": "dev",
    "methods": {
      "approve(address,uint256)": {
        "details": "See {IERC721-approve}."
      },
      "balanceOf(address)": {
        "details": "See {IERC721-balanceOf}."
      },
      "getApproved(uint256)": {
        "details": "See {IERC721-getApproved}."
      },
      "isApprovedForAll(address,address)": {
        "details": "See {IERC721-isApprovedForAll}."
      },
      "name()": {
        "details": "See {IERC721Metadata-name}."
      },
      "owner()": {
        "details": "Returns the address of the current owner."
      },
      "ownerOf(uint256)": {
        "details": "See {IERC721-ownerOf}."
      },
      "renounceOwnership()": {
        "details": "Leaves the contract without owner. It will not be possible to call `onlyOwner` functions anymore. Can only be called by the current owner. NOTE: Renouncing ownership will leave the contract without an owner, thereby removing any functionality that is only available to the owner."
      },
      "safeTransferFrom(address,address,uint256)": {
        "details": "See {IERC721-safeTransferFrom}."
      },
      "safeTransferFrom(address,address,uint256,bytes)": {
        "details": "See {IERC721-safeTransferFrom}."
      },
      "setApprovalForAll(address,bool)": {
        "details": "See {IERC721-setApprovalForAll}."
      },
      "supportsInterface(bytes4)": {
        "details": "See {IERC165-supportsInterface}."
      },
      "symbol()": {
        "details": "See {IERC721Metadata-symbol}."
      },
      "tokenURI(uint256)": {
        "details": "See {IERC721Metadata-tokenURI}."
      },
      "transferFrom(address,address,uint256)": {
        "details": "See {IERC721-transferFrom}."
      },
      "transferOwnership(address)": {
        "details": "Transfers ownership of the contract to a new account (`newOwner`). Can only be called by the current owner."
      }
    },
    "version": 1
  },
  "userdoc": {
    "kind": "user",
    "methods": {},
    "version": 1
  }
}