{
  "contractName": "NftMarket",
  "abi": [
    {
      "inputs": [],
      "stateMutability": "nonpayable",
      "type": "constructor"
    },
    {
      "anonymous": false,
      "inputs": [
        {
          "indexed": true,
          "internalType": "address",
          "name": "owner",
          "type": "address"
        },
        {
          "indexed": true,
          "internalType": "address",
          "name": "approved",
          "type": "address"
        },
        {
          "indexed": true,
          "internalType": "uint256",
          "name": "tokenId",
          "type": "uint256"
        }
      ],
      "name": "Approval",
      "type": "event"
    },
    {
      "anonymous": false,
      "inputs": [
        {
          "indexed": true,
          "internalType": "address",
          "name": "owner",
          "type": "address"
        },
        {
          "indexed": true,
          "internalType": "address",
          "name": "operator",
          "type": "address"
        },
        {
          "indexed": false,
          "internalType": "bool",
          "name": "approved",
          "type": "bool"
        }
      ],
      "name": "ApprovalForAll",
      "type": "event"
    },
    {
      "anonymous": false,
      "inputs": [
        {
          "indexed": false,
          "internalType": "uint256",
          "name": "tokenId",
          "type": "uint256"
        },
        {
          "indexed": false,
          "internalType": "uint256",
          "name": "price",
          "type": "uint256"
        },
        {
          "indexed": false,
          "internalType": "address",
          "name": "creator",
          "type": "address"
        },
        {
          "indexed": false,
          "internalType": "bool",
          "name": "isListed",
          "type": "bool"
        }
      ],
      "name": "NftItemCreated",
      "type": "event"
    },
    {
      "anonymous": false,
      "inputs": [
        {
          "indexed": true,
          "internalType": "address",
          "name": "previousOwner",
          "type": "address"
        },
        {
          "indexed": true,
          "internalType": "address",
          "name": "newOwner",
          "type": "address"
        }
      ],
      "name": "OwnershipTransferred",
      "type": "event"
    },
    {
      "anonymous": false,
      "inputs": [
        {
          "indexed": true,
          "internalType": "address",
          "name": "from",
          "type": "address"
        },
        {
          "indexed": true,
          "internalType": "address",
          "name": "to",
          "type": "address"
        },
        {
          "indexed": true,
          "internalType": "uint256",
          "name": "tokenId",
          "type": "uint256"
        }
      ],
      "name": "Transfer",
      "type": "event"
    },
    {
      "inputs": [
        {
          "internalType": "address",
          "name": "to",
          "type": "address"
        },
        {
          "internalType": "uint256",
          "name": "tokenId",
          "type": "uint256"
        }
      ],
      "name": "approve",
      "outputs": [],
      "stateMutability": "nonpayable",
      "type": "function"
    },
    {
      "inputs": [
        {
          "internalType": "address",
          "name": "owner",
          "type": "address"
        }
      ],
      "name": "balanceOf",
      "outputs": [
        {
          "internalType": "uint256",
          "name": "",
          "type": "uint256"
        }
      ],
      "stateMutability": "view",
      "type": "function",
      "constant": true
    },
    {
      "inputs": [
        {
          "internalType": "uint256",
          "name": "tokenId",
          "type": "uint256"
        }
      ],
      "name": "getApproved",
      "outputs": [
        {
          "internalType": "address",
          "name": "",
          "type": "address"
        }
      ],
      "stateMutability": "view",
      "type": "function",
      "constant": true
    },
    {
      "inputs": [
        {
          "internalType": "address",
          "name": "owner",
          "type": "address"
        },
        {
          "internalType": "address",
          "name": "operator",
          "type": "address"
        }
      ],
      "name": "isApprovedForAll",
      "outputs": [
        {
          "internalType": "bool",
          "name": "",
          "type": "bool"
        }
      ],
      "stateMutability": "view",
      "type": "function",
      "constant": true
    },
    {
      "inputs": [],
      "name": "listingPrice",
      "outputs": [
        {
          "internalType": "uint256",
          "name": "",
          "type": "uint256"
        }
      ],
      "stateMutability": "view",
      "type": "function",
      "constant": true
    },
    {
      "inputs": [],
      "name": "name",
      "outputs": [
        {
          "internalType": "string",
          "name": "",
          "type": "string"
        }
      ],
      "stateMutability": "view",
      "type": "function",
      "constant": true
    },
    {
      "inputs": [],
      "name": "owner",
      "outputs": [
        {
          "internalType": "address",
          "name": "",
          "type": "address"
        }
      ],
      "stateMutability": "view",
      "type": "function",
      "constant": true
    },
    {
      "inputs": [
        {
          "internalType": "uint256",
          "name": "tokenId",
          "type": "uint256"
        }
      ],
      "name": "ownerOf",
      "outputs": [
        {
          "internalType": "address",
          "name": "",
          "type": "address"
        }
      ],
      "stateMutability": "view",
      "type": "function",
      "constant": true
    },
    {
      "inputs": [],
      "name": "renounceOwnership",
      "outputs": [],
      "stateMutability": "nonpayable",
      "type": "function"
    },
    {
      "inputs": [
        {
          "internalType": "address",
          "name": "from",
          "type": "address"
        },
        {
          "internalType": "address",
          "name": "to",
          "type": "address"
        },
        {
          "internalType": "uint256",
          "name": "tokenId",
          "type": "uint256"
        }
      ],
      "name": "safeTransferFrom",
      "outputs": [],
      "stateMutability": "nonpayable",
      "type": "function"
    },
    {
      "inputs": [
        {
          "internalType": "address",
          "name": "from",
          "type": "address"
        },
        {
          "internalType": "address",
          "name": "to",
          "type": "address"
        },
        {
          "internalType": "uint256",
          "name": "tokenId",
          "type": "uint256"
        },
        {
          "internalType": "bytes",
          "name": "data",
          "type": "bytes"
        }
      ],
      "name": "safeTransferFrom",
      "outputs": [],
      "stateMutability": "nonpayable",
      "type": "function"
    },
    {
      "inputs": [
        {
          "internalType": "address",
          "name": "operator",
          "type": "address"
        },
        {
          "internalType": "bool",
          "name": "approved",
          "type": "bool"
        }
      ],
      "name": "setApprovalForAll",
      "outputs": [],
      "stateMutability": "nonpayable",
      "type": "function"
    },
    {
      "inputs": [
        {
          "internalType": "bytes4",
          "name": "interfaceId",
          "type": "bytes4"
        }
      ],
      "name": "supportsInterface",
      "outputs": [
        {
          "internalType": "bool",
          "name": "",
          "type": "bool"
        }
      ],
      "stateMutability": "view",
      "type": "function",
      "constant": true
    },
    {
      "inputs": [],
      "name": "symbol",
      "outputs": [
        {
          "internalType": "string",
          "name": "",
          "type": "string"
        }
      ],
      "stateMutability": "view",
      "type": "function",
      "constant": true
    },
    {
      "inputs": [
        {
          "internalType": "address",
          "name": "from",
          "type": "address"
        },
        {
          "internalType": "address",
          "name": "to",
          "type": "address"
        },
        {
          "internalType": "uint256",
          "name": "tokenId",
          "type": "uint256"
        }
      ],
      "name": "transferFrom",
      "outputs": [],
      "stateMutability": "nonpayable",
      "type": "function"
    },
    {
      "inputs": [
        {
          "internalType": "address",
          "name": "newOwner",
          "type": "address"
        }
      ],
      "name": "transferOwnership",
      "outputs": [],
      "stateMutability": "nonpayable",
      "type": "function"
    },
    {
      "inputs": [
        {
          "internalType": "address",
          "name": "to",
          "type": "address"
        },
        {
          "internalType": "string",
          "name": "uri",
          "type": "string"
        }
      ],
      "name": "safeMint",
      "outputs": [],
      "stateMutability": "nonpayable",
      "type": "function"
    },
    {
      "inputs": [
        {
          "internalType": "uint256",
          "name": "newPrice",
          "type": "uint256"
        }
      ],
      "name": "setListingPrice",
      "outputs": [],
      "stateMutability": "nonpayable",
      "type": "function"
    },
    {
      "inputs": [
        {
          "internalType": "uint256",
          "name": "tokenId",
          "type": "uint256"
        }
      ],
      "name": "getNftItem",
      "outputs": [
        {
          "components": [
            {
              "internalType": "uint256",
              "name": "tokenId",
              "type": "uint256"
            },
            {
              "internalType": "uint256",
              "name": "price",
              "type": "uint256"
            },
            {
              "internalType": "address",
              "name": "creator",
              "type": "address"
            },
            {
              "internalType": "bool",
              "name": "isListed",
              "type": "bool"
            }
          ],
          "internalType": "struct NftMarket.NftItem",
          "name": "",
          "type": "tuple"
        }
      ],
      "stateMutability": "view",
      "type": "function",
      "constant": true
    },
    {
      "inputs": [],
      "name": "listedItemsCount",
      "outputs": [
        {
          "internalType": "uint256",
          "name": "",
          "type": "uint256"
        }
      ],
      "stateMutability": "view",
      "type": "function",
      "constant": true
    },
    {
      "inputs": [
        {
          "internalType": "string",
          "name": "tokenURI",
          "type": "string"
        }
      ],
      "name": "tokenURIExists",
      "outputs": [
        {
          "internalType": "bool",
          "name": "",
          "type": "bool"
        }
      ],
      "stateMutability": "view",
      "type": "function",
      "constant": true
    },
    {
      "inputs": [],
      "name": "totalSupply",
      "outputs": [
        {
          "internalType": "uint256",
          "name": "",
          "type": "uint256"
        }
      ],
      "stateMutability": "view",
      "type": "function",
      "constant": true
    },
    {
      "inputs": [
        {
          "internalType": "uint256",
          "name": "index",
          "type": "uint256"
        }
      ],
      "name": "tokenByIndex",
      "outputs": [
        {
          "internalType": "uint256",
          "name": "",
          "type": "uint256"
        }
      ],
      "stateMutability": "view",
      "type": "function",
      "constant": true
    },
    {
      "inputs": [
        {
          "internalType": "address",
          "name": "owner",
          "type": "address"
        },
        {
          "internalType": "uint256",
          "name": "index",
          "type": "uint256"
        }
      ],
      "name": "tokenOfOwnerByIndex",
      "outputs": [
        {
          "internalType": "uint256",
          "name": "",
          "type": "uint256"
        }
      ],
      "stateMutability": "view",
      "type": "function",
      "constant": true
    },
    {
      "inputs": [],
      "name": "getAllNftsOnSale",
      "outputs": [
        {
          "components": [
            {
              "internalType": "uint256",
              "name": "tokenId",
              "type": "uint256"
            },
            {
              "internalType": "uint256",
              "name": "price",
              "type": "uint256"
            },
            {
              "internalType": "address",
              "name": "creator",
              "type": "address"
            },
            {
              "internalType": "bool",
              "name": "isListed",
              "type": "bool"
            }
          ],
          "internalType": "struct NftMarket.NftItem[]",
          "name": "",
          "type": "tuple[]"
        }
      ],
      "stateMutability": "view",
      "type": "function",
      "constant": true
    },
    {
      "inputs": [],
      "name": "getOwnedNfts",
      "outputs": [
        {
          "components": [
            {
              "internalType": "uint256",
              "name": "tokenId",
              "type": "uint256"
            },
            {
              "internalType": "uint256",
              "name": "price",
              "type": "uint256"
            },
            {
              "internalType": "address",
              "name": "creator",
              "type": "address"
            },
            {
              "internalType": "bool",
              "name": "isListed",
              "type": "bool"
            }
          ],
          "internalType": "struct NftMarket.NftItem[]",
          "name": "",
          "type": "tuple[]"
        }
      ],
      "stateMutability": "view",
      "type": "function",
      "constant": true
    },
    {
      "inputs": [
        {
          "internalType": "string",
          "name": "tokenURI",
          "type": "string"
        },
        {
          "internalType": "uint256",
          "name": "price",
          "type": "uint256"
        }
      ],
      "name": "mintToken",
      "outputs": [
        {
          "internalType": "uint256",
          "name": "",
          "type": "uint256"
        }
      ],
      "stateMutability": "payable",
      "type": "function",
      "payable": true
    },
    {
      "inputs": [
        {
          "internalType": "uint256",
          "name": "tokenId",
          "type": "uint256"
        }
      ],
      "name": "buyNft",
      "outputs": [],
      "stateMutability": "payable",
      "type": "function",
      "payable": true
    },
    {
      "inputs": [
        {
          "internalType": "uint256",
          "name": "tokenId",
          "type": "uint256"
        },
        {
          "internalType": "uint256",
          "name": "newPrice",
          "type": "uint256"
        }
      ],
      "name": "placeNftOnSale",
      "outputs": [],
      "stateMutability": "payable",
      "type": "function",
      "payable": true
    },
    {
      "inputs": [
        {
          "internalType": "uint256",
          "name": "tokenId",
          "type": "uint256"
        }
      ],
      "name": "tokenURI",
      "outputs": [
        {
          "internalType": "string",
          "name": "",
          "type": "string"
        }
      ],
      "stateMutability": "view",
      "type": "function",
      "constant": true
    },
    {
      "inputs": [
        {
          "internalType": "string",
          "name": "uri",
          "type": "string"
        }
      ],
      "name": "isContentOwned",
      "outputs": [
        {
          "internalType": "bool",
          "name": "",
          "type": "bool"
        }
      ],
      "stateMutability": "view",
      "type": "function",
      "constant": true
    },
    {
      "inputs": [
        {
          "internalType": "address",
          "name": "recepient",
          "type": "address"
        },
        {
          "internalType": "string",
          "name": "metadataURI",
          "type": "string"
        }
      ],
      "name": "payToMint",
      "outputs": [
        {
          "internalType": "uint256",
          "name": "",
          "type": "uint256"
        }
      ],
      "stateMutability": "payable",
      "type": "function",
      "payable": true
    },
    {
      "inputs": [],
      "name": "count",
      "outputs": [
        {
          "internalType": "uint256",
          "name": "",
          "type": "uint256"
        }
      ],
      "stateMutability": "view",
      "type": "function",
      "constant": true
    }
  ],
  "bytecode": "0x60806040526658d15e17628000600a553480156200001c57600080fd5b506040518060400160405280600581526020017f4d794e46540000000000000000000000000000000000000000000000000000008152506040518060400160405280600481526020017f4d4e4654000000000000000000000000000000000000000000000000000000008152508160009080519060200190620000a1929190620001b1565b508060019080519060200190620000ba929190620001b1565b505050620000dd620000d1620000e360201b60201c565b620000eb60201b60201c565b620002c6565b600033905090565b6000600760009054906101000a900473ffffffffffffffffffffffffffffffffffffffff16905081600760006101000a81548173ffffffffffffffffffffffffffffffffffffffff021916908373ffffffffffffffffffffffffffffffffffffffff1602179055508173ffffffffffffffffffffffffffffffffffffffff168173ffffffffffffffffffffffffffffffffffffffff167f8be0079c531659141344cd1fd0a4f28419497f9722a3daafe3b4186f6b6457e060405160405180910390a35050565b828054620001bf9062000290565b90600052602060002090601f016020900481019282620001e357600085556200022f565b82601f10620001fe57805160ff19168380011785556200022f565b828001600101855582156200022f579182015b828111156200022e57825182559160200191906001019062000211565b5b5090506200023e919062000242565b5090565b5b808211156200025d57600081600090555060010162000243565b5090565b7f4e487b7100000000000000000000000000000000000000000000000000000000600052602260045260246000fd5b60006002820490506001821680620002a957607f821691505b60208210811415620002c057620002bf62000261565b5b50919050565b614a3f80620002d66000396000f3fe6080604052600436106101ee5760003560e01c80636f1a0af51161010d578063a22cb465116100a0578063c87b56dd1161006f578063c87b56dd14610715578063ccb4918d14610752578063d204c45e1461077d578063e985e9c5146107a6578063f2fde38b146107e3576101ee565b8063a22cb46514610668578063b88d4fde14610691578063c046372c146106ba578063c78f19f9146106ea576101ee565b80637c726b69116100dc5780637c726b69146105ac5780638da5cb5b146105d557806395d89b41146106005780639f1cabc61461062b576101ee565b80636f1a0af5146104f057806370a082311461052d57806370cbcb431461056a578063715018a614610595576101ee565b8063243adbdd1161018557806343d32ae71161015457806343d32ae7146104095780634f6ccce714610446578063615fd9e2146104835780636352211e146104b3576101ee565b8063243adbdd1461035c5780632f745c591461037857806336b536be146103b557806342842e0e146103e0576101ee565b8063095ea7b3116101c1578063095ea7b3146102c357806318160ddd146102ec57806321f422e51461031757806323b872dd14610333576101ee565b806301ffc9a7146101f357806306661abd1461023057806306fdde031461025b578063081812fc14610286575b600080fd5b3480156101ff57600080fd5b5061021a60048036038101906102159190613114565b61080c565b604051610227919061315c565b60405180910390f35b34801561023c57600080fd5b506102456108ee565b6040516102529190613190565b60405180910390f35b34801561026757600080fd5b506102706108ff565b60405161027d9190613244565b60405180910390f35b34801561029257600080fd5b506102ad60048036038101906102a89190613292565b610991565b6040516102ba9190613300565b60405180910390f35b3480156102cf57600080fd5b506102ea60048036038101906102e59190613347565b6109d7565b005b3480156102f857600080fd5b50610301610aef565b60405161030e9190613190565b60405180910390f35b610331600480360381019061032c9190613387565b610afc565b005b34801561033f57600080fd5b5061035a600480360381019061035591906133c7565b610c78565b005b61037660048036038101906103719190613292565b610cd8565b005b34801561038457600080fd5b5061039f600480360381019061039a9190613347565b610e41565b6040516103ac9190613190565b60405180910390f35b3480156103c157600080fd5b506103ca610ee6565b6040516103d7919061354b565b60405180910390f35b3480156103ec57600080fd5b50610407600480360381019061040291906133c7565b611081565b005b34801561041557600080fd5b50610430600480360381019061042b91906136a2565b6110a1565b60405161043d919061315c565b60405180910390f35b34801561045257600080fd5b5061046d60048036038101906104689190613292565b6110dd565b60405161047a9190613190565b60405180910390f35b61049d600480360381019061049891906136eb565b61114e565b6040516104aa9190613190565b60405180910390f35b3480156104bf57600080fd5b506104da60048036038101906104d59190613292565b611279565b6040516104e79190613300565b60405180910390f35b3480156104fc57600080fd5b5061051760048036038101906105129190613292565b61132b565b604051610524919061379c565b60405180910390f35b34801561053957600080fd5b50610554600480360381019061054f91906137b7565b6113dd565b6040516105619190613190565b60405180910390f35b34801561057657600080fd5b5061057f611495565b60405161058c919061354b565b60405180910390f35b3480156105a157600080fd5b506105aa6115f9565b005b3480156105b857600080fd5b506105d360048036038101906105ce9190613292565b61160d565b005b3480156105e157600080fd5b506105ea611662565b6040516105f79190613300565b60405180910390f35b34801561060c57600080fd5b5061061561168c565b6040516106229190613244565b60405180910390f35b34801561063757600080fd5b50610652600480360381019061064d91906136a2565b61171e565b60405161065f919061315c565b60405180910390f35b34801561067457600080fd5b5061068f600480360381019061068a9190613810565b611759565b005b34801561069d57600080fd5b506106b860048036038101906106b391906138f1565b61176f565b005b6106d460048036038101906106cf9190613974565b6117d1565b6040516106e19190613190565b60405180910390f35b3480156106f657600080fd5b506106ff6118e1565b60405161070c9190613190565b60405180910390f35b34801561072157600080fd5b5061073c60048036038101906107379190613292565b6118e7565b6040516107499190613244565b60405180910390f35b34801561075e57600080fd5b506107676118f9565b6040516107749190613190565b60405180910390f35b34801561078957600080fd5b506107a4600480360381019061079f91906136eb565b61190a565b005b3480156107b257600080fd5b506107cd60048036038101906107c891906139d0565b611943565b6040516107da919061315c565b60405180910390f35b3480156107ef57600080fd5b5061080a600480360381019061080591906137b7565b6119d7565b005b60007f80ac58cd000000000000000000000000000000000000000000000000000000007bffffffffffffffffffffffffffffffffffffffffffffffffffffffff1916827bffffffffffffffffffffffffffffffffffffffffffffffffffffffff191614806108d757507f5b5e139f000000000000000000000000000000000000000000000000000000007bffffffffffffffffffffffffffffffffffffffffffffffffffffffff1916827bffffffffffffffffffffffffffffffffffffffffffffffffffffffff1916145b806108e757506108e682611a5b565b5b9050919050565b60006108fa6008611ac5565b905090565b60606000805461090e90613a3f565b80601f016020809104026020016040519081016040528092919081815260200182805461093a90613a3f565b80156109875780601f1061095c57610100808354040283529160200191610987565b820191906000526020600020905b81548152906001019060200180831161096a57829003601f168201915b5050505050905090565b600061099c82611ad3565b6004600083815260200190815260200160002060009054906101000a900473ffffffffffffffffffffffffffffffffffffffff169050919050565b60006109e282611279565b90508073ffffffffffffffffffffffffffffffffffffffff168373ffffffffffffffffffffffffffffffffffffffff161415610a53576040517f08c379a0000000000000000000000000000000000000000000000000000000008152600401610a4a90613ae3565b60405180910390fd5b8073ffffffffffffffffffffffffffffffffffffffff16610a72611b1e565b73ffffffffffffffffffffffffffffffffffffffff161480610aa15750610aa081610a9b611b1e565b611943565b5b610ae0576040517f08c379a0000000000000000000000000000000000000000000000000000000008152600401610ad790613b75565b60405180910390fd5b610aea8383611b26565b505050565b6000601180549050905090565b3373ffffffffffffffffffffffffffffffffffffffff16610b1c83611279565b73ffffffffffffffffffffffffffffffffffffffff1614610b72576040517f08c379a0000000000000000000000000000000000000000000000000000000008152600401610b6990613be1565b60405180910390fd5b60001515600e600084815260200190815260200160002060020160149054906101000a900460ff16151514610bdc576040517f08c379a0000000000000000000000000000000000000000000000000000000008152600401610bd390613c4d565b60405180910390fd5b600a543414610c20576040517f08c379a0000000000000000000000000000000000000000000000000000000008152600401610c1790613cdf565b60405180910390fd5b6001600e600084815260200190815260200160002060020160146101000a81548160ff02191690831515021790555080600e600084815260200190815260200160002060010181905550610c74600b611bdf565b5050565b610c89610c83611b1e565b82611bf5565b610cc8576040517f08c379a0000000000000000000000000000000000000000000000000000000008152600401610cbf90613d71565b60405180910390fd5b610cd3838383611c8a565b505050565b6000600e60008381526020019081526020016000206001015490506000610cfe83611279565b90508073ffffffffffffffffffffffffffffffffffffffff163373ffffffffffffffffffffffffffffffffffffffff161415610d6f576040517f08c379a0000000000000000000000000000000000000000000000000000000008152600401610d6690613ddd565b60405180910390fd5b813414610db1576040517f08c379a0000000000000000000000000000000000000000000000000000000008152600401610da890613e49565b60405180910390fd5b6000600e600085815260200190815260200160002060020160146101000a81548160ff021916908315150217905550610dea600b611ef1565b610df5813385611c8a565b8073ffffffffffffffffffffffffffffffffffffffff166108fc349081150290604051600060405180830381858888f19350505050158015610e3b573d6000803e3d6000fd5b50505050565b6000610e4c836113dd565b8210610e8d576040517f08c379a0000000000000000000000000000000000000000000000000000000008152600401610e8490613eb5565b60405180910390fd5b600f60008473ffffffffffffffffffffffffffffffffffffffff1673ffffffffffffffffffffffffffffffffffffffff168152602001908152602001600020600083815260200190815260200160002054905092915050565b60606000610ef2610aef565b9050600080610f01600b611ac5565b67ffffffffffffffff811115610f1a57610f19613577565b5b604051908082528060200260200182016040528015610f5357816020015b610f40612fc5565b815260200190600190039081610f385790505b50905060005b83811015611077576000610f6c826110dd565b90506000600e60008381526020019081526020016000209050600115158160020160149054906101000a900460ff1615151415611062578060405180608001604052908160008201548152602001600182015481526020016002820160009054906101000a900473ffffffffffffffffffffffffffffffffffffffff1673ffffffffffffffffffffffffffffffffffffffff1673ffffffffffffffffffffffffffffffffffffffff1681526020016002820160149054906101000a900460ff16151515158152505084868151811061104757611046613ed5565b5b602002602001018190525060018561105f9190613f33565b94505b5050808061106f90613f89565b915050610f59565b5080935050505090565b61109c8383836040518060200160405280600081525061176f565b505050565b600060011515600d836040516110b7919061400e565b908152602001604051809103902060009054906101000a900460ff161515149050919050565b60006110e7610aef565b8210611128576040517f08c379a000000000000000000000000000000000000000000000000000000000815260040161111f90613eb5565b60405180910390fd5b6011828154811061113c5761113b613ed5565b5b90600052602060002001549050919050565b600080600983604051611161919061400e565b908152602001604051809103902060009054906101000a900460ff1660ff1614156111c1576040517f08c379a00000000000000000000000000000000000000000000000000000000081526004016111b890614071565b60405180910390fd5b6658d15e1762800034101561120b576040517f08c379a0000000000000000000000000000000000000000000000000000000008152600401611202906140dd565b60405180910390fd5b60006112176008611ac5565b90506112236008611bdf565b6001600984604051611235919061400e565b908152602001604051809103902060006101000a81548160ff021916908360ff1602179055506112658482611f4d565b61126f8184612127565b8091505092915050565b6000806002600084815260200190815260200160002060009054906101000a900473ffffffffffffffffffffffffffffffffffffffff169050600073ffffffffffffffffffffffffffffffffffffffff168173ffffffffffffffffffffffffffffffffffffffff161415611322576040517f08c379a000000000000000000000000000000000000000000000000000000000815260040161131990614149565b60405180910390fd5b80915050919050565b611333612fc5565b600e600083815260200190815260200160002060405180608001604052908160008201548152602001600182015481526020016002820160009054906101000a900473ffffffffffffffffffffffffffffffffffffffff1673ffffffffffffffffffffffffffffffffffffffff1673ffffffffffffffffffffffffffffffffffffffff1681526020016002820160149054906101000a900460ff1615151515815250509050919050565b60008073ffffffffffffffffffffffffffffffffffffffff168273ffffffffffffffffffffffffffffffffffffffff16141561144e576040517f08c379a0000000000000000000000000000000000000000000000000000000008152600401611445906141db565b60405180910390fd5b600360008373ffffffffffffffffffffffffffffffffffffffff1673ffffffffffffffffffffffffffffffffffffffff168152602001908152602001600020549050919050565b606060006114a2336113dd565b905060008167ffffffffffffffff8111156114c0576114bf613577565b5b6040519080825280602002602001820160405280156114f957816020015b6114e6612fc5565b8152602001906001900390816114de5790505b50905060005b828110156115f05760006115133383610e41565b90506000600e600083815260200190815260200160002090508060405180608001604052908160008201548152602001600182015481526020016002820160009054906101000a900473ffffffffffffffffffffffffffffffffffffffff1673ffffffffffffffffffffffffffffffffffffffff1673ffffffffffffffffffffffffffffffffffffffff1681526020016002820160149054906101000a900460ff1615151515815250508484815181106115d0576115cf613ed5565b5b6020026020010181905250505080806115e890613f89565b9150506114ff565b50809250505090565b61160161219b565b61160b6000612219565b565b61161561219b565b60008111611658576040517f08c379a000000000000000000000000000000000000000000000000000000000815260040161164f90614247565b60405180910390fd5b80600a8190555050565b6000600760009054906101000a900473ffffffffffffffffffffffffffffffffffffffff16905090565b60606001805461169b90613a3f565b80601f01602080910402602001604051908101604052809291908181526020018280546116c790613a3f565b80156117145780601f106116e957610100808354040283529160200191611714565b820191906000526020600020905b8154815290600101906020018083116116f757829003601f168201915b5050505050905090565b60006001600983604051611732919061400e565b908152602001604051809103902060009054906101000a900460ff1660ff16149050919050565b61176b611764611b1e565b83836122df565b5050565b61178061177a611b1e565b83611bf5565b6117bf576040517f08c379a00000000000000000000000000000000000000000000000000000000081526004016117b690613d71565b60405180910390fd5b6117cb8484848461244c565b50505050565b60006117dc836110a1565b1561181c576040517f08c379a0000000000000000000000000000000000000000000000000000000008152600401611813906142b3565b60405180910390fd5b600a543414611860576040517f08c379a000000000000000000000000000000000000000000000000000000000815260040161185790613cdf565b60405180910390fd5b61186a600c611bdf565b611874600b611bdf565b6000611880600c611ac5565b905061188c33826124a8565b6118968185612127565b6118a081846124c6565b6001600d856040516118b2919061400e565b908152602001604051809103902060006101000a81548160ff0219169083151502179055508091505092915050565b600a5481565b60606118f282612616565b9050919050565b6000611905600b611ac5565b905090565b61191261219b565b600061191e6008611ac5565b905061192a6008611bdf565b61193483826124a8565b61193e8183612127565b505050565b6000600560008473ffffffffffffffffffffffffffffffffffffffff1673ffffffffffffffffffffffffffffffffffffffff16815260200190815260200160002060008373ffffffffffffffffffffffffffffffffffffffff1673ffffffffffffffffffffffffffffffffffffffff16815260200190815260200160002060009054906101000a900460ff16905092915050565b6119df61219b565b600073ffffffffffffffffffffffffffffffffffffffff168173ffffffffffffffffffffffffffffffffffffffff161415611a4f576040517f08c379a0000000000000000000000000000000000000000000000000000000008152600401611a4690614345565b60405180910390fd5b611a5881612219565b50565b60007f01ffc9a7000000000000000000000000000000000000000000000000000000007bffffffffffffffffffffffffffffffffffffffffffffffffffffffff1916827bffffffffffffffffffffffffffffffffffffffffffffffffffffffff1916149050919050565b600081600001549050919050565b611adc81612729565b611b1b576040517f08c379a0000000000000000000000000000000000000000000000000000000008152600401611b1290614149565b60405180910390fd5b50565b600033905090565b816004600083815260200190815260200160002060006101000a81548173ffffffffffffffffffffffffffffffffffffffff021916908373ffffffffffffffffffffffffffffffffffffffff160217905550808273ffffffffffffffffffffffffffffffffffffffff16611b9983611279565b73ffffffffffffffffffffffffffffffffffffffff167f8c5be1e5ebec7d5bd14f71427d1e84f3dd0314c0f7b2291e5b200ac8c7c3b92560405160405180910390a45050565b6001816000016000828254019250508190555050565b600080611c0183611279565b90508073ffffffffffffffffffffffffffffffffffffffff168473ffffffffffffffffffffffffffffffffffffffff161480611c435750611c428185611943565b5b80611c8157508373ffffffffffffffffffffffffffffffffffffffff16611c6984610991565b73ffffffffffffffffffffffffffffffffffffffff16145b91505092915050565b8273ffffffffffffffffffffffffffffffffffffffff16611caa82611279565b73ffffffffffffffffffffffffffffffffffffffff1614611d00576040517f08c379a0000000000000000000000000000000000000000000000000000000008152600401611cf7906143d7565b60405180910390fd5b600073ffffffffffffffffffffffffffffffffffffffff168273ffffffffffffffffffffffffffffffffffffffff161415611d70576040517f08c379a0000000000000000000000000000000000000000000000000000000008152600401611d6790614469565b60405180910390fd5b611d7b838383612795565b611d86600082611b26565b6001600360008573ffffffffffffffffffffffffffffffffffffffff1673ffffffffffffffffffffffffffffffffffffffff1681526020019081526020016000206000828254611dd69190614489565b925050819055506001600360008473ffffffffffffffffffffffffffffffffffffffff1673ffffffffffffffffffffffffffffffffffffffff1681526020019081526020016000206000828254611e2d9190613f33565b92505081905550816002600083815260200190815260200160002060006101000a81548173ffffffffffffffffffffffffffffffffffffffff021916908373ffffffffffffffffffffffffffffffffffffffff160217905550808273ffffffffffffffffffffffffffffffffffffffff168473ffffffffffffffffffffffffffffffffffffffff167fddf252ad1be2c89b69c2b068fc378daa952ba7f163c4a11628f55a4df523b3ef60405160405180910390a4611eec8383836128a9565b505050565b60008160000154905060008111611f3d576040517f08c379a0000000000000000000000000000000000000000000000000000000008152600401611f3490614509565b60405180910390fd5b6001810382600001819055505050565b600073ffffffffffffffffffffffffffffffffffffffff168273ffffffffffffffffffffffffffffffffffffffff161415611fbd576040517f08c379a0000000000000000000000000000000000000000000000000000000008152600401611fb490614575565b60405180910390fd5b611fc681612729565b15612006576040517f08c379a0000000000000000000000000000000000000000000000000000000008152600401611ffd906145e1565b60405180910390fd5b61201260008383612795565b6001600360008473ffffffffffffffffffffffffffffffffffffffff1673ffffffffffffffffffffffffffffffffffffffff16815260200190815260200160002060008282546120629190613f33565b92505081905550816002600083815260200190815260200160002060006101000a81548173ffffffffffffffffffffffffffffffffffffffff021916908373ffffffffffffffffffffffffffffffffffffffff160217905550808273ffffffffffffffffffffffffffffffffffffffff16600073ffffffffffffffffffffffffffffffffffffffff167fddf252ad1be2c89b69c2b068fc378daa952ba7f163c4a11628f55a4df523b3ef60405160405180910390a4612123600083836128a9565b5050565b61213082612729565b61216f576040517f08c379a000000000000000000000000000000000000000000000000000000000815260040161216690614673565b60405180910390fd5b80600660008481526020019081526020016000209080519060200190612196929190613005565b505050565b6121a3611b1e565b73ffffffffffffffffffffffffffffffffffffffff166121c1611662565b73ffffffffffffffffffffffffffffffffffffffff1614612217576040517f08c379a000000000000000000000000000000000000000000000000000000000815260040161220e906146df565b60405180910390fd5b565b6000600760009054906101000a900473ffffffffffffffffffffffffffffffffffffffff16905081600760006101000a81548173ffffffffffffffffffffffffffffffffffffffff021916908373ffffffffffffffffffffffffffffffffffffffff1602179055508173ffffffffffffffffffffffffffffffffffffffff168173ffffffffffffffffffffffffffffffffffffffff167f8be0079c531659141344cd1fd0a4f28419497f9722a3daafe3b4186f6b6457e060405160405180910390a35050565b8173ffffffffffffffffffffffffffffffffffffffff168373ffffffffffffffffffffffffffffffffffffffff16141561234e576040517f08c379a00000000000000000000000000000000000000000000000000000000081526004016123459061474b565b60405180910390fd5b80600560008573ffffffffffffffffffffffffffffffffffffffff1673ffffffffffffffffffffffffffffffffffffffff16815260200190815260200160002060008473ffffffffffffffffffffffffffffffffffffffff1673ffffffffffffffffffffffffffffffffffffffff16815260200190815260200160002060006101000a81548160ff0219169083151502179055508173ffffffffffffffffffffffffffffffffffffffff168373ffffffffffffffffffffffffffffffffffffffff167f17307eab39ab6107e8899845ad3d59bd9653f200f220920489ca2b5937696c318360405161243f919061315c565b60405180910390a3505050565b612457848484611c8a565b612463848484846128ae565b6124a2576040517f08c379a0000000000000000000000000000000000000000000000000000000008152600401612499906147dd565b60405180910390fd5b50505050565b6124c2828260405180602001604052806000815250612a36565b5050565b60008111612509576040517f08c379a000000000000000000000000000000000000000000000000000000000815260040161250090614247565b60405180910390fd5b60405180608001604052808381526020018281526020013373ffffffffffffffffffffffffffffffffffffffff16815260200160011515815250600e6000848152602001908152602001600020600082015181600001556020820151816001015560408201518160020160006101000a81548173ffffffffffffffffffffffffffffffffffffffff021916908373ffffffffffffffffffffffffffffffffffffffff16021790555060608201518160020160146101000a81548160ff0219169083151502179055509050507f470031062672bc0246e132c723a729c4676710ec663a29e86c88678032daddea828233600160405161260a94939291906147fd565b60405180910390a15050565b606061262182611ad3565b600060066000848152602001908152602001600020805461264190613a3f565b80601f016020809104026020016040519081016040528092919081815260200182805461266d90613a3f565b80156126ba5780601f1061268f576101008083540402835291602001916126ba565b820191906000526020600020905b81548152906001019060200180831161269d57829003601f168201915b5050505050905060006126cb612a91565b90506000815114156126e1578192505050612724565b6000825111156127165780826040516020016126fe929190614842565b60405160208183030381529060405292505050612724565b61271f84612ace565b925050505b919050565b60008073ffffffffffffffffffffffffffffffffffffffff166002600084815260200190815260200160002060009054906101000a900473ffffffffffffffffffffffffffffffffffffffff1673ffffffffffffffffffffffffffffffffffffffff1614159050919050565b6127a0838383612b36565b600073ffffffffffffffffffffffffffffffffffffffff168373ffffffffffffffffffffffffffffffffffffffff1614156127e3576127de81612b3b565b612822565b8173ffffffffffffffffffffffffffffffffffffffff168373ffffffffffffffffffffffffffffffffffffffff1614612821576128208382612b84565b5b5b600073ffffffffffffffffffffffffffffffffffffffff168273ffffffffffffffffffffffffffffffffffffffff1614156128655761286081612cf1565b6128a4565b8273ffffffffffffffffffffffffffffffffffffffff168273ffffffffffffffffffffffffffffffffffffffff16146128a3576128a28282612dc2565b5b5b505050565b505050565b60006128cf8473ffffffffffffffffffffffffffffffffffffffff16612e41565b15612a29578373ffffffffffffffffffffffffffffffffffffffff1663150b7a026128f8611b1e565b8786866040518563ffffffff1660e01b815260040161291a94939291906148bb565b6020604051808303816000875af192505050801561295657506040513d601f19601f82011682018060405250810190612953919061491c565b60015b6129d9573d8060008114612986576040519150601f19603f3d011682016040523d82523d6000602084013e61298b565b606091505b506000815114156129d1576040517f08c379a00000000000000000000000000000000000000000000000000000000081526004016129c8906147dd565b60405180910390fd5b805181602001fd5b63150b7a0260e01b7bffffffffffffffffffffffffffffffffffffffffffffffffffffffff1916817bffffffffffffffffffffffffffffffffffffffffffffffffffffffff191614915050612a2e565b600190505b949350505050565b612a408383611f4d565b612a4d60008484846128ae565b612a8c576040517f08c379a0000000000000000000000000000000000000000000000000000000008152600401612a83906147dd565b60405180910390fd5b505050565b60606040518060400160405280600781526020017f697066733a2f2f00000000000000000000000000000000000000000000000000815250905090565b6060612ad982611ad3565b6000612ae3612a91565b90506000815111612b035760405180602001604052806000815250612b2e565b80612b0d84612e64565b604051602001612b1e929190614842565b6040516020818303038152906040525b915050919050565b505050565b6011805490506012600083815260200190815260200160002081905550601181908060018154018082558091505060019003906000526020600020016000909190919091505550565b60006001612b91846113dd565b612b9b9190614489565b9050600060106000848152602001908152602001600020549050818114612c80576000600f60008673ffffffffffffffffffffffffffffffffffffffff1673ffffffffffffffffffffffffffffffffffffffff168152602001908152602001600020600084815260200190815260200160002054905080600f60008773ffffffffffffffffffffffffffffffffffffffff1673ffffffffffffffffffffffffffffffffffffffff168152602001908152602001600020600084815260200190815260200160002081905550816010600083815260200190815260200160002081905550505b6010600084815260200190815260200160002060009055600f60008573ffffffffffffffffffffffffffffffffffffffff1673ffffffffffffffffffffffffffffffffffffffff16815260200190815260200160002060008381526020019081526020016000206000905550505050565b60006001601180549050612d059190614489565b9050600060126000848152602001908152602001600020549050600060118381548110612d3557612d34613ed5565b5b906000526020600020015490508060118381548110612d5757612d56613ed5565b5b906000526020600020018190555081601260008381526020019081526020016000208190555060126000858152602001908152602001600020600090556011805480612da657612da5614949565b5b6001900381819060005260206000200160009055905550505050565b6000612dcd836113dd565b905081600f60008573ffffffffffffffffffffffffffffffffffffffff1673ffffffffffffffffffffffffffffffffffffffff168152602001908152602001600020600083815260200190815260200160002081905550806010600084815260200190815260200160002081905550505050565b6000808273ffffffffffffffffffffffffffffffffffffffff163b119050919050565b60606000821415612eac576040518060400160405280600181526020017f30000000000000000000000000000000000000000000000000000000000000008152509050612fc0565b600082905060005b60008214612ede578080612ec790613f89565b915050600a82612ed791906149a7565b9150612eb4565b60008167ffffffffffffffff811115612efa57612ef9613577565b5b6040519080825280601f01601f191660200182016040528015612f2c5781602001600182028036833780820191505090505b5090505b60008514612fb957600182612f459190614489565b9150600a85612f5491906149d8565b6030612f609190613f33565b60f81b818381518110612f7657612f75613ed5565b5b60200101907effffffffffffffffffffffffffffffffffffffffffffffffffffffffffffff1916908160001a905350600a85612fb291906149a7565b9450612f30565b8093505050505b919050565b60405180608001604052806000815260200160008152602001600073ffffffffffffffffffffffffffffffffffffffff1681526020016000151581525090565b82805461301190613a3f565b90600052602060002090601f016020900481019282613033576000855561307a565b82601f1061304c57805160ff191683800117855561307a565b8280016001018555821561307a579182015b8281111561307957825182559160200191906001019061305e565b5b509050613087919061308b565b5090565b5b808211156130a457600081600090555060010161308c565b5090565b6000604051905090565b600080fd5b600080fd5b60007fffffffff0000000000000000000000000000000000000000000000000000000082169050919050565b6130f1816130bc565b81146130fc57600080fd5b50565b60008135905061310e816130e8565b92915050565b60006020828403121561312a576131296130b2565b5b6000613138848285016130ff565b91505092915050565b60008115159050919050565b61315681613141565b82525050565b6000602082019050613171600083018461314d565b92915050565b6000819050919050565b61318a81613177565b82525050565b60006020820190506131a56000830184613181565b92915050565b600081519050919050565b600082825260208201905092915050565b60005b838110156131e55780820151818401526020810190506131ca565b838111156131f4576000848401525b50505050565b6000601f19601f8301169050919050565b6000613216826131ab565b61322081856131b6565b93506132308185602086016131c7565b613239816131fa565b840191505092915050565b6000602082019050818103600083015261325e818461320b565b905092915050565b61326f81613177565b811461327a57600080fd5b50565b60008135905061328c81613266565b92915050565b6000602082840312156132a8576132a76130b2565b5b60006132b68482850161327d565b91505092915050565b600073ffffffffffffffffffffffffffffffffffffffff82169050919050565b60006132ea826132bf565b9050919050565b6132fa816132df565b82525050565b600060208201905061331560008301846132f1565b92915050565b613324816132df565b811461332f57600080fd5b50565b6000813590506133418161331b565b92915050565b6000806040838503121561335e5761335d6130b2565b5b600061336c85828601613332565b925050602061337d8582860161327d565b9150509250929050565b6000806040838503121561339e5761339d6130b2565b5b60006133ac8582860161327d565b92505060206133bd8582860161327d565b9150509250929050565b6000806000606084860312156133e0576133df6130b2565b5b60006133ee86828701613332565b93505060206133ff86828701613332565b92505060406134108682870161327d565b9150509250925092565b600081519050919050565b600082825260208201905092915050565b6000819050602082019050919050565b61344f81613177565b82525050565b61345e816132df565b82525050565b61346d81613141565b82525050565b6080820160008201516134896000850182613446565b50602082015161349c6020850182613446565b5060408201516134af6040850182613455565b5060608201516134c26060850182613464565b50505050565b60006134d48383613473565b60808301905092915050565b6000602082019050919050565b60006134f88261341a565b6135028185613425565b935061350d83613436565b8060005b8381101561353e57815161352588826134c8565b9750613530836134e0565b925050600181019050613511565b5085935050505092915050565b6000602082019050818103600083015261356581846134ed565b905092915050565b600080fd5b600080fd5b7f4e487b7100000000000000000000000000000000000000000000000000000000600052604160045260246000fd5b6135af826131fa565b810181811067ffffffffffffffff821117156135ce576135cd613577565b5b80604052505050565b60006135e16130a8565b90506135ed82826135a6565b919050565b600067ffffffffffffffff82111561360d5761360c613577565b5b613616826131fa565b9050602081019050919050565b82818337600083830152505050565b6000613645613640846135f2565b6135d7565b90508281526020810184848401111561366157613660613572565b5b61366c848285613623565b509392505050565b600082601f8301126136895761368861356d565b5b8135613699848260208601613632565b91505092915050565b6000602082840312156136b8576136b76130b2565b5b600082013567ffffffffffffffff8111156136d6576136d56130b7565b5b6136e284828501613674565b91505092915050565b60008060408385031215613702576137016130b2565b5b600061371085828601613332565b925050602083013567ffffffffffffffff811115613731576137306130b7565b5b61373d85828601613674565b9150509250929050565b60808201600082015161375d6000850182613446565b5060208201516137706020850182613446565b5060408201516137836040850182613455565b5060608201516137966060850182613464565b50505050565b60006080820190506137b16000830184613747565b92915050565b6000602082840312156137cd576137cc6130b2565b5b60006137db84828501613332565b91505092915050565b6137ed81613141565b81146137f857600080fd5b50565b60008135905061380a816137e4565b92915050565b60008060408385031215613827576138266130b2565b5b600061383585828601613332565b9250506020613846858286016137fb565b9150509250929050565b600067ffffffffffffffff82111561386b5761386a613577565b5b613874826131fa565b9050602081019050919050565b600061389461388f84613850565b6135d7565b9050828152602081018484840111156138b0576138af613572565b5b6138bb848285613623565b509392505050565b600082601f8301126138d8576138d761356d565b5b81356138e8848260208601613881565b91505092915050565b6000806000806080858703121561390b5761390a6130b2565b5b600061391987828801613332565b945050602061392a87828801613332565b935050604061393b8782880161327d565b925050606085013567ffffffffffffffff81111561395c5761395b6130b7565b5b613968878288016138c3565b91505092959194509250565b6000806040838503121561398b5761398a6130b2565b5b600083013567ffffffffffffffff8111156139a9576139a86130b7565b5b6139b585828601613674565b92505060206139c68582860161327d565b9150509250929050565b600080604083850312156139e7576139e66130b2565b5b60006139f585828601613332565b9250506020613a0685828601613332565b9150509250929050565b7f4e487b7100000000000000000000000000000000000000000000000000000000600052602260045260246000fd5b60006002820490506001821680613a5757607f821691505b60208210811415613a6b57613a6a613a10565b5b50919050565b7f4552433732313a20617070726f76616c20746f2063757272656e74206f776e6560008201527f7200000000000000000000000000000000000000000000000000000000000000602082015250565b6000613acd6021836131b6565b9150613ad882613a71565b604082019050919050565b60006020820190508181036000830152613afc81613ac0565b9050919050565b7f4552433732313a20617070726f76652063616c6c6572206973206e6f7420746f60008201527f6b656e206f776e6572206e6f7220617070726f76656420666f7220616c6c0000602082015250565b6000613b5f603e836131b6565b9150613b6a82613b03565b604082019050919050565b60006020820190508181036000830152613b8e81613b52565b9050919050565b7f596f7520617265206e6f74206f776e6572206f662074686973206e6674000000600082015250565b6000613bcb601d836131b6565b9150613bd682613b95565b602082019050919050565b60006020820190508181036000830152613bfa81613bbe565b9050919050565b7f4974656d20697320616c7265616479206f6e2073616c65000000000000000000600082015250565b6000613c376017836131b6565b9150613c4282613c01565b602082019050919050565b60006020820190508181036000830152613c6681613c2a565b9050919050565b7f5072696365206d75737420626520657175616c20746f206c697374696e67207060008201527f7269636500000000000000000000000000000000000000000000000000000000602082015250565b6000613cc96024836131b6565b9150613cd482613c6d565b604082019050919050565b60006020820190508181036000830152613cf881613cbc565b9050919050565b7f4552433732313a2063616c6c6572206973206e6f7420746f6b656e206f776e6560008201527f72206e6f7220617070726f766564000000000000000000000000000000000000602082015250565b6000613d5b602e836131b6565b9150613d6682613cff565b604082019050919050565b60006020820190508181036000830152613d8a81613d4e565b9050919050565b7f596f7520616c7265616479206f776e2074686973204e46540000000000000000600082015250565b6000613dc76018836131b6565b9150613dd282613d91565b602082019050919050565b60006020820190508181036000830152613df681613dba565b9050919050565b7f506c65617365207375626d6974207468652061736b696e672070726963650000600082015250565b6000613e33601e836131b6565b9150613e3e82613dfd565b602082019050919050565b60006020820190508181036000830152613e6281613e26565b9050919050565b7f496e646578206f7574206f6620626f756e647300000000000000000000000000600082015250565b6000613e9f6013836131b6565b9150613eaa82613e69565b602082019050919050565b60006020820190508181036000830152613ece81613e92565b9050919050565b7f4e487b7100000000000000000000000000000000000000000000000000000000600052603260045260246000fd5b7f4e487b7100000000000000000000000000000000000000000000000000000000600052601160045260246000fd5b6000613f3e82613177565b9150613f4983613177565b9250827fffffffffffffffffffffffffffffffffffffffffffffffffffffffffffffffff03821115613f7e57613f7d613f04565b5b828201905092915050565b6000613f9482613177565b91507fffffffffffffffffffffffffffffffffffffffffffffffffffffffffffffffff821415613fc757613fc6613f04565b5b600182019050919050565b600081905092915050565b6000613fe8826131ab565b613ff28185613fd2565b93506140028185602086016131c7565b80840191505092915050565b600061401a8284613fdd565b915081905092915050565b7f4e465420616c7265616479206d696e7465642100000000000000000000000000600082015250565b600061405b6013836131b6565b915061406682614025565b602082019050919050565b6000602082019050818103600083015261408a8161404e565b9050919050565b7f4e65656420746f20706179207570210000000000000000000000000000000000600082015250565b60006140c7600f836131b6565b91506140d282614091565b602082019050919050565b600060208201905081810360008301526140f6816140ba565b9050919050565b7f4552433732313a20696e76616c696420746f6b656e2049440000000000000000600082015250565b60006141336018836131b6565b915061413e826140fd565b602082019050919050565b6000602082019050818103600083015261416281614126565b9050919050565b7f4552433732313a2061646472657373207a65726f206973206e6f74206120766160008201527f6c6964206f776e65720000000000000000000000000000000000000000000000602082015250565b60006141c56029836131b6565b91506141d082614169565b604082019050919050565b600060208201905081810360008301526141f4816141b8565b9050919050565b7f5072696365206d757374206265206174206c6561737420312077656900000000600082015250565b6000614231601c836131b6565b915061423c826141fb565b602082019050919050565b6000602082019050818103600083015261426081614224565b9050919050565b7f546f6b656e2055524920616c7265616479206578697374730000000000000000600082015250565b600061429d6018836131b6565b91506142a882614267565b602082019050919050565b600060208201905081810360008301526142cc81614290565b9050919050565b7f4f776e61626c653a206e6577206f776e657220697320746865207a65726f206160008201527f6464726573730000000000000000000000000000000000000000000000000000602082015250565b600061432f6026836131b6565b915061433a826142d3565b604082019050919050565b6000602082019050818103600083015261435e81614322565b9050919050565b7f4552433732313a207472616e736665722066726f6d20696e636f72726563742060008201527f6f776e6572000000000000000000000000000000000000000000000000000000602082015250565b60006143c16025836131b6565b91506143cc82614365565b604082019050919050565b600060208201905081810360008301526143f0816143b4565b9050919050565b7f4552433732313a207472616e7366657220746f20746865207a65726f2061646460008201527f7265737300000000000000000000000000000000000000000000000000000000602082015250565b60006144536024836131b6565b915061445e826143f7565b604082019050919050565b6000602082019050818103600083015261448281614446565b9050919050565b600061449482613177565b915061449f83613177565b9250828210156144b2576144b1613f04565b5b828203905092915050565b7f436f756e7465723a2064656372656d656e74206f766572666c6f770000000000600082015250565b60006144f3601b836131b6565b91506144fe826144bd565b602082019050919050565b60006020820190508181036000830152614522816144e6565b9050919050565b7f4552433732313a206d696e7420746f20746865207a65726f2061646472657373600082015250565b600061455f6020836131b6565b915061456a82614529565b602082019050919050565b6000602082019050818103600083015261458e81614552565b9050919050565b7f4552433732313a20746f6b656e20616c7265616479206d696e74656400000000600082015250565b60006145cb601c836131b6565b91506145d682614595565b602082019050919050565b600060208201905081810360008301526145fa816145be565b9050919050565b7f45524337323155524953746f726167653a2055524920736574206f66206e6f6e60008201527f6578697374656e7420746f6b656e000000000000000000000000000000000000602082015250565b600061465d602e836131b6565b915061466882614601565b604082019050919050565b6000602082019050818103600083015261468c81614650565b9050919050565b7f4f776e61626c653a2063616c6c6572206973206e6f7420746865206f776e6572600082015250565b60006146c96020836131b6565b91506146d482614693565b602082019050919050565b600060208201905081810360008301526146f8816146bc565b9050919050565b7f4552433732313a20617070726f766520746f2063616c6c657200000000000000600082015250565b60006147356019836131b6565b9150614740826146ff565b602082019050919050565b6000602082019050818103600083015261476481614728565b9050919050565b7f4552433732313a207472616e7366657220746f206e6f6e20455243373231526560008201527f63656976657220696d706c656d656e7465720000000000000000000000000000602082015250565b60006147c76032836131b6565b91506147d28261476b565b604082019050919050565b600060208201905081810360008301526147f6816147ba565b9050919050565b60006080820190506148126000830187613181565b61481f6020830186613181565b61482c60408301856132f1565b614839606083018461314d565b95945050505050565b600061484e8285613fdd565b915061485a8284613fdd565b91508190509392505050565b600081519050919050565b600082825260208201905092915050565b600061488d82614866565b6148978185614871565b93506148a78185602086016131c7565b6148b0816131fa565b840191505092915050565b60006080820190506148d060008301876132f1565b6148dd60208301866132f1565b6148ea6040830185613181565b81810360608301526148fc8184614882565b905095945050505050565b600081519050614916816130e8565b92915050565b600060208284031215614932576149316130b2565b5b600061494084828501614907565b91505092915050565b7f4e487b7100000000000000000000000000000000000000000000000000000000600052603160045260246000fd5b7f4e487b7100000000000000000000000000000000000000000000000000000000600052601260045260246000fd5b60006149b282613177565b91506149bd83613177565b9250826149cd576149cc614978565b5b828204905092915050565b60006149e382613177565b91506149ee83613177565b9250826149fe576149fd614978565b5b82820690509291505056fea26469706673582212201eb349d3e7b45e67a62a8642b9e0665745b29e791cbec9d1e517580a8c045e7a64736f6c634300080b0033",
  "immutableReferences": {},
  "source": "// SPDX-License-Identifier: MIT\npragma solidity >=0.4.22 <0.9.0;\n\nimport \"../node_modules/@openzeppelin/contracts/token/ERC721/ERC721.sol\";\nimport \"../node_modules/@openzeppelin/contracts/token/ERC721/extensions/ERC721URIStorage.sol\";\nimport \"../node_modules/@openzeppelin/contracts/access/Ownable.sol\";\nimport \"../node_modules/@openzeppelin/contracts/utils/Counters.sol\";\n\ncontract NftMarket is ERC721, ERC721URIStorage, Ownable {\n    using Counters for Counters.Counter;\n\n    Counters.Counter private _tokenIdCounter;\n\n    mapping(string => uint8) existingURIs;\n\n    struct NftItem {\n        uint256 tokenId;\n        uint256 price;\n        address creator;\n        bool isListed;\n    }\n\n    uint256 public listingPrice = 0.025 ether;\n\n    Counters.Counter private _listedItems;\n    Counters.Counter private _tokenIds;\n\n    mapping(string => bool) private _usedTokenURIs;\n    mapping(uint256 => NftItem) private _idToNftItem;\n\n    mapping(address => mapping(uint256 => uint256)) private _ownedTokens;\n    mapping(uint256 => uint256) private _idToOwnedIndex;\n\n    uint256[] private _allNfts;\n    mapping(uint256 => uint256) private _idToNftIndex;\n\n    event NftItemCreated(\n        uint256 tokenId,\n        uint256 price,\n        address creator,\n        bool isListed\n    );\n\n    constructor() ERC721(\"MyNFT\", \"MNFT\") {}\n\n    function _baseURI() internal pure override returns (string memory) {\n        return \"ipfs://\";\n    }\n\n    function safeMint(address to, string memory uri) public onlyOwner {\n        uint256 tokenId = _tokenIdCounter.current();\n        _tokenIdCounter.increment();\n        _safeMint(to, tokenId);\n        _setTokenURI(tokenId, uri);\n    }\n\n    function setListingPrice(uint256 newPrice) external onlyOwner {\n        require(newPrice > 0, \"Price must be at least 1 wei\");\n        listingPrice = newPrice;\n    }\n\n    function getNftItem(uint256 tokenId) public view returns (NftItem memory) {\n        return _idToNftItem[tokenId];\n    }\n\n    function listedItemsCount() public view returns (uint256) {\n        return _listedItems.current();\n    }\n\n    function tokenURIExists(string memory tokenURI) public view returns (bool) {\n        return _usedTokenURIs[tokenURI] == true;\n    }\n\n    function totalSupply() public view returns (uint256) {\n        return _allNfts.length;\n    }\n\n    function tokenByIndex(uint256 index) public view returns (uint256) {\n        require(index < totalSupply(), \"Index out of bounds\");\n        return _allNfts[index];\n    }\n\n    function tokenOfOwnerByIndex(address owner, uint256 index)\n        public\n        view\n        returns (uint256)\n    {\n        require(index < ERC721.balanceOf(owner), \"Index out of bounds\");\n        return _ownedTokens[owner][index];\n    }\n\n    function getAllNftsOnSale() public view returns (NftItem[] memory) {\n        uint256 allItemsCounts = totalSupply();\n        uint256 currentIndex = 0;\n        NftItem[] memory items = new NftItem[](_listedItems.current());\n\n        for (uint256 i = 0; i < allItemsCounts; i++) {\n            uint256 tokenId = tokenByIndex(i);\n            NftItem storage item = _idToNftItem[tokenId];\n\n            if (item.isListed == true) {\n                items[currentIndex] = item;\n                currentIndex += 1;\n            }\n        }\n\n        return items;\n    }\n\n    function getOwnedNfts() public view returns (NftItem[] memory) {\n        uint256 ownedItemsCount = ERC721.balanceOf(msg.sender);\n        NftItem[] memory items = new NftItem[](ownedItemsCount);\n\n        for (uint256 i = 0; i < ownedItemsCount; i++) {\n            uint256 tokenId = tokenOfOwnerByIndex(msg.sender, i);\n            NftItem storage item = _idToNftItem[tokenId];\n            items[i] = item;\n        }\n\n        return items;\n    }\n\n    function mintToken(string memory tokenURI, uint256 price)\n        public\n        payable\n        returns (uint256)\n    {\n        require(!tokenURIExists(tokenURI), \"Token URI already exists\");\n        require(\n            msg.value == listingPrice,\n            \"Price must be equal to listing price\"\n        );\n\n        _tokenIds.increment();\n        _listedItems.increment();\n\n        uint256 newTokenId = _tokenIds.current();\n\n        _safeMint(msg.sender, newTokenId);\n        _setTokenURI(newTokenId, tokenURI);\n        _createNftItem(newTokenId, price);\n        _usedTokenURIs[tokenURI] = true;\n\n        return newTokenId;\n    }\n\n    function buyNft(uint256 tokenId) public payable {\n        uint256 price = _idToNftItem[tokenId].price;\n        address owner = ERC721.ownerOf(tokenId);\n\n        require(msg.sender != owner, \"You already own this NFT\");\n        require(msg.value == price, \"Please submit the asking price\");\n\n        _idToNftItem[tokenId].isListed = false;\n        _listedItems.decrement();\n\n        _transfer(owner, msg.sender, tokenId);\n        payable(owner).transfer(msg.value);\n    }\n\n    function placeNftOnSale(uint256 tokenId, uint256 newPrice) public payable {\n        require(\n            ERC721.ownerOf(tokenId) == msg.sender,\n            \"You are not owner of this nft\"\n        );\n        require(\n            _idToNftItem[tokenId].isListed == false,\n            \"Item is already on sale\"\n        );\n        require(\n            msg.value == listingPrice,\n            \"Price must be equal to listing price\"\n        );\n\n        _idToNftItem[tokenId].isListed = true;\n        _idToNftItem[tokenId].price = newPrice;\n        _listedItems.increment();\n    }\n\n    function _createNftItem(uint256 tokenId, uint256 price) private {\n        require(price > 0, \"Price must be at least 1 wei\");\n\n        _idToNftItem[tokenId] = NftItem(tokenId, price, msg.sender, true);\n\n        emit NftItemCreated(tokenId, price, msg.sender, true);\n    }\n\n    function _beforeTokenTransfer(\n        address from,\n        address to,\n        uint256 tokenId\n    ) internal virtual override {\n        super._beforeTokenTransfer(from, to, tokenId);\n\n        if (from == address(0)) {\n            _addTokenToAllTokensEnumeration(tokenId);\n        } else if (from != to) {\n            _removeTokenFromOwnerEnumeration(from, tokenId);\n        }\n\n        if (to == address(0)) {\n            _removeTokenFromAllTokensEnumeration(tokenId);\n        } else if (to != from) {\n            _addTokenToOwnerEnumeration(to, tokenId);\n        }\n    }\n\n    function _addTokenToAllTokensEnumeration(uint256 tokenId) private {\n        _idToNftIndex[tokenId] = _allNfts.length;\n        _allNfts.push(tokenId);\n    }\n\n    function _addTokenToOwnerEnumeration(address to, uint256 tokenId) private {\n        uint256 length = ERC721.balanceOf(to);\n        _ownedTokens[to][length] = tokenId;\n        _idToOwnedIndex[tokenId] = length;\n    }\n\n    function _removeTokenFromOwnerEnumeration(address from, uint256 tokenId)\n        private\n    {\n        uint256 lastTokenIndex = ERC721.balanceOf(from) - 1;\n        uint256 tokenIndex = _idToOwnedIndex[tokenId];\n\n        if (tokenIndex != lastTokenIndex) {\n            uint256 lastTokenId = _ownedTokens[from][lastTokenIndex];\n\n            _ownedTokens[from][tokenIndex] = lastTokenId;\n            _idToOwnedIndex[lastTokenId] = tokenIndex;\n        }\n\n        delete _idToOwnedIndex[tokenId];\n        delete _ownedTokens[from][lastTokenIndex];\n    }\n\n    function _removeTokenFromAllTokensEnumeration(uint256 tokenId) private {\n        uint256 lastTokenIndex = _allNfts.length - 1;\n        uint256 tokenIndex = _idToNftIndex[tokenId];\n        uint256 lastTokenId = _allNfts[lastTokenIndex];\n\n        _allNfts[tokenIndex] = lastTokenId;\n        _idToNftIndex[lastTokenId] = tokenIndex;\n\n        delete _idToNftIndex[tokenId];\n        _allNfts.pop();\n    }\n\n    // The following functions are overrides required by Solidity.\n\n    function _burn(uint256 tokenId)\n        internal\n        override(ERC721, ERC721URIStorage)\n    {\n        super._burn(tokenId);\n    }\n\n    function tokenURI(uint256 tokenId)\n        public\n        view\n        override(ERC721, ERC721URIStorage)\n        returns (string memory)\n    {\n        return super.tokenURI(tokenId);\n    }\n\n    function isContentOwned(string memory uri) public view returns (bool) {\n        return existingURIs[uri] == 1;\n    }\n\n    function payToMint(address recepient, string memory metadataURI)\n        public\n        payable\n        returns (uint256)\n    {\n        require(existingURIs[metadataURI] != 0, \"NFT already minted!\");\n        require(msg.value >= 0.025 ether, \"Need to pay up!\");\n        uint256 newItemId = _tokenIdCounter.current();\n        _tokenIdCounter.increment();\n        existingURIs[metadataURI] = 1;\n\n        _mint(recepient, newItemId);\n        _setTokenURI(newItemId, metadataURI);\n\n        return newItemId;\n    }\n\n    function count() public view returns (uint256) {\n        return _tokenIdCounter.current();\n    }\n}\n",
  "sourcePath": "/home/mohaiminuleraj/Documents/Project/NFT Project/indicium/truffle/contracts/NftMarket.sol",
  "compiler": {
    "name": "solc",
    "version": "0.8.11+commit.d7f03943.Emscripten.clang"
  },
  "schemaVersion": "3.4.5",
  "updatedAt": "2022-07-19T12:09:04.703Z",
  "networkType": "ethereum",
  "devdoc": {
    "kind": "dev",
    "methods": {
      "approve(address,uint256)": {
        "details": "See {IERC721-approve}."
      },
      "balanceOf(address)": {
        "details": "See {IERC721-balanceOf}."
      },
      "getApproved(uint256)": {
        "details": "See {IERC721-getApproved}."
      },
      "isApprovedForAll(address,address)": {
        "details": "See {IERC721-isApprovedForAll}."
      },
      "name()": {
        "details": "See {IERC721Metadata-name}."
      },
      "owner()": {
        "details": "Returns the address of the current owner."
      },
      "ownerOf(uint256)": {
        "details": "See {IERC721-ownerOf}."
      },
      "renounceOwnership()": {
        "details": "Leaves the contract without owner. It will not be possible to call `onlyOwner` functions anymore. Can only be called by the current owner. NOTE: Renouncing ownership will leave the contract without an owner, thereby removing any functionality that is only available to the owner."
      },
      "safeTransferFrom(address,address,uint256)": {
        "details": "See {IERC721-safeTransferFrom}."
      },
      "safeTransferFrom(address,address,uint256,bytes)": {
        "details": "See {IERC721-safeTransferFrom}."
      },
      "setApprovalForAll(address,bool)": {
        "details": "See {IERC721-setApprovalForAll}."
      },
      "supportsInterface(bytes4)": {
        "details": "See {IERC165-supportsInterface}."
      },
      "symbol()": {
        "details": "See {IERC721Metadata-symbol}."
      },
      "transferFrom(address,address,uint256)": {
        "details": "See {IERC721-transferFrom}."
      },
      "transferOwnership(address)": {
        "details": "Transfers ownership of the contract to a new account (`newOwner`). Can only be called by the current owner."
      }
    },
    "version": 1
  },
  "userdoc": {
    "kind": "user",
    "methods": {},
    "version": 1
  }
}