{
  "contractName": "NftMarket",
  "abi": [
    {
      "inputs": [],
      "stateMutability": "nonpayable",
      "type": "constructor"
    },
    {
      "anonymous": false,
      "inputs": [
        {
          "indexed": true,
          "internalType": "address",
          "name": "owner",
          "type": "address"
        },
        {
          "indexed": true,
          "internalType": "address",
          "name": "approved",
          "type": "address"
        },
        {
          "indexed": true,
          "internalType": "uint256",
          "name": "tokenId",
          "type": "uint256"
        }
      ],
      "name": "Approval",
      "type": "event"
    },
    {
      "anonymous": false,
      "inputs": [
        {
          "indexed": true,
          "internalType": "address",
          "name": "owner",
          "type": "address"
        },
        {
          "indexed": true,
          "internalType": "address",
          "name": "operator",
          "type": "address"
        },
        {
          "indexed": false,
          "internalType": "bool",
          "name": "approved",
          "type": "bool"
        }
      ],
      "name": "ApprovalForAll",
      "type": "event"
    },
    {
      "anonymous": false,
      "inputs": [
        {
          "indexed": false,
          "internalType": "uint256",
          "name": "tokenId",
          "type": "uint256"
        },
        {
          "indexed": false,
          "internalType": "uint256",
          "name": "price",
          "type": "uint256"
        },
        {
          "indexed": false,
          "internalType": "address",
          "name": "creator",
          "type": "address"
        },
        {
          "indexed": false,
          "internalType": "bool",
          "name": "isListed",
          "type": "bool"
        }
      ],
      "name": "NftItemCreated",
      "type": "event"
    },
    {
      "anonymous": false,
      "inputs": [
        {
          "indexed": true,
          "internalType": "address",
          "name": "previousOwner",
          "type": "address"
        },
        {
          "indexed": true,
          "internalType": "address",
          "name": "newOwner",
          "type": "address"
        }
      ],
      "name": "OwnershipTransferred",
      "type": "event"
    },
    {
      "anonymous": false,
      "inputs": [
        {
          "indexed": true,
          "internalType": "address",
          "name": "from",
          "type": "address"
        },
        {
          "indexed": true,
          "internalType": "address",
          "name": "to",
          "type": "address"
        },
        {
          "indexed": true,
          "internalType": "uint256",
          "name": "tokenId",
          "type": "uint256"
        }
      ],
      "name": "Transfer",
      "type": "event"
    },
    {
      "inputs": [
        {
          "internalType": "address",
          "name": "to",
          "type": "address"
        },
        {
          "internalType": "uint256",
          "name": "tokenId",
          "type": "uint256"
        }
      ],
      "name": "approve",
      "outputs": [],
      "stateMutability": "nonpayable",
      "type": "function"
    },
    {
      "inputs": [
        {
          "internalType": "address",
          "name": "owner",
          "type": "address"
        }
      ],
      "name": "balanceOf",
      "outputs": [
        {
          "internalType": "uint256",
          "name": "",
          "type": "uint256"
        }
      ],
      "stateMutability": "view",
      "type": "function",
      "constant": true
    },
    {
      "inputs": [
        {
          "internalType": "uint256",
          "name": "tokenId",
          "type": "uint256"
        }
      ],
      "name": "getApproved",
      "outputs": [
        {
          "internalType": "address",
          "name": "",
          "type": "address"
        }
      ],
      "stateMutability": "view",
      "type": "function",
      "constant": true
    },
    {
      "inputs": [
        {
          "internalType": "address",
          "name": "owner",
          "type": "address"
        },
        {
          "internalType": "address",
          "name": "operator",
          "type": "address"
        }
      ],
      "name": "isApprovedForAll",
      "outputs": [
        {
          "internalType": "bool",
          "name": "",
          "type": "bool"
        }
      ],
      "stateMutability": "view",
      "type": "function",
      "constant": true
    },
    {
      "inputs": [],
      "name": "listingPrice",
      "outputs": [
        {
          "internalType": "uint256",
          "name": "",
          "type": "uint256"
        }
      ],
      "stateMutability": "view",
      "type": "function",
      "constant": true
    },
    {
      "inputs": [],
      "name": "name",
      "outputs": [
        {
          "internalType": "string",
          "name": "",
          "type": "string"
        }
      ],
      "stateMutability": "view",
      "type": "function",
      "constant": true
    },
    {
      "inputs": [],
      "name": "owner",
      "outputs": [
        {
          "internalType": "address",
          "name": "",
          "type": "address"
        }
      ],
      "stateMutability": "view",
      "type": "function",
      "constant": true
    },
    {
      "inputs": [
        {
          "internalType": "uint256",
          "name": "tokenId",
          "type": "uint256"
        }
      ],
      "name": "ownerOf",
      "outputs": [
        {
          "internalType": "address",
          "name": "",
          "type": "address"
        }
      ],
      "stateMutability": "view",
      "type": "function",
      "constant": true
    },
    {
      "inputs": [],
      "name": "renounceOwnership",
      "outputs": [],
      "stateMutability": "nonpayable",
      "type": "function"
    },
    {
      "inputs": [
        {
          "internalType": "address",
          "name": "from",
          "type": "address"
        },
        {
          "internalType": "address",
          "name": "to",
          "type": "address"
        },
        {
          "internalType": "uint256",
          "name": "tokenId",
          "type": "uint256"
        }
      ],
      "name": "safeTransferFrom",
      "outputs": [],
      "stateMutability": "nonpayable",
      "type": "function"
    },
    {
      "inputs": [
        {
          "internalType": "address",
          "name": "from",
          "type": "address"
        },
        {
          "internalType": "address",
          "name": "to",
          "type": "address"
        },
        {
          "internalType": "uint256",
          "name": "tokenId",
          "type": "uint256"
        },
        {
          "internalType": "bytes",
          "name": "data",
          "type": "bytes"
        }
      ],
      "name": "safeTransferFrom",
      "outputs": [],
      "stateMutability": "nonpayable",
      "type": "function"
    },
    {
      "inputs": [
        {
          "internalType": "address",
          "name": "operator",
          "type": "address"
        },
        {
          "internalType": "bool",
          "name": "approved",
          "type": "bool"
        }
      ],
      "name": "setApprovalForAll",
      "outputs": [],
      "stateMutability": "nonpayable",
      "type": "function"
    },
    {
      "inputs": [
        {
          "internalType": "bytes4",
          "name": "interfaceId",
          "type": "bytes4"
        }
      ],
      "name": "supportsInterface",
      "outputs": [
        {
          "internalType": "bool",
          "name": "",
          "type": "bool"
        }
      ],
      "stateMutability": "view",
      "type": "function",
      "constant": true
    },
    {
      "inputs": [],
      "name": "symbol",
      "outputs": [
        {
          "internalType": "string",
          "name": "",
          "type": "string"
        }
      ],
      "stateMutability": "view",
      "type": "function",
      "constant": true
    },
    {
      "inputs": [
        {
          "internalType": "uint256",
          "name": "tokenId",
          "type": "uint256"
        }
      ],
      "name": "tokenURI",
      "outputs": [
        {
          "internalType": "string",
          "name": "",
          "type": "string"
        }
      ],
      "stateMutability": "view",
      "type": "function",
      "constant": true
    },
    {
      "inputs": [
        {
          "internalType": "address",
          "name": "from",
          "type": "address"
        },
        {
          "internalType": "address",
          "name": "to",
          "type": "address"
        },
        {
          "internalType": "uint256",
          "name": "tokenId",
          "type": "uint256"
        }
      ],
      "name": "transferFrom",
      "outputs": [],
      "stateMutability": "nonpayable",
      "type": "function"
    },
    {
      "inputs": [
        {
          "internalType": "address",
          "name": "newOwner",
          "type": "address"
        }
      ],
      "name": "transferOwnership",
      "outputs": [],
      "stateMutability": "nonpayable",
      "type": "function"
    },
    {
      "inputs": [
        {
          "internalType": "address",
          "name": "to",
          "type": "address"
        },
        {
          "internalType": "string",
          "name": "uri",
          "type": "string"
        }
      ],
      "name": "safeMint",
      "outputs": [],
      "stateMutability": "nonpayable",
      "type": "function"
    },
    {
      "inputs": [
        {
          "internalType": "uint256",
          "name": "newPrice",
          "type": "uint256"
        }
      ],
      "name": "setListingPrice",
      "outputs": [],
      "stateMutability": "nonpayable",
      "type": "function"
    },
    {
      "inputs": [
        {
          "internalType": "uint256",
          "name": "tokenId",
          "type": "uint256"
        }
      ],
      "name": "getNftItem",
      "outputs": [
        {
          "components": [
            {
              "internalType": "uint256",
              "name": "tokenId",
              "type": "uint256"
            },
            {
              "internalType": "uint256",
              "name": "price",
              "type": "uint256"
            },
            {
              "internalType": "address",
              "name": "creator",
              "type": "address"
            },
            {
              "internalType": "bool",
              "name": "isListed",
              "type": "bool"
            }
          ],
          "internalType": "struct NftMarket.NftItem",
          "name": "",
          "type": "tuple"
        }
      ],
      "stateMutability": "view",
      "type": "function",
      "constant": true
    },
    {
      "inputs": [],
      "name": "listedItemsCount",
      "outputs": [
        {
          "internalType": "uint256",
          "name": "",
          "type": "uint256"
        }
      ],
      "stateMutability": "view",
      "type": "function",
      "constant": true
    },
    {
      "inputs": [
        {
          "internalType": "string",
          "name": "tokenURI",
          "type": "string"
        }
      ],
      "name": "tokenURIExists",
      "outputs": [
        {
          "internalType": "bool",
          "name": "",
          "type": "bool"
        }
      ],
      "stateMutability": "view",
      "type": "function",
      "constant": true
    },
    {
      "inputs": [],
      "name": "totalSupply",
      "outputs": [
        {
          "internalType": "uint256",
          "name": "",
          "type": "uint256"
        }
      ],
      "stateMutability": "view",
      "type": "function",
      "constant": true
    },
    {
      "inputs": [
        {
          "internalType": "uint256",
          "name": "index",
          "type": "uint256"
        }
      ],
      "name": "tokenByIndex",
      "outputs": [
        {
          "internalType": "uint256",
          "name": "",
          "type": "uint256"
        }
      ],
      "stateMutability": "view",
      "type": "function",
      "constant": true
    },
    {
      "inputs": [
        {
          "internalType": "address",
          "name": "owner",
          "type": "address"
        },
        {
          "internalType": "uint256",
          "name": "index",
          "type": "uint256"
        }
      ],
      "name": "tokenOfOwnerByIndex",
      "outputs": [
        {
          "internalType": "uint256",
          "name": "",
          "type": "uint256"
        }
      ],
      "stateMutability": "view",
      "type": "function",
      "constant": true
    },
    {
      "inputs": [],
      "name": "getAllNftsOnSale",
      "outputs": [
        {
          "components": [
            {
              "internalType": "uint256",
              "name": "tokenId",
              "type": "uint256"
            },
            {
              "internalType": "uint256",
              "name": "price",
              "type": "uint256"
            },
            {
              "internalType": "address",
              "name": "creator",
              "type": "address"
            },
            {
              "internalType": "bool",
              "name": "isListed",
              "type": "bool"
            }
          ],
          "internalType": "struct NftMarket.NftItem[]",
          "name": "",
          "type": "tuple[]"
        }
      ],
      "stateMutability": "view",
      "type": "function",
      "constant": true
    },
    {
      "inputs": [
        {
          "internalType": "address",
          "name": "account",
          "type": "address"
        }
      ],
      "name": "getOwnedNfts",
      "outputs": [
        {
          "components": [
            {
              "internalType": "uint256",
              "name": "tokenId",
              "type": "uint256"
            },
            {
              "internalType": "uint256",
              "name": "price",
              "type": "uint256"
            },
            {
              "internalType": "address",
              "name": "creator",
              "type": "address"
            },
            {
              "internalType": "bool",
              "name": "isListed",
              "type": "bool"
            }
          ],
          "internalType": "struct NftMarket.NftItem[]",
          "name": "",
          "type": "tuple[]"
        }
      ],
      "stateMutability": "view",
      "type": "function",
      "constant": true
    },
    {
      "inputs": [
        {
          "internalType": "string",
          "name": "tokenURI",
          "type": "string"
        },
        {
          "internalType": "address",
          "name": "account",
          "type": "address"
        },
        {
          "internalType": "uint256",
          "name": "price",
          "type": "uint256"
        }
      ],
      "name": "mintToken",
      "outputs": [
        {
          "internalType": "uint256",
          "name": "",
          "type": "uint256"
        }
      ],
      "stateMutability": "payable",
      "type": "function",
      "payable": true
    },
    {
      "inputs": [
        {
          "internalType": "uint256",
          "name": "tokenId",
          "type": "uint256"
        },
        {
          "internalType": "address",
          "name": "account",
          "type": "address"
        }
      ],
      "name": "buyNft",
      "outputs": [],
      "stateMutability": "payable",
      "type": "function",
      "payable": true
    },
    {
      "inputs": [
        {
          "internalType": "uint256",
          "name": "tokenId",
          "type": "uint256"
        },
        {
          "internalType": "uint256",
          "name": "newPrice",
          "type": "uint256"
        }
      ],
      "name": "placeNftOnSale",
      "outputs": [],
      "stateMutability": "payable",
      "type": "function",
      "payable": true
    },
    {
      "inputs": [
        {
          "internalType": "string",
          "name": "uri",
          "type": "string"
        }
      ],
      "name": "isContentOwned",
      "outputs": [
        {
          "internalType": "bool",
          "name": "",
          "type": "bool"
        }
      ],
      "stateMutability": "view",
      "type": "function",
      "constant": true
    },
    {
      "inputs": [],
      "name": "count",
      "outputs": [
        {
          "internalType": "uint256",
          "name": "",
          "type": "uint256"
        }
      ],
      "stateMutability": "view",
      "type": "function",
      "constant": true
    }
  ],
  "bytecode": "0x60806040526658d15e17628000600a553480156200001c57600080fd5b506040518060400160405280600581526020017f4164656c610000000000000000000000000000000000000000000000000000008152506040518060400160405280600481526020017f4144454c000000000000000000000000000000000000000000000000000000008152508160009080519060200190620000a1929190620001b1565b508060019080519060200190620000ba929190620001b1565b505050620000dd620000d1620000e360201b60201c565b620000eb60201b60201c565b620002c6565b600033905090565b6000600760009054906101000a900473ffffffffffffffffffffffffffffffffffffffff16905081600760006101000a81548173ffffffffffffffffffffffffffffffffffffffff021916908373ffffffffffffffffffffffffffffffffffffffff1602179055508173ffffffffffffffffffffffffffffffffffffffff168173ffffffffffffffffffffffffffffffffffffffff167f8be0079c531659141344cd1fd0a4f28419497f9722a3daafe3b4186f6b6457e060405160405180910390a35050565b828054620001bf9062000290565b90600052602060002090601f016020900481019282620001e357600085556200022f565b82601f10620001fe57805160ff19168380011785556200022f565b828001600101855582156200022f579182015b828111156200022e57825182559160200191906001019062000211565b5b5090506200023e919062000242565b5090565b5b808211156200025d57600081600090555060010162000243565b5090565b7f4e487b7100000000000000000000000000000000000000000000000000000000600052602260045260246000fd5b60006002820490506001821680620002a957607f821691505b60208210811415620002c057620002bf62000261565b5b50919050565b61468380620002d66000396000f3fe6080604052600436106101e35760003560e01c8063715018a611610102578063c78f19f911610095578063cf2a916911610064578063cf2a916914610724578063d204c45e14610754578063e985e9c51461077d578063f2fde38b146107ba576101e3565b8063c78f19f914610654578063c7adece01461067f578063c87b56dd146106bc578063ccb4918d146106f9576101e3565b80639f1cabc6116100d15780639f1cabc6146105a9578063a22cb465146105e6578063b88d4fde1461060f578063bc3ad14514610638576101e3565b8063715018a6146105135780637c726b691461052a5780638da5cb5b1461055357806395d89b411461057e576101e3565b80632f745c591161017a5780634f6ccce7116101495780634f6ccce71461041f5780636352211e1461045c5780636f1a0af51461049957806370a08231146104d6576101e3565b80632f745c591461035157806336b536be1461038e57806342842e0e146103b957806343d32ae7146103e2576101e3565b8063095ea7b3116101b6578063095ea7b3146102b857806318160ddd146102e157806321f422e51461030c57806323b872dd14610328576101e3565b806301ffc9a7146101e857806306661abd1461022557806306fdde0314610250578063081812fc1461027b575b600080fd5b3480156101f457600080fd5b5061020f600480360381019061020a9190612eb5565b6107e3565b60405161021c9190612efd565b60405180910390f35b34801561023157600080fd5b5061023a6108c5565b6040516102479190612f31565b60405180910390f35b34801561025c57600080fd5b506102656108d6565b6040516102729190612fe5565b60405180910390f35b34801561028757600080fd5b506102a2600480360381019061029d9190613033565b610968565b6040516102af91906130a1565b60405180910390f35b3480156102c457600080fd5b506102df60048036038101906102da91906130e8565b6109ae565b005b3480156102ed57600080fd5b506102f6610ac6565b6040516103039190612f31565b60405180910390f35b61032660048036038101906103219190613128565b610ad3565b005b34801561033457600080fd5b5061034f600480360381019061034a9190613168565b610c4f565b005b34801561035d57600080fd5b50610378600480360381019061037391906130e8565b610caf565b6040516103859190612f31565b60405180910390f35b34801561039a57600080fd5b506103a3610d54565b6040516103b091906132ec565b60405180910390f35b3480156103c557600080fd5b506103e060048036038101906103db9190613168565b610eef565b005b3480156103ee57600080fd5b5061040960048036038101906104049190613443565b610f0f565b6040516104169190612efd565b60405180910390f35b34801561042b57600080fd5b5061044660048036038101906104419190613033565b610f4b565b6040516104539190612f31565b60405180910390f35b34801561046857600080fd5b50610483600480360381019061047e9190613033565b610fbc565b60405161049091906130a1565b60405180910390f35b3480156104a557600080fd5b506104c060048036038101906104bb9190613033565b61106e565b6040516104cd91906134e1565b60405180910390f35b3480156104e257600080fd5b506104fd60048036038101906104f891906134fc565b611120565b60405161050a9190612f31565b60405180910390f35b34801561051f57600080fd5b506105286111d8565b005b34801561053657600080fd5b50610551600480360381019061054c9190613033565b6111ec565b005b34801561055f57600080fd5b50610568611241565b60405161057591906130a1565b60405180910390f35b34801561058a57600080fd5b5061059361126b565b6040516105a09190612fe5565b60405180910390f35b3480156105b557600080fd5b506105d060048036038101906105cb9190613443565b6112fd565b6040516105dd9190612efd565b60405180910390f35b3480156105f257600080fd5b5061060d60048036038101906106089190613555565b611338565b005b34801561061b57600080fd5b5061063660048036038101906106319190613636565b61134e565b005b610652600480360381019061064d91906136b9565b6113b0565b005b34801561066057600080fd5b5061066961149f565b6040516106769190612f31565b60405180910390f35b34801561068b57600080fd5b506106a660048036038101906106a191906134fc565b6114a5565b6040516106b391906132ec565b60405180910390f35b3480156106c857600080fd5b506106e360048036038101906106de9190613033565b61160b565b6040516106f09190612fe5565b60405180910390f35b34801561070557600080fd5b5061070e61171e565b60405161071b9190612f31565b60405180910390f35b61073e600480360381019061073991906136f9565b61172f565b60405161074b9190612f31565b60405180910390f35b34801561076057600080fd5b5061077b60048036038101906107769190613768565b611840565b005b34801561078957600080fd5b506107a4600480360381019061079f91906137c4565b611879565b6040516107b19190612efd565b60405180910390f35b3480156107c657600080fd5b506107e160048036038101906107dc91906134fc565b61190d565b005b60007f80ac58cd000000000000000000000000000000000000000000000000000000007bffffffffffffffffffffffffffffffffffffffffffffffffffffffff1916827bffffffffffffffffffffffffffffffffffffffffffffffffffffffff191614806108ae57507f5b5e139f000000000000000000000000000000000000000000000000000000007bffffffffffffffffffffffffffffffffffffffffffffffffffffffff1916827bffffffffffffffffffffffffffffffffffffffffffffffffffffffff1916145b806108be57506108bd82611991565b5b9050919050565b60006108d160086119fb565b905090565b6060600080546108e590613833565b80601f016020809104026020016040519081016040528092919081815260200182805461091190613833565b801561095e5780601f106109335761010080835404028352916020019161095e565b820191906000526020600020905b81548152906001019060200180831161094157829003601f168201915b5050505050905090565b600061097382611a09565b6004600083815260200190815260200160002060009054906101000a900473ffffffffffffffffffffffffffffffffffffffff169050919050565b60006109b982610fbc565b90508073ffffffffffffffffffffffffffffffffffffffff168373ffffffffffffffffffffffffffffffffffffffff161415610a2a576040517f08c379a0000000000000000000000000000000000000000000000000000000008152600401610a21906138d7565b60405180910390fd5b8073ffffffffffffffffffffffffffffffffffffffff16610a49611a54565b73ffffffffffffffffffffffffffffffffffffffff161480610a785750610a7781610a72611a54565b611879565b5b610ab7576040517f08c379a0000000000000000000000000000000000000000000000000000000008152600401610aae90613969565b60405180910390fd5b610ac18383611a5c565b505050565b6000601180549050905090565b3373ffffffffffffffffffffffffffffffffffffffff16610af383610fbc565b73ffffffffffffffffffffffffffffffffffffffff1614610b49576040517f08c379a0000000000000000000000000000000000000000000000000000000008152600401610b40906139d5565b60405180910390fd5b60001515600e600084815260200190815260200160002060020160149054906101000a900460ff16151514610bb3576040517f08c379a0000000000000000000000000000000000000000000000000000000008152600401610baa90613a41565b60405180910390fd5b600a543414610bf7576040517f08c379a0000000000000000000000000000000000000000000000000000000008152600401610bee90613ad3565b60405180910390fd5b6001600e600084815260200190815260200160002060020160146101000a81548160ff02191690831515021790555080600e600084815260200190815260200160002060010181905550610c4b600b611b15565b5050565b610c60610c5a611a54565b82611b2b565b610c9f576040517f08c379a0000000000000000000000000000000000000000000000000000000008152600401610c9690613b65565b60405180910390fd5b610caa838383611bc0565b505050565b6000610cba83611120565b8210610cfb576040517f08c379a0000000000000000000000000000000000000000000000000000000008152600401610cf290613bd1565b60405180910390fd5b600f60008473ffffffffffffffffffffffffffffffffffffffff1673ffffffffffffffffffffffffffffffffffffffff168152602001908152602001600020600083815260200190815260200160002054905092915050565b60606000610d60610ac6565b9050600080610d6f600b6119fb565b67ffffffffffffffff811115610d8857610d87613318565b5b604051908082528060200260200182016040528015610dc157816020015b610dae612d66565b815260200190600190039081610da65790505b50905060005b83811015610ee5576000610dda82610f4b565b90506000600e60008381526020019081526020016000209050600115158160020160149054906101000a900460ff1615151415610ed0578060405180608001604052908160008201548152602001600182015481526020016002820160009054906101000a900473ffffffffffffffffffffffffffffffffffffffff1673ffffffffffffffffffffffffffffffffffffffff1673ffffffffffffffffffffffffffffffffffffffff1681526020016002820160149054906101000a900460ff161515151581525050848681518110610eb557610eb4613bf1565b5b6020026020010181905250600185610ecd9190613c4f565b94505b50508080610edd90613ca5565b915050610dc7565b5080935050505090565b610f0a8383836040518060200160405280600081525061134e565b505050565b600060011515600d83604051610f259190613d2a565b908152602001604051809103902060009054906101000a900460ff161515149050919050565b6000610f55610ac6565b8210610f96576040517f08c379a0000000000000000000000000000000000000000000000000000000008152600401610f8d90613bd1565b60405180910390fd5b60118281548110610faa57610fa9613bf1565b5b90600052602060002001549050919050565b6000806002600084815260200190815260200160002060009054906101000a900473ffffffffffffffffffffffffffffffffffffffff169050600073ffffffffffffffffffffffffffffffffffffffff168173ffffffffffffffffffffffffffffffffffffffff161415611065576040517f08c379a000000000000000000000000000000000000000000000000000000000815260040161105c90613d8d565b60405180910390fd5b80915050919050565b611076612d66565b600e600083815260200190815260200160002060405180608001604052908160008201548152602001600182015481526020016002820160009054906101000a900473ffffffffffffffffffffffffffffffffffffffff1673ffffffffffffffffffffffffffffffffffffffff1673ffffffffffffffffffffffffffffffffffffffff1681526020016002820160149054906101000a900460ff1615151515815250509050919050565b60008073ffffffffffffffffffffffffffffffffffffffff168273ffffffffffffffffffffffffffffffffffffffff161415611191576040517f08c379a000000000000000000000000000000000000000000000000000000000815260040161118890613e1f565b60405180910390fd5b600360008373ffffffffffffffffffffffffffffffffffffffff1673ffffffffffffffffffffffffffffffffffffffff168152602001908152602001600020549050919050565b6111e0611e27565b6111ea6000611ea5565b565b6111f4611e27565b60008111611237576040517f08c379a000000000000000000000000000000000000000000000000000000000815260040161122e90613e8b565b60405180910390fd5b80600a8190555050565b6000600760009054906101000a900473ffffffffffffffffffffffffffffffffffffffff16905090565b60606001805461127a90613833565b80601f01602080910402602001604051908101604052809291908181526020018280546112a690613833565b80156112f35780601f106112c8576101008083540402835291602001916112f3565b820191906000526020600020905b8154815290600101906020018083116112d657829003601f168201915b5050505050905090565b600060016009836040516113119190613d2a565b908152602001604051809103902060009054906101000a900460ff1660ff16149050919050565b61134a611343611a54565b8383611f6b565b5050565b61135f611359611a54565b83611b2b565b61139e576040517f08c379a000000000000000000000000000000000000000000000000000000000815260040161139590613b65565b60405180910390fd5b6113aa848484846120d8565b50505050565b6000600e600084815260200190815260200160002060010154905060006113d684610fbc565b90508073ffffffffffffffffffffffffffffffffffffffff168373ffffffffffffffffffffffffffffffffffffffff161415611447576040517f08c379a000000000000000000000000000000000000000000000000000000000815260040161143e90613ef7565b60405180910390fd5b611452818486611bc0565b8073ffffffffffffffffffffffffffffffffffffffff166108fc349081150290604051600060405180830381858888f19350505050158015611498573d6000803e3d6000fd5b5050505050565b600a5481565b606060006114b283611120565b905060008167ffffffffffffffff8111156114d0576114cf613318565b5b60405190808252806020026020018201604052801561150957816020015b6114f6612d66565b8152602001906001900390816114ee5790505b50905060005b828110156116005760006115238683610caf565b90506000600e600083815260200190815260200160002090508060405180608001604052908160008201548152602001600182015481526020016002820160009054906101000a900473ffffffffffffffffffffffffffffffffffffffff1673ffffffffffffffffffffffffffffffffffffffff1673ffffffffffffffffffffffffffffffffffffffff1681526020016002820160149054906101000a900460ff1615151515815250508484815181106115e0576115df613bf1565b5b6020026020010181905250505080806115f890613ca5565b91505061150f565b508092505050919050565b606061161682611a09565b600060066000848152602001908152602001600020805461163690613833565b80601f016020809104026020016040519081016040528092919081815260200182805461166290613833565b80156116af5780601f10611684576101008083540402835291602001916116af565b820191906000526020600020905b81548152906001019060200180831161169257829003601f168201915b5050505050905060006116c0612134565b90506000815114156116d6578192505050611719565b60008251111561170b5780826040516020016116f3929190613f17565b60405160208183030381529060405292505050611719565b6117148461214b565b925050505b919050565b600061172a600b6119fb565b905090565b600061173a84610f0f565b1561177a576040517f08c379a000000000000000000000000000000000000000000000000000000000815260040161177190613f87565b60405180910390fd5b600a5434146117be576040517f08c379a00000000000000000000000000000000000000000000000000000000081526004016117b590613ad3565b60405180910390fd5b6117c8600c611b15565b6117d2600b611b15565b60006117de600c6119fb565b90506117ea84826121b3565b6117f481866121d1565b6117fe8184612245565b6001600d866040516118109190613d2a565b908152602001604051809103902060006101000a81548160ff021916908315150217905550809150509392505050565b611848611e27565b600061185460086119fb565b90506118606008611b15565b61186a83826121b3565b61187481836121d1565b505050565b6000600560008473ffffffffffffffffffffffffffffffffffffffff1673ffffffffffffffffffffffffffffffffffffffff16815260200190815260200160002060008373ffffffffffffffffffffffffffffffffffffffff1673ffffffffffffffffffffffffffffffffffffffff16815260200190815260200160002060009054906101000a900460ff16905092915050565b611915611e27565b600073ffffffffffffffffffffffffffffffffffffffff168173ffffffffffffffffffffffffffffffffffffffff161415611985576040517f08c379a000000000000000000000000000000000000000000000000000000000815260040161197c90614019565b60405180910390fd5b61198e81611ea5565b50565b60007f01ffc9a7000000000000000000000000000000000000000000000000000000007bffffffffffffffffffffffffffffffffffffffffffffffffffffffff1916827bffffffffffffffffffffffffffffffffffffffffffffffffffffffff1916149050919050565b600081600001549050919050565b611a1281612395565b611a51576040517f08c379a0000000000000000000000000000000000000000000000000000000008152600401611a4890613d8d565b60405180910390fd5b50565b600033905090565b816004600083815260200190815260200160002060006101000a81548173ffffffffffffffffffffffffffffffffffffffff021916908373ffffffffffffffffffffffffffffffffffffffff160217905550808273ffffffffffffffffffffffffffffffffffffffff16611acf83610fbc565b73ffffffffffffffffffffffffffffffffffffffff167f8c5be1e5ebec7d5bd14f71427d1e84f3dd0314c0f7b2291e5b200ac8c7c3b92560405160405180910390a45050565b6001816000016000828254019250508190555050565b600080611b3783610fbc565b90508073ffffffffffffffffffffffffffffffffffffffff168473ffffffffffffffffffffffffffffffffffffffff161480611b795750611b788185611879565b5b80611bb757508373ffffffffffffffffffffffffffffffffffffffff16611b9f84610968565b73ffffffffffffffffffffffffffffffffffffffff16145b91505092915050565b8273ffffffffffffffffffffffffffffffffffffffff16611be082610fbc565b73ffffffffffffffffffffffffffffffffffffffff1614611c36576040517f08c379a0000000000000000000000000000000000000000000000000000000008152600401611c2d906140ab565b60405180910390fd5b600073ffffffffffffffffffffffffffffffffffffffff168273ffffffffffffffffffffffffffffffffffffffff161415611ca6576040517f08c379a0000000000000000000000000000000000000000000000000000000008152600401611c9d9061413d565b60405180910390fd5b611cb1838383612401565b611cbc600082611a5c565b6001600360008573ffffffffffffffffffffffffffffffffffffffff1673ffffffffffffffffffffffffffffffffffffffff1681526020019081526020016000206000828254611d0c919061415d565b925050819055506001600360008473ffffffffffffffffffffffffffffffffffffffff1673ffffffffffffffffffffffffffffffffffffffff1681526020019081526020016000206000828254611d639190613c4f565b92505081905550816002600083815260200190815260200160002060006101000a81548173ffffffffffffffffffffffffffffffffffffffff021916908373ffffffffffffffffffffffffffffffffffffffff160217905550808273ffffffffffffffffffffffffffffffffffffffff168473ffffffffffffffffffffffffffffffffffffffff167fddf252ad1be2c89b69c2b068fc378daa952ba7f163c4a11628f55a4df523b3ef60405160405180910390a4611e22838383612515565b505050565b611e2f611a54565b73ffffffffffffffffffffffffffffffffffffffff16611e4d611241565b73ffffffffffffffffffffffffffffffffffffffff1614611ea3576040517f08c379a0000000000000000000000000000000000000000000000000000000008152600401611e9a906141dd565b60405180910390fd5b565b6000600760009054906101000a900473ffffffffffffffffffffffffffffffffffffffff16905081600760006101000a81548173ffffffffffffffffffffffffffffffffffffffff021916908373ffffffffffffffffffffffffffffffffffffffff1602179055508173ffffffffffffffffffffffffffffffffffffffff168173ffffffffffffffffffffffffffffffffffffffff167f8be0079c531659141344cd1fd0a4f28419497f9722a3daafe3b4186f6b6457e060405160405180910390a35050565b8173ffffffffffffffffffffffffffffffffffffffff168373ffffffffffffffffffffffffffffffffffffffff161415611fda576040517f08c379a0000000000000000000000000000000000000000000000000000000008152600401611fd190614249565b60405180910390fd5b80600560008573ffffffffffffffffffffffffffffffffffffffff1673ffffffffffffffffffffffffffffffffffffffff16815260200190815260200160002060008473ffffffffffffffffffffffffffffffffffffffff1673ffffffffffffffffffffffffffffffffffffffff16815260200190815260200160002060006101000a81548160ff0219169083151502179055508173ffffffffffffffffffffffffffffffffffffffff168373ffffffffffffffffffffffffffffffffffffffff167f17307eab39ab6107e8899845ad3d59bd9653f200f220920489ca2b5937696c31836040516120cb9190612efd565b60405180910390a3505050565b6120e3848484611bc0565b6120ef8484848461251a565b61212e576040517f08c379a0000000000000000000000000000000000000000000000000000000008152600401612125906142db565b60405180910390fd5b50505050565b606060405180602001604052806000815250905090565b606061215682611a09565b6000612160612134565b9050600081511161218057604051806020016040528060008152506121ab565b8061218a846126a2565b60405160200161219b929190613f17565b6040516020818303038152906040525b915050919050565b6121cd828260405180602001604052806000815250612803565b5050565b6121da82612395565b612219576040517f08c379a00000000000000000000000000000000000000000000000000000000081526004016122109061436d565b60405180910390fd5b80600660008481526020019081526020016000209080519060200190612240929190612da6565b505050565b60008111612288576040517f08c379a000000000000000000000000000000000000000000000000000000000815260040161227f90613e8b565b60405180910390fd5b60405180608001604052808381526020018281526020013373ffffffffffffffffffffffffffffffffffffffff16815260200160011515815250600e6000848152602001908152602001600020600082015181600001556020820151816001015560408201518160020160006101000a81548173ffffffffffffffffffffffffffffffffffffffff021916908373ffffffffffffffffffffffffffffffffffffffff16021790555060608201518160020160146101000a81548160ff0219169083151502179055509050507f470031062672bc0246e132c723a729c4676710ec663a29e86c88678032daddea8282336001604051612389949392919061438d565b60405180910390a15050565b60008073ffffffffffffffffffffffffffffffffffffffff166002600084815260200190815260200160002060009054906101000a900473ffffffffffffffffffffffffffffffffffffffff1673ffffffffffffffffffffffffffffffffffffffff1614159050919050565b61240c83838361285e565b600073ffffffffffffffffffffffffffffffffffffffff168373ffffffffffffffffffffffffffffffffffffffff16141561244f5761244a81612863565b61248e565b8173ffffffffffffffffffffffffffffffffffffffff168373ffffffffffffffffffffffffffffffffffffffff161461248d5761248c83826128ac565b5b5b600073ffffffffffffffffffffffffffffffffffffffff168273ffffffffffffffffffffffffffffffffffffffff1614156124d1576124cc81612a19565b612510565b8273ffffffffffffffffffffffffffffffffffffffff168273ffffffffffffffffffffffffffffffffffffffff161461250f5761250e8282612aea565b5b5b505050565b505050565b600061253b8473ffffffffffffffffffffffffffffffffffffffff16612b69565b15612695578373ffffffffffffffffffffffffffffffffffffffff1663150b7a02612564611a54565b8786866040518563ffffffff1660e01b81526004016125869493929190614427565b6020604051808303816000875af19250505080156125c257506040513d601f19601f820116820180604052508101906125bf9190614488565b60015b612645573d80600081146125f2576040519150601f19603f3d011682016040523d82523d6000602084013e6125f7565b606091505b5060008151141561263d576040517f08c379a0000000000000000000000000000000000000000000000000000000008152600401612634906142db565b60405180910390fd5b805181602001fd5b63150b7a0260e01b7bffffffffffffffffffffffffffffffffffffffffffffffffffffffff1916817bffffffffffffffffffffffffffffffffffffffffffffffffffffffff19161491505061269a565b600190505b949350505050565b606060008214156126ea576040518060400160405280600181526020017f300000000000000000000000000000000000000000000000000000000000000081525090506127fe565b600082905060005b6000821461271c57808061270590613ca5565b915050600a8261271591906144e4565b91506126f2565b60008167ffffffffffffffff81111561273857612737613318565b5b6040519080825280601f01601f19166020018201604052801561276a5781602001600182028036833780820191505090505b5090505b600085146127f757600182612783919061415d565b9150600a856127929190614515565b603061279e9190613c4f565b60f81b8183815181106127b4576127b3613bf1565b5b60200101907effffffffffffffffffffffffffffffffffffffffffffffffffffffffffffff1916908160001a905350600a856127f091906144e4565b945061276e565b8093505050505b919050565b61280d8383612b8c565b61281a600084848461251a565b612859576040517f08c379a0000000000000000000000000000000000000000000000000000000008152600401612850906142db565b60405180910390fd5b505050565b505050565b6011805490506012600083815260200190815260200160002081905550601181908060018154018082558091505060019003906000526020600020016000909190919091505550565b600060016128b984611120565b6128c3919061415d565b90506000601060008481526020019081526020016000205490508181146129a8576000600f60008673ffffffffffffffffffffffffffffffffffffffff1673ffffffffffffffffffffffffffffffffffffffff168152602001908152602001600020600084815260200190815260200160002054905080600f60008773ffffffffffffffffffffffffffffffffffffffff1673ffffffffffffffffffffffffffffffffffffffff168152602001908152602001600020600084815260200190815260200160002081905550816010600083815260200190815260200160002081905550505b6010600084815260200190815260200160002060009055600f60008573ffffffffffffffffffffffffffffffffffffffff1673ffffffffffffffffffffffffffffffffffffffff16815260200190815260200160002060008381526020019081526020016000206000905550505050565b60006001601180549050612a2d919061415d565b9050600060126000848152602001908152602001600020549050600060118381548110612a5d57612a5c613bf1565b5b906000526020600020015490508060118381548110612a7f57612a7e613bf1565b5b906000526020600020018190555081601260008381526020019081526020016000208190555060126000858152602001908152602001600020600090556011805480612ace57612acd614546565b5b6001900381819060005260206000200160009055905550505050565b6000612af583611120565b905081600f60008573ffffffffffffffffffffffffffffffffffffffff1673ffffffffffffffffffffffffffffffffffffffff168152602001908152602001600020600083815260200190815260200160002081905550806010600084815260200190815260200160002081905550505050565b6000808273ffffffffffffffffffffffffffffffffffffffff163b119050919050565b600073ffffffffffffffffffffffffffffffffffffffff168273ffffffffffffffffffffffffffffffffffffffff161415612bfc576040517f08c379a0000000000000000000000000000000000000000000000000000000008152600401612bf3906145c1565b60405180910390fd5b612c0581612395565b15612c45576040517f08c379a0000000000000000000000000000000000000000000000000000000008152600401612c3c9061462d565b60405180910390fd5b612c5160008383612401565b6001600360008473ffffffffffffffffffffffffffffffffffffffff1673ffffffffffffffffffffffffffffffffffffffff1681526020019081526020016000206000828254612ca19190613c4f565b92505081905550816002600083815260200190815260200160002060006101000a81548173ffffffffffffffffffffffffffffffffffffffff021916908373ffffffffffffffffffffffffffffffffffffffff160217905550808273ffffffffffffffffffffffffffffffffffffffff16600073ffffffffffffffffffffffffffffffffffffffff167fddf252ad1be2c89b69c2b068fc378daa952ba7f163c4a11628f55a4df523b3ef60405160405180910390a4612d6260008383612515565b5050565b60405180608001604052806000815260200160008152602001600073ffffffffffffffffffffffffffffffffffffffff1681526020016000151581525090565b828054612db290613833565b90600052602060002090601f016020900481019282612dd45760008555612e1b565b82601f10612ded57805160ff1916838001178555612e1b565b82800160010185558215612e1b579182015b82811115612e1a578251825591602001919060010190612dff565b5b509050612e289190612e2c565b5090565b5b80821115612e45576000816000905550600101612e2d565b5090565b6000604051905090565b600080fd5b600080fd5b60007fffffffff0000000000000000000000000000000000000000000000000000000082169050919050565b612e9281612e5d565b8114612e9d57600080fd5b50565b600081359050612eaf81612e89565b92915050565b600060208284031215612ecb57612eca612e53565b5b6000612ed984828501612ea0565b91505092915050565b60008115159050919050565b612ef781612ee2565b82525050565b6000602082019050612f126000830184612eee565b92915050565b6000819050919050565b612f2b81612f18565b82525050565b6000602082019050612f466000830184612f22565b92915050565b600081519050919050565b600082825260208201905092915050565b60005b83811015612f86578082015181840152602081019050612f6b565b83811115612f95576000848401525b50505050565b6000601f19601f8301169050919050565b6000612fb782612f4c565b612fc18185612f57565b9350612fd1818560208601612f68565b612fda81612f9b565b840191505092915050565b60006020820190508181036000830152612fff8184612fac565b905092915050565b61301081612f18565b811461301b57600080fd5b50565b60008135905061302d81613007565b92915050565b60006020828403121561304957613048612e53565b5b60006130578482850161301e565b91505092915050565b600073ffffffffffffffffffffffffffffffffffffffff82169050919050565b600061308b82613060565b9050919050565b61309b81613080565b82525050565b60006020820190506130b66000830184613092565b92915050565b6130c581613080565b81146130d057600080fd5b50565b6000813590506130e2816130bc565b92915050565b600080604083850312156130ff576130fe612e53565b5b600061310d858286016130d3565b925050602061311e8582860161301e565b9150509250929050565b6000806040838503121561313f5761313e612e53565b5b600061314d8582860161301e565b925050602061315e8582860161301e565b9150509250929050565b60008060006060848603121561318157613180612e53565b5b600061318f868287016130d3565b93505060206131a0868287016130d3565b92505060406131b18682870161301e565b9150509250925092565b600081519050919050565b600082825260208201905092915050565b6000819050602082019050919050565b6131f081612f18565b82525050565b6131ff81613080565b82525050565b61320e81612ee2565b82525050565b60808201600082015161322a60008501826131e7565b50602082015161323d60208501826131e7565b50604082015161325060408501826131f6565b5060608201516132636060850182613205565b50505050565b60006132758383613214565b60808301905092915050565b6000602082019050919050565b6000613299826131bb565b6132a381856131c6565b93506132ae836131d7565b8060005b838110156132df5781516132c68882613269565b97506132d183613281565b9250506001810190506132b2565b5085935050505092915050565b60006020820190508181036000830152613306818461328e565b905092915050565b600080fd5b600080fd5b7f4e487b7100000000000000000000000000000000000000000000000000000000600052604160045260246000fd5b61335082612f9b565b810181811067ffffffffffffffff8211171561336f5761336e613318565b5b80604052505050565b6000613382612e49565b905061338e8282613347565b919050565b600067ffffffffffffffff8211156133ae576133ad613318565b5b6133b782612f9b565b9050602081019050919050565b82818337600083830152505050565b60006133e66133e184613393565b613378565b90508281526020810184848401111561340257613401613313565b5b61340d8482856133c4565b509392505050565b600082601f83011261342a5761342961330e565b5b813561343a8482602086016133d3565b91505092915050565b60006020828403121561345957613458612e53565b5b600082013567ffffffffffffffff81111561347757613476612e58565b5b61348384828501613415565b91505092915050565b6080820160008201516134a260008501826131e7565b5060208201516134b560208501826131e7565b5060408201516134c860408501826131f6565b5060608201516134db6060850182613205565b50505050565b60006080820190506134f6600083018461348c565b92915050565b60006020828403121561351257613511612e53565b5b6000613520848285016130d3565b91505092915050565b61353281612ee2565b811461353d57600080fd5b50565b60008135905061354f81613529565b92915050565b6000806040838503121561356c5761356b612e53565b5b600061357a858286016130d3565b925050602061358b85828601613540565b9150509250929050565b600067ffffffffffffffff8211156135b0576135af613318565b5b6135b982612f9b565b9050602081019050919050565b60006135d96135d484613595565b613378565b9050828152602081018484840111156135f5576135f4613313565b5b6136008482856133c4565b509392505050565b600082601f83011261361d5761361c61330e565b5b813561362d8482602086016135c6565b91505092915050565b600080600080608085870312156136505761364f612e53565b5b600061365e878288016130d3565b945050602061366f878288016130d3565b93505060406136808782880161301e565b925050606085013567ffffffffffffffff8111156136a1576136a0612e58565b5b6136ad87828801613608565b91505092959194509250565b600080604083850312156136d0576136cf612e53565b5b60006136de8582860161301e565b92505060206136ef858286016130d3565b9150509250929050565b60008060006060848603121561371257613711612e53565b5b600084013567ffffffffffffffff8111156137305761372f612e58565b5b61373c86828701613415565b935050602061374d868287016130d3565b925050604061375e8682870161301e565b9150509250925092565b6000806040838503121561377f5761377e612e53565b5b600061378d858286016130d3565b925050602083013567ffffffffffffffff8111156137ae576137ad612e58565b5b6137ba85828601613415565b9150509250929050565b600080604083850312156137db576137da612e53565b5b60006137e9858286016130d3565b92505060206137fa858286016130d3565b9150509250929050565b7f4e487b7100000000000000000000000000000000000000000000000000000000600052602260045260246000fd5b6000600282049050600182168061384b57607f821691505b6020821081141561385f5761385e613804565b5b50919050565b7f4552433732313a20617070726f76616c20746f2063757272656e74206f776e6560008201527f7200000000000000000000000000000000000000000000000000000000000000602082015250565b60006138c1602183612f57565b91506138cc82613865565b604082019050919050565b600060208201905081810360008301526138f0816138b4565b9050919050565b7f4552433732313a20617070726f76652063616c6c6572206973206e6f7420746f60008201527f6b656e206f776e6572206e6f7220617070726f76656420666f7220616c6c0000602082015250565b6000613953603e83612f57565b915061395e826138f7565b604082019050919050565b6000602082019050818103600083015261398281613946565b9050919050565b7f596f7520617265206e6f74206f776e6572206f662074686973206e6674000000600082015250565b60006139bf601d83612f57565b91506139ca82613989565b602082019050919050565b600060208201905081810360008301526139ee816139b2565b9050919050565b7f4974656d20697320616c7265616479206f6e2073616c65000000000000000000600082015250565b6000613a2b601783612f57565b9150613a36826139f5565b602082019050919050565b60006020820190508181036000830152613a5a81613a1e565b9050919050565b7f5072696365206d75737420626520657175616c20746f206c697374696e67207060008201527f7269636500000000000000000000000000000000000000000000000000000000602082015250565b6000613abd602483612f57565b9150613ac882613a61565b604082019050919050565b60006020820190508181036000830152613aec81613ab0565b9050919050565b7f4552433732313a2063616c6c6572206973206e6f7420746f6b656e206f776e6560008201527f72206e6f7220617070726f766564000000000000000000000000000000000000602082015250565b6000613b4f602e83612f57565b9150613b5a82613af3565b604082019050919050565b60006020820190508181036000830152613b7e81613b42565b9050919050565b7f496e646578206f7574206f6620626f756e647300000000000000000000000000600082015250565b6000613bbb601383612f57565b9150613bc682613b85565b602082019050919050565b60006020820190508181036000830152613bea81613bae565b9050919050565b7f4e487b7100000000000000000000000000000000000000000000000000000000600052603260045260246000fd5b7f4e487b7100000000000000000000000000000000000000000000000000000000600052601160045260246000fd5b6000613c5a82612f18565b9150613c6583612f18565b9250827fffffffffffffffffffffffffffffffffffffffffffffffffffffffffffffffff03821115613c9a57613c99613c20565b5b828201905092915050565b6000613cb082612f18565b91507fffffffffffffffffffffffffffffffffffffffffffffffffffffffffffffffff821415613ce357613ce2613c20565b5b600182019050919050565b600081905092915050565b6000613d0482612f4c565b613d0e8185613cee565b9350613d1e818560208601612f68565b80840191505092915050565b6000613d368284613cf9565b915081905092915050565b7f4552433732313a20696e76616c696420746f6b656e2049440000000000000000600082015250565b6000613d77601883612f57565b9150613d8282613d41565b602082019050919050565b60006020820190508181036000830152613da681613d6a565b9050919050565b7f4552433732313a2061646472657373207a65726f206973206e6f74206120766160008201527f6c6964206f776e65720000000000000000000000000000000000000000000000602082015250565b6000613e09602983612f57565b9150613e1482613dad565b604082019050919050565b60006020820190508181036000830152613e3881613dfc565b9050919050565b7f5072696365206d757374206265206174206c6561737420312077656900000000600082015250565b6000613e75601c83612f57565b9150613e8082613e3f565b602082019050919050565b60006020820190508181036000830152613ea481613e68565b9050919050565b7f596f7520616c7265616479206f776e2074686973204e46540000000000000000600082015250565b6000613ee1601883612f57565b9150613eec82613eab565b602082019050919050565b60006020820190508181036000830152613f1081613ed4565b9050919050565b6000613f238285613cf9565b9150613f2f8284613cf9565b91508190509392505050565b7f546f6b656e2055524920616c7265616479206578697374730000000000000000600082015250565b6000613f71601883612f57565b9150613f7c82613f3b565b602082019050919050565b60006020820190508181036000830152613fa081613f64565b9050919050565b7f4f776e61626c653a206e6577206f776e657220697320746865207a65726f206160008201527f6464726573730000000000000000000000000000000000000000000000000000602082015250565b6000614003602683612f57565b915061400e82613fa7565b604082019050919050565b6000602082019050818103600083015261403281613ff6565b9050919050565b7f4552433732313a207472616e736665722066726f6d20696e636f72726563742060008201527f6f776e6572000000000000000000000000000000000000000000000000000000602082015250565b6000614095602583612f57565b91506140a082614039565b604082019050919050565b600060208201905081810360008301526140c481614088565b9050919050565b7f4552433732313a207472616e7366657220746f20746865207a65726f2061646460008201527f7265737300000000000000000000000000000000000000000000000000000000602082015250565b6000614127602483612f57565b9150614132826140cb565b604082019050919050565b600060208201905081810360008301526141568161411a565b9050919050565b600061416882612f18565b915061417383612f18565b92508282101561418657614185613c20565b5b828203905092915050565b7f4f776e61626c653a2063616c6c6572206973206e6f7420746865206f776e6572600082015250565b60006141c7602083612f57565b91506141d282614191565b602082019050919050565b600060208201905081810360008301526141f6816141ba565b9050919050565b7f4552433732313a20617070726f766520746f2063616c6c657200000000000000600082015250565b6000614233601983612f57565b915061423e826141fd565b602082019050919050565b6000602082019050818103600083015261426281614226565b9050919050565b7f4552433732313a207472616e7366657220746f206e6f6e20455243373231526560008201527f63656976657220696d706c656d656e7465720000000000000000000000000000602082015250565b60006142c5603283612f57565b91506142d082614269565b604082019050919050565b600060208201905081810360008301526142f4816142b8565b9050919050565b7f45524337323155524953746f726167653a2055524920736574206f66206e6f6e60008201527f6578697374656e7420746f6b656e000000000000000000000000000000000000602082015250565b6000614357602e83612f57565b9150614362826142fb565b604082019050919050565b600060208201905081810360008301526143868161434a565b9050919050565b60006080820190506143a26000830187612f22565b6143af6020830186612f22565b6143bc6040830185613092565b6143c96060830184612eee565b95945050505050565b600081519050919050565b600082825260208201905092915050565b60006143f9826143d2565b61440381856143dd565b9350614413818560208601612f68565b61441c81612f9b565b840191505092915050565b600060808201905061443c6000830187613092565b6144496020830186613092565b6144566040830185612f22565b818103606083015261446881846143ee565b905095945050505050565b60008151905061448281612e89565b92915050565b60006020828403121561449e5761449d612e53565b5b60006144ac84828501614473565b91505092915050565b7f4e487b7100000000000000000000000000000000000000000000000000000000600052601260045260246000fd5b60006144ef82612f18565b91506144fa83612f18565b92508261450a576145096144b5565b5b828204905092915050565b600061452082612f18565b915061452b83612f18565b92508261453b5761453a6144b5565b5b828206905092915050565b7f4e487b7100000000000000000000000000000000000000000000000000000000600052603160045260246000fd5b7f4552433732313a206d696e7420746f20746865207a65726f2061646472657373600082015250565b60006145ab602083612f57565b91506145b682614575565b602082019050919050565b600060208201905081810360008301526145da8161459e565b9050919050565b7f4552433732313a20746f6b656e20616c7265616479206d696e74656400000000600082015250565b6000614617601c83612f57565b9150614622826145e1565b602082019050919050565b600060208201905081810360008301526146468161460a565b905091905056fea2646970667358221220237aa8ffc1984eb5e6655cbb654ce853ece798d7126b39b330e1c4be34c2299964736f6c634300080b0033",
  "immutableReferences": {},
  "source": "// SPDX-License-Identifier: MIT\npragma solidity >=0.4.22 <0.9.0;\n\nimport \"../node_modules/@openzeppelin/contracts/token/ERC721/ERC721.sol\";\nimport \"../node_modules/@openzeppelin/contracts/token/ERC721/extensions/ERC721URIStorage.sol\";\nimport \"../node_modules/@openzeppelin/contracts/access/Ownable.sol\";\nimport \"../node_modules/@openzeppelin/contracts/utils/Counters.sol\";\n\ncontract NftMarket is ERC721URIStorage, Ownable {\n    using Counters for Counters.Counter;\n\n    Counters.Counter private _tokenIdCounter;\n\n    mapping(string => uint8) existingURIs;\n\n    struct NftItem {\n        uint256 tokenId;\n        uint256 price;\n        address creator;\n        bool isListed;\n    }\n\n    uint256 public listingPrice = 0.025 ether;\n\n    Counters.Counter private _listedItems;\n    Counters.Counter private _tokenIds;\n\n    mapping(string => bool) private _usedTokenURIs;\n    mapping(uint256 => NftItem) private _idToNftItem;\n\n    mapping(address => mapping(uint256 => uint256)) private _ownedTokens;\n    mapping(uint256 => uint256) private _idToOwnedIndex;\n\n    uint256[] private _allNfts;\n    mapping(uint256 => uint256) private _idToNftIndex;\n\n    event NftItemCreated(\n        uint256 tokenId,\n        uint256 price,\n        address creator,\n        bool isListed\n    );\n\n    constructor() ERC721(\"Adela\", \"ADEL\") {}\n\n    // function _baseURI() internal pure override returns (string memory) {\n    //     return \"ipfs://\";\n    // }\n\n    function safeMint(address to, string memory uri) public onlyOwner {\n        uint256 tokenId = _tokenIdCounter.current();\n        _tokenIdCounter.increment();\n        _safeMint(to, tokenId);\n        _setTokenURI(tokenId, uri);\n    }\n\n    function setListingPrice(uint256 newPrice) external onlyOwner {\n        require(newPrice > 0, \"Price must be at least 1 wei\");\n        listingPrice = newPrice;\n    }\n\n    function getNftItem(uint256 tokenId) public view returns (NftItem memory) {\n        return _idToNftItem[tokenId];\n    }\n\n    function listedItemsCount() public view returns (uint256) {\n        return _listedItems.current();\n    }\n\n    function tokenURIExists(string memory tokenURI) public view returns (bool) {\n        return _usedTokenURIs[tokenURI] == true;\n    }\n\n    function totalSupply() public view returns (uint256) {\n        return _allNfts.length;\n    }\n\n    function tokenByIndex(uint256 index) public view returns (uint256) {\n        require(index < totalSupply(), \"Index out of bounds\");\n        return _allNfts[index];\n    }\n\n    function tokenOfOwnerByIndex(address owner, uint256 index)\n        public\n        view\n        returns (uint256)\n    {\n        require(index < ERC721.balanceOf(owner), \"Index out of bounds\");\n        return _ownedTokens[owner][index];\n    }\n\n    function getAllNftsOnSale() public view returns (NftItem[] memory) {\n        uint256 allItemsCounts = totalSupply();\n        uint256 currentIndex = 0;\n        NftItem[] memory items = new NftItem[](_listedItems.current());\n\n        for (uint256 i = 0; i < allItemsCounts; i++) {\n            uint256 tokenId = tokenByIndex(i);\n            NftItem storage item = _idToNftItem[tokenId];\n\n            if (item.isListed == true) {\n                items[currentIndex] = item;\n                currentIndex += 1;\n            }\n        }\n\n        return items;\n    }\n\n    function getOwnedNfts(address account)\n        public\n        view\n        returns (NftItem[] memory)\n    {\n        uint256 ownedItemsCount = ERC721.balanceOf(account);\n        // uint256 ownedItemsCount = ERC721.balanceOf(msg.sender);\n        NftItem[] memory items = new NftItem[](ownedItemsCount);\n\n        for (uint256 i = 0; i < ownedItemsCount; i++) {\n            uint256 tokenId = tokenOfOwnerByIndex(account, i);\n            // uint256 tokenId = tokenOfOwnerByIndex(msg.sender, i);\n            NftItem storage item = _idToNftItem[tokenId];\n            items[i] = item;\n        }\n\n        return items;\n    }\n\n    function mintToken(\n        string memory tokenURI,\n        address account,\n        uint256 price\n    ) public payable returns (uint256) {\n        require(!tokenURIExists(tokenURI), \"Token URI already exists\");\n        require(\n            msg.value == listingPrice,\n            \"Price must be equal to listing price\"\n        );\n\n        _tokenIds.increment();\n        _listedItems.increment();\n\n        uint256 newTokenId = _tokenIds.current();\n\n        _safeMint(account, newTokenId);\n        // _safeMint(msg.sender, newTokenId);\n        _setTokenURI(newTokenId, tokenURI);\n        _createNftItem(newTokenId, price);\n        _usedTokenURIs[tokenURI] = true;\n\n        return newTokenId;\n    }\n\n    function buyNft(uint256 tokenId, address account) public payable {\n        uint256 price = _idToNftItem[tokenId].price;\n        address owner = ERC721.ownerOf(tokenId);\n\n        require(account != owner, \"You already own this NFT\");\n        // require(msg.sender != owner, \"You already own this NFT\");\n        // require(msg.value == price, \"Please submit the asking price\");\n\n        // _idToNftItem[tokenId].isListed = false;\n        // _listedItems.decrement();\n\n        _transfer(owner, account, tokenId);\n        // _transfer(owner, msg.sender, tokenId);\n        payable(owner).transfer(msg.value);\n    }\n\n    function placeNftOnSale(uint256 tokenId, uint256 newPrice) public payable {\n        require(\n            ERC721.ownerOf(tokenId) == msg.sender,\n            \"You are not owner of this nft\"\n        );\n        require(\n            _idToNftItem[tokenId].isListed == false,\n            \"Item is already on sale\"\n        );\n        require(\n            msg.value == listingPrice,\n            \"Price must be equal to listing price\"\n        );\n\n        _idToNftItem[tokenId].isListed = true;\n        _idToNftItem[tokenId].price = newPrice;\n        _listedItems.increment();\n    }\n\n    function _createNftItem(uint256 tokenId, uint256 price) private {\n        require(price > 0, \"Price must be at least 1 wei\");\n\n        _idToNftItem[tokenId] = NftItem(tokenId, price, msg.sender, true);\n\n        emit NftItemCreated(tokenId, price, msg.sender, true);\n    }\n\n    function _beforeTokenTransfer(\n        address from,\n        address to,\n        uint256 tokenId\n    ) internal virtual override {\n        super._beforeTokenTransfer(from, to, tokenId);\n\n        if (from == address(0)) {\n            _addTokenToAllTokensEnumeration(tokenId);\n        } else if (from != to) {\n            _removeTokenFromOwnerEnumeration(from, tokenId);\n        }\n\n        if (to == address(0)) {\n            _removeTokenFromAllTokensEnumeration(tokenId);\n        } else if (to != from) {\n            _addTokenToOwnerEnumeration(to, tokenId);\n        }\n    }\n\n    function _addTokenToAllTokensEnumeration(uint256 tokenId) private {\n        _idToNftIndex[tokenId] = _allNfts.length;\n        _allNfts.push(tokenId);\n    }\n\n    function _addTokenToOwnerEnumeration(address to, uint256 tokenId) private {\n        uint256 length = ERC721.balanceOf(to);\n        _ownedTokens[to][length] = tokenId;\n        _idToOwnedIndex[tokenId] = length;\n    }\n\n    function _removeTokenFromOwnerEnumeration(address from, uint256 tokenId)\n        private\n    {\n        uint256 lastTokenIndex = ERC721.balanceOf(from) - 1;\n        uint256 tokenIndex = _idToOwnedIndex[tokenId];\n\n        if (tokenIndex != lastTokenIndex) {\n            uint256 lastTokenId = _ownedTokens[from][lastTokenIndex];\n\n            _ownedTokens[from][tokenIndex] = lastTokenId;\n            _idToOwnedIndex[lastTokenId] = tokenIndex;\n        }\n\n        delete _idToOwnedIndex[tokenId];\n        delete _ownedTokens[from][lastTokenIndex];\n    }\n\n    function _removeTokenFromAllTokensEnumeration(uint256 tokenId) private {\n        uint256 lastTokenIndex = _allNfts.length - 1;\n        uint256 tokenIndex = _idToNftIndex[tokenId];\n        uint256 lastTokenId = _allNfts[lastTokenIndex];\n\n        _allNfts[tokenIndex] = lastTokenId;\n        _idToNftIndex[lastTokenId] = tokenIndex;\n\n        delete _idToNftIndex[tokenId];\n        _allNfts.pop();\n    }\n\n    // The following functions are overrides required by Solidity.\n\n    // function _burn(uint256 tokenId)\n    //     internal\n    //     override(ERC721, ERC721URIStorage)\n    // {\n    //     super._burn(tokenId);\n    // }\n\n    // function tokenURI(uint256 tokenId)\n    //     public\n    //     view\n    //     override(ERC721, ERC721URIStorage)\n    //     returns (string memory)\n    // {\n    //     return super.tokenURI(tokenId);\n    // }\n\n    function isContentOwned(string memory uri) public view returns (bool) {\n        return existingURIs[uri] == 1;\n    }\n\n    // function payToMint(address recepient, string memory metadataURI)\n    //     public\n    //     payable\n    //     returns (uint256)\n    // {\n    //     require(existingURIs[metadataURI] != 0, \"NFT already minted!\");\n    //     require(msg.value >= 0.025 ether, \"Need to pay up!\");\n    //     uint256 newItemId = _tokenIdCounter.current();\n    //     _tokenIdCounter.increment();\n    //     existingURIs[metadataURI] = 1;\n\n    //     _mint(recepient, newItemId);\n    //     _setTokenURI(newItemId, metadataURI);\n\n    //     return newItemId;\n    // }\n\n    function count() public view returns (uint256) {\n        return _tokenIdCounter.current();\n    }\n}\n",
  "sourcePath": "/home/mohaiminuleraj/Documents/Project/NFT Project/indicium/truffle/contracts/NftMarket.sol",
  "compiler": {
    "name": "solc",
    "version": "0.8.11+commit.d7f03943.Emscripten.clang"
  },
  "schemaVersion": "3.4.5",
  "updatedAt": "2022-07-30T21:06:53.314Z",
  "networkType": "ethereum",
  "devdoc": {
    "kind": "dev",
    "methods": {
      "approve(address,uint256)": {
        "details": "See {IERC721-approve}."
      },
      "balanceOf(address)": {
        "details": "See {IERC721-balanceOf}."
      },
      "getApproved(uint256)": {
        "details": "See {IERC721-getApproved}."
      },
      "isApprovedForAll(address,address)": {
        "details": "See {IERC721-isApprovedForAll}."
      },
      "name()": {
        "details": "See {IERC721Metadata-name}."
      },
      "owner()": {
        "details": "Returns the address of the current owner."
      },
      "ownerOf(uint256)": {
        "details": "See {IERC721-ownerOf}."
      },
      "renounceOwnership()": {
        "details": "Leaves the contract without owner. It will not be possible to call `onlyOwner` functions anymore. Can only be called by the current owner. NOTE: Renouncing ownership will leave the contract without an owner, thereby removing any functionality that is only available to the owner."
      },
      "safeTransferFrom(address,address,uint256)": {
        "details": "See {IERC721-safeTransferFrom}."
      },
      "safeTransferFrom(address,address,uint256,bytes)": {
        "details": "See {IERC721-safeTransferFrom}."
      },
      "setApprovalForAll(address,bool)": {
        "details": "See {IERC721-setApprovalForAll}."
      },
      "supportsInterface(bytes4)": {
        "details": "See {IERC165-supportsInterface}."
      },
      "symbol()": {
        "details": "See {IERC721Metadata-symbol}."
      },
      "tokenURI(uint256)": {
        "details": "See {IERC721Metadata-tokenURI}."
      },
      "transferFrom(address,address,uint256)": {
        "details": "See {IERC721-transferFrom}."
      },
      "transferOwnership(address)": {
        "details": "Transfers ownership of the contract to a new account (`newOwner`). Can only be called by the current owner."
      }
    },
    "version": 1
  },
  "userdoc": {
    "kind": "user",
    "methods": {},
    "version": 1
  }
}